{
	"remix_accounts.sol": {
		"TestsAccounts": {
			"abi": [
				{
					"inputs": [
						{
							"internalType": "uint256",
							"name": "index",
							"type": "uint256"
						}
					],
					"name": "getAccount",
					"outputs": [
						{
							"internalType": "address",
							"name": "",
							"type": "address"
						}
					],
					"stateMutability": "pure",
					"type": "function"
				}
			],
			"devdoc": {
				"kind": "dev",
				"methods": {},
				"version": 1
			},
			"evm": {
				"assembly": "    /* \"remix_accounts.sol\":71:1159  library TestsAccounts {... */\n  dataSize(sub_0)\n  dataOffset(sub_0)\n  0x0b\n  dup3\n  dup3\n  dup3\n  codecopy\n  dup1\n  mload\n  0x00\n  byte\n  0x73\n  eq\n  tag_1\n  jumpi\n  invalid\ntag_1:\n  mstore(0x00, address)\n  0x73\n  dup2\n  mstore8\n  dup3\n  dup2\n  return\nstop\n\nsub_0: assembly {\n        /* \"remix_accounts.sol\":71:1159  library TestsAccounts {... */\n      eq(address, deployTimeAddress())\n      mstore(0x40, 0x80)\n      jumpi(tag_1, lt(calldatasize, 0x04))\n      shr(0xe0, calldataload(0x00))\n      dup1\n      0xce88b145\n      eq\n      tag_2\n      jumpi\n    tag_1:\n      0x00\n      dup1\n      revert\n        /* \"remix_accounts.sol\":99:1157  function getAccount(uint index) pure public returns (address) {... */\n    tag_2:\n      tag_3\n      0x04\n      dup1\n      calldatasize\n      sub\n      0x20\n      dup2\n      lt\n      iszero\n      tag_4\n      jumpi\n      0x00\n      dup1\n      revert\n    tag_4:\n      dup2\n      add\n      swap1\n      dup1\n      dup1\n      calldataload\n      swap1\n      0x20\n      add\n      swap1\n      swap3\n      swap2\n      swap1\n      pop\n      pop\n      pop\n      tag_5\n      jump\t// in\n    tag_3:\n      mload(0x40)\n      dup1\n      dup3\n      0xffffffffffffffffffffffffffffffffffffffff\n      and\n      dup2\n      mstore\n      0x20\n      add\n      swap2\n      pop\n      pop\n      mload(0x40)\n      dup1\n      swap2\n      sub\n      swap1\n      return\n    tag_5:\n        /* \"remix_accounts.sol\":152:159  address */\n      0x00\n        /* \"remix_accounts.sol\":171:198  address[15] memory accounts */\n      tag_7\n      tag_8\n      jump\t// in\n    tag_7:\n        /* \"remix_accounts.sol\":216:258  0x5B38Da6a701c568545dCfcB03FcB875f56beddC4 */\n      0x5b38da6a701c568545dcfcb03fcb875f56beddc4\n        /* \"remix_accounts.sol\":202:210  accounts */\n      dup2\n        /* \"remix_accounts.sol\":211:212  0 */\n      0x00\n        /* \"remix_accounts.sol\":202:213  accounts[0] */\n      0x0f\n      dup2\n      lt\n      tag_9\n      jumpi\n      invalid\n    tag_9:\n      0x20\n      mul\n      add\n        /* \"remix_accounts.sol\":202:258  accounts[0] = 0x5B38Da6a701c568545dCfcB03FcB875f56beddC4 */\n      swap1\n      0xffffffffffffffffffffffffffffffffffffffff\n      and\n      swap1\n      dup2\n      0xffffffffffffffffffffffffffffffffffffffff\n      and\n      dup2\n      mstore\n      pop\n      pop\n        /* \"remix_accounts.sol\":277:319  0xAb8483F64d9C6d1EcF9b849Ae677dD3315835cb2 */\n      0xab8483f64d9c6d1ecf9b849ae677dd3315835cb2\n        /* \"remix_accounts.sol\":263:271  accounts */\n      dup2\n        /* \"remix_accounts.sol\":272:273  1 */\n      0x01\n        /* \"remix_accounts.sol\":263:274  accounts[1] */\n      0x0f\n      dup2\n      lt\n      tag_10\n      jumpi\n      invalid\n    tag_10:\n      0x20\n      mul\n      add\n        /* \"remix_accounts.sol\":263:319  accounts[1] = 0xAb8483F64d9C6d1EcF9b849Ae677dD3315835cb2 */\n      swap1\n      0xffffffffffffffffffffffffffffffffffffffff\n      and\n      swap1\n      dup2\n      0xffffffffffffffffffffffffffffffffffffffff\n      and\n      dup2\n      mstore\n      pop\n      pop\n        /* \"remix_accounts.sol\":338:380  0x4B20993Bc481177ec7E8f571ceCaE8A9e22C02db */\n      0x4b20993bc481177ec7e8f571cecae8a9e22c02db\n        /* \"remix_accounts.sol\":324:332  accounts */\n      dup2\n        /* \"remix_accounts.sol\":333:334  2 */\n      0x02\n        /* \"remix_accounts.sol\":324:335  accounts[2] */\n      0x0f\n      dup2\n      lt\n      tag_11\n      jumpi\n      invalid\n    tag_11:\n      0x20\n      mul\n      add\n        /* \"remix_accounts.sol\":324:380  accounts[2] = 0x4B20993Bc481177ec7E8f571ceCaE8A9e22C02db */\n      swap1\n      0xffffffffffffffffffffffffffffffffffffffff\n      and\n      swap1\n      dup2\n      0xffffffffffffffffffffffffffffffffffffffff\n      and\n      dup2\n      mstore\n      pop\n      pop\n        /* \"remix_accounts.sol\":399:441  0x78731D3Ca6b7E34aC0F824c42a7cC18A495cabaB */\n      0x78731d3ca6b7e34ac0f824c42a7cc18a495cabab\n        /* \"remix_accounts.sol\":385:393  accounts */\n      dup2\n        /* \"remix_accounts.sol\":394:395  3 */\n      0x03\n        /* \"remix_accounts.sol\":385:396  accounts[3] */\n      0x0f\n      dup2\n      lt\n      tag_12\n      jumpi\n      invalid\n    tag_12:\n      0x20\n      mul\n      add\n        /* \"remix_accounts.sol\":385:441  accounts[3] = 0x78731D3Ca6b7E34aC0F824c42a7cC18A495cabaB */\n      swap1\n      0xffffffffffffffffffffffffffffffffffffffff\n      and\n      swap1\n      dup2\n      0xffffffffffffffffffffffffffffffffffffffff\n      and\n      dup2\n      mstore\n      pop\n      pop\n        /* \"remix_accounts.sol\":460:502  0x617F2E2fD72FD9D5503197092aC168c91465E7f2 */\n      0x617f2e2fd72fd9d5503197092ac168c91465e7f2\n        /* \"remix_accounts.sol\":446:454  accounts */\n      dup2\n        /* \"remix_accounts.sol\":455:456  4 */\n      0x04\n        /* \"remix_accounts.sol\":446:457  accounts[4] */\n      0x0f\n      dup2\n      lt\n      tag_13\n      jumpi\n      invalid\n    tag_13:\n      0x20\n      mul\n      add\n        /* \"remix_accounts.sol\":446:502  accounts[4] = 0x617F2E2fD72FD9D5503197092aC168c91465E7f2 */\n      swap1\n      0xffffffffffffffffffffffffffffffffffffffff\n      and\n      swap1\n      dup2\n      0xffffffffffffffffffffffffffffffffffffffff\n      and\n      dup2\n      mstore\n      pop\n      pop\n        /* \"remix_accounts.sol\":521:563  0x17F6AD8Ef982297579C203069C1DbfFE4348c372 */\n      0x17f6ad8ef982297579c203069c1dbffe4348c372\n        /* \"remix_accounts.sol\":507:515  accounts */\n      dup2\n        /* \"remix_accounts.sol\":516:517  5 */\n      0x05\n        /* \"remix_accounts.sol\":507:518  accounts[5] */\n      0x0f\n      dup2\n      lt\n      tag_14\n      jumpi\n      invalid\n    tag_14:\n      0x20\n      mul\n      add\n        /* \"remix_accounts.sol\":507:563  accounts[5] = 0x17F6AD8Ef982297579C203069C1DbfFE4348c372 */\n      swap1\n      0xffffffffffffffffffffffffffffffffffffffff\n      and\n      swap1\n      dup2\n      0xffffffffffffffffffffffffffffffffffffffff\n      and\n      dup2\n      mstore\n      pop\n      pop\n        /* \"remix_accounts.sol\":582:624  0x5c6B0f7Bf3E7ce046039Bd8FABdfD3f9F5021678 */\n      0x5c6b0f7bf3e7ce046039bd8fabdfd3f9f5021678\n        /* \"remix_accounts.sol\":568:576  accounts */\n      dup2\n        /* \"remix_accounts.sol\":577:578  6 */\n      0x06\n        /* \"remix_accounts.sol\":568:579  accounts[6] */\n      0x0f\n      dup2\n      lt\n      tag_15\n      jumpi\n      invalid\n    tag_15:\n      0x20\n      mul\n      add\n        /* \"remix_accounts.sol\":568:624  accounts[6] = 0x5c6B0f7Bf3E7ce046039Bd8FABdfD3f9F5021678 */\n      swap1\n      0xffffffffffffffffffffffffffffffffffffffff\n      and\n      swap1\n      dup2\n      0xffffffffffffffffffffffffffffffffffffffff\n      and\n      dup2\n      mstore\n      pop\n      pop\n        /* \"remix_accounts.sol\":643:685  0x03C6FcED478cBbC9a4FAB34eF9f40767739D1Ff7 */\n      0x03c6fced478cbbc9a4fab34ef9f40767739d1ff7\n        /* \"remix_accounts.sol\":629:637  accounts */\n      dup2\n        /* \"remix_accounts.sol\":638:639  7 */\n      0x07\n        /* \"remix_accounts.sol\":629:640  accounts[7] */\n      0x0f\n      dup2\n      lt\n      tag_16\n      jumpi\n      invalid\n    tag_16:\n      0x20\n      mul\n      add\n        /* \"remix_accounts.sol\":629:685  accounts[7] = 0x03C6FcED478cBbC9a4FAB34eF9f40767739D1Ff7 */\n      swap1\n      0xffffffffffffffffffffffffffffffffffffffff\n      and\n      swap1\n      dup2\n      0xffffffffffffffffffffffffffffffffffffffff\n      and\n      dup2\n      mstore\n      pop\n      pop\n        /* \"remix_accounts.sol\":704:746  0x1aE0EA34a72D944a8C7603FfB3eC30a6669E454C */\n      0x1ae0ea34a72d944a8c7603ffb3ec30a6669e454c\n        /* \"remix_accounts.sol\":690:698  accounts */\n      dup2\n        /* \"remix_accounts.sol\":699:700  8 */\n      0x08\n        /* \"remix_accounts.sol\":690:701  accounts[8] */\n      0x0f\n      dup2\n      lt\n      tag_17\n      jumpi\n      invalid\n    tag_17:\n      0x20\n      mul\n      add\n        /* \"remix_accounts.sol\":690:746  accounts[8] = 0x1aE0EA34a72D944a8C7603FfB3eC30a6669E454C */\n      swap1\n      0xffffffffffffffffffffffffffffffffffffffff\n      and\n      swap1\n      dup2\n      0xffffffffffffffffffffffffffffffffffffffff\n      and\n      dup2\n      mstore\n      pop\n      pop\n        /* \"remix_accounts.sol\":765:807  0x0A098Eda01Ce92ff4A4CCb7A4fFFb5A43EBC70DC */\n      0x0a098eda01ce92ff4a4ccb7a4fffb5a43ebc70dc\n        /* \"remix_accounts.sol\":751:759  accounts */\n      dup2\n        /* \"remix_accounts.sol\":760:761  9 */\n      0x09\n        /* \"remix_accounts.sol\":751:762  accounts[9] */\n      0x0f\n      dup2\n      lt\n      tag_18\n      jumpi\n      invalid\n    tag_18:\n      0x20\n      mul\n      add\n        /* \"remix_accounts.sol\":751:807  accounts[9] = 0x0A098Eda01Ce92ff4A4CCb7A4fFFb5A43EBC70DC */\n      swap1\n      0xffffffffffffffffffffffffffffffffffffffff\n      and\n      swap1\n      dup2\n      0xffffffffffffffffffffffffffffffffffffffff\n      and\n      dup2\n      mstore\n      pop\n      pop\n        /* \"remix_accounts.sol\":827:869  0xCA35b7d915458EF540aDe6068dFe2F44E8fa733c */\n      0xca35b7d915458ef540ade6068dfe2f44e8fa733c\n        /* \"remix_accounts.sol\":812:820  accounts */\n      dup2\n        /* \"remix_accounts.sol\":821:823  10 */\n      0x0a\n        /* \"remix_accounts.sol\":812:824  accounts[10] */\n      0x0f\n      dup2\n      lt\n      tag_19\n      jumpi\n      invalid\n    tag_19:\n      0x20\n      mul\n      add\n        /* \"remix_accounts.sol\":812:869  accounts[10] = 0xCA35b7d915458EF540aDe6068dFe2F44E8fa733c */\n      swap1\n      0xffffffffffffffffffffffffffffffffffffffff\n      and\n      swap1\n      dup2\n      0xffffffffffffffffffffffffffffffffffffffff\n      and\n      dup2\n      mstore\n      pop\n      pop\n        /* \"remix_accounts.sol\":889:931  0x14723A09ACff6D2A60DcdF7aA4AFf308FDDC160C */\n      0x14723a09acff6d2a60dcdf7aa4aff308fddc160c\n        /* \"remix_accounts.sol\":874:882  accounts */\n      dup2\n        /* \"remix_accounts.sol\":883:885  11 */\n      0x0b\n        /* \"remix_accounts.sol\":874:886  accounts[11] */\n      0x0f\n      dup2\n      lt\n      tag_20\n      jumpi\n      invalid\n    tag_20:\n      0x20\n      mul\n      add\n        /* \"remix_accounts.sol\":874:931  accounts[11] = 0x14723A09ACff6D2A60DcdF7aA4AFf308FDDC160C */\n      swap1\n      0xffffffffffffffffffffffffffffffffffffffff\n      and\n      swap1\n      dup2\n      0xffffffffffffffffffffffffffffffffffffffff\n      and\n      dup2\n      mstore\n      pop\n      pop\n        /* \"remix_accounts.sol\":951:993  0x4B0897b0513fdC7C541B6d9D7E929C4e5364D2dB */\n      0x4b0897b0513fdc7c541b6d9d7e929c4e5364d2db\n        /* \"remix_accounts.sol\":936:944  accounts */\n      dup2\n        /* \"remix_accounts.sol\":945:947  12 */\n      0x0c\n        /* \"remix_accounts.sol\":936:948  accounts[12] */\n      0x0f\n      dup2\n      lt\n      tag_21\n      jumpi\n      invalid\n    tag_21:\n      0x20\n      mul\n      add\n        /* \"remix_accounts.sol\":936:993  accounts[12] = 0x4B0897b0513fdC7C541B6d9D7E929C4e5364D2dB */\n      swap1\n      0xffffffffffffffffffffffffffffffffffffffff\n      and\n      swap1\n      dup2\n      0xffffffffffffffffffffffffffffffffffffffff\n      and\n      dup2\n      mstore\n      pop\n      pop\n        /* \"remix_accounts.sol\":1013:1055  0x583031D1113aD414F02576BD6afaBfb302140225 */\n      0x583031d1113ad414f02576bd6afabfb302140225\n        /* \"remix_accounts.sol\":998:1006  accounts */\n      dup2\n        /* \"remix_accounts.sol\":1007:1009  13 */\n      0x0d\n        /* \"remix_accounts.sol\":998:1010  accounts[13] */\n      0x0f\n      dup2\n      lt\n      tag_22\n      jumpi\n      invalid\n    tag_22:\n      0x20\n      mul\n      add\n        /* \"remix_accounts.sol\":998:1055  accounts[13] = 0x583031D1113aD414F02576BD6afaBfb302140225 */\n      swap1\n      0xffffffffffffffffffffffffffffffffffffffff\n      and\n      swap1\n      dup2\n      0xffffffffffffffffffffffffffffffffffffffff\n      and\n      dup2\n      mstore\n      pop\n      pop\n        /* \"remix_accounts.sol\":1075:1117  0xdD870fA1b7C4700F2BD7f44238821C26f7392148 */\n      0xdd870fa1b7c4700f2bd7f44238821c26f7392148\n        /* \"remix_accounts.sol\":1060:1068  accounts */\n      dup2\n        /* \"remix_accounts.sol\":1069:1071  14 */\n      0x0e\n        /* \"remix_accounts.sol\":1060:1072  accounts[14] */\n      0x0f\n      dup2\n      lt\n      tag_23\n      jumpi\n      invalid\n    tag_23:\n      0x20\n      mul\n      add\n        /* \"remix_accounts.sol\":1060:1117  accounts[14] = 0xdD870fA1b7C4700F2BD7f44238821C26f7392148 */\n      swap1\n      0xffffffffffffffffffffffffffffffffffffffff\n      and\n      swap1\n      dup2\n      0xffffffffffffffffffffffffffffffffffffffff\n      and\n      dup2\n      mstore\n      pop\n      pop\n        /* \"remix_accounts.sol\":1135:1143  accounts */\n      dup1\n        /* \"remix_accounts.sol\":1144:1149  index */\n      dup4\n        /* \"remix_accounts.sol\":1135:1150  accounts[index] */\n      0x0f\n      dup2\n      lt\n      tag_24\n      jumpi\n      invalid\n    tag_24:\n      0x20\n      mul\n      add\n      mload\n        /* \"remix_accounts.sol\":1128:1150  return accounts[index] */\n      swap2\n      pop\n      pop\n        /* \"remix_accounts.sol\":99:1157  function getAccount(uint index) pure public returns (address) {... */\n      swap2\n      swap1\n      pop\n      jump\t// out\n    tag_8:\n      mload(0x40)\n      dup1\n      0x01e0\n      add\n      0x40\n      mstore\n      dup1\n      0x0f\n      swap1\n      0x20\n      dup3\n      mul\n      dup1\n      calldatasize\n      dup4\n      calldatacopy\n      dup1\n      dup3\n      add\n      swap2\n      pop\n      pop\n      swap1\n      pop\n      pop\n      swap1\n      jump\t// out\n\n    auxdata: 0xa2646970667358221220172b822f838b31366cb63477ab4959e12f2d577488bca5aca1f934ae4cad33e864736f6c63430007060033\n}\n",
				"bytecode": {
					"linkReferences": {},
					"object": "610645610026600b82828239805160001a60731461001957fe5b30600052607381538281f3fe73000000000000000000000000000000000000000030146080604052600436106100355760003560e01c8063ce88b1451461003a575b600080fd5b6100666004803603602081101561005057600080fd5b8101908080359060200190929190505050610092565b604051808273ffffffffffffffffffffffffffffffffffffffff16815260200191505060405180910390f35b600061009c6105ec565b735b38da6a701c568545dcfcb03fcb875f56beddc4816000600f81106100be57fe5b602002019073ffffffffffffffffffffffffffffffffffffffff16908173ffffffffffffffffffffffffffffffffffffffff168152505073ab8483f64d9c6d1ecf9b849ae677dd3315835cb2816001600f811061011757fe5b602002019073ffffffffffffffffffffffffffffffffffffffff16908173ffffffffffffffffffffffffffffffffffffffff1681525050734b20993bc481177ec7e8f571cecae8a9e22c02db816002600f811061017057fe5b602002019073ffffffffffffffffffffffffffffffffffffffff16908173ffffffffffffffffffffffffffffffffffffffff16815250507378731d3ca6b7e34ac0f824c42a7cc18a495cabab816003600f81106101c957fe5b602002019073ffffffffffffffffffffffffffffffffffffffff16908173ffffffffffffffffffffffffffffffffffffffff168152505073617f2e2fd72fd9d5503197092ac168c91465e7f2816004600f811061022257fe5b602002019073ffffffffffffffffffffffffffffffffffffffff16908173ffffffffffffffffffffffffffffffffffffffff16815250507317f6ad8ef982297579c203069c1dbffe4348c372816005600f811061027b57fe5b602002019073ffffffffffffffffffffffffffffffffffffffff16908173ffffffffffffffffffffffffffffffffffffffff1681525050735c6b0f7bf3e7ce046039bd8fabdfd3f9f5021678816006600f81106102d457fe5b602002019073ffffffffffffffffffffffffffffffffffffffff16908173ffffffffffffffffffffffffffffffffffffffff16815250507303c6fced478cbbc9a4fab34ef9f40767739d1ff7816007600f811061032d57fe5b602002019073ffffffffffffffffffffffffffffffffffffffff16908173ffffffffffffffffffffffffffffffffffffffff1681525050731ae0ea34a72d944a8c7603ffb3ec30a6669e454c816008600f811061038657fe5b602002019073ffffffffffffffffffffffffffffffffffffffff16908173ffffffffffffffffffffffffffffffffffffffff1681525050730a098eda01ce92ff4a4ccb7a4fffb5a43ebc70dc816009600f81106103df57fe5b602002019073ffffffffffffffffffffffffffffffffffffffff16908173ffffffffffffffffffffffffffffffffffffffff168152505073ca35b7d915458ef540ade6068dfe2f44e8fa733c81600a600f811061043857fe5b602002019073ffffffffffffffffffffffffffffffffffffffff16908173ffffffffffffffffffffffffffffffffffffffff16815250507314723a09acff6d2a60dcdf7aa4aff308fddc160c81600b600f811061049157fe5b602002019073ffffffffffffffffffffffffffffffffffffffff16908173ffffffffffffffffffffffffffffffffffffffff1681525050734b0897b0513fdc7c541b6d9d7e929c4e5364d2db81600c600f81106104ea57fe5b602002019073ffffffffffffffffffffffffffffffffffffffff16908173ffffffffffffffffffffffffffffffffffffffff168152505073583031d1113ad414f02576bd6afabfb30214022581600d600f811061054357fe5b602002019073ffffffffffffffffffffffffffffffffffffffff16908173ffffffffffffffffffffffffffffffffffffffff168152505073dd870fa1b7c4700f2bd7f44238821c26f739214881600e600f811061059c57fe5b602002019073ffffffffffffffffffffffffffffffffffffffff16908173ffffffffffffffffffffffffffffffffffffffff16815250508083600f81106105df57fe5b6020020151915050919050565b604051806101e00160405280600f9060208202803683378082019150509050509056fea2646970667358221220172b822f838b31366cb63477ab4959e12f2d577488bca5aca1f934ae4cad33e864736f6c63430007060033",
					"opcodes": "PUSH2 0x645 PUSH2 0x26 PUSH1 0xB DUP3 DUP3 DUP3 CODECOPY DUP1 MLOAD PUSH1 0x0 BYTE PUSH1 0x73 EQ PUSH2 0x19 JUMPI INVALID JUMPDEST ADDRESS PUSH1 0x0 MSTORE PUSH1 0x73 DUP2 MSTORE8 DUP3 DUP2 RETURN INVALID PUSH20 0x0 ADDRESS EQ PUSH1 0x80 PUSH1 0x40 MSTORE PUSH1 0x4 CALLDATASIZE LT PUSH2 0x35 JUMPI PUSH1 0x0 CALLDATALOAD PUSH1 0xE0 SHR DUP1 PUSH4 0xCE88B145 EQ PUSH2 0x3A JUMPI JUMPDEST PUSH1 0x0 DUP1 REVERT JUMPDEST PUSH2 0x66 PUSH1 0x4 DUP1 CALLDATASIZE SUB PUSH1 0x20 DUP2 LT ISZERO PUSH2 0x50 JUMPI PUSH1 0x0 DUP1 REVERT JUMPDEST DUP2 ADD SWAP1 DUP1 DUP1 CALLDATALOAD SWAP1 PUSH1 0x20 ADD SWAP1 SWAP3 SWAP2 SWAP1 POP POP POP PUSH2 0x92 JUMP JUMPDEST PUSH1 0x40 MLOAD DUP1 DUP3 PUSH20 0xFFFFFFFFFFFFFFFFFFFFFFFFFFFFFFFFFFFFFFFF AND DUP2 MSTORE PUSH1 0x20 ADD SWAP2 POP POP PUSH1 0x40 MLOAD DUP1 SWAP2 SUB SWAP1 RETURN JUMPDEST PUSH1 0x0 PUSH2 0x9C PUSH2 0x5EC JUMP JUMPDEST PUSH20 0x5B38DA6A701C568545DCFCB03FCB875F56BEDDC4 DUP2 PUSH1 0x0 PUSH1 0xF DUP2 LT PUSH2 0xBE JUMPI INVALID JUMPDEST PUSH1 0x20 MUL ADD SWAP1 PUSH20 0xFFFFFFFFFFFFFFFFFFFFFFFFFFFFFFFFFFFFFFFF AND SWAP1 DUP2 PUSH20 0xFFFFFFFFFFFFFFFFFFFFFFFFFFFFFFFFFFFFFFFF AND DUP2 MSTORE POP POP PUSH20 0xAB8483F64D9C6D1ECF9B849AE677DD3315835CB2 DUP2 PUSH1 0x1 PUSH1 0xF DUP2 LT PUSH2 0x117 JUMPI INVALID JUMPDEST PUSH1 0x20 MUL ADD SWAP1 PUSH20 0xFFFFFFFFFFFFFFFFFFFFFFFFFFFFFFFFFFFFFFFF AND SWAP1 DUP2 PUSH20 0xFFFFFFFFFFFFFFFFFFFFFFFFFFFFFFFFFFFFFFFF AND DUP2 MSTORE POP POP PUSH20 0x4B20993BC481177EC7E8F571CECAE8A9E22C02DB DUP2 PUSH1 0x2 PUSH1 0xF DUP2 LT PUSH2 0x170 JUMPI INVALID JUMPDEST PUSH1 0x20 MUL ADD SWAP1 PUSH20 0xFFFFFFFFFFFFFFFFFFFFFFFFFFFFFFFFFFFFFFFF AND SWAP1 DUP2 PUSH20 0xFFFFFFFFFFFFFFFFFFFFFFFFFFFFFFFFFFFFFFFF AND DUP2 MSTORE POP POP PUSH20 0x78731D3CA6B7E34AC0F824C42A7CC18A495CABAB DUP2 PUSH1 0x3 PUSH1 0xF DUP2 LT PUSH2 0x1C9 JUMPI INVALID JUMPDEST PUSH1 0x20 MUL ADD SWAP1 PUSH20 0xFFFFFFFFFFFFFFFFFFFFFFFFFFFFFFFFFFFFFFFF AND SWAP1 DUP2 PUSH20 0xFFFFFFFFFFFFFFFFFFFFFFFFFFFFFFFFFFFFFFFF AND DUP2 MSTORE POP POP PUSH20 0x617F2E2FD72FD9D5503197092AC168C91465E7F2 DUP2 PUSH1 0x4 PUSH1 0xF DUP2 LT PUSH2 0x222 JUMPI INVALID JUMPDEST PUSH1 0x20 MUL ADD SWAP1 PUSH20 0xFFFFFFFFFFFFFFFFFFFFFFFFFFFFFFFFFFFFFFFF AND SWAP1 DUP2 PUSH20 0xFFFFFFFFFFFFFFFFFFFFFFFFFFFFFFFFFFFFFFFF AND DUP2 MSTORE POP POP PUSH20 0x17F6AD8EF982297579C203069C1DBFFE4348C372 DUP2 PUSH1 0x5 PUSH1 0xF DUP2 LT PUSH2 0x27B JUMPI INVALID JUMPDEST PUSH1 0x20 MUL ADD SWAP1 PUSH20 0xFFFFFFFFFFFFFFFFFFFFFFFFFFFFFFFFFFFFFFFF AND SWAP1 DUP2 PUSH20 0xFFFFFFFFFFFFFFFFFFFFFFFFFFFFFFFFFFFFFFFF AND DUP2 MSTORE POP POP PUSH20 0x5C6B0F7BF3E7CE046039BD8FABDFD3F9F5021678 DUP2 PUSH1 0x6 PUSH1 0xF DUP2 LT PUSH2 0x2D4 JUMPI INVALID JUMPDEST PUSH1 0x20 MUL ADD SWAP1 PUSH20 0xFFFFFFFFFFFFFFFFFFFFFFFFFFFFFFFFFFFFFFFF AND SWAP1 DUP2 PUSH20 0xFFFFFFFFFFFFFFFFFFFFFFFFFFFFFFFFFFFFFFFF AND DUP2 MSTORE POP POP PUSH20 0x3C6FCED478CBBC9A4FAB34EF9F40767739D1FF7 DUP2 PUSH1 0x7 PUSH1 0xF DUP2 LT PUSH2 0x32D JUMPI INVALID JUMPDEST PUSH1 0x20 MUL ADD SWAP1 PUSH20 0xFFFFFFFFFFFFFFFFFFFFFFFFFFFFFFFFFFFFFFFF AND SWAP1 DUP2 PUSH20 0xFFFFFFFFFFFFFFFFFFFFFFFFFFFFFFFFFFFFFFFF AND DUP2 MSTORE POP POP PUSH20 0x1AE0EA34A72D944A8C7603FFB3EC30A6669E454C DUP2 PUSH1 0x8 PUSH1 0xF DUP2 LT PUSH2 0x386 JUMPI INVALID JUMPDEST PUSH1 0x20 MUL ADD SWAP1 PUSH20 0xFFFFFFFFFFFFFFFFFFFFFFFFFFFFFFFFFFFFFFFF AND SWAP1 DUP2 PUSH20 0xFFFFFFFFFFFFFFFFFFFFFFFFFFFFFFFFFFFFFFFF AND DUP2 MSTORE POP POP PUSH20 0xA098EDA01CE92FF4A4CCB7A4FFFB5A43EBC70DC DUP2 PUSH1 0x9 PUSH1 0xF DUP2 LT PUSH2 0x3DF JUMPI INVALID JUMPDEST PUSH1 0x20 MUL ADD SWAP1 PUSH20 0xFFFFFFFFFFFFFFFFFFFFFFFFFFFFFFFFFFFFFFFF AND SWAP1 DUP2 PUSH20 0xFFFFFFFFFFFFFFFFFFFFFFFFFFFFFFFFFFFFFFFF AND DUP2 MSTORE POP POP PUSH20 0xCA35B7D915458EF540ADE6068DFE2F44E8FA733C DUP2 PUSH1 0xA PUSH1 0xF DUP2 LT PUSH2 0x438 JUMPI INVALID JUMPDEST PUSH1 0x20 MUL ADD SWAP1 PUSH20 0xFFFFFFFFFFFFFFFFFFFFFFFFFFFFFFFFFFFFFFFF AND SWAP1 DUP2 PUSH20 0xFFFFFFFFFFFFFFFFFFFFFFFFFFFFFFFFFFFFFFFF AND DUP2 MSTORE POP POP PUSH20 0x14723A09ACFF6D2A60DCDF7AA4AFF308FDDC160C DUP2 PUSH1 0xB PUSH1 0xF DUP2 LT PUSH2 0x491 JUMPI INVALID JUMPDEST PUSH1 0x20 MUL ADD SWAP1 PUSH20 0xFFFFFFFFFFFFFFFFFFFFFFFFFFFFFFFFFFFFFFFF AND SWAP1 DUP2 PUSH20 0xFFFFFFFFFFFFFFFFFFFFFFFFFFFFFFFFFFFFFFFF AND DUP2 MSTORE POP POP PUSH20 0x4B0897B0513FDC7C541B6D9D7E929C4E5364D2DB DUP2 PUSH1 0xC PUSH1 0xF DUP2 LT PUSH2 0x4EA JUMPI INVALID JUMPDEST PUSH1 0x20 MUL ADD SWAP1 PUSH20 0xFFFFFFFFFFFFFFFFFFFFFFFFFFFFFFFFFFFFFFFF AND SWAP1 DUP2 PUSH20 0xFFFFFFFFFFFFFFFFFFFFFFFFFFFFFFFFFFFFFFFF AND DUP2 MSTORE POP POP PUSH20 0x583031D1113AD414F02576BD6AFABFB302140225 DUP2 PUSH1 0xD PUSH1 0xF DUP2 LT PUSH2 0x543 JUMPI INVALID JUMPDEST PUSH1 0x20 MUL ADD SWAP1 PUSH20 0xFFFFFFFFFFFFFFFFFFFFFFFFFFFFFFFFFFFFFFFF AND SWAP1 DUP2 PUSH20 0xFFFFFFFFFFFFFFFFFFFFFFFFFFFFFFFFFFFFFFFF AND DUP2 MSTORE POP POP PUSH20 0xDD870FA1B7C4700F2BD7F44238821C26F7392148 DUP2 PUSH1 0xE PUSH1 0xF DUP2 LT PUSH2 0x59C JUMPI INVALID JUMPDEST PUSH1 0x20 MUL ADD SWAP1 PUSH20 0xFFFFFFFFFFFFFFFFFFFFFFFFFFFFFFFFFFFFFFFF AND SWAP1 DUP2 PUSH20 0xFFFFFFFFFFFFFFFFFFFFFFFFFFFFFFFFFFFFFFFF AND DUP2 MSTORE POP POP DUP1 DUP4 PUSH1 0xF DUP2 LT PUSH2 0x5DF JUMPI INVALID JUMPDEST PUSH1 0x20 MUL ADD MLOAD SWAP2 POP POP SWAP2 SWAP1 POP JUMP JUMPDEST PUSH1 0x40 MLOAD DUP1 PUSH2 0x1E0 ADD PUSH1 0x40 MSTORE DUP1 PUSH1 0xF SWAP1 PUSH1 0x20 DUP3 MUL DUP1 CALLDATASIZE DUP4 CALLDATACOPY DUP1 DUP3 ADD SWAP2 POP POP SWAP1 POP POP SWAP1 JUMP INVALID LOG2 PUSH5 0x6970667358 0x22 SLT KECCAK256 OR 0x2B DUP3 0x2F DUP4 DUP12 BALANCE CALLDATASIZE PUSH13 0xB63477AB4959E12F2D577488BC 0xA5 0xAC LOG1 0xF9 CALLVALUE 0xAE 0x4C 0xAD CALLER 0xE8 PUSH5 0x736F6C6343 STOP SMOD MOD STOP CALLER "
				},
				"gasEstimates": {
					"creation": {
						"codeDepositCost": "321000",
						"executionCost": "387",
						"totalCost": "321387"
					},
					"external": {
						"getAccount(uint256)": "infinite"
					}
				},
				"methodIdentifiers": {
					"getAccount(uint256)": "ce88b145"
				}
			},
			"storageLayout": {
				"storage": [],
				"types": null
			},
			"userdoc": {
				"kind": "user",
				"methods": {},
				"version": 1
			}
		}
	}
}