{
	".deps/contracts/creditOp.sol": {
		"creditOp": {
			"abi": [
				{
					"inputs": [
						{
							"internalType": "address",
							"name": "_user",
							"type": "address"
						}
					],
					"name": "decCredit",
					"outputs": [],
					"stateMutability": "nonpayable",
					"type": "function"
				},
				{
					"inputs": [
						{
							"internalType": "address",
							"name": "_user",
							"type": "address"
						}
					],
					"name": "getCredit",
					"outputs": [
						{
							"internalType": "uint256",
							"name": "",
							"type": "uint256"
						}
					],
					"stateMutability": "view",
					"type": "function"
				},
				{
					"inputs": [
						{
							"internalType": "address",
							"name": "_user",
							"type": "address"
						}
					],
					"name": "incCredit",
					"outputs": [],
					"stateMutability": "nonpayable",
					"type": "function"
				},
				{
					"inputs": [
						{
							"internalType": "address",
							"name": "_user",
							"type": "address"
						}
					],
					"name": "setCredit",
					"outputs": [],
					"stateMutability": "nonpayable",
					"type": "function"
				},
				{
					"inputs": [
						{
							"internalType": "address",
							"name": "",
							"type": "address"
						}
					],
					"name": "user2credit",
					"outputs": [
						{
							"internalType": "uint256",
							"name": "",
							"type": "uint256"
						}
					],
					"stateMutability": "view",
					"type": "function"
				}
			],
			"devdoc": {
				"kind": "dev",
				"methods": {},
				"version": 1
			},
			"evm": {
				"assembly": "    /* \".deps/contracts/creditOp.sol\":25:1046  contract creditOp {... */\n  mstore(0x40, 0x80)\n    /* \".deps/contracts/creditOp.sol\":128:133  10000 */\n  0x2710\n    /* \".deps/contracts/creditOp.sol\":99:133  uint256 private initCredit = 10000 */\n  0x01\n  sstore\n    /* \".deps/contracts/creditOp.sol\":174:179  20000 */\n  0x4e20\n    /* \".deps/contracts/creditOp.sol\":139:179  uint256 private upperLimitCredit = 20000 */\n  0x02\n  sstore\n    /* \".deps/contracts/creditOp.sol\":25:1046  contract creditOp {... */\n  callvalue\n  dup1\n  iszero\n  tag_1\n  jumpi\n  0x00\n  dup1\n  revert\ntag_1:\n  pop\n  dataSize(sub_0)\n  dup1\n  dataOffset(sub_0)\n  0x00\n  codecopy\n  0x00\n  return\nstop\n\nsub_0: assembly {\n        /* \".deps/contracts/creditOp.sol\":25:1046  contract creditOp {... */\n      mstore(0x40, 0x80)\n      callvalue\n      dup1\n      iszero\n      tag_1\n      jumpi\n      0x00\n      dup1\n      revert\n    tag_1:\n      pop\n      jumpi(tag_2, lt(calldatasize, 0x04))\n      shr(0xe0, calldataload(0x00))\n      dup1\n      0x1f72a7d5\n      eq\n      tag_3\n      jumpi\n      dup1\n      0x57344e6f\n      eq\n      tag_4\n      jumpi\n      dup1\n      0x7fbe83e5\n      eq\n      tag_5\n      jumpi\n      dup1\n      0x904fba8d\n      eq\n      tag_6\n      jumpi\n      dup1\n      0xde6e6d3e\n      eq\n      tag_7\n      jumpi\n    tag_2:\n      0x00\n      dup1\n      revert\n        /* \".deps/contracts/creditOp.sol\":954:1043  function setCredit(address _user) public {... */\n    tag_3:\n      tag_8\n      0x04\n      dup1\n      calldatasize\n      sub\n      0x20\n      dup2\n      lt\n      iszero\n      tag_9\n      jumpi\n      0x00\n      dup1\n      revert\n    tag_9:\n      dup2\n      add\n      swap1\n      dup1\n      dup1\n      calldataload\n      0xffffffffffffffffffffffffffffffffffffffff\n      and\n      swap1\n      0x20\n      add\n      swap1\n      swap3\n      swap2\n      swap1\n      pop\n      pop\n      pop\n      tag_10\n      jump\t// in\n    tag_8:\n      stop\n        /* \".deps/contracts/creditOp.sol\":840:948  function getCredit(address _user) view public returns(uint) {... */\n    tag_4:\n      tag_11\n      0x04\n      dup1\n      calldatasize\n      sub\n      0x20\n      dup2\n      lt\n      iszero\n      tag_12\n      jumpi\n      0x00\n      dup1\n      revert\n    tag_12:\n      dup2\n      add\n      swap1\n      dup1\n      dup1\n      calldataload\n      0xffffffffffffffffffffffffffffffffffffffff\n      and\n      swap1\n      0x20\n      add\n      swap1\n      swap3\n      swap2\n      swap1\n      pop\n      pop\n      pop\n      tag_13\n      jump\t// in\n    tag_11:\n      mload(0x40)\n      dup1\n      dup3\n      dup2\n      mstore\n      0x20\n      add\n      swap2\n      pop\n      pop\n      mload(0x40)\n      dup1\n      swap2\n      sub\n      swap1\n      return\n        /* \".deps/contracts/creditOp.sol\":785:834  function decCredit(address _user) public {... */\n    tag_5:\n      tag_14\n      0x04\n      dup1\n      calldatasize\n      sub\n      0x20\n      dup2\n      lt\n      iszero\n      tag_15\n      jumpi\n      0x00\n      dup1\n      revert\n    tag_15:\n      dup2\n      add\n      swap1\n      dup1\n      dup1\n      calldataload\n      0xffffffffffffffffffffffffffffffffffffffff\n      and\n      swap1\n      0x20\n      add\n      swap1\n      swap3\n      swap2\n      swap1\n      pop\n      pop\n      pop\n      tag_16\n      jump\t// in\n    tag_14:\n      stop\n        /* \".deps/contracts/creditOp.sol\":186:779  function incCredit(address _user) public {... */\n    tag_6:\n      tag_17\n      0x04\n      dup1\n      calldatasize\n      sub\n      0x20\n      dup2\n      lt\n      iszero\n      tag_18\n      jumpi\n      0x00\n      dup1\n      revert\n    tag_18:\n      dup2\n      add\n      swap1\n      dup1\n      dup1\n      calldataload\n      0xffffffffffffffffffffffffffffffffffffffff\n      and\n      swap1\n      0x20\n      add\n      swap1\n      swap3\n      swap2\n      swap1\n      pop\n      pop\n      pop\n      tag_19\n      jump\t// in\n    tag_17:\n      stop\n        /* \".deps/contracts/creditOp.sol\":49:93  mapping (address => uint) public user2credit */\n    tag_7:\n      tag_20\n      0x04\n      dup1\n      calldatasize\n      sub\n      0x20\n      dup2\n      lt\n      iszero\n      tag_21\n      jumpi\n      0x00\n      dup1\n      revert\n    tag_21:\n      dup2\n      add\n      swap1\n      dup1\n      dup1\n      calldataload\n      0xffffffffffffffffffffffffffffffffffffffff\n      and\n      swap1\n      0x20\n      add\n      swap1\n      swap3\n      swap2\n      swap1\n      pop\n      pop\n      pop\n      tag_22\n      jump\t// in\n    tag_20:\n      mload(0x40)\n      dup1\n      dup3\n      dup2\n      mstore\n      0x20\n      add\n      swap2\n      pop\n      pop\n      mload(0x40)\n      dup1\n      swap2\n      sub\n      swap1\n      return\n        /* \".deps/contracts/creditOp.sol\":954:1043  function setCredit(address _user) public {... */\n    tag_10:\n        /* \".deps/contracts/creditOp.sol\":1026:1036  initCredit */\n      sload(0x01)\n        /* \".deps/contracts/creditOp.sol\":1005:1016  user2credit */\n      0x00\n        /* \".deps/contracts/creditOp.sol\":1005:1023  user2credit[_user] */\n      dup1\n        /* \".deps/contracts/creditOp.sol\":1017:1022  _user */\n      dup4\n        /* \".deps/contracts/creditOp.sol\":1005:1023  user2credit[_user] */\n      0xffffffffffffffffffffffffffffffffffffffff\n      and\n      0xffffffffffffffffffffffffffffffffffffffff\n      and\n      dup2\n      mstore\n      0x20\n      add\n      swap1\n      dup2\n      mstore\n      0x20\n      add\n      0x00\n      keccak256\n        /* \".deps/contracts/creditOp.sol\":1005:1036  user2credit[_user] = initCredit */\n      dup2\n      swap1\n      sstore\n      pop\n        /* \".deps/contracts/creditOp.sol\":954:1043  function setCredit(address _user) public {... */\n      pop\n      jump\t// out\n        /* \".deps/contracts/creditOp.sol\":840:948  function getCredit(address _user) view public returns(uint) {... */\n    tag_13:\n        /* \".deps/contracts/creditOp.sol\":894:898  uint */\n      0x00\n        /* \".deps/contracts/creditOp.sol\":938:941  100 */\n      0x64\n        /* \".deps/contracts/creditOp.sol\":917:928  user2credit */\n      0x00\n        /* \".deps/contracts/creditOp.sol\":917:935  user2credit[_user] */\n      dup1\n        /* \".deps/contracts/creditOp.sol\":929:934  _user */\n      dup5\n        /* \".deps/contracts/creditOp.sol\":917:935  user2credit[_user] */\n      0xffffffffffffffffffffffffffffffffffffffff\n      and\n      0xffffffffffffffffffffffffffffffffffffffff\n      and\n      dup2\n      mstore\n      0x20\n      add\n      swap1\n      dup2\n      mstore\n      0x20\n      add\n      0x00\n      keccak256\n      sload\n        /* \".deps/contracts/creditOp.sol\":917:941  user2credit[_user] / 100 */\n      dup2\n      tag_25\n      jumpi\n      invalid\n    tag_25:\n      div\n        /* \".deps/contracts/creditOp.sol\":910:941  return user2credit[_user] / 100 */\n      swap1\n      pop\n        /* \".deps/contracts/creditOp.sol\":840:948  function getCredit(address _user) view public returns(uint) {... */\n      swap2\n      swap1\n      pop\n      jump\t// out\n        /* \".deps/contracts/creditOp.sol\":785:834  function decCredit(address _user) public {... */\n    tag_16:\n      pop\n      jump\t// out\n        /* \".deps/contracts/creditOp.sol\":186:779  function incCredit(address _user) public {... */\n    tag_19:\n        /* \".deps/contracts/creditOp.sol\":237:248  uint credit */\n      0x00\n        /* \".deps/contracts/creditOp.sol\":251:262  user2credit */\n      dup1\n        /* \".deps/contracts/creditOp.sol\":251:269  user2credit[_user] */\n      0x00\n        /* \".deps/contracts/creditOp.sol\":263:268  _user */\n      dup4\n        /* \".deps/contracts/creditOp.sol\":251:269  user2credit[_user] */\n      0xffffffffffffffffffffffffffffffffffffffff\n      and\n      0xffffffffffffffffffffffffffffffffffffffff\n      and\n      dup2\n      mstore\n      0x20\n      add\n      swap1\n      dup2\n      mstore\n      0x20\n      add\n      0x00\n      keccak256\n      sload\n        /* \".deps/contracts/creditOp.sol\":237:269  uint credit = user2credit[_user] */\n      swap1\n      pop\n        /* \".deps/contracts/creditOp.sol\":279:300  uint16[6] memory bars */\n      0x00\n        /* \".deps/contracts/creditOp.sol\":279:341  uint16[6] memory bars = [0, 10000, 11000, 15000, 18000, 20000] */\n      mload(0x40)\n      dup1\n      0xc0\n      add\n      0x40\n      mstore\n      dup1\n        /* \".deps/contracts/creditOp.sol\":304:305  0 */\n      0x00\n        /* \".deps/contracts/creditOp.sol\":279:341  uint16[6] memory bars = [0, 10000, 11000, 15000, 18000, 20000] */\n      0xffff\n      and\n      dup2\n      mstore\n      0x20\n      add\n        /* \".deps/contracts/creditOp.sol\":307:312  10000 */\n      0x2710\n        /* \".deps/contracts/creditOp.sol\":279:341  uint16[6] memory bars = [0, 10000, 11000, 15000, 18000, 20000] */\n      0xffff\n      and\n      dup2\n      mstore\n      0x20\n      add\n        /* \".deps/contracts/creditOp.sol\":314:319  11000 */\n      0x2af8\n        /* \".deps/contracts/creditOp.sol\":279:341  uint16[6] memory bars = [0, 10000, 11000, 15000, 18000, 20000] */\n      0xffff\n      and\n      dup2\n      mstore\n      0x20\n      add\n        /* \".deps/contracts/creditOp.sol\":321:326  15000 */\n      0x3a98\n        /* \".deps/contracts/creditOp.sol\":279:341  uint16[6] memory bars = [0, 10000, 11000, 15000, 18000, 20000] */\n      0xffff\n      and\n      dup2\n      mstore\n      0x20\n      add\n        /* \".deps/contracts/creditOp.sol\":328:333  18000 */\n      0x4650\n        /* \".deps/contracts/creditOp.sol\":279:341  uint16[6] memory bars = [0, 10000, 11000, 15000, 18000, 20000] */\n      0xffff\n      and\n      dup2\n      mstore\n      0x20\n      add\n        /* \".deps/contracts/creditOp.sol\":335:340  20000 */\n      0x4e20\n        /* \".deps/contracts/creditOp.sol\":279:341  uint16[6] memory bars = [0, 10000, 11000, 15000, 18000, 20000] */\n      0xffff\n      and\n      dup2\n      mstore\n      pop\n      swap1\n      pop\n        /* \".deps/contracts/creditOp.sol\":351:371  uint8[5] memory incs */\n      0x00\n        /* \".deps/contracts/creditOp.sol\":351:393  uint8[5] memory incs = [100, 96, 16, 5, 1] */\n      mload(0x40)\n      dup1\n      0xa0\n      add\n      0x40\n      mstore\n      dup1\n        /* \".deps/contracts/creditOp.sol\":375:378  100 */\n      0x64\n        /* \".deps/contracts/creditOp.sol\":351:393  uint8[5] memory incs = [100, 96, 16, 5, 1] */\n      0xff\n      and\n      dup2\n      mstore\n      0x20\n      add\n        /* \".deps/contracts/creditOp.sol\":380:382  96 */\n      0x60\n        /* \".deps/contracts/creditOp.sol\":351:393  uint8[5] memory incs = [100, 96, 16, 5, 1] */\n      0xff\n      and\n      dup2\n      mstore\n      0x20\n      add\n        /* \".deps/contracts/creditOp.sol\":384:386  16 */\n      0x10\n        /* \".deps/contracts/creditOp.sol\":351:393  uint8[5] memory incs = [100, 96, 16, 5, 1] */\n      0xff\n      and\n      dup2\n      mstore\n      0x20\n      add\n        /* \".deps/contracts/creditOp.sol\":388:389  5 */\n      0x05\n        /* \".deps/contracts/creditOp.sol\":351:393  uint8[5] memory incs = [100, 96, 16, 5, 1] */\n      0xff\n      and\n      dup2\n      mstore\n      0x20\n      add\n        /* \".deps/contracts/creditOp.sol\":391:392  1 */\n      0x01\n        /* \".deps/contracts/creditOp.sol\":351:393  uint8[5] memory incs = [100, 96, 16, 5, 1] */\n      0xff\n      and\n      dup2\n      mstore\n      pop\n      swap1\n      pop\n        /* \".deps/contracts/creditOp.sol\":416:432  upperLimitCredit */\n      sload(0x02)\n        /* \".deps/contracts/creditOp.sol\":407:413  credit */\n      dup4\n        /* \".deps/contracts/creditOp.sol\":407:432  credit < upperLimitCredit */\n      lt\n        /* \".deps/contracts/creditOp.sol\":403:773  if (credit < upperLimitCredit) {... */\n      iszero\n      tag_28\n      jumpi\n        /* \".deps/contracts/creditOp.sol\":448:454  uint i */\n      0x00\n        /* \".deps/contracts/creditOp.sol\":472:478  uint j */\n      dup1\n        /* \".deps/contracts/creditOp.sol\":481:482  1 */\n      0x01\n        /* \".deps/contracts/creditOp.sol\":472:482  uint j = 1 */\n      swap1\n      pop\n        /* \".deps/contracts/creditOp.sol\":496:722  while (j < bars.length) {... */\n    tag_29:\n        /* \".deps/contracts/creditOp.sol\":507:518  bars.length */\n      0x06\n        /* \".deps/contracts/creditOp.sol\":503:504  j */\n      dup2\n        /* \".deps/contracts/creditOp.sol\":503:518  j < bars.length */\n      lt\n        /* \".deps/contracts/creditOp.sol\":496:722  while (j < bars.length) {... */\n      iszero\n      tag_30\n      jumpi\n        /* \".deps/contracts/creditOp.sol\":553:559  credit */\n      dup5\n        /* \".deps/contracts/creditOp.sol\":542:546  bars */\n      dup5\n        /* \".deps/contracts/creditOp.sol\":547:548  i */\n      dup4\n        /* \".deps/contracts/creditOp.sol\":542:549  bars[i] */\n      0x06\n      dup2\n      lt\n      tag_31\n      jumpi\n      invalid\n    tag_31:\n      0x20\n      mul\n      add\n      mload\n        /* \".deps/contracts/creditOp.sol\":542:559  bars[i] <= credit */\n      0xffff\n      and\n      gt\n      iszero\n        /* \".deps/contracts/creditOp.sol\":542:579  bars[i] <= credit && credit < bars[j] */\n      dup1\n      iszero\n      tag_32\n      jumpi\n      pop\n        /* \".deps/contracts/creditOp.sol\":572:576  bars */\n      dup4\n        /* \".deps/contracts/creditOp.sol\":577:578  j */\n      dup2\n        /* \".deps/contracts/creditOp.sol\":572:579  bars[j] */\n      0x06\n      dup2\n      lt\n      tag_33\n      jumpi\n      invalid\n    tag_33:\n      0x20\n      mul\n      add\n      mload\n        /* \".deps/contracts/creditOp.sol\":563:579  credit < bars[j] */\n      0xffff\n      and\n        /* \".deps/contracts/creditOp.sol\":563:569  credit */\n      dup6\n        /* \".deps/contracts/creditOp.sol\":563:579  credit < bars[j] */\n      lt\n        /* \".deps/contracts/creditOp.sol\":542:579  bars[i] <= credit && credit < bars[j] */\n    tag_32:\n        /* \".deps/contracts/creditOp.sol\":538:666  if (bars[i] <= credit && credit < bars[j]) {... */\n      iszero\n      tag_34\n      jumpi\n        /* \".deps/contracts/creditOp.sol\":613:617  incs */\n      dup3\n        /* \".deps/contracts/creditOp.sol\":618:619  i */\n      dup3\n        /* \".deps/contracts/creditOp.sol\":613:620  incs[i] */\n      0x05\n      dup2\n      lt\n      tag_35\n      jumpi\n      invalid\n    tag_35:\n      0x20\n      mul\n      add\n      mload\n        /* \".deps/contracts/creditOp.sol\":603:620  credit += incs[i] */\n      0xff\n      and\n      dup6\n      add\n      swap5\n      pop\n        /* \".deps/contracts/creditOp.sol\":642:647  break */\n      jump(tag_30)\n        /* \".deps/contracts/creditOp.sol\":538:666  if (bars[i] <= credit && credit < bars[j]) {... */\n    tag_34:\n        /* \".deps/contracts/creditOp.sol\":683:686  i++ */\n      dup2\n      dup1\n      0x01\n      add\n      swap3\n      pop\n      pop\n        /* \".deps/contracts/creditOp.sol\":704:707  j++ */\n      dup1\n      dup1\n      0x01\n      add\n      swap2\n      pop\n      pop\n        /* \".deps/contracts/creditOp.sol\":496:722  while (j < bars.length) {... */\n      jump(tag_29)\n    tag_30:\n        /* \".deps/contracts/creditOp.sol\":756:762  credit */\n      dup5\n        /* \".deps/contracts/creditOp.sol\":735:746  user2credit */\n      0x00\n        /* \".deps/contracts/creditOp.sol\":735:753  user2credit[_user] */\n      dup1\n        /* \".deps/contracts/creditOp.sol\":747:752  _user */\n      dup9\n        /* \".deps/contracts/creditOp.sol\":735:753  user2credit[_user] */\n      0xffffffffffffffffffffffffffffffffffffffff\n      and\n      0xffffffffffffffffffffffffffffffffffffffff\n      and\n      dup2\n      mstore\n      0x20\n      add\n      swap1\n      dup2\n      mstore\n      0x20\n      add\n      0x00\n      keccak256\n        /* \".deps/contracts/creditOp.sol\":735:762  user2credit[_user] = credit */\n      dup2\n      swap1\n      sstore\n      pop\n        /* \".deps/contracts/creditOp.sol\":403:773  if (credit < upperLimitCredit) {... */\n      pop\n      pop\n    tag_28:\n        /* \".deps/contracts/creditOp.sol\":186:779  function incCredit(address _user) public {... */\n      pop\n      pop\n      pop\n      pop\n      jump\t// out\n        /* \".deps/contracts/creditOp.sol\":49:93  mapping (address => uint) public user2credit */\n    tag_22:\n      mstore(0x20, 0x00)\n      dup1\n      0x00\n      mstore\n      keccak256(0x00, 0x40)\n      0x00\n      swap2\n      pop\n      swap1\n      pop\n      sload\n      dup2\n      jump\t// out\n\n    auxdata: 0xa264697066735822122052062762d03837a29f8a23c06a3f8d55873d030591a264142751263d012dba2264736f6c63430007060033\n}\n",
				"bytecode": {
					"linkReferences": {},
					"object": "6080604052612710600155614e2060025534801561001c57600080fd5b5061046e8061002c6000396000f3fe608060405234801561001057600080fd5b50600436106100575760003560e01c80631f72a7d51461005c57806357344e6f146100a05780637fbe83e5146100f8578063904fba8d1461013c578063de6e6d3e14610180575b600080fd5b61009e6004803603602081101561007257600080fd5b81019080803573ffffffffffffffffffffffffffffffffffffffff1690602001909291905050506101d8565b005b6100e2600480360360208110156100b657600080fd5b81019080803573ffffffffffffffffffffffffffffffffffffffff169060200190929190505050610220565b6040518082815260200191505060405180910390f35b61013a6004803603602081101561010e57600080fd5b81019080803573ffffffffffffffffffffffffffffffffffffffff169060200190929190505050610272565b005b61017e6004803603602081101561015257600080fd5b81019080803573ffffffffffffffffffffffffffffffffffffffff169060200190929190505050610275565b005b6101c26004803603602081101561019657600080fd5b81019080803573ffffffffffffffffffffffffffffffffffffffff169060200190929190505050610420565b6040518082815260200191505060405180910390f35b6001546000808373ffffffffffffffffffffffffffffffffffffffff1673ffffffffffffffffffffffffffffffffffffffff1681526020019081526020016000208190555050565b600060646000808473ffffffffffffffffffffffffffffffffffffffff1673ffffffffffffffffffffffffffffffffffffffff168152602001908152602001600020548161026a57fe5b049050919050565b50565b60008060008373ffffffffffffffffffffffffffffffffffffffff1673ffffffffffffffffffffffffffffffffffffffff16815260200190815260200160002054905060006040518060c00160405280600061ffff16815260200161271061ffff168152602001612af861ffff168152602001613a9861ffff16815260200161465061ffff168152602001614e2061ffff16815250905060006040518060a00160405280606460ff168152602001606060ff168152602001601060ff168152602001600560ff168152602001600160ff16815250905060025483101561041a57600080600190505b60068110156103d4578484836006811061037357fe5b602002015161ffff161115801561039d575083816006811061039157fe5b602002015161ffff1685105b156103bf578282600581106103ae57fe5b602002015160ff16850194506103d4565b8180600101925050808060010191505061035d565b846000808873ffffffffffffffffffffffffffffffffffffffff1673ffffffffffffffffffffffffffffffffffffffff1681526020019081526020016000208190555050505b50505050565b6000602052806000526040600020600091509050548156fea264697066735822122052062762d03837a29f8a23c06a3f8d55873d030591a264142751263d012dba2264736f6c63430007060033",
					"opcodes": "PUSH1 0x80 PUSH1 0x40 MSTORE PUSH2 0x2710 PUSH1 0x1 SSTORE PUSH2 0x4E20 PUSH1 0x2 SSTORE CALLVALUE DUP1 ISZERO PUSH2 0x1C JUMPI PUSH1 0x0 DUP1 REVERT JUMPDEST POP PUSH2 0x46E DUP1 PUSH2 0x2C PUSH1 0x0 CODECOPY PUSH1 0x0 RETURN INVALID PUSH1 0x80 PUSH1 0x40 MSTORE CALLVALUE DUP1 ISZERO PUSH2 0x10 JUMPI PUSH1 0x0 DUP1 REVERT JUMPDEST POP PUSH1 0x4 CALLDATASIZE LT PUSH2 0x57 JUMPI PUSH1 0x0 CALLDATALOAD PUSH1 0xE0 SHR DUP1 PUSH4 0x1F72A7D5 EQ PUSH2 0x5C JUMPI DUP1 PUSH4 0x57344E6F EQ PUSH2 0xA0 JUMPI DUP1 PUSH4 0x7FBE83E5 EQ PUSH2 0xF8 JUMPI DUP1 PUSH4 0x904FBA8D EQ PUSH2 0x13C JUMPI DUP1 PUSH4 0xDE6E6D3E EQ PUSH2 0x180 JUMPI JUMPDEST PUSH1 0x0 DUP1 REVERT JUMPDEST PUSH2 0x9E PUSH1 0x4 DUP1 CALLDATASIZE SUB PUSH1 0x20 DUP2 LT ISZERO PUSH2 0x72 JUMPI PUSH1 0x0 DUP1 REVERT JUMPDEST DUP2 ADD SWAP1 DUP1 DUP1 CALLDATALOAD PUSH20 0xFFFFFFFFFFFFFFFFFFFFFFFFFFFFFFFFFFFFFFFF AND SWAP1 PUSH1 0x20 ADD SWAP1 SWAP3 SWAP2 SWAP1 POP POP POP PUSH2 0x1D8 JUMP JUMPDEST STOP JUMPDEST PUSH2 0xE2 PUSH1 0x4 DUP1 CALLDATASIZE SUB PUSH1 0x20 DUP2 LT ISZERO PUSH2 0xB6 JUMPI PUSH1 0x0 DUP1 REVERT JUMPDEST DUP2 ADD SWAP1 DUP1 DUP1 CALLDATALOAD PUSH20 0xFFFFFFFFFFFFFFFFFFFFFFFFFFFFFFFFFFFFFFFF AND SWAP1 PUSH1 0x20 ADD SWAP1 SWAP3 SWAP2 SWAP1 POP POP POP PUSH2 0x220 JUMP JUMPDEST PUSH1 0x40 MLOAD DUP1 DUP3 DUP2 MSTORE PUSH1 0x20 ADD SWAP2 POP POP PUSH1 0x40 MLOAD DUP1 SWAP2 SUB SWAP1 RETURN JUMPDEST PUSH2 0x13A PUSH1 0x4 DUP1 CALLDATASIZE SUB PUSH1 0x20 DUP2 LT ISZERO PUSH2 0x10E JUMPI PUSH1 0x0 DUP1 REVERT JUMPDEST DUP2 ADD SWAP1 DUP1 DUP1 CALLDATALOAD PUSH20 0xFFFFFFFFFFFFFFFFFFFFFFFFFFFFFFFFFFFFFFFF AND SWAP1 PUSH1 0x20 ADD SWAP1 SWAP3 SWAP2 SWAP1 POP POP POP PUSH2 0x272 JUMP JUMPDEST STOP JUMPDEST PUSH2 0x17E PUSH1 0x4 DUP1 CALLDATASIZE SUB PUSH1 0x20 DUP2 LT ISZERO PUSH2 0x152 JUMPI PUSH1 0x0 DUP1 REVERT JUMPDEST DUP2 ADD SWAP1 DUP1 DUP1 CALLDATALOAD PUSH20 0xFFFFFFFFFFFFFFFFFFFFFFFFFFFFFFFFFFFFFFFF AND SWAP1 PUSH1 0x20 ADD SWAP1 SWAP3 SWAP2 SWAP1 POP POP POP PUSH2 0x275 JUMP JUMPDEST STOP JUMPDEST PUSH2 0x1C2 PUSH1 0x4 DUP1 CALLDATASIZE SUB PUSH1 0x20 DUP2 LT ISZERO PUSH2 0x196 JUMPI PUSH1 0x0 DUP1 REVERT JUMPDEST DUP2 ADD SWAP1 DUP1 DUP1 CALLDATALOAD PUSH20 0xFFFFFFFFFFFFFFFFFFFFFFFFFFFFFFFFFFFFFFFF AND SWAP1 PUSH1 0x20 ADD SWAP1 SWAP3 SWAP2 SWAP1 POP POP POP PUSH2 0x420 JUMP JUMPDEST PUSH1 0x40 MLOAD DUP1 DUP3 DUP2 MSTORE PUSH1 0x20 ADD SWAP2 POP POP PUSH1 0x40 MLOAD DUP1 SWAP2 SUB SWAP1 RETURN JUMPDEST PUSH1 0x1 SLOAD PUSH1 0x0 DUP1 DUP4 PUSH20 0xFFFFFFFFFFFFFFFFFFFFFFFFFFFFFFFFFFFFFFFF AND PUSH20 0xFFFFFFFFFFFFFFFFFFFFFFFFFFFFFFFFFFFFFFFF AND DUP2 MSTORE PUSH1 0x20 ADD SWAP1 DUP2 MSTORE PUSH1 0x20 ADD PUSH1 0x0 KECCAK256 DUP2 SWAP1 SSTORE POP POP JUMP JUMPDEST PUSH1 0x0 PUSH1 0x64 PUSH1 0x0 DUP1 DUP5 PUSH20 0xFFFFFFFFFFFFFFFFFFFFFFFFFFFFFFFFFFFFFFFF AND PUSH20 0xFFFFFFFFFFFFFFFFFFFFFFFFFFFFFFFFFFFFFFFF AND DUP2 MSTORE PUSH1 0x20 ADD SWAP1 DUP2 MSTORE PUSH1 0x20 ADD PUSH1 0x0 KECCAK256 SLOAD DUP2 PUSH2 0x26A JUMPI INVALID JUMPDEST DIV SWAP1 POP SWAP2 SWAP1 POP JUMP JUMPDEST POP JUMP JUMPDEST PUSH1 0x0 DUP1 PUSH1 0x0 DUP4 PUSH20 0xFFFFFFFFFFFFFFFFFFFFFFFFFFFFFFFFFFFFFFFF AND PUSH20 0xFFFFFFFFFFFFFFFFFFFFFFFFFFFFFFFFFFFFFFFF AND DUP2 MSTORE PUSH1 0x20 ADD SWAP1 DUP2 MSTORE PUSH1 0x20 ADD PUSH1 0x0 KECCAK256 SLOAD SWAP1 POP PUSH1 0x0 PUSH1 0x40 MLOAD DUP1 PUSH1 0xC0 ADD PUSH1 0x40 MSTORE DUP1 PUSH1 0x0 PUSH2 0xFFFF AND DUP2 MSTORE PUSH1 0x20 ADD PUSH2 0x2710 PUSH2 0xFFFF AND DUP2 MSTORE PUSH1 0x20 ADD PUSH2 0x2AF8 PUSH2 0xFFFF AND DUP2 MSTORE PUSH1 0x20 ADD PUSH2 0x3A98 PUSH2 0xFFFF AND DUP2 MSTORE PUSH1 0x20 ADD PUSH2 0x4650 PUSH2 0xFFFF AND DUP2 MSTORE PUSH1 0x20 ADD PUSH2 0x4E20 PUSH2 0xFFFF AND DUP2 MSTORE POP SWAP1 POP PUSH1 0x0 PUSH1 0x40 MLOAD DUP1 PUSH1 0xA0 ADD PUSH1 0x40 MSTORE DUP1 PUSH1 0x64 PUSH1 0xFF AND DUP2 MSTORE PUSH1 0x20 ADD PUSH1 0x60 PUSH1 0xFF AND DUP2 MSTORE PUSH1 0x20 ADD PUSH1 0x10 PUSH1 0xFF AND DUP2 MSTORE PUSH1 0x20 ADD PUSH1 0x5 PUSH1 0xFF AND DUP2 MSTORE PUSH1 0x20 ADD PUSH1 0x1 PUSH1 0xFF AND DUP2 MSTORE POP SWAP1 POP PUSH1 0x2 SLOAD DUP4 LT ISZERO PUSH2 0x41A JUMPI PUSH1 0x0 DUP1 PUSH1 0x1 SWAP1 POP JUMPDEST PUSH1 0x6 DUP2 LT ISZERO PUSH2 0x3D4 JUMPI DUP5 DUP5 DUP4 PUSH1 0x6 DUP2 LT PUSH2 0x373 JUMPI INVALID JUMPDEST PUSH1 0x20 MUL ADD MLOAD PUSH2 0xFFFF AND GT ISZERO DUP1 ISZERO PUSH2 0x39D JUMPI POP DUP4 DUP2 PUSH1 0x6 DUP2 LT PUSH2 0x391 JUMPI INVALID JUMPDEST PUSH1 0x20 MUL ADD MLOAD PUSH2 0xFFFF AND DUP6 LT JUMPDEST ISZERO PUSH2 0x3BF JUMPI DUP3 DUP3 PUSH1 0x5 DUP2 LT PUSH2 0x3AE JUMPI INVALID JUMPDEST PUSH1 0x20 MUL ADD MLOAD PUSH1 0xFF AND DUP6 ADD SWAP5 POP PUSH2 0x3D4 JUMP JUMPDEST DUP2 DUP1 PUSH1 0x1 ADD SWAP3 POP POP DUP1 DUP1 PUSH1 0x1 ADD SWAP2 POP POP PUSH2 0x35D JUMP JUMPDEST DUP5 PUSH1 0x0 DUP1 DUP9 PUSH20 0xFFFFFFFFFFFFFFFFFFFFFFFFFFFFFFFFFFFFFFFF AND PUSH20 0xFFFFFFFFFFFFFFFFFFFFFFFFFFFFFFFFFFFFFFFF AND DUP2 MSTORE PUSH1 0x20 ADD SWAP1 DUP2 MSTORE PUSH1 0x20 ADD PUSH1 0x0 KECCAK256 DUP2 SWAP1 SSTORE POP POP POP JUMPDEST POP POP POP POP JUMP JUMPDEST PUSH1 0x0 PUSH1 0x20 MSTORE DUP1 PUSH1 0x0 MSTORE PUSH1 0x40 PUSH1 0x0 KECCAK256 PUSH1 0x0 SWAP2 POP SWAP1 POP SLOAD DUP2 JUMP INVALID LOG2 PUSH5 0x6970667358 0x22 SLT KECCAK256 MSTORE MOD 0x27 PUSH3 0xD03837 LOG2 SWAP16 DUP11 0x23 0xC0 PUSH11 0x3F8D55873D030591A26414 0x27 MLOAD 0x26 RETURNDATASIZE ADD 0x2D 0xBA 0x22 PUSH5 0x736F6C6343 STOP SMOD MOD STOP CALLER "
				},
				"gasEstimates": {
					"creation": {
						"codeDepositCost": "226800",
						"executionCost": "40281",
						"totalCost": "267081"
					},
					"external": {
						"decCredit(address)": "256",
						"getCredit(address)": "1221",
						"incCredit(address)": "infinite",
						"setCredit(address)": "21116",
						"user2credit(address)": "1235"
					}
				},
				"methodIdentifiers": {
					"decCredit(address)": "7fbe83e5",
					"getCredit(address)": "57344e6f",
					"incCredit(address)": "904fba8d",
					"setCredit(address)": "1f72a7d5",
					"user2credit(address)": "de6e6d3e"
				}
			},
			"storageLayout": {
				"storage": [
					{
						"astId": 5,
						"contract": ".deps/contracts/creditOp.sol:creditOp",
						"label": "user2credit",
						"offset": 0,
						"slot": "0",
						"type": "t_mapping(t_address,t_uint256)"
					},
					{
						"astId": 8,
						"contract": ".deps/contracts/creditOp.sol:creditOp",
						"label": "initCredit",
						"offset": 0,
						"slot": "1",
						"type": "t_uint256"
					},
					{
						"astId": 11,
						"contract": ".deps/contracts/creditOp.sol:creditOp",
						"label": "upperLimitCredit",
						"offset": 0,
						"slot": "2",
						"type": "t_uint256"
					}
				],
				"types": {
					"t_address": {
						"encoding": "inplace",
						"label": "address",
						"numberOfBytes": "20"
					},
					"t_mapping(t_address,t_uint256)": {
						"encoding": "mapping",
						"key": "t_address",
						"label": "mapping(address => uint256)",
						"numberOfBytes": "32",
						"value": "t_uint256"
					},
					"t_uint256": {
						"encoding": "inplace",
						"label": "uint256",
						"numberOfBytes": "32"
					}
				}
			},
			"userdoc": {
				"kind": "user",
				"methods": {},
				"version": 1
			}
		}
	}
}