{
	".deps/contracts/creditOp.sol": {
		"creditOp": {
			"abi": [
				{
					"inputs": [
						{
							"internalType": "address",
							"name": "_user",
							"type": "address"
						},
						{
							"internalType": "uint256",
							"name": "_dec",
							"type": "uint256"
						}
					],
					"name": "decCredit",
					"outputs": [],
					"stateMutability": "nonpayable",
					"type": "function"
				},
				{
					"inputs": [
						{
							"internalType": "address",
							"name": "_user",
							"type": "address"
						}
					],
					"name": "getCredit",
					"outputs": [
						{
							"internalType": "uint256",
							"name": "",
							"type": "uint256"
						}
					],
					"stateMutability": "view",
					"type": "function"
				},
				{
					"inputs": [
						{
							"internalType": "address",
							"name": "_user",
							"type": "address"
						}
					],
					"name": "incCredit",
					"outputs": [],
					"stateMutability": "nonpayable",
					"type": "function"
				},
				{
					"inputs": [
						{
							"internalType": "address",
							"name": "_user",
							"type": "address"
						}
					],
					"name": "isProjectable",
					"outputs": [
						{
							"internalType": "bool",
							"name": "",
							"type": "bool"
						}
					],
					"stateMutability": "nonpayable",
					"type": "function"
				},
				{
					"inputs": [],
					"name": "listSize",
					"outputs": [
						{
							"internalType": "uint256",
							"name": "",
							"type": "uint256"
						}
					],
					"stateMutability": "view",
					"type": "function"
				},
				{
					"inputs": [
						{
							"internalType": "address",
							"name": "",
							"type": "address"
						}
					],
					"name": "qualifiable",
					"outputs": [
						{
							"internalType": "uint8",
							"name": "",
							"type": "uint8"
						}
					],
					"stateMutability": "view",
					"type": "function"
				},
				{
					"inputs": [
						{
							"internalType": "address",
							"name": "_user",
							"type": "address"
						}
					],
					"name": "setCredit",
					"outputs": [],
					"stateMutability": "nonpayable",
					"type": "function"
				},
				{
					"inputs": [
						{
							"internalType": "address",
							"name": "",
							"type": "address"
						}
					],
					"name": "user2credit",
					"outputs": [
						{
							"internalType": "uint256",
							"name": "",
							"type": "uint256"
						}
					],
					"stateMutability": "view",
					"type": "function"
				}
			],
			"devdoc": {
				"kind": "dev",
				"methods": {},
				"version": 1
			},
			"evm": {
				"assembly": "    /* \".deps/contracts/creditOp.sol\":25:2216  contract creditOp {... */\n  mstore(0x40, 0x80)\n    /* \".deps/contracts/creditOp.sol\":250:255  10000 */\n  0x2710\n    /* \".deps/contracts/creditOp.sol\":221:255  uint256 private initCredit = 10000 */\n  0x04\n  sstore\n    /* \".deps/contracts/creditOp.sol\":296:301  20000 */\n  0x4e20\n    /* \".deps/contracts/creditOp.sol\":261:301  uint256 private upperLimitCredit = 20000 */\n  0x05\n  sstore\n    /* \".deps/contracts/creditOp.sol\":341:345  5000 */\n  0x1388\n    /* \".deps/contracts/creditOp.sol\":307:345  uint256 private qualifiedCredit = 5000 */\n  0x06\n  sstore\n    /* \".deps/contracts/creditOp.sol\":384:388  6000 */\n  0x1770\n    /* \".deps/contracts/creditOp.sol\":351:388  uint256 private returnedCredit = 6000 */\n  0x07\n  sstore\n    /* \".deps/contracts/creditOp.sol\":25:2216  contract creditOp {... */\n  callvalue\n  dup1\n  iszero\n  tag_1\n  jumpi\n  0x00\n  dup1\n  revert\ntag_1:\n  pop\n  dataSize(sub_0)\n  dup1\n  dataOffset(sub_0)\n  0x00\n  codecopy\n  0x00\n  return\nstop\n\nsub_0: assembly {\n        /* \".deps/contracts/creditOp.sol\":25:2216  contract creditOp {... */\n      mstore(0x40, 0x80)\n      callvalue\n      dup1\n      iszero\n      tag_1\n      jumpi\n      0x00\n      dup1\n      revert\n    tag_1:\n      pop\n      jumpi(tag_2, lt(calldatasize, 0x04))\n      shr(0xe0, calldataload(0x00))\n      dup1\n      0x972c5356\n      gt\n      tag_11\n      jumpi\n      dup1\n      0x972c5356\n      eq\n      tag_7\n      jumpi\n      dup1\n      0x9dc29cdb\n      eq\n      tag_8\n      jumpi\n      dup1\n      0xd4268f4a\n      eq\n      tag_9\n      jumpi\n      dup1\n      0xde6e6d3e\n      eq\n      tag_10\n      jumpi\n      jump(tag_2)\n    tag_11:\n      dup1\n      0x1eab150d\n      eq\n      tag_3\n      jumpi\n      dup1\n      0x1f72a7d5\n      eq\n      tag_4\n      jumpi\n      dup1\n      0x57344e6f\n      eq\n      tag_5\n      jumpi\n      dup1\n      0x904fba8d\n      eq\n      tag_6\n      jumpi\n    tag_2:\n      0x00\n      dup1\n      revert\n        /* \".deps/contracts/creditOp.sol\":1479:1610  function isProjectable(address _user) public returns(bool) {... */\n    tag_3:\n      tag_12\n      0x04\n      dup1\n      calldatasize\n      sub\n      0x20\n      dup2\n      lt\n      iszero\n      tag_13\n      jumpi\n      0x00\n      dup1\n      revert\n    tag_13:\n      dup2\n      add\n      swap1\n      dup1\n      dup1\n      calldataload\n      0xffffffffffffffffffffffffffffffffffffffff\n      and\n      swap1\n      0x20\n      add\n      swap1\n      swap3\n      swap2\n      swap1\n      pop\n      pop\n      pop\n      tag_14\n      jump\t// in\n    tag_12:\n      mload(0x40)\n      dup1\n      dup3\n      iszero\n      iszero\n      dup2\n      mstore\n      0x20\n      add\n      swap2\n      pop\n      pop\n      mload(0x40)\n      dup1\n      swap2\n      sub\n      swap1\n      return\n        /* \".deps/contracts/creditOp.sol\":1880:2001  function setCredit(address _user) public {... */\n    tag_4:\n      tag_15\n      0x04\n      dup1\n      calldatasize\n      sub\n      0x20\n      dup2\n      lt\n      iszero\n      tag_16\n      jumpi\n      0x00\n      dup1\n      revert\n    tag_16:\n      dup2\n      add\n      swap1\n      dup1\n      dup1\n      calldataload\n      0xffffffffffffffffffffffffffffffffffffffff\n      and\n      swap1\n      0x20\n      add\n      swap1\n      swap3\n      swap2\n      swap1\n      pop\n      pop\n      pop\n      tag_17\n      jump\t// in\n    tag_15:\n      stop\n        /* \".deps/contracts/creditOp.sol\":1766:1874  function getCredit(address _user) view public returns(uint) {... */\n    tag_5:\n      tag_18\n      0x04\n      dup1\n      calldatasize\n      sub\n      0x20\n      dup2\n      lt\n      iszero\n      tag_19\n      jumpi\n      0x00\n      dup1\n      revert\n    tag_19:\n      dup2\n      add\n      swap1\n      dup1\n      dup1\n      calldataload\n      0xffffffffffffffffffffffffffffffffffffffff\n      and\n      swap1\n      0x20\n      add\n      swap1\n      swap3\n      swap2\n      swap1\n      pop\n      pop\n      pop\n      tag_20\n      jump\t// in\n    tag_18:\n      mload(0x40)\n      dup1\n      dup3\n      dup2\n      mstore\n      0x20\n      add\n      swap2\n      pop\n      pop\n      mload(0x40)\n      dup1\n      swap2\n      sub\n      swap1\n      return\n        /* \".deps/contracts/creditOp.sol\":460:1053  function incCredit(address _user) public {... */\n    tag_6:\n      tag_21\n      0x04\n      dup1\n      calldatasize\n      sub\n      0x20\n      dup2\n      lt\n      iszero\n      tag_22\n      jumpi\n      0x00\n      dup1\n      revert\n    tag_22:\n      dup2\n      add\n      swap1\n      dup1\n      dup1\n      calldataload\n      0xffffffffffffffffffffffffffffffffffffffff\n      and\n      swap1\n      0x20\n      add\n      swap1\n      swap3\n      swap2\n      swap1\n      pop\n      pop\n      pop\n      tag_23\n      jump\t// in\n    tag_21:\n      stop\n        /* \".deps/contracts/creditOp.sol\":139:162  uint256 public listSize */\n    tag_7:\n      tag_24\n      tag_25\n      jump\t// in\n    tag_24:\n      mload(0x40)\n      dup1\n      dup3\n      dup2\n      mstore\n      0x20\n      add\n      swap2\n      pop\n      pop\n      mload(0x40)\n      dup1\n      swap2\n      sub\n      swap1\n      return\n        /* \".deps/contracts/creditOp.sol\":1088:1435  function decCredit(address _user, uint _dec) public {... */\n    tag_8:\n      tag_26\n      0x04\n      dup1\n      calldatasize\n      sub\n      0x40\n      dup2\n      lt\n      iszero\n      tag_27\n      jumpi\n      0x00\n      dup1\n      revert\n    tag_27:\n      dup2\n      add\n      swap1\n      dup1\n      dup1\n      calldataload\n      0xffffffffffffffffffffffffffffffffffffffff\n      and\n      swap1\n      0x20\n      add\n      swap1\n      swap3\n      swap2\n      swap1\n      dup1\n      calldataload\n      swap1\n      0x20\n      add\n      swap1\n      swap3\n      swap2\n      swap1\n      pop\n      pop\n      pop\n      tag_28\n      jump\t// in\n    tag_26:\n      stop\n        /* \".deps/contracts/creditOp.sol\":170:215  mapping (address => uint8) public qualifiable */\n    tag_9:\n      tag_29\n      0x04\n      dup1\n      calldatasize\n      sub\n      0x20\n      dup2\n      lt\n      iszero\n      tag_30\n      jumpi\n      0x00\n      dup1\n      revert\n    tag_30:\n      dup2\n      add\n      swap1\n      dup1\n      dup1\n      calldataload\n      0xffffffffffffffffffffffffffffffffffffffff\n      and\n      swap1\n      0x20\n      add\n      swap1\n      swap3\n      swap2\n      swap1\n      pop\n      pop\n      pop\n      tag_31\n      jump\t// in\n    tag_29:\n      mload(0x40)\n      dup1\n      dup3\n      0xff\n      and\n      dup2\n      mstore\n      0x20\n      add\n      swap2\n      pop\n      pop\n      mload(0x40)\n      dup1\n      swap2\n      sub\n      swap1\n      return\n        /* \".deps/contracts/creditOp.sol\":49:93  mapping (address => uint) public user2credit */\n    tag_10:\n      tag_32\n      0x04\n      dup1\n      calldatasize\n      sub\n      0x20\n      dup2\n      lt\n      iszero\n      tag_33\n      jumpi\n      0x00\n      dup1\n      revert\n    tag_33:\n      dup2\n      add\n      swap1\n      dup1\n      dup1\n      calldataload\n      0xffffffffffffffffffffffffffffffffffffffff\n      and\n      swap1\n      0x20\n      add\n      swap1\n      swap3\n      swap2\n      swap1\n      pop\n      pop\n      pop\n      tag_34\n      jump\t// in\n    tag_32:\n      mload(0x40)\n      dup1\n      dup3\n      dup2\n      mstore\n      0x20\n      add\n      swap2\n      pop\n      pop\n      mload(0x40)\n      dup1\n      swap2\n      sub\n      swap1\n      return\n        /* \".deps/contracts/creditOp.sol\":1479:1610  function isProjectable(address _user) public returns(bool) {... */\n    tag_14:\n        /* \".deps/contracts/creditOp.sol\":1532:1536  bool */\n      0x00\n        /* \".deps/contracts/creditOp.sol\":1555:1575  isQualifiable(_user) */\n      tag_36\n        /* \".deps/contracts/creditOp.sol\":1569:1574  _user */\n      dup3\n        /* \".deps/contracts/creditOp.sol\":1555:1568  isQualifiable */\n      tag_37\n        /* \".deps/contracts/creditOp.sol\":1555:1575  isQualifiable(_user) */\n      jump\t// in\n    tag_36:\n        /* \".deps/contracts/creditOp.sol\":1555:1603  isQualifiable(_user) && (getCredit(_user) >= 50) */\n      dup1\n      iszero\n      tag_38\n      jumpi\n      pop\n        /* \".deps/contracts/creditOp.sol\":1600:1602  50 */\n      0x32\n        /* \".deps/contracts/creditOp.sol\":1580:1596  getCredit(_user) */\n      tag_39\n        /* \".deps/contracts/creditOp.sol\":1590:1595  _user */\n      dup4\n        /* \".deps/contracts/creditOp.sol\":1580:1589  getCredit */\n      tag_20\n        /* \".deps/contracts/creditOp.sol\":1580:1596  getCredit(_user) */\n      jump\t// in\n    tag_39:\n        /* \".deps/contracts/creditOp.sol\":1580:1602  getCredit(_user) >= 50 */\n      lt\n      iszero\n        /* \".deps/contracts/creditOp.sol\":1555:1603  isQualifiable(_user) && (getCredit(_user) >= 50) */\n    tag_38:\n        /* \".deps/contracts/creditOp.sol\":1548:1603  return isQualifiable(_user) && (getCredit(_user) >= 50) */\n      swap1\n      pop\n        /* \".deps/contracts/creditOp.sol\":1479:1610  function isProjectable(address _user) public returns(bool) {... */\n      swap2\n      swap1\n      pop\n      jump\t// out\n        /* \".deps/contracts/creditOp.sol\":1880:2001  function setCredit(address _user) public {... */\n    tag_17:\n        /* \".deps/contracts/creditOp.sol\":1952:1962  initCredit */\n      sload(0x04)\n        /* \".deps/contracts/creditOp.sol\":1931:1942  user2credit */\n      0x00\n        /* \".deps/contracts/creditOp.sol\":1931:1949  user2credit[_user] */\n      dup1\n        /* \".deps/contracts/creditOp.sol\":1943:1948  _user */\n      dup4\n        /* \".deps/contracts/creditOp.sol\":1931:1949  user2credit[_user] */\n      0xffffffffffffffffffffffffffffffffffffffff\n      and\n      0xffffffffffffffffffffffffffffffffffffffff\n      and\n      dup2\n      mstore\n      0x20\n      add\n      swap1\n      dup2\n      mstore\n      0x20\n      add\n      0x00\n      keccak256\n        /* \".deps/contracts/creditOp.sol\":1931:1962  user2credit[_user] = initCredit */\n      dup2\n      swap1\n      sstore\n      pop\n        /* \".deps/contracts/creditOp.sol\":1993:1994  0 */\n      0x00\n        /* \".deps/contracts/creditOp.sol\":1972:1983  qualifiable */\n      0x03\n        /* \".deps/contracts/creditOp.sol\":1972:1990  qualifiable[_user] */\n      0x00\n        /* \".deps/contracts/creditOp.sol\":1984:1989  _user */\n      dup4\n        /* \".deps/contracts/creditOp.sol\":1972:1990  qualifiable[_user] */\n      0xffffffffffffffffffffffffffffffffffffffff\n      and\n      0xffffffffffffffffffffffffffffffffffffffff\n      and\n      dup2\n      mstore\n      0x20\n      add\n      swap1\n      dup2\n      mstore\n      0x20\n      add\n      0x00\n      keccak256\n      0x00\n        /* \".deps/contracts/creditOp.sol\":1972:1994  qualifiable[_user] = 0 */\n      0x0100\n      exp\n      dup2\n      sload\n      dup2\n      0xff\n      mul\n      not\n      and\n      swap1\n      dup4\n      0xff\n      and\n      mul\n      or\n      swap1\n      sstore\n      pop\n        /* \".deps/contracts/creditOp.sol\":1880:2001  function setCredit(address _user) public {... */\n      pop\n      jump\t// out\n        /* \".deps/contracts/creditOp.sol\":1766:1874  function getCredit(address _user) view public returns(uint) {... */\n    tag_20:\n        /* \".deps/contracts/creditOp.sol\":1820:1824  uint */\n      0x00\n        /* \".deps/contracts/creditOp.sol\":1864:1867  100 */\n      0x64\n        /* \".deps/contracts/creditOp.sol\":1843:1854  user2credit */\n      0x00\n        /* \".deps/contracts/creditOp.sol\":1843:1861  user2credit[_user] */\n      dup1\n        /* \".deps/contracts/creditOp.sol\":1855:1860  _user */\n      dup5\n        /* \".deps/contracts/creditOp.sol\":1843:1861  user2credit[_user] */\n      0xffffffffffffffffffffffffffffffffffffffff\n      and\n      0xffffffffffffffffffffffffffffffffffffffff\n      and\n      dup2\n      mstore\n      0x20\n      add\n      swap1\n      dup2\n      mstore\n      0x20\n      add\n      0x00\n      keccak256\n      sload\n        /* \".deps/contracts/creditOp.sol\":1843:1867  user2credit[_user] / 100 */\n      dup2\n      tag_42\n      jumpi\n      invalid\n    tag_42:\n      div\n        /* \".deps/contracts/creditOp.sol\":1836:1867  return user2credit[_user] / 100 */\n      swap1\n      pop\n        /* \".deps/contracts/creditOp.sol\":1766:1874  function getCredit(address _user) view public returns(uint) {... */\n      swap2\n      swap1\n      pop\n      jump\t// out\n        /* \".deps/contracts/creditOp.sol\":460:1053  function incCredit(address _user) public {... */\n    tag_23:\n        /* \".deps/contracts/creditOp.sol\":511:522  uint credit */\n      0x00\n        /* \".deps/contracts/creditOp.sol\":525:536  user2credit */\n      dup1\n        /* \".deps/contracts/creditOp.sol\":525:543  user2credit[_user] */\n      0x00\n        /* \".deps/contracts/creditOp.sol\":537:542  _user */\n      dup4\n        /* \".deps/contracts/creditOp.sol\":525:543  user2credit[_user] */\n      0xffffffffffffffffffffffffffffffffffffffff\n      and\n      0xffffffffffffffffffffffffffffffffffffffff\n      and\n      dup2\n      mstore\n      0x20\n      add\n      swap1\n      dup2\n      mstore\n      0x20\n      add\n      0x00\n      keccak256\n      sload\n        /* \".deps/contracts/creditOp.sol\":511:543  uint credit = user2credit[_user] */\n      swap1\n      pop\n        /* \".deps/contracts/creditOp.sol\":553:574  uint16[6] memory bars */\n      0x00\n        /* \".deps/contracts/creditOp.sol\":553:615  uint16[6] memory bars = [0, 10000, 11000, 15000, 18000, 20000] */\n      mload(0x40)\n      dup1\n      0xc0\n      add\n      0x40\n      mstore\n      dup1\n        /* \".deps/contracts/creditOp.sol\":578:579  0 */\n      0x00\n        /* \".deps/contracts/creditOp.sol\":553:615  uint16[6] memory bars = [0, 10000, 11000, 15000, 18000, 20000] */\n      0xffff\n      and\n      dup2\n      mstore\n      0x20\n      add\n        /* \".deps/contracts/creditOp.sol\":581:586  10000 */\n      0x2710\n        /* \".deps/contracts/creditOp.sol\":553:615  uint16[6] memory bars = [0, 10000, 11000, 15000, 18000, 20000] */\n      0xffff\n      and\n      dup2\n      mstore\n      0x20\n      add\n        /* \".deps/contracts/creditOp.sol\":588:593  11000 */\n      0x2af8\n        /* \".deps/contracts/creditOp.sol\":553:615  uint16[6] memory bars = [0, 10000, 11000, 15000, 18000, 20000] */\n      0xffff\n      and\n      dup2\n      mstore\n      0x20\n      add\n        /* \".deps/contracts/creditOp.sol\":595:600  15000 */\n      0x3a98\n        /* \".deps/contracts/creditOp.sol\":553:615  uint16[6] memory bars = [0, 10000, 11000, 15000, 18000, 20000] */\n      0xffff\n      and\n      dup2\n      mstore\n      0x20\n      add\n        /* \".deps/contracts/creditOp.sol\":602:607  18000 */\n      0x4650\n        /* \".deps/contracts/creditOp.sol\":553:615  uint16[6] memory bars = [0, 10000, 11000, 15000, 18000, 20000] */\n      0xffff\n      and\n      dup2\n      mstore\n      0x20\n      add\n        /* \".deps/contracts/creditOp.sol\":609:614  20000 */\n      0x4e20\n        /* \".deps/contracts/creditOp.sol\":553:615  uint16[6] memory bars = [0, 10000, 11000, 15000, 18000, 20000] */\n      0xffff\n      and\n      dup2\n      mstore\n      pop\n      swap1\n      pop\n        /* \".deps/contracts/creditOp.sol\":625:645  uint8[5] memory incs */\n      0x00\n        /* \".deps/contracts/creditOp.sol\":625:667  uint8[5] memory incs = [100, 96, 16, 5, 1] */\n      mload(0x40)\n      dup1\n      0xa0\n      add\n      0x40\n      mstore\n      dup1\n        /* \".deps/contracts/creditOp.sol\":649:652  100 */\n      0x64\n        /* \".deps/contracts/creditOp.sol\":625:667  uint8[5] memory incs = [100, 96, 16, 5, 1] */\n      0xff\n      and\n      dup2\n      mstore\n      0x20\n      add\n        /* \".deps/contracts/creditOp.sol\":654:656  96 */\n      0x60\n        /* \".deps/contracts/creditOp.sol\":625:667  uint8[5] memory incs = [100, 96, 16, 5, 1] */\n      0xff\n      and\n      dup2\n      mstore\n      0x20\n      add\n        /* \".deps/contracts/creditOp.sol\":658:660  16 */\n      0x10\n        /* \".deps/contracts/creditOp.sol\":625:667  uint8[5] memory incs = [100, 96, 16, 5, 1] */\n      0xff\n      and\n      dup2\n      mstore\n      0x20\n      add\n        /* \".deps/contracts/creditOp.sol\":662:663  5 */\n      0x05\n        /* \".deps/contracts/creditOp.sol\":625:667  uint8[5] memory incs = [100, 96, 16, 5, 1] */\n      0xff\n      and\n      dup2\n      mstore\n      0x20\n      add\n        /* \".deps/contracts/creditOp.sol\":665:666  1 */\n      0x01\n        /* \".deps/contracts/creditOp.sol\":625:667  uint8[5] memory incs = [100, 96, 16, 5, 1] */\n      0xff\n      and\n      dup2\n      mstore\n      pop\n      swap1\n      pop\n        /* \".deps/contracts/creditOp.sol\":690:706  upperLimitCredit */\n      sload(0x05)\n        /* \".deps/contracts/creditOp.sol\":681:687  credit */\n      dup4\n        /* \".deps/contracts/creditOp.sol\":681:706  credit < upperLimitCredit */\n      lt\n        /* \".deps/contracts/creditOp.sol\":677:1047  if (credit < upperLimitCredit) {... */\n      iszero\n      tag_44\n      jumpi\n        /* \".deps/contracts/creditOp.sol\":722:728  uint i */\n      0x00\n        /* \".deps/contracts/creditOp.sol\":746:752  uint j */\n      dup1\n        /* \".deps/contracts/creditOp.sol\":755:756  1 */\n      0x01\n        /* \".deps/contracts/creditOp.sol\":746:756  uint j = 1 */\n      swap1\n      pop\n        /* \".deps/contracts/creditOp.sol\":770:996  while (j < bars.length) {... */\n    tag_45:\n        /* \".deps/contracts/creditOp.sol\":781:792  bars.length */\n      0x06\n        /* \".deps/contracts/creditOp.sol\":777:778  j */\n      dup2\n        /* \".deps/contracts/creditOp.sol\":777:792  j < bars.length */\n      lt\n        /* \".deps/contracts/creditOp.sol\":770:996  while (j < bars.length) {... */\n      iszero\n      tag_46\n      jumpi\n        /* \".deps/contracts/creditOp.sol\":827:833  credit */\n      dup5\n        /* \".deps/contracts/creditOp.sol\":816:820  bars */\n      dup5\n        /* \".deps/contracts/creditOp.sol\":821:822  i */\n      dup4\n        /* \".deps/contracts/creditOp.sol\":816:823  bars[i] */\n      0x06\n      dup2\n      lt\n      tag_47\n      jumpi\n      invalid\n    tag_47:\n      0x20\n      mul\n      add\n      mload\n        /* \".deps/contracts/creditOp.sol\":816:833  bars[i] <= credit */\n      0xffff\n      and\n      gt\n      iszero\n        /* \".deps/contracts/creditOp.sol\":816:853  bars[i] <= credit && credit < bars[j] */\n      dup1\n      iszero\n      tag_48\n      jumpi\n      pop\n        /* \".deps/contracts/creditOp.sol\":846:850  bars */\n      dup4\n        /* \".deps/contracts/creditOp.sol\":851:852  j */\n      dup2\n        /* \".deps/contracts/creditOp.sol\":846:853  bars[j] */\n      0x06\n      dup2\n      lt\n      tag_49\n      jumpi\n      invalid\n    tag_49:\n      0x20\n      mul\n      add\n      mload\n        /* \".deps/contracts/creditOp.sol\":837:853  credit < bars[j] */\n      0xffff\n      and\n        /* \".deps/contracts/creditOp.sol\":837:843  credit */\n      dup6\n        /* \".deps/contracts/creditOp.sol\":837:853  credit < bars[j] */\n      lt\n        /* \".deps/contracts/creditOp.sol\":816:853  bars[i] <= credit && credit < bars[j] */\n    tag_48:\n        /* \".deps/contracts/creditOp.sol\":812:940  if (bars[i] <= credit && credit < bars[j]) {... */\n      iszero\n      tag_50\n      jumpi\n        /* \".deps/contracts/creditOp.sol\":887:891  incs */\n      dup3\n        /* \".deps/contracts/creditOp.sol\":892:893  i */\n      dup3\n        /* \".deps/contracts/creditOp.sol\":887:894  incs[i] */\n      0x05\n      dup2\n      lt\n      tag_51\n      jumpi\n      invalid\n    tag_51:\n      0x20\n      mul\n      add\n      mload\n        /* \".deps/contracts/creditOp.sol\":877:894  credit += incs[i] */\n      0xff\n      and\n      dup6\n      add\n      swap5\n      pop\n        /* \".deps/contracts/creditOp.sol\":916:921  break */\n      jump(tag_46)\n        /* \".deps/contracts/creditOp.sol\":812:940  if (bars[i] <= credit && credit < bars[j]) {... */\n    tag_50:\n        /* \".deps/contracts/creditOp.sol\":957:960  i++ */\n      dup2\n      dup1\n      0x01\n      add\n      swap3\n      pop\n      pop\n        /* \".deps/contracts/creditOp.sol\":978:981  j++ */\n      dup1\n      dup1\n      0x01\n      add\n      swap2\n      pop\n      pop\n        /* \".deps/contracts/creditOp.sol\":770:996  while (j < bars.length) {... */\n      jump(tag_45)\n    tag_46:\n        /* \".deps/contracts/creditOp.sol\":1030:1036  credit */\n      dup5\n        /* \".deps/contracts/creditOp.sol\":1009:1020  user2credit */\n      0x00\n        /* \".deps/contracts/creditOp.sol\":1009:1027  user2credit[_user] */\n      dup1\n        /* \".deps/contracts/creditOp.sol\":1021:1026  _user */\n      dup9\n        /* \".deps/contracts/creditOp.sol\":1009:1027  user2credit[_user] */\n      0xffffffffffffffffffffffffffffffffffffffff\n      and\n      0xffffffffffffffffffffffffffffffffffffffff\n      and\n      dup2\n      mstore\n      0x20\n      add\n      swap1\n      dup2\n      mstore\n      0x20\n      add\n      0x00\n      keccak256\n        /* \".deps/contracts/creditOp.sol\":1009:1036  user2credit[_user] = credit */\n      dup2\n      swap1\n      sstore\n      pop\n        /* \".deps/contracts/creditOp.sol\":677:1047  if (credit < upperLimitCredit) {... */\n      pop\n      pop\n    tag_44:\n        /* \".deps/contracts/creditOp.sol\":460:1053  function incCredit(address _user) public {... */\n      pop\n      pop\n      pop\n      pop\n      jump\t// out\n        /* \".deps/contracts/creditOp.sol\":139:162  uint256 public listSize */\n    tag_25:\n      sload(0x02)\n      dup2\n      jump\t// out\n        /* \".deps/contracts/creditOp.sol\":1088:1435  function decCredit(address _user, uint _dec) public {... */\n    tag_28:\n        /* \".deps/contracts/creditOp.sol\":1150:1161  uint credit */\n      0x00\n        /* \".deps/contracts/creditOp.sol\":1164:1175  user2credit */\n      dup1\n        /* \".deps/contracts/creditOp.sol\":1164:1182  user2credit[_user] */\n      0x00\n        /* \".deps/contracts/creditOp.sol\":1176:1181  _user */\n      dup5\n        /* \".deps/contracts/creditOp.sol\":1164:1182  user2credit[_user] */\n      0xffffffffffffffffffffffffffffffffffffffff\n      and\n      0xffffffffffffffffffffffffffffffffffffffff\n      and\n      dup2\n      mstore\n      0x20\n      add\n      swap1\n      dup2\n      mstore\n      0x20\n      add\n      0x00\n      keccak256\n      sload\n        /* \".deps/contracts/creditOp.sol\":1150:1182  uint credit = user2credit[_user] */\n      swap1\n      pop\n        /* \".deps/contracts/creditOp.sol\":1200:1203  100 */\n      0x64\n        /* \".deps/contracts/creditOp.sol\":1192:1203  _dec *= 100 */\n      dup3\n      mul\n      swap2\n      pop\n        /* \".deps/contracts/creditOp.sol\":1223:1227  _dec */\n      dup2\n        /* \".deps/contracts/creditOp.sol\":1213:1227  credit -= _dec */\n      dup2\n      sub\n      swap1\n      pop\n        /* \".deps/contracts/creditOp.sol\":1285:1287  50 */\n      0x32\n        /* \".deps/contracts/creditOp.sol\":1276:1282  credit */\n      dup2\n        /* \".deps/contracts/creditOp.sol\":1276:1287  credit < 50 */\n      lt\n        /* \".deps/contracts/creditOp.sol\":1272:1392  if (credit < 50) {... */\n      iszero\n      tag_53\n      jumpi\n        /* \".deps/contracts/creditOp.sol\":1303:1315  uint8 isQual */\n      0x00\n        /* \".deps/contracts/creditOp.sol\":1318:1329  qualifiable */\n      0x03\n        /* \".deps/contracts/creditOp.sol\":1318:1336  qualifiable[_user] */\n      0x00\n        /* \".deps/contracts/creditOp.sol\":1330:1335  _user */\n      dup6\n        /* \".deps/contracts/creditOp.sol\":1318:1336  qualifiable[_user] */\n      0xffffffffffffffffffffffffffffffffffffffff\n      and\n      0xffffffffffffffffffffffffffffffffffffffff\n      and\n      dup2\n      mstore\n      0x20\n      add\n      swap1\n      dup2\n      mstore\n      0x20\n      add\n      0x00\n      keccak256\n      0x00\n      swap1\n      sload\n      swap1\n      0x0100\n      exp\n      swap1\n      div\n      0xff\n      and\n        /* \".deps/contracts/creditOp.sol\":1303:1336  uint8 isQual = qualifiable[_user] */\n      swap1\n      pop\n        /* \".deps/contracts/creditOp.sol\":1380:1381  1 */\n      0x01\n        /* \".deps/contracts/creditOp.sol\":1371:1377  isQual */\n      dup2\n        /* \".deps/contracts/creditOp.sol\":1371:1381  isQual + 1 */\n      add\n        /* \".deps/contracts/creditOp.sol\":1350:1361  qualifiable */\n      0x03\n        /* \".deps/contracts/creditOp.sol\":1350:1368  qualifiable[_user] */\n      0x00\n        /* \".deps/contracts/creditOp.sol\":1362:1367  _user */\n      dup7\n        /* \".deps/contracts/creditOp.sol\":1350:1368  qualifiable[_user] */\n      0xffffffffffffffffffffffffffffffffffffffff\n      and\n      0xffffffffffffffffffffffffffffffffffffffff\n      and\n      dup2\n      mstore\n      0x20\n      add\n      swap1\n      dup2\n      mstore\n      0x20\n      add\n      0x00\n      keccak256\n      0x00\n        /* \".deps/contracts/creditOp.sol\":1350:1381  qualifiable[_user] = isQual + 1 */\n      0x0100\n      exp\n      dup2\n      sload\n      dup2\n      0xff\n      mul\n      not\n      and\n      swap1\n      dup4\n      0xff\n      and\n      mul\n      or\n      swap1\n      sstore\n      pop\n        /* \".deps/contracts/creditOp.sol\":1272:1392  if (credit < 50) {... */\n      pop\n    tag_53:\n        /* \".deps/contracts/creditOp.sol\":1422:1428  credit */\n      dup1\n        /* \".deps/contracts/creditOp.sol\":1401:1412  user2credit */\n      0x00\n        /* \".deps/contracts/creditOp.sol\":1401:1419  user2credit[_user] */\n      dup1\n        /* \".deps/contracts/creditOp.sol\":1413:1418  _user */\n      dup6\n        /* \".deps/contracts/creditOp.sol\":1401:1419  user2credit[_user] */\n      0xffffffffffffffffffffffffffffffffffffffff\n      and\n      0xffffffffffffffffffffffffffffffffffffffff\n      and\n      dup2\n      mstore\n      0x20\n      add\n      swap1\n      dup2\n      mstore\n      0x20\n      add\n      0x00\n      keccak256\n        /* \".deps/contracts/creditOp.sol\":1401:1428  user2credit[_user] = credit */\n      dup2\n      swap1\n      sstore\n      pop\n        /* \".deps/contracts/creditOp.sol\":1088:1435  function decCredit(address _user, uint _dec) public {... */\n      pop\n      pop\n      pop\n      jump\t// out\n        /* \".deps/contracts/creditOp.sol\":170:215  mapping (address => uint8) public qualifiable */\n    tag_31:\n      mstore(0x20, 0x03)\n      dup1\n      0x00\n      mstore\n      keccak256(0x00, 0x40)\n      0x00\n      swap2\n      pop\n      sload\n      swap1\n      0x0100\n      exp\n      swap1\n      div\n      0xff\n      and\n      dup2\n      jump\t// out\n        /* \".deps/contracts/creditOp.sol\":49:93  mapping (address => uint) public user2credit */\n    tag_34:\n      mstore(0x20, 0x00)\n      dup1\n      0x00\n      mstore\n      keccak256(0x00, 0x40)\n      0x00\n      swap2\n      pop\n      swap1\n      pop\n      sload\n      dup2\n      jump\t// out\n        /* \".deps/contracts/creditOp.sol\":1654:1760  function isQualifiable(address _user) private returns(bool) {... */\n    tag_37:\n        /* \".deps/contracts/creditOp.sol\":1708:1712  bool */\n      0x00\n        /* \".deps/contracts/creditOp.sol\":1752:1753  2 */\n      0x02\n        /* \".deps/contracts/creditOp.sol\":1731:1742  qualifiable */\n      0x03\n        /* \".deps/contracts/creditOp.sol\":1731:1749  qualifiable[_user] */\n      0x00\n        /* \".deps/contracts/creditOp.sol\":1743:1748  _user */\n      dup5\n        /* \".deps/contracts/creditOp.sol\":1731:1749  qualifiable[_user] */\n      0xffffffffffffffffffffffffffffffffffffffff\n      and\n      0xffffffffffffffffffffffffffffffffffffffff\n      and\n      dup2\n      mstore\n      0x20\n      add\n      swap1\n      dup2\n      mstore\n      0x20\n      add\n      0x00\n      keccak256\n      0x00\n      swap1\n      sload\n      swap1\n      0x0100\n      exp\n      swap1\n      div\n      0xff\n      and\n        /* \".deps/contracts/creditOp.sol\":1731:1753  qualifiable[_user] < 2 */\n      0xff\n      and\n      lt\n        /* \".deps/contracts/creditOp.sol\":1724:1753  return qualifiable[_user] < 2 */\n      swap1\n      pop\n        /* \".deps/contracts/creditOp.sol\":1654:1760  function isQualifiable(address _user) private returns(bool) {... */\n      swap2\n      swap1\n      pop\n      jump\t// out\n\n    auxdata: 0xa2646970667358221220ff4b2dc5e1a3a997682059950b99b76073e730e1d6bb255b637a2f17201fadf564736f6c63430007060033\n}\n",
				"bytecode": {
					"linkReferences": {},
					"object": "6080604052612710600455614e2060055561138860065561177060075534801561002857600080fd5b506107c8806100386000396000f3fe608060405234801561001057600080fd5b50600436106100885760003560e01c8063972c53561161005b578063972c5356146101c75780639dc29cdb146101e5578063d4268f4a14610233578063de6e6d3e1461028e57610088565b80631eab150d1461008d5780631f72a7d5146100e757806357344e6f1461012b578063904fba8d14610183575b600080fd5b6100cf600480360360208110156100a357600080fd5b81019080803573ffffffffffffffffffffffffffffffffffffffff1690602001909291905050506102e6565b60405180821515815260200191505060405180910390f35b610129600480360360208110156100fd57600080fd5b81019080803573ffffffffffffffffffffffffffffffffffffffff16906020019092919050505061030d565b005b61016d6004803603602081101561014157600080fd5b81019080803573ffffffffffffffffffffffffffffffffffffffff1690602001909291905050506103ae565b6040518082815260200191505060405180910390f35b6101c56004803603602081101561019957600080fd5b81019080803573ffffffffffffffffffffffffffffffffffffffff169060200190929190505050610400565b005b6101cf6105ab565b6040518082815260200191505060405180910390f35b610231600480360360408110156101fb57600080fd5b81019080803573ffffffffffffffffffffffffffffffffffffffff169060200190929190803590602001909291905050506105b1565b005b6102756004803603602081101561024957600080fd5b81019080803573ffffffffffffffffffffffffffffffffffffffff1690602001909291905050506106fe565b604051808260ff16815260200191505060405180910390f35b6102d0600480360360208110156102a457600080fd5b81019080803573ffffffffffffffffffffffffffffffffffffffff16906020019092919050505061071e565b6040518082815260200191505060405180910390f35b60006102f182610736565b801561030657506032610303836103ae565b10155b9050919050565b6004546000808373ffffffffffffffffffffffffffffffffffffffff1673ffffffffffffffffffffffffffffffffffffffff168152602001908152602001600020819055506000600360008373ffffffffffffffffffffffffffffffffffffffff1673ffffffffffffffffffffffffffffffffffffffff16815260200190815260200160002060006101000a81548160ff021916908360ff16021790555050565b600060646000808473ffffffffffffffffffffffffffffffffffffffff1673ffffffffffffffffffffffffffffffffffffffff16815260200190815260200160002054816103f857fe5b049050919050565b60008060008373ffffffffffffffffffffffffffffffffffffffff1673ffffffffffffffffffffffffffffffffffffffff16815260200190815260200160002054905060006040518060c00160405280600061ffff16815260200161271061ffff168152602001612af861ffff168152602001613a9861ffff16815260200161465061ffff168152602001614e2061ffff16815250905060006040518060a00160405280606460ff168152602001606060ff168152602001601060ff168152602001600560ff168152602001600160ff1681525090506005548310156105a557600080600190505b600681101561055f57848483600681106104fe57fe5b602002015161ffff1611158015610528575083816006811061051c57fe5b602002015161ffff1685105b1561054a5782826005811061053957fe5b602002015160ff168501945061055f565b818060010192505080806001019150506104e8565b846000808873ffffffffffffffffffffffffffffffffffffffff1673ffffffffffffffffffffffffffffffffffffffff1681526020019081526020016000208190555050505b50505050565b60025481565b60008060008473ffffffffffffffffffffffffffffffffffffffff1673ffffffffffffffffffffffffffffffffffffffff168152602001908152602001600020549050606482029150818103905060328110156106b6576000600360008573ffffffffffffffffffffffffffffffffffffffff1673ffffffffffffffffffffffffffffffffffffffff16815260200190815260200160002060009054906101000a900460ff16905060018101600360008673ffffffffffffffffffffffffffffffffffffffff1673ffffffffffffffffffffffffffffffffffffffff16815260200190815260200160002060006101000a81548160ff021916908360ff160217905550505b806000808573ffffffffffffffffffffffffffffffffffffffff1673ffffffffffffffffffffffffffffffffffffffff16815260200190815260200160002081905550505050565b60036020528060005260406000206000915054906101000a900460ff1681565b60006020528060005260406000206000915090505481565b60006002600360008473ffffffffffffffffffffffffffffffffffffffff1673ffffffffffffffffffffffffffffffffffffffff16815260200190815260200160002060009054906101000a900460ff1660ff1610905091905056fea2646970667358221220ff4b2dc5e1a3a997682059950b99b76073e730e1d6bb255b637a2f17201fadf564736f6c63430007060033",
					"opcodes": "PUSH1 0x80 PUSH1 0x40 MSTORE PUSH2 0x2710 PUSH1 0x4 SSTORE PUSH2 0x4E20 PUSH1 0x5 SSTORE PUSH2 0x1388 PUSH1 0x6 SSTORE PUSH2 0x1770 PUSH1 0x7 SSTORE CALLVALUE DUP1 ISZERO PUSH2 0x28 JUMPI PUSH1 0x0 DUP1 REVERT JUMPDEST POP PUSH2 0x7C8 DUP1 PUSH2 0x38 PUSH1 0x0 CODECOPY PUSH1 0x0 RETURN INVALID PUSH1 0x80 PUSH1 0x40 MSTORE CALLVALUE DUP1 ISZERO PUSH2 0x10 JUMPI PUSH1 0x0 DUP1 REVERT JUMPDEST POP PUSH1 0x4 CALLDATASIZE LT PUSH2 0x88 JUMPI PUSH1 0x0 CALLDATALOAD PUSH1 0xE0 SHR DUP1 PUSH4 0x972C5356 GT PUSH2 0x5B JUMPI DUP1 PUSH4 0x972C5356 EQ PUSH2 0x1C7 JUMPI DUP1 PUSH4 0x9DC29CDB EQ PUSH2 0x1E5 JUMPI DUP1 PUSH4 0xD4268F4A EQ PUSH2 0x233 JUMPI DUP1 PUSH4 0xDE6E6D3E EQ PUSH2 0x28E JUMPI PUSH2 0x88 JUMP JUMPDEST DUP1 PUSH4 0x1EAB150D EQ PUSH2 0x8D JUMPI DUP1 PUSH4 0x1F72A7D5 EQ PUSH2 0xE7 JUMPI DUP1 PUSH4 0x57344E6F EQ PUSH2 0x12B JUMPI DUP1 PUSH4 0x904FBA8D EQ PUSH2 0x183 JUMPI JUMPDEST PUSH1 0x0 DUP1 REVERT JUMPDEST PUSH2 0xCF PUSH1 0x4 DUP1 CALLDATASIZE SUB PUSH1 0x20 DUP2 LT ISZERO PUSH2 0xA3 JUMPI PUSH1 0x0 DUP1 REVERT JUMPDEST DUP2 ADD SWAP1 DUP1 DUP1 CALLDATALOAD PUSH20 0xFFFFFFFFFFFFFFFFFFFFFFFFFFFFFFFFFFFFFFFF AND SWAP1 PUSH1 0x20 ADD SWAP1 SWAP3 SWAP2 SWAP1 POP POP POP PUSH2 0x2E6 JUMP JUMPDEST PUSH1 0x40 MLOAD DUP1 DUP3 ISZERO ISZERO DUP2 MSTORE PUSH1 0x20 ADD SWAP2 POP POP PUSH1 0x40 MLOAD DUP1 SWAP2 SUB SWAP1 RETURN JUMPDEST PUSH2 0x129 PUSH1 0x4 DUP1 CALLDATASIZE SUB PUSH1 0x20 DUP2 LT ISZERO PUSH2 0xFD JUMPI PUSH1 0x0 DUP1 REVERT JUMPDEST DUP2 ADD SWAP1 DUP1 DUP1 CALLDATALOAD PUSH20 0xFFFFFFFFFFFFFFFFFFFFFFFFFFFFFFFFFFFFFFFF AND SWAP1 PUSH1 0x20 ADD SWAP1 SWAP3 SWAP2 SWAP1 POP POP POP PUSH2 0x30D JUMP JUMPDEST STOP JUMPDEST PUSH2 0x16D PUSH1 0x4 DUP1 CALLDATASIZE SUB PUSH1 0x20 DUP2 LT ISZERO PUSH2 0x141 JUMPI PUSH1 0x0 DUP1 REVERT JUMPDEST DUP2 ADD SWAP1 DUP1 DUP1 CALLDATALOAD PUSH20 0xFFFFFFFFFFFFFFFFFFFFFFFFFFFFFFFFFFFFFFFF AND SWAP1 PUSH1 0x20 ADD SWAP1 SWAP3 SWAP2 SWAP1 POP POP POP PUSH2 0x3AE JUMP JUMPDEST PUSH1 0x40 MLOAD DUP1 DUP3 DUP2 MSTORE PUSH1 0x20 ADD SWAP2 POP POP PUSH1 0x40 MLOAD DUP1 SWAP2 SUB SWAP1 RETURN JUMPDEST PUSH2 0x1C5 PUSH1 0x4 DUP1 CALLDATASIZE SUB PUSH1 0x20 DUP2 LT ISZERO PUSH2 0x199 JUMPI PUSH1 0x0 DUP1 REVERT JUMPDEST DUP2 ADD SWAP1 DUP1 DUP1 CALLDATALOAD PUSH20 0xFFFFFFFFFFFFFFFFFFFFFFFFFFFFFFFFFFFFFFFF AND SWAP1 PUSH1 0x20 ADD SWAP1 SWAP3 SWAP2 SWAP1 POP POP POP PUSH2 0x400 JUMP JUMPDEST STOP JUMPDEST PUSH2 0x1CF PUSH2 0x5AB JUMP JUMPDEST PUSH1 0x40 MLOAD DUP1 DUP3 DUP2 MSTORE PUSH1 0x20 ADD SWAP2 POP POP PUSH1 0x40 MLOAD DUP1 SWAP2 SUB SWAP1 RETURN JUMPDEST PUSH2 0x231 PUSH1 0x4 DUP1 CALLDATASIZE SUB PUSH1 0x40 DUP2 LT ISZERO PUSH2 0x1FB JUMPI PUSH1 0x0 DUP1 REVERT JUMPDEST DUP2 ADD SWAP1 DUP1 DUP1 CALLDATALOAD PUSH20 0xFFFFFFFFFFFFFFFFFFFFFFFFFFFFFFFFFFFFFFFF AND SWAP1 PUSH1 0x20 ADD SWAP1 SWAP3 SWAP2 SWAP1 DUP1 CALLDATALOAD SWAP1 PUSH1 0x20 ADD SWAP1 SWAP3 SWAP2 SWAP1 POP POP POP PUSH2 0x5B1 JUMP JUMPDEST STOP JUMPDEST PUSH2 0x275 PUSH1 0x4 DUP1 CALLDATASIZE SUB PUSH1 0x20 DUP2 LT ISZERO PUSH2 0x249 JUMPI PUSH1 0x0 DUP1 REVERT JUMPDEST DUP2 ADD SWAP1 DUP1 DUP1 CALLDATALOAD PUSH20 0xFFFFFFFFFFFFFFFFFFFFFFFFFFFFFFFFFFFFFFFF AND SWAP1 PUSH1 0x20 ADD SWAP1 SWAP3 SWAP2 SWAP1 POP POP POP PUSH2 0x6FE JUMP JUMPDEST PUSH1 0x40 MLOAD DUP1 DUP3 PUSH1 0xFF AND DUP2 MSTORE PUSH1 0x20 ADD SWAP2 POP POP PUSH1 0x40 MLOAD DUP1 SWAP2 SUB SWAP1 RETURN JUMPDEST PUSH2 0x2D0 PUSH1 0x4 DUP1 CALLDATASIZE SUB PUSH1 0x20 DUP2 LT ISZERO PUSH2 0x2A4 JUMPI PUSH1 0x0 DUP1 REVERT JUMPDEST DUP2 ADD SWAP1 DUP1 DUP1 CALLDATALOAD PUSH20 0xFFFFFFFFFFFFFFFFFFFFFFFFFFFFFFFFFFFFFFFF AND SWAP1 PUSH1 0x20 ADD SWAP1 SWAP3 SWAP2 SWAP1 POP POP POP PUSH2 0x71E JUMP JUMPDEST PUSH1 0x40 MLOAD DUP1 DUP3 DUP2 MSTORE PUSH1 0x20 ADD SWAP2 POP POP PUSH1 0x40 MLOAD DUP1 SWAP2 SUB SWAP1 RETURN JUMPDEST PUSH1 0x0 PUSH2 0x2F1 DUP3 PUSH2 0x736 JUMP JUMPDEST DUP1 ISZERO PUSH2 0x306 JUMPI POP PUSH1 0x32 PUSH2 0x303 DUP4 PUSH2 0x3AE JUMP JUMPDEST LT ISZERO JUMPDEST SWAP1 POP SWAP2 SWAP1 POP JUMP JUMPDEST PUSH1 0x4 SLOAD PUSH1 0x0 DUP1 DUP4 PUSH20 0xFFFFFFFFFFFFFFFFFFFFFFFFFFFFFFFFFFFFFFFF AND PUSH20 0xFFFFFFFFFFFFFFFFFFFFFFFFFFFFFFFFFFFFFFFF AND DUP2 MSTORE PUSH1 0x20 ADD SWAP1 DUP2 MSTORE PUSH1 0x20 ADD PUSH1 0x0 KECCAK256 DUP2 SWAP1 SSTORE POP PUSH1 0x0 PUSH1 0x3 PUSH1 0x0 DUP4 PUSH20 0xFFFFFFFFFFFFFFFFFFFFFFFFFFFFFFFFFFFFFFFF AND PUSH20 0xFFFFFFFFFFFFFFFFFFFFFFFFFFFFFFFFFFFFFFFF AND DUP2 MSTORE PUSH1 0x20 ADD SWAP1 DUP2 MSTORE PUSH1 0x20 ADD PUSH1 0x0 KECCAK256 PUSH1 0x0 PUSH2 0x100 EXP DUP2 SLOAD DUP2 PUSH1 0xFF MUL NOT AND SWAP1 DUP4 PUSH1 0xFF AND MUL OR SWAP1 SSTORE POP POP JUMP JUMPDEST PUSH1 0x0 PUSH1 0x64 PUSH1 0x0 DUP1 DUP5 PUSH20 0xFFFFFFFFFFFFFFFFFFFFFFFFFFFFFFFFFFFFFFFF AND PUSH20 0xFFFFFFFFFFFFFFFFFFFFFFFFFFFFFFFFFFFFFFFF AND DUP2 MSTORE PUSH1 0x20 ADD SWAP1 DUP2 MSTORE PUSH1 0x20 ADD PUSH1 0x0 KECCAK256 SLOAD DUP2 PUSH2 0x3F8 JUMPI INVALID JUMPDEST DIV SWAP1 POP SWAP2 SWAP1 POP JUMP JUMPDEST PUSH1 0x0 DUP1 PUSH1 0x0 DUP4 PUSH20 0xFFFFFFFFFFFFFFFFFFFFFFFFFFFFFFFFFFFFFFFF AND PUSH20 0xFFFFFFFFFFFFFFFFFFFFFFFFFFFFFFFFFFFFFFFF AND DUP2 MSTORE PUSH1 0x20 ADD SWAP1 DUP2 MSTORE PUSH1 0x20 ADD PUSH1 0x0 KECCAK256 SLOAD SWAP1 POP PUSH1 0x0 PUSH1 0x40 MLOAD DUP1 PUSH1 0xC0 ADD PUSH1 0x40 MSTORE DUP1 PUSH1 0x0 PUSH2 0xFFFF AND DUP2 MSTORE PUSH1 0x20 ADD PUSH2 0x2710 PUSH2 0xFFFF AND DUP2 MSTORE PUSH1 0x20 ADD PUSH2 0x2AF8 PUSH2 0xFFFF AND DUP2 MSTORE PUSH1 0x20 ADD PUSH2 0x3A98 PUSH2 0xFFFF AND DUP2 MSTORE PUSH1 0x20 ADD PUSH2 0x4650 PUSH2 0xFFFF AND DUP2 MSTORE PUSH1 0x20 ADD PUSH2 0x4E20 PUSH2 0xFFFF AND DUP2 MSTORE POP SWAP1 POP PUSH1 0x0 PUSH1 0x40 MLOAD DUP1 PUSH1 0xA0 ADD PUSH1 0x40 MSTORE DUP1 PUSH1 0x64 PUSH1 0xFF AND DUP2 MSTORE PUSH1 0x20 ADD PUSH1 0x60 PUSH1 0xFF AND DUP2 MSTORE PUSH1 0x20 ADD PUSH1 0x10 PUSH1 0xFF AND DUP2 MSTORE PUSH1 0x20 ADD PUSH1 0x5 PUSH1 0xFF AND DUP2 MSTORE PUSH1 0x20 ADD PUSH1 0x1 PUSH1 0xFF AND DUP2 MSTORE POP SWAP1 POP PUSH1 0x5 SLOAD DUP4 LT ISZERO PUSH2 0x5A5 JUMPI PUSH1 0x0 DUP1 PUSH1 0x1 SWAP1 POP JUMPDEST PUSH1 0x6 DUP2 LT ISZERO PUSH2 0x55F JUMPI DUP5 DUP5 DUP4 PUSH1 0x6 DUP2 LT PUSH2 0x4FE JUMPI INVALID JUMPDEST PUSH1 0x20 MUL ADD MLOAD PUSH2 0xFFFF AND GT ISZERO DUP1 ISZERO PUSH2 0x528 JUMPI POP DUP4 DUP2 PUSH1 0x6 DUP2 LT PUSH2 0x51C JUMPI INVALID JUMPDEST PUSH1 0x20 MUL ADD MLOAD PUSH2 0xFFFF AND DUP6 LT JUMPDEST ISZERO PUSH2 0x54A JUMPI DUP3 DUP3 PUSH1 0x5 DUP2 LT PUSH2 0x539 JUMPI INVALID JUMPDEST PUSH1 0x20 MUL ADD MLOAD PUSH1 0xFF AND DUP6 ADD SWAP5 POP PUSH2 0x55F JUMP JUMPDEST DUP2 DUP1 PUSH1 0x1 ADD SWAP3 POP POP DUP1 DUP1 PUSH1 0x1 ADD SWAP2 POP POP PUSH2 0x4E8 JUMP JUMPDEST DUP5 PUSH1 0x0 DUP1 DUP9 PUSH20 0xFFFFFFFFFFFFFFFFFFFFFFFFFFFFFFFFFFFFFFFF AND PUSH20 0xFFFFFFFFFFFFFFFFFFFFFFFFFFFFFFFFFFFFFFFF AND DUP2 MSTORE PUSH1 0x20 ADD SWAP1 DUP2 MSTORE PUSH1 0x20 ADD PUSH1 0x0 KECCAK256 DUP2 SWAP1 SSTORE POP POP POP JUMPDEST POP POP POP POP JUMP JUMPDEST PUSH1 0x2 SLOAD DUP2 JUMP JUMPDEST PUSH1 0x0 DUP1 PUSH1 0x0 DUP5 PUSH20 0xFFFFFFFFFFFFFFFFFFFFFFFFFFFFFFFFFFFFFFFF AND PUSH20 0xFFFFFFFFFFFFFFFFFFFFFFFFFFFFFFFFFFFFFFFF AND DUP2 MSTORE PUSH1 0x20 ADD SWAP1 DUP2 MSTORE PUSH1 0x20 ADD PUSH1 0x0 KECCAK256 SLOAD SWAP1 POP PUSH1 0x64 DUP3 MUL SWAP2 POP DUP2 DUP2 SUB SWAP1 POP PUSH1 0x32 DUP2 LT ISZERO PUSH2 0x6B6 JUMPI PUSH1 0x0 PUSH1 0x3 PUSH1 0x0 DUP6 PUSH20 0xFFFFFFFFFFFFFFFFFFFFFFFFFFFFFFFFFFFFFFFF AND PUSH20 0xFFFFFFFFFFFFFFFFFFFFFFFFFFFFFFFFFFFFFFFF AND DUP2 MSTORE PUSH1 0x20 ADD SWAP1 DUP2 MSTORE PUSH1 0x20 ADD PUSH1 0x0 KECCAK256 PUSH1 0x0 SWAP1 SLOAD SWAP1 PUSH2 0x100 EXP SWAP1 DIV PUSH1 0xFF AND SWAP1 POP PUSH1 0x1 DUP2 ADD PUSH1 0x3 PUSH1 0x0 DUP7 PUSH20 0xFFFFFFFFFFFFFFFFFFFFFFFFFFFFFFFFFFFFFFFF AND PUSH20 0xFFFFFFFFFFFFFFFFFFFFFFFFFFFFFFFFFFFFFFFF AND DUP2 MSTORE PUSH1 0x20 ADD SWAP1 DUP2 MSTORE PUSH1 0x20 ADD PUSH1 0x0 KECCAK256 PUSH1 0x0 PUSH2 0x100 EXP DUP2 SLOAD DUP2 PUSH1 0xFF MUL NOT AND SWAP1 DUP4 PUSH1 0xFF AND MUL OR SWAP1 SSTORE POP POP JUMPDEST DUP1 PUSH1 0x0 DUP1 DUP6 PUSH20 0xFFFFFFFFFFFFFFFFFFFFFFFFFFFFFFFFFFFFFFFF AND PUSH20 0xFFFFFFFFFFFFFFFFFFFFFFFFFFFFFFFFFFFFFFFF AND DUP2 MSTORE PUSH1 0x20 ADD SWAP1 DUP2 MSTORE PUSH1 0x20 ADD PUSH1 0x0 KECCAK256 DUP2 SWAP1 SSTORE POP POP POP POP JUMP JUMPDEST PUSH1 0x3 PUSH1 0x20 MSTORE DUP1 PUSH1 0x0 MSTORE PUSH1 0x40 PUSH1 0x0 KECCAK256 PUSH1 0x0 SWAP2 POP SLOAD SWAP1 PUSH2 0x100 EXP SWAP1 DIV PUSH1 0xFF AND DUP2 JUMP JUMPDEST PUSH1 0x0 PUSH1 0x20 MSTORE DUP1 PUSH1 0x0 MSTORE PUSH1 0x40 PUSH1 0x0 KECCAK256 PUSH1 0x0 SWAP2 POP SWAP1 POP SLOAD DUP2 JUMP JUMPDEST PUSH1 0x0 PUSH1 0x2 PUSH1 0x3 PUSH1 0x0 DUP5 PUSH20 0xFFFFFFFFFFFFFFFFFFFFFFFFFFFFFFFFFFFFFFFF AND PUSH20 0xFFFFFFFFFFFFFFFFFFFFFFFFFFFFFFFFFFFFFFFF AND DUP2 MSTORE PUSH1 0x20 ADD SWAP1 DUP2 MSTORE PUSH1 0x20 ADD PUSH1 0x0 KECCAK256 PUSH1 0x0 SWAP1 SLOAD SWAP1 PUSH2 0x100 EXP SWAP1 DIV PUSH1 0xFF AND PUSH1 0xFF AND LT SWAP1 POP SWAP2 SWAP1 POP JUMP INVALID LOG2 PUSH5 0x6970667358 0x22 SLT KECCAK256 SELFDESTRUCT 0x4B 0x2D 0xC5 0xE1 LOG3 0xA9 SWAP8 PUSH9 0x2059950B99B76073E7 ADDRESS 0xE1 0xD6 0xBB 0x25 JUMPDEST PUSH4 0x7A2F1720 0x1F 0xAD CREATE2 PUSH5 0x736F6C6343 STOP SMOD MOD STOP CALLER "
				},
				"gasEstimates": {
					"creation": {
						"codeDepositCost": "398400",
						"executionCost": "80460",
						"totalCost": "478860"
					},
					"external": {
						"decCredit(address,uint256)": "43250",
						"getCredit(address)": "1266",
						"incCredit(address)": "infinite",
						"isProjectable(address)": "2286",
						"listSize()": "1005",
						"qualifiable(address)": "1244",
						"setCredit(address)": "42118",
						"user2credit(address)": "1235"
					},
					"internal": {
						"isQualifiable(address)": "972"
					}
				},
				"methodIdentifiers": {
					"decCredit(address,uint256)": "9dc29cdb",
					"getCredit(address)": "57344e6f",
					"incCredit(address)": "904fba8d",
					"isProjectable(address)": "1eab150d",
					"listSize()": "972c5356",
					"qualifiable(address)": "d4268f4a",
					"setCredit(address)": "1f72a7d5",
					"user2credit(address)": "de6e6d3e"
				}
			},
			"storageLayout": {
				"storage": [
					{
						"astId": 5,
						"contract": ".deps/contracts/creditOp.sol:creditOp",
						"label": "user2credit",
						"offset": 0,
						"slot": "0",
						"type": "t_mapping(t_address,t_uint256)"
					},
					{
						"astId": 9,
						"contract": ".deps/contracts/creditOp.sol:creditOp",
						"label": "_next",
						"offset": 0,
						"slot": "1",
						"type": "t_mapping(t_address,t_address)"
					},
					{
						"astId": 11,
						"contract": ".deps/contracts/creditOp.sol:creditOp",
						"label": "listSize",
						"offset": 0,
						"slot": "2",
						"type": "t_uint256"
					},
					{
						"astId": 15,
						"contract": ".deps/contracts/creditOp.sol:creditOp",
						"label": "qualifiable",
						"offset": 0,
						"slot": "3",
						"type": "t_mapping(t_address,t_uint8)"
					},
					{
						"astId": 18,
						"contract": ".deps/contracts/creditOp.sol:creditOp",
						"label": "initCredit",
						"offset": 0,
						"slot": "4",
						"type": "t_uint256"
					},
					{
						"astId": 21,
						"contract": ".deps/contracts/creditOp.sol:creditOp",
						"label": "upperLimitCredit",
						"offset": 0,
						"slot": "5",
						"type": "t_uint256"
					},
					{
						"astId": 24,
						"contract": ".deps/contracts/creditOp.sol:creditOp",
						"label": "qualifiedCredit",
						"offset": 0,
						"slot": "6",
						"type": "t_uint256"
					},
					{
						"astId": 27,
						"contract": ".deps/contracts/creditOp.sol:creditOp",
						"label": "returnedCredit",
						"offset": 0,
						"slot": "7",
						"type": "t_uint256"
					}
				],
				"types": {
					"t_address": {
						"encoding": "inplace",
						"label": "address",
						"numberOfBytes": "20"
					},
					"t_mapping(t_address,t_address)": {
						"encoding": "mapping",
						"key": "t_address",
						"label": "mapping(address => address)",
						"numberOfBytes": "32",
						"value": "t_address"
					},
					"t_mapping(t_address,t_uint256)": {
						"encoding": "mapping",
						"key": "t_address",
						"label": "mapping(address => uint256)",
						"numberOfBytes": "32",
						"value": "t_uint256"
					},
					"t_mapping(t_address,t_uint8)": {
						"encoding": "mapping",
						"key": "t_address",
						"label": "mapping(address => uint8)",
						"numberOfBytes": "32",
						"value": "t_uint8"
					},
					"t_uint256": {
						"encoding": "inplace",
						"label": "uint256",
						"numberOfBytes": "32"
					},
					"t_uint8": {
						"encoding": "inplace",
						"label": "uint8",
						"numberOfBytes": "1"
					}
				}
			},
			"userdoc": {
				"kind": "user",
				"methods": {},
				"version": 1
			}
		}
	}
}