{
	".deps/contracts/creditOp.sol": {
		"creditOp": {
			"abi": [
				{
					"inputs": [],
					"stateMutability": "nonpayable",
					"type": "constructor"
				},
				{
					"inputs": [
						{
							"internalType": "address",
							"name": "_user",
							"type": "address"
						},
						{
							"internalType": "uint256",
							"name": "credit",
							"type": "uint256"
						}
					],
					"name": "addCredit",
					"outputs": [],
					"stateMutability": "nonpayable",
					"type": "function"
				},
				{
					"inputs": [
						{
							"internalType": "address",
							"name": "_user",
							"type": "address"
						},
						{
							"internalType": "uint256",
							"name": "_dec",
							"type": "uint256"
						}
					],
					"name": "decCredit",
					"outputs": [],
					"stateMutability": "nonpayable",
					"type": "function"
				},
				{
					"inputs": [
						{
							"internalType": "address",
							"name": "_user",
							"type": "address"
						}
					],
					"name": "getCredit",
					"outputs": [
						{
							"internalType": "uint256",
							"name": "",
							"type": "uint256"
						}
					],
					"stateMutability": "view",
					"type": "function"
				},
				{
					"inputs": [
						{
							"internalType": "address",
							"name": "_user",
							"type": "address"
						}
					],
					"name": "incCredit",
					"outputs": [],
					"stateMutability": "nonpayable",
					"type": "function"
				},
				{
					"inputs": [
						{
							"internalType": "address",
							"name": "_user",
							"type": "address"
						}
					],
					"name": "isProjectable",
					"outputs": [
						{
							"internalType": "bool",
							"name": "",
							"type": "bool"
						}
					],
					"stateMutability": "nonpayable",
					"type": "function"
				},
				{
					"inputs": [],
					"name": "listSize",
					"outputs": [
						{
							"internalType": "uint256",
							"name": "",
							"type": "uint256"
						}
					],
					"stateMutability": "view",
					"type": "function"
				},
				{
					"inputs": [
						{
							"internalType": "address",
							"name": "",
							"type": "address"
						}
					],
					"name": "qualifiable",
					"outputs": [
						{
							"internalType": "uint8",
							"name": "",
							"type": "uint8"
						}
					],
					"stateMutability": "view",
					"type": "function"
				},
				{
					"inputs": [
						{
							"internalType": "address",
							"name": "_user",
							"type": "address"
						}
					],
					"name": "removeCredit",
					"outputs": [],
					"stateMutability": "nonpayable",
					"type": "function"
				},
				{
					"inputs": [
						{
							"internalType": "address",
							"name": "_user",
							"type": "address"
						}
					],
					"name": "setCredit",
					"outputs": [],
					"stateMutability": "nonpayable",
					"type": "function"
				},
				{
					"inputs": [
						{
							"internalType": "address",
							"name": "_user",
							"type": "address"
						},
						{
							"internalType": "uint256",
							"name": "newCredit",
							"type": "uint256"
						}
					],
					"name": "updateScore",
					"outputs": [],
					"stateMutability": "nonpayable",
					"type": "function"
				},
				{
					"inputs": [
						{
							"internalType": "address",
							"name": "",
							"type": "address"
						}
					],
					"name": "user2credit",
					"outputs": [
						{
							"internalType": "uint256",
							"name": "",
							"type": "uint256"
						}
					],
					"stateMutability": "view",
					"type": "function"
				}
			],
			"devdoc": {
				"kind": "dev",
				"methods": {},
				"version": 1
			},
			"evm": {
				"assembly": "    /* \".deps/contracts/creditOp.sol\":25:4164  contract creditOp {... */\n  mstore(0x40, 0x80)\n    /* \".deps/contracts/creditOp.sol\":291:296  10000 */\n  0x2710\n    /* \".deps/contracts/creditOp.sol\":262:296  uint256 private initCredit = 10000 */\n  0x04\n  sstore\n    /* \".deps/contracts/creditOp.sol\":337:342  20000 */\n  0x4e20\n    /* \".deps/contracts/creditOp.sol\":302:342  uint256 private upperLimitCredit = 20000 */\n  0x05\n  sstore\n    /* \".deps/contracts/creditOp.sol\":382:386  5000 */\n  0x1388\n    /* \".deps/contracts/creditOp.sol\":348:386  uint256 private qualifiedCredit = 5000 */\n  0x06\n  sstore\n    /* \".deps/contracts/creditOp.sol\":425:429  6000 */\n  0x1770\n    /* \".deps/contracts/creditOp.sol\":392:429  uint256 private returnedCredit = 6000 */\n  0x07\n  sstore\n    /* \".deps/contracts/creditOp.sol\":436:517  constructor() public {... */\n  callvalue\n  dup1\n  iszero\n  tag_1\n  jumpi\n  0x00\n  dup1\n  revert\ntag_1:\n  pop\n    /* \".deps/contracts/creditOp.sol\":201:202  1 */\n  0x01\n    /* \".deps/contracts/creditOp.sol\":467:472  _next */\n  dup1\n    /* \".deps/contracts/creditOp.sol\":467:479  _next[GUARD] */\n  0x00\n    /* \".deps/contracts/creditOp.sol\":201:202  1 */\n  0x01\n    /* \".deps/contracts/creditOp.sol\":467:479  _next[GUARD] */\n  0xffffffffffffffffffffffffffffffffffffffff\n  and\n  0xffffffffffffffffffffffffffffffffffffffff\n  and\n  dup2\n  mstore\n  0x20\n  add\n  swap1\n  dup2\n  mstore\n  0x20\n  add\n  0x00\n  keccak256\n  0x00\n    /* \".deps/contracts/creditOp.sol\":467:487  _next[GUARD] = GUARD */\n  0x0100\n  exp\n  dup2\n  sload\n  dup2\n  0xffffffffffffffffffffffffffffffffffffffff\n  mul\n  not\n  and\n  swap1\n  dup4\n  0xffffffffffffffffffffffffffffffffffffffff\n  and\n  mul\n  or\n  swap1\n  sstore\n  pop\n    /* \".deps/contracts/creditOp.sol\":25:4164  contract creditOp {... */\n  dataSize(sub_0)\n  dup1\n  dataOffset(sub_0)\n  0x00\n  codecopy\n  0x00\n  return\nstop\n\nsub_0: assembly {\n        /* \".deps/contracts/creditOp.sol\":25:4164  contract creditOp {... */\n      mstore(0x40, 0x80)\n      callvalue\n      dup1\n      iszero\n      tag_1\n      jumpi\n      0x00\n      dup1\n      revert\n    tag_1:\n      pop\n      jumpi(tag_2, lt(calldatasize, 0x04))\n      shr(0xe0, calldataload(0x00))\n      dup1\n      0x904fba8d\n      gt\n      tag_14\n      jumpi\n      dup1\n      0x904fba8d\n      eq\n      tag_8\n      jumpi\n      dup1\n      0x972c5356\n      eq\n      tag_9\n      jumpi\n      dup1\n      0x9dc29cdb\n      eq\n      tag_10\n      jumpi\n      dup1\n      0xd4268f4a\n      eq\n      tag_11\n      jumpi\n      dup1\n      0xde6e6d3e\n      eq\n      tag_12\n      jumpi\n      dup1\n      0xeaeadac9\n      eq\n      tag_13\n      jumpi\n      jump(tag_2)\n    tag_14:\n      dup1\n      0x1eab150d\n      eq\n      tag_3\n      jumpi\n      dup1\n      0x1f72a7d5\n      eq\n      tag_4\n      jumpi\n      dup1\n      0x57344e6f\n      eq\n      tag_5\n      jumpi\n      dup1\n      0x65d97724\n      eq\n      tag_6\n      jumpi\n      dup1\n      0x7d27d66c\n      eq\n      tag_7\n      jumpi\n    tag_2:\n      0x00\n      dup1\n      revert\n        /* \".deps/contracts/creditOp.sol\":1492:1623  function isProjectable(address _user) public returns(bool) {... */\n    tag_3:\n      tag_15\n      0x04\n      dup1\n      calldatasize\n      sub\n      0x20\n      dup2\n      lt\n      iszero\n      tag_16\n      jumpi\n      0x00\n      dup1\n      revert\n    tag_16:\n      dup2\n      add\n      swap1\n      dup1\n      dup1\n      calldataload\n      0xffffffffffffffffffffffffffffffffffffffff\n      and\n      swap1\n      0x20\n      add\n      swap1\n      swap3\n      swap2\n      swap1\n      pop\n      pop\n      pop\n      tag_17\n      jump\t// in\n    tag_15:\n      mload(0x40)\n      dup1\n      dup3\n      iszero\n      iszero\n      dup2\n      mstore\n      0x20\n      add\n      swap2\n      pop\n      pop\n      mload(0x40)\n      dup1\n      swap2\n      sub\n      swap1\n      return\n        /* \".deps/contracts/creditOp.sol\":2527:2645  function setCredit(address _user) public {... */\n    tag_4:\n      tag_18\n      0x04\n      dup1\n      calldatasize\n      sub\n      0x20\n      dup2\n      lt\n      iszero\n      tag_19\n      jumpi\n      0x00\n      dup1\n      revert\n    tag_19:\n      dup2\n      add\n      swap1\n      dup1\n      dup1\n      calldataload\n      0xffffffffffffffffffffffffffffffffffffffff\n      and\n      swap1\n      0x20\n      add\n      swap1\n      swap3\n      swap2\n      swap1\n      pop\n      pop\n      pop\n      tag_20\n      jump\t// in\n    tag_18:\n      stop\n        /* \".deps/contracts/creditOp.sol\":1742:1850  function getCredit(address _user) view public returns(uint) {... */\n    tag_5:\n      tag_21\n      0x04\n      dup1\n      calldatasize\n      sub\n      0x20\n      dup2\n      lt\n      iszero\n      tag_22\n      jumpi\n      0x00\n      dup1\n      revert\n    tag_22:\n      dup2\n      add\n      swap1\n      dup1\n      dup1\n      calldataload\n      0xffffffffffffffffffffffffffffffffffffffff\n      and\n      swap1\n      0x20\n      add\n      swap1\n      swap3\n      swap2\n      swap1\n      pop\n      pop\n      pop\n      tag_23\n      jump\t// in\n    tag_21:\n      mload(0x40)\n      dup1\n      dup3\n      dup2\n      mstore\n      0x20\n      add\n      swap2\n      pop\n      pop\n      mload(0x40)\n      dup1\n      swap2\n      sub\n      swap1\n      return\n        /* \".deps/contracts/creditOp.sol\":1856:2241  function updateScore(address _user, uint newCredit) public {... */\n    tag_6:\n      tag_24\n      0x04\n      dup1\n      calldatasize\n      sub\n      0x40\n      dup2\n      lt\n      iszero\n      tag_25\n      jumpi\n      0x00\n      dup1\n      revert\n    tag_25:\n      dup2\n      add\n      swap1\n      dup1\n      dup1\n      calldataload\n      0xffffffffffffffffffffffffffffffffffffffff\n      and\n      swap1\n      0x20\n      add\n      swap1\n      swap3\n      swap2\n      swap1\n      dup1\n      calldataload\n      swap1\n      0x20\n      add\n      swap1\n      swap3\n      swap2\n      swap1\n      pop\n      pop\n      pop\n      tag_26\n      jump\t// in\n    tag_24:\n      stop\n        /* \".deps/contracts/creditOp.sol\":2247:2521  function addCredit(address _user, uint credit) public {... */\n    tag_7:\n      tag_27\n      0x04\n      dup1\n      calldatasize\n      sub\n      0x40\n      dup2\n      lt\n      iszero\n      tag_28\n      jumpi\n      0x00\n      dup1\n      revert\n    tag_28:\n      dup2\n      add\n      swap1\n      dup1\n      dup1\n      calldataload\n      0xffffffffffffffffffffffffffffffffffffffff\n      and\n      swap1\n      0x20\n      add\n      swap1\n      swap3\n      swap2\n      swap1\n      dup1\n      calldataload\n      swap1\n      0x20\n      add\n      swap1\n      swap3\n      swap2\n      swap1\n      pop\n      pop\n      pop\n      tag_29\n      jump\t// in\n    tag_27:\n      stop\n        /* \".deps/contracts/creditOp.sol\":536:1129  function incCredit(address _user) public {... */\n    tag_8:\n      tag_30\n      0x04\n      dup1\n      calldatasize\n      sub\n      0x20\n      dup2\n      lt\n      iszero\n      tag_31\n      jumpi\n      0x00\n      dup1\n      revert\n    tag_31:\n      dup2\n      add\n      swap1\n      dup1\n      dup1\n      calldataload\n      0xffffffffffffffffffffffffffffffffffffffff\n      and\n      swap1\n      0x20\n      add\n      swap1\n      swap3\n      swap2\n      swap1\n      pop\n      pop\n      pop\n      tag_32\n      jump\t// in\n    tag_30:\n      stop\n        /* \".deps/contracts/creditOp.sol\":139:162  uint256 public listSize */\n    tag_9:\n      tag_33\n      tag_34\n      jump\t// in\n    tag_33:\n      mload(0x40)\n      dup1\n      dup3\n      dup2\n      mstore\n      0x20\n      add\n      swap2\n      pop\n      pop\n      mload(0x40)\n      dup1\n      swap2\n      sub\n      swap1\n      return\n        /* \".deps/contracts/creditOp.sol\":1148:1486  function decCredit(address _user, uint _dec) public {... */\n    tag_10:\n      tag_35\n      0x04\n      dup1\n      calldatasize\n      sub\n      0x40\n      dup2\n      lt\n      iszero\n      tag_36\n      jumpi\n      0x00\n      dup1\n      revert\n    tag_36:\n      dup2\n      add\n      swap1\n      dup1\n      dup1\n      calldataload\n      0xffffffffffffffffffffffffffffffffffffffff\n      and\n      swap1\n      0x20\n      add\n      swap1\n      swap3\n      swap2\n      swap1\n      dup1\n      calldataload\n      swap1\n      0x20\n      add\n      swap1\n      swap3\n      swap2\n      swap1\n      pop\n      pop\n      pop\n      tag_37\n      jump\t// in\n    tag_35:\n      stop\n        /* \".deps/contracts/creditOp.sol\":211:256  mapping (address => uint8) public qualifiable */\n    tag_11:\n      tag_38\n      0x04\n      dup1\n      calldatasize\n      sub\n      0x20\n      dup2\n      lt\n      iszero\n      tag_39\n      jumpi\n      0x00\n      dup1\n      revert\n    tag_39:\n      dup2\n      add\n      swap1\n      dup1\n      dup1\n      calldataload\n      0xffffffffffffffffffffffffffffffffffffffff\n      and\n      swap1\n      0x20\n      add\n      swap1\n      swap3\n      swap2\n      swap1\n      pop\n      pop\n      pop\n      tag_40\n      jump\t// in\n    tag_38:\n      mload(0x40)\n      dup1\n      dup3\n      0xff\n      and\n      dup2\n      mstore\n      0x20\n      add\n      swap2\n      pop\n      pop\n      mload(0x40)\n      dup1\n      swap2\n      sub\n      swap1\n      return\n        /* \".deps/contracts/creditOp.sol\":49:93  mapping (address => uint) public user2credit */\n    tag_12:\n      tag_41\n      0x04\n      dup1\n      calldatasize\n      sub\n      0x20\n      dup2\n      lt\n      iszero\n      tag_42\n      jumpi\n      0x00\n      dup1\n      revert\n    tag_42:\n      dup2\n      add\n      swap1\n      dup1\n      dup1\n      calldataload\n      0xffffffffffffffffffffffffffffffffffffffff\n      and\n      swap1\n      0x20\n      add\n      swap1\n      swap3\n      swap2\n      swap1\n      pop\n      pop\n      pop\n      tag_43\n      jump\t// in\n    tag_41:\n      mload(0x40)\n      dup1\n      dup3\n      dup2\n      mstore\n      0x20\n      add\n      swap2\n      pop\n      pop\n      mload(0x40)\n      dup1\n      swap2\n      sub\n      swap1\n      return\n        /* \".deps/contracts/creditOp.sol\":2651:2911  function removeCredit(address _user) public {... */\n    tag_13:\n      tag_44\n      0x04\n      dup1\n      calldatasize\n      sub\n      0x20\n      dup2\n      lt\n      iszero\n      tag_45\n      jumpi\n      0x00\n      dup1\n      revert\n    tag_45:\n      dup2\n      add\n      swap1\n      dup1\n      dup1\n      calldataload\n      0xffffffffffffffffffffffffffffffffffffffff\n      and\n      swap1\n      0x20\n      add\n      swap1\n      swap3\n      swap2\n      swap1\n      pop\n      pop\n      pop\n      tag_46\n      jump\t// in\n    tag_44:\n      stop\n        /* \".deps/contracts/creditOp.sol\":1492:1623  function isProjectable(address _user) public returns(bool) {... */\n    tag_17:\n        /* \".deps/contracts/creditOp.sol\":1545:1549  bool */\n      0x00\n        /* \".deps/contracts/creditOp.sol\":1568:1588  isQualifiable(_user) */\n      tag_48\n        /* \".deps/contracts/creditOp.sol\":1582:1587  _user */\n      dup3\n        /* \".deps/contracts/creditOp.sol\":1568:1581  isQualifiable */\n      tag_49\n        /* \".deps/contracts/creditOp.sol\":1568:1588  isQualifiable(_user) */\n      jump\t// in\n    tag_48:\n        /* \".deps/contracts/creditOp.sol\":1568:1616  isQualifiable(_user) && (getCredit(_user) >= 50) */\n      dup1\n      iszero\n      tag_50\n      jumpi\n      pop\n        /* \".deps/contracts/creditOp.sol\":1613:1615  50 */\n      0x32\n        /* \".deps/contracts/creditOp.sol\":1593:1609  getCredit(_user) */\n      tag_51\n        /* \".deps/contracts/creditOp.sol\":1603:1608  _user */\n      dup4\n        /* \".deps/contracts/creditOp.sol\":1593:1602  getCredit */\n      tag_23\n        /* \".deps/contracts/creditOp.sol\":1593:1609  getCredit(_user) */\n      jump\t// in\n    tag_51:\n        /* \".deps/contracts/creditOp.sol\":1593:1615  getCredit(_user) >= 50 */\n      lt\n      iszero\n        /* \".deps/contracts/creditOp.sol\":1568:1616  isQualifiable(_user) && (getCredit(_user) >= 50) */\n    tag_50:\n        /* \".deps/contracts/creditOp.sol\":1561:1616  return isQualifiable(_user) && (getCredit(_user) >= 50) */\n      swap1\n      pop\n        /* \".deps/contracts/creditOp.sol\":1492:1623  function isProjectable(address _user) public returns(bool) {... */\n      swap2\n      swap1\n      pop\n      jump\t// out\n        /* \".deps/contracts/creditOp.sol\":2527:2645  function setCredit(address _user) public {... */\n    tag_20:\n        /* \".deps/contracts/creditOp.sol\":2578:2606  addCredit(_user, initCredit) */\n      tag_53\n        /* \".deps/contracts/creditOp.sol\":2588:2593  _user */\n      dup2\n        /* \".deps/contracts/creditOp.sol\":2595:2605  initCredit */\n      sload(0x04)\n        /* \".deps/contracts/creditOp.sol\":2578:2587  addCredit */\n      tag_29\n        /* \".deps/contracts/creditOp.sol\":2578:2606  addCredit(_user, initCredit) */\n      jump\t// in\n    tag_53:\n        /* \".deps/contracts/creditOp.sol\":2637:2638  0 */\n      0x00\n        /* \".deps/contracts/creditOp.sol\":2616:2627  qualifiable */\n      0x03\n        /* \".deps/contracts/creditOp.sol\":2616:2634  qualifiable[_user] */\n      0x00\n        /* \".deps/contracts/creditOp.sol\":2628:2633  _user */\n      dup4\n        /* \".deps/contracts/creditOp.sol\":2616:2634  qualifiable[_user] */\n      0xffffffffffffffffffffffffffffffffffffffff\n      and\n      0xffffffffffffffffffffffffffffffffffffffff\n      and\n      dup2\n      mstore\n      0x20\n      add\n      swap1\n      dup2\n      mstore\n      0x20\n      add\n      0x00\n      keccak256\n      0x00\n        /* \".deps/contracts/creditOp.sol\":2616:2638  qualifiable[_user] = 0 */\n      0x0100\n      exp\n      dup2\n      sload\n      dup2\n      0xff\n      mul\n      not\n      and\n      swap1\n      dup4\n      0xff\n      and\n      mul\n      or\n      swap1\n      sstore\n      pop\n        /* \".deps/contracts/creditOp.sol\":2527:2645  function setCredit(address _user) public {... */\n      pop\n      jump\t// out\n        /* \".deps/contracts/creditOp.sol\":1742:1850  function getCredit(address _user) view public returns(uint) {... */\n    tag_23:\n        /* \".deps/contracts/creditOp.sol\":1796:1800  uint */\n      0x00\n        /* \".deps/contracts/creditOp.sol\":1840:1843  100 */\n      0x64\n        /* \".deps/contracts/creditOp.sol\":1819:1830  user2credit */\n      0x00\n        /* \".deps/contracts/creditOp.sol\":1819:1837  user2credit[_user] */\n      dup1\n        /* \".deps/contracts/creditOp.sol\":1831:1836  _user */\n      dup5\n        /* \".deps/contracts/creditOp.sol\":1819:1837  user2credit[_user] */\n      0xffffffffffffffffffffffffffffffffffffffff\n      and\n      0xffffffffffffffffffffffffffffffffffffffff\n      and\n      dup2\n      mstore\n      0x20\n      add\n      swap1\n      dup2\n      mstore\n      0x20\n      add\n      0x00\n      keccak256\n      sload\n        /* \".deps/contracts/creditOp.sol\":1819:1843  user2credit[_user] / 100 */\n      dup2\n      tag_55\n      jumpi\n      invalid\n    tag_55:\n      div\n        /* \".deps/contracts/creditOp.sol\":1812:1843  return user2credit[_user] / 100 */\n      swap1\n      pop\n        /* \".deps/contracts/creditOp.sol\":1742:1850  function getCredit(address _user) view public returns(uint) {... */\n      swap2\n      swap1\n      pop\n      jump\t// out\n        /* \".deps/contracts/creditOp.sol\":1856:2241  function updateScore(address _user, uint newCredit) public {... */\n    tag_26:\n        /* \".deps/contracts/creditOp.sol\":1957:1958  0 */\n      0x00\n        /* \".deps/contracts/creditOp.sol\":1933:1959  _next[_user] != address(0) */\n      0xffffffffffffffffffffffffffffffffffffffff\n      and\n        /* \".deps/contracts/creditOp.sol\":1933:1938  _next */\n      0x01\n        /* \".deps/contracts/creditOp.sol\":1933:1945  _next[_user] */\n      0x00\n        /* \".deps/contracts/creditOp.sol\":1939:1944  _user */\n      dup5\n        /* \".deps/contracts/creditOp.sol\":1933:1945  _next[_user] */\n      0xffffffffffffffffffffffffffffffffffffffff\n      and\n      0xffffffffffffffffffffffffffffffffffffffff\n      and\n      dup2\n      mstore\n      0x20\n      add\n      swap1\n      dup2\n      mstore\n      0x20\n      add\n      0x00\n      keccak256\n      0x00\n      swap1\n      sload\n      swap1\n      0x0100\n      exp\n      swap1\n      div\n      0xffffffffffffffffffffffffffffffffffffffff\n      and\n        /* \".deps/contracts/creditOp.sol\":1933:1959  _next[_user] != address(0) */\n      0xffffffffffffffffffffffffffffffffffffffff\n      and\n      eq\n      iszero\n        /* \".deps/contracts/creditOp.sol\":1925:1960  require(_next[_user] != address(0)) */\n      tag_57\n      jumpi\n      0x00\n      dup1\n      revert\n    tag_57:\n        /* \".deps/contracts/creditOp.sol\":1970:1982  address prev */\n      0x00\n        /* \".deps/contracts/creditOp.sol\":1985:2001  _findPrev(_user) */\n      tag_58\n        /* \".deps/contracts/creditOp.sol\":1995:2000  _user */\n      dup4\n        /* \".deps/contracts/creditOp.sol\":1985:1994  _findPrev */\n      tag_59\n        /* \".deps/contracts/creditOp.sol\":1985:2001  _findPrev(_user) */\n      jump\t// in\n    tag_58:\n        /* \".deps/contracts/creditOp.sol\":1970:2001  address prev = _findPrev(_user) */\n      swap1\n      pop\n        /* \".deps/contracts/creditOp.sol\":2011:2023  address next */\n      0x00\n        /* \".deps/contracts/creditOp.sol\":2026:2031  _next */\n      0x01\n        /* \".deps/contracts/creditOp.sol\":2026:2038  _next[_user] */\n      0x00\n        /* \".deps/contracts/creditOp.sol\":2032:2037  _user */\n      dup6\n        /* \".deps/contracts/creditOp.sol\":2026:2038  _next[_user] */\n      0xffffffffffffffffffffffffffffffffffffffff\n      and\n      0xffffffffffffffffffffffffffffffffffffffff\n      and\n      dup2\n      mstore\n      0x20\n      add\n      swap1\n      dup2\n      mstore\n      0x20\n      add\n      0x00\n      keccak256\n      0x00\n      swap1\n      sload\n      swap1\n      0x0100\n      exp\n      swap1\n      div\n      0xffffffffffffffffffffffffffffffffffffffff\n      and\n        /* \".deps/contracts/creditOp.sol\":2011:2038  address next = _next[_user] */\n      swap1\n      pop\n        /* \".deps/contracts/creditOp.sol\":2052:2087  _verifyIndex(prev, newCredit, next) */\n      tag_60\n        /* \".deps/contracts/creditOp.sol\":2065:2069  prev */\n      dup3\n        /* \".deps/contracts/creditOp.sol\":2071:2080  newCredit */\n      dup5\n        /* \".deps/contracts/creditOp.sol\":2082:2086  next */\n      dup4\n        /* \".deps/contracts/creditOp.sol\":2052:2064  _verifyIndex */\n      tag_61\n        /* \".deps/contracts/creditOp.sol\":2052:2087  _verifyIndex(prev, newCredit, next) */\n      jump\t// in\n    tag_60:\n        /* \".deps/contracts/creditOp.sol\":2048:2235  if (_verifyIndex(prev, newCredit, next)) {... */\n      iszero\n      tag_62\n      jumpi\n        /* \".deps/contracts/creditOp.sol\":2124:2133  newCredit */\n      dup3\n        /* \".deps/contracts/creditOp.sol\":2103:2114  user2credit */\n      0x00\n        /* \".deps/contracts/creditOp.sol\":2103:2121  user2credit[_user] */\n      dup1\n        /* \".deps/contracts/creditOp.sol\":2115:2120  _user */\n      dup7\n        /* \".deps/contracts/creditOp.sol\":2103:2121  user2credit[_user] */\n      0xffffffffffffffffffffffffffffffffffffffff\n      and\n      0xffffffffffffffffffffffffffffffffffffffff\n      and\n      dup2\n      mstore\n      0x20\n      add\n      swap1\n      dup2\n      mstore\n      0x20\n      add\n      0x00\n      keccak256\n        /* \".deps/contracts/creditOp.sol\":2103:2133  user2credit[_user] = newCredit */\n      dup2\n      swap1\n      sstore\n      pop\n        /* \".deps/contracts/creditOp.sol\":2048:2235  if (_verifyIndex(prev, newCredit, next)) {... */\n      jump(tag_63)\n    tag_62:\n        /* \".deps/contracts/creditOp.sol\":2164:2183  removeCredit(_user) */\n      tag_64\n        /* \".deps/contracts/creditOp.sol\":2177:2182  _user */\n      dup5\n        /* \".deps/contracts/creditOp.sol\":2164:2176  removeCredit */\n      tag_46\n        /* \".deps/contracts/creditOp.sol\":2164:2183  removeCredit(_user) */\n      jump\t// in\n    tag_64:\n        /* \".deps/contracts/creditOp.sol\":2197:2224  addCredit(_user, newCredit) */\n      tag_65\n        /* \".deps/contracts/creditOp.sol\":2207:2212  _user */\n      dup5\n        /* \".deps/contracts/creditOp.sol\":2214:2223  newCredit */\n      dup5\n        /* \".deps/contracts/creditOp.sol\":2197:2206  addCredit */\n      tag_29\n        /* \".deps/contracts/creditOp.sol\":2197:2224  addCredit(_user, newCredit) */\n      jump\t// in\n    tag_65:\n        /* \".deps/contracts/creditOp.sol\":2048:2235  if (_verifyIndex(prev, newCredit, next)) {... */\n    tag_63:\n        /* \".deps/contracts/creditOp.sol\":1856:2241  function updateScore(address _user, uint newCredit) public {... */\n      pop\n      pop\n      pop\n      pop\n      jump\t// out\n        /* \".deps/contracts/creditOp.sol\":2247:2521  function addCredit(address _user, uint credit) public {... */\n    tag_29:\n        /* \".deps/contracts/creditOp.sol\":2343:2344  0 */\n      0x00\n        /* \".deps/contracts/creditOp.sol\":2319:2345  _next[_user] == address(0) */\n      0xffffffffffffffffffffffffffffffffffffffff\n      and\n        /* \".deps/contracts/creditOp.sol\":2319:2324  _next */\n      0x01\n        /* \".deps/contracts/creditOp.sol\":2319:2331  _next[_user] */\n      0x00\n        /* \".deps/contracts/creditOp.sol\":2325:2330  _user */\n      dup5\n        /* \".deps/contracts/creditOp.sol\":2319:2331  _next[_user] */\n      0xffffffffffffffffffffffffffffffffffffffff\n      and\n      0xffffffffffffffffffffffffffffffffffffffff\n      and\n      dup2\n      mstore\n      0x20\n      add\n      swap1\n      dup2\n      mstore\n      0x20\n      add\n      0x00\n      keccak256\n      0x00\n      swap1\n      sload\n      swap1\n      0x0100\n      exp\n      swap1\n      div\n      0xffffffffffffffffffffffffffffffffffffffff\n      and\n        /* \".deps/contracts/creditOp.sol\":2319:2345  _next[_user] == address(0) */\n      0xffffffffffffffffffffffffffffffffffffffff\n      and\n      eq\n        /* \".deps/contracts/creditOp.sol\":2311:2346  require(_next[_user] == address(0)) */\n      tag_67\n      jumpi\n      0x00\n      dup1\n      revert\n    tag_67:\n        /* \".deps/contracts/creditOp.sol\":2356:2369  address index */\n      0x00\n        /* \".deps/contracts/creditOp.sol\":2372:2390  _findIndex(credit) */\n      tag_68\n        /* \".deps/contracts/creditOp.sol\":2383:2389  credit */\n      dup3\n        /* \".deps/contracts/creditOp.sol\":2372:2382  _findIndex */\n      tag_69\n        /* \".deps/contracts/creditOp.sol\":2372:2390  _findIndex(credit) */\n      jump\t// in\n    tag_68:\n        /* \".deps/contracts/creditOp.sol\":2356:2390  address index = _findIndex(credit) */\n      swap1\n      pop\n        /* \".deps/contracts/creditOp.sol\":2421:2427  credit */\n      dup2\n        /* \".deps/contracts/creditOp.sol\":2400:2411  user2credit */\n      0x00\n        /* \".deps/contracts/creditOp.sol\":2400:2418  user2credit[_user] */\n      dup1\n        /* \".deps/contracts/creditOp.sol\":2412:2417  _user */\n      dup6\n        /* \".deps/contracts/creditOp.sol\":2400:2418  user2credit[_user] */\n      0xffffffffffffffffffffffffffffffffffffffff\n      and\n      0xffffffffffffffffffffffffffffffffffffffff\n      and\n      dup2\n      mstore\n      0x20\n      add\n      swap1\n      dup2\n      mstore\n      0x20\n      add\n      0x00\n      keccak256\n        /* \".deps/contracts/creditOp.sol\":2400:2427  user2credit[_user] = credit */\n      dup2\n      swap1\n      sstore\n      pop\n        /* \".deps/contracts/creditOp.sol\":2452:2457  _next */\n      0x01\n        /* \".deps/contracts/creditOp.sol\":2452:2464  _next[index] */\n      0x00\n        /* \".deps/contracts/creditOp.sol\":2458:2463  index */\n      dup3\n        /* \".deps/contracts/creditOp.sol\":2452:2464  _next[index] */\n      0xffffffffffffffffffffffffffffffffffffffff\n      and\n      0xffffffffffffffffffffffffffffffffffffffff\n      and\n      dup2\n      mstore\n      0x20\n      add\n      swap1\n      dup2\n      mstore\n      0x20\n      add\n      0x00\n      keccak256\n      0x00\n      swap1\n      sload\n      swap1\n      0x0100\n      exp\n      swap1\n      div\n      0xffffffffffffffffffffffffffffffffffffffff\n      and\n        /* \".deps/contracts/creditOp.sol\":2437:2442  _next */\n      0x01\n        /* \".deps/contracts/creditOp.sol\":2437:2449  _next[_user] */\n      0x00\n        /* \".deps/contracts/creditOp.sol\":2443:2448  _user */\n      dup6\n        /* \".deps/contracts/creditOp.sol\":2437:2449  _next[_user] */\n      0xffffffffffffffffffffffffffffffffffffffff\n      and\n      0xffffffffffffffffffffffffffffffffffffffff\n      and\n      dup2\n      mstore\n      0x20\n      add\n      swap1\n      dup2\n      mstore\n      0x20\n      add\n      0x00\n      keccak256\n      0x00\n        /* \".deps/contracts/creditOp.sol\":2437:2464  _next[_user] = _next[index] */\n      0x0100\n      exp\n      dup2\n      sload\n      dup2\n      0xffffffffffffffffffffffffffffffffffffffff\n      mul\n      not\n      and\n      swap1\n      dup4\n      0xffffffffffffffffffffffffffffffffffffffff\n      and\n      mul\n      or\n      swap1\n      sstore\n      pop\n        /* \".deps/contracts/creditOp.sol\":2489:2494  _user */\n      dup3\n        /* \".deps/contracts/creditOp.sol\":2474:2479  _next */\n      0x01\n        /* \".deps/contracts/creditOp.sol\":2474:2486  _next[index] */\n      0x00\n        /* \".deps/contracts/creditOp.sol\":2480:2485  index */\n      dup4\n        /* \".deps/contracts/creditOp.sol\":2474:2486  _next[index] */\n      0xffffffffffffffffffffffffffffffffffffffff\n      and\n      0xffffffffffffffffffffffffffffffffffffffff\n      and\n      dup2\n      mstore\n      0x20\n      add\n      swap1\n      dup2\n      mstore\n      0x20\n      add\n      0x00\n      keccak256\n      0x00\n        /* \".deps/contracts/creditOp.sol\":2474:2494  _next[index] = _user */\n      0x0100\n      exp\n      dup2\n      sload\n      dup2\n      0xffffffffffffffffffffffffffffffffffffffff\n      mul\n      not\n      and\n      swap1\n      dup4\n      0xffffffffffffffffffffffffffffffffffffffff\n      and\n      mul\n      or\n      swap1\n      sstore\n      pop\n        /* \".deps/contracts/creditOp.sol\":2504:2512  listSize */\n      0x02\n      0x00\n        /* \".deps/contracts/creditOp.sol\":2504:2514  listSize++ */\n      dup2\n      sload\n      dup1\n      swap3\n      swap2\n      swap1\n      0x01\n      add\n      swap2\n      swap1\n      pop\n      sstore\n      pop\n        /* \".deps/contracts/creditOp.sol\":2247:2521  function addCredit(address _user, uint credit) public {... */\n      pop\n      pop\n      pop\n      jump\t// out\n        /* \".deps/contracts/creditOp.sol\":536:1129  function incCredit(address _user) public {... */\n    tag_32:\n        /* \".deps/contracts/creditOp.sol\":587:598  uint credit */\n      0x00\n        /* \".deps/contracts/creditOp.sol\":601:612  user2credit */\n      dup1\n        /* \".deps/contracts/creditOp.sol\":601:619  user2credit[_user] */\n      0x00\n        /* \".deps/contracts/creditOp.sol\":613:618  _user */\n      dup4\n        /* \".deps/contracts/creditOp.sol\":601:619  user2credit[_user] */\n      0xffffffffffffffffffffffffffffffffffffffff\n      and\n      0xffffffffffffffffffffffffffffffffffffffff\n      and\n      dup2\n      mstore\n      0x20\n      add\n      swap1\n      dup2\n      mstore\n      0x20\n      add\n      0x00\n      keccak256\n      sload\n        /* \".deps/contracts/creditOp.sol\":587:619  uint credit = user2credit[_user] */\n      swap1\n      pop\n        /* \".deps/contracts/creditOp.sol\":629:650  uint16[6] memory bars */\n      0x00\n        /* \".deps/contracts/creditOp.sol\":629:691  uint16[6] memory bars = [0, 10000, 11000, 15000, 18000, 20000] */\n      mload(0x40)\n      dup1\n      0xc0\n      add\n      0x40\n      mstore\n      dup1\n        /* \".deps/contracts/creditOp.sol\":654:655  0 */\n      0x00\n        /* \".deps/contracts/creditOp.sol\":629:691  uint16[6] memory bars = [0, 10000, 11000, 15000, 18000, 20000] */\n      0xffff\n      and\n      dup2\n      mstore\n      0x20\n      add\n        /* \".deps/contracts/creditOp.sol\":657:662  10000 */\n      0x2710\n        /* \".deps/contracts/creditOp.sol\":629:691  uint16[6] memory bars = [0, 10000, 11000, 15000, 18000, 20000] */\n      0xffff\n      and\n      dup2\n      mstore\n      0x20\n      add\n        /* \".deps/contracts/creditOp.sol\":664:669  11000 */\n      0x2af8\n        /* \".deps/contracts/creditOp.sol\":629:691  uint16[6] memory bars = [0, 10000, 11000, 15000, 18000, 20000] */\n      0xffff\n      and\n      dup2\n      mstore\n      0x20\n      add\n        /* \".deps/contracts/creditOp.sol\":671:676  15000 */\n      0x3a98\n        /* \".deps/contracts/creditOp.sol\":629:691  uint16[6] memory bars = [0, 10000, 11000, 15000, 18000, 20000] */\n      0xffff\n      and\n      dup2\n      mstore\n      0x20\n      add\n        /* \".deps/contracts/creditOp.sol\":678:683  18000 */\n      0x4650\n        /* \".deps/contracts/creditOp.sol\":629:691  uint16[6] memory bars = [0, 10000, 11000, 15000, 18000, 20000] */\n      0xffff\n      and\n      dup2\n      mstore\n      0x20\n      add\n        /* \".deps/contracts/creditOp.sol\":685:690  20000 */\n      0x4e20\n        /* \".deps/contracts/creditOp.sol\":629:691  uint16[6] memory bars = [0, 10000, 11000, 15000, 18000, 20000] */\n      0xffff\n      and\n      dup2\n      mstore\n      pop\n      swap1\n      pop\n        /* \".deps/contracts/creditOp.sol\":701:721  uint8[5] memory incs */\n      0x00\n        /* \".deps/contracts/creditOp.sol\":701:743  uint8[5] memory incs = [100, 96, 16, 5, 1] */\n      mload(0x40)\n      dup1\n      0xa0\n      add\n      0x40\n      mstore\n      dup1\n        /* \".deps/contracts/creditOp.sol\":725:728  100 */\n      0x64\n        /* \".deps/contracts/creditOp.sol\":701:743  uint8[5] memory incs = [100, 96, 16, 5, 1] */\n      0xff\n      and\n      dup2\n      mstore\n      0x20\n      add\n        /* \".deps/contracts/creditOp.sol\":730:732  96 */\n      0x60\n        /* \".deps/contracts/creditOp.sol\":701:743  uint8[5] memory incs = [100, 96, 16, 5, 1] */\n      0xff\n      and\n      dup2\n      mstore\n      0x20\n      add\n        /* \".deps/contracts/creditOp.sol\":734:736  16 */\n      0x10\n        /* \".deps/contracts/creditOp.sol\":701:743  uint8[5] memory incs = [100, 96, 16, 5, 1] */\n      0xff\n      and\n      dup2\n      mstore\n      0x20\n      add\n        /* \".deps/contracts/creditOp.sol\":738:739  5 */\n      0x05\n        /* \".deps/contracts/creditOp.sol\":701:743  uint8[5] memory incs = [100, 96, 16, 5, 1] */\n      0xff\n      and\n      dup2\n      mstore\n      0x20\n      add\n        /* \".deps/contracts/creditOp.sol\":741:742  1 */\n      0x01\n        /* \".deps/contracts/creditOp.sol\":701:743  uint8[5] memory incs = [100, 96, 16, 5, 1] */\n      0xff\n      and\n      dup2\n      mstore\n      pop\n      swap1\n      pop\n        /* \".deps/contracts/creditOp.sol\":766:782  upperLimitCredit */\n      sload(0x05)\n        /* \".deps/contracts/creditOp.sol\":757:763  credit */\n      dup4\n        /* \".deps/contracts/creditOp.sol\":757:782  credit < upperLimitCredit */\n      lt\n        /* \".deps/contracts/creditOp.sol\":753:1123  if (credit < upperLimitCredit) {... */\n      iszero\n      tag_71\n      jumpi\n        /* \".deps/contracts/creditOp.sol\":798:804  uint i */\n      0x00\n        /* \".deps/contracts/creditOp.sol\":822:828  uint j */\n      dup1\n        /* \".deps/contracts/creditOp.sol\":831:832  1 */\n      0x01\n        /* \".deps/contracts/creditOp.sol\":822:832  uint j = 1 */\n      swap1\n      pop\n        /* \".deps/contracts/creditOp.sol\":846:1072  while (j < bars.length) {... */\n    tag_72:\n        /* \".deps/contracts/creditOp.sol\":857:868  bars.length */\n      0x06\n        /* \".deps/contracts/creditOp.sol\":853:854  j */\n      dup2\n        /* \".deps/contracts/creditOp.sol\":853:868  j < bars.length */\n      lt\n        /* \".deps/contracts/creditOp.sol\":846:1072  while (j < bars.length) {... */\n      iszero\n      tag_73\n      jumpi\n        /* \".deps/contracts/creditOp.sol\":903:909  credit */\n      dup5\n        /* \".deps/contracts/creditOp.sol\":892:896  bars */\n      dup5\n        /* \".deps/contracts/creditOp.sol\":897:898  i */\n      dup4\n        /* \".deps/contracts/creditOp.sol\":892:899  bars[i] */\n      0x06\n      dup2\n      lt\n      tag_74\n      jumpi\n      invalid\n    tag_74:\n      0x20\n      mul\n      add\n      mload\n        /* \".deps/contracts/creditOp.sol\":892:909  bars[i] <= credit */\n      0xffff\n      and\n      gt\n      iszero\n        /* \".deps/contracts/creditOp.sol\":892:929  bars[i] <= credit && credit < bars[j] */\n      dup1\n      iszero\n      tag_75\n      jumpi\n      pop\n        /* \".deps/contracts/creditOp.sol\":922:926  bars */\n      dup4\n        /* \".deps/contracts/creditOp.sol\":927:928  j */\n      dup2\n        /* \".deps/contracts/creditOp.sol\":922:929  bars[j] */\n      0x06\n      dup2\n      lt\n      tag_76\n      jumpi\n      invalid\n    tag_76:\n      0x20\n      mul\n      add\n      mload\n        /* \".deps/contracts/creditOp.sol\":913:929  credit < bars[j] */\n      0xffff\n      and\n        /* \".deps/contracts/creditOp.sol\":913:919  credit */\n      dup6\n        /* \".deps/contracts/creditOp.sol\":913:929  credit < bars[j] */\n      lt\n        /* \".deps/contracts/creditOp.sol\":892:929  bars[i] <= credit && credit < bars[j] */\n    tag_75:\n        /* \".deps/contracts/creditOp.sol\":888:1016  if (bars[i] <= credit && credit < bars[j]) {... */\n      iszero\n      tag_77\n      jumpi\n        /* \".deps/contracts/creditOp.sol\":963:967  incs */\n      dup3\n        /* \".deps/contracts/creditOp.sol\":968:969  i */\n      dup3\n        /* \".deps/contracts/creditOp.sol\":963:970  incs[i] */\n      0x05\n      dup2\n      lt\n      tag_78\n      jumpi\n      invalid\n    tag_78:\n      0x20\n      mul\n      add\n      mload\n        /* \".deps/contracts/creditOp.sol\":953:970  credit += incs[i] */\n      0xff\n      and\n      dup6\n      add\n      swap5\n      pop\n        /* \".deps/contracts/creditOp.sol\":992:997  break */\n      jump(tag_73)\n        /* \".deps/contracts/creditOp.sol\":888:1016  if (bars[i] <= credit && credit < bars[j]) {... */\n    tag_77:\n        /* \".deps/contracts/creditOp.sol\":1033:1036  i++ */\n      dup2\n      dup1\n      0x01\n      add\n      swap3\n      pop\n      pop\n        /* \".deps/contracts/creditOp.sol\":1054:1057  j++ */\n      dup1\n      dup1\n      0x01\n      add\n      swap2\n      pop\n      pop\n        /* \".deps/contracts/creditOp.sol\":846:1072  while (j < bars.length) {... */\n      jump(tag_72)\n    tag_73:\n        /* \".deps/contracts/creditOp.sol\":1106:1112  credit */\n      dup5\n        /* \".deps/contracts/creditOp.sol\":1085:1096  user2credit */\n      0x00\n        /* \".deps/contracts/creditOp.sol\":1085:1103  user2credit[_user] */\n      dup1\n        /* \".deps/contracts/creditOp.sol\":1097:1102  _user */\n      dup9\n        /* \".deps/contracts/creditOp.sol\":1085:1103  user2credit[_user] */\n      0xffffffffffffffffffffffffffffffffffffffff\n      and\n      0xffffffffffffffffffffffffffffffffffffffff\n      and\n      dup2\n      mstore\n      0x20\n      add\n      swap1\n      dup2\n      mstore\n      0x20\n      add\n      0x00\n      keccak256\n        /* \".deps/contracts/creditOp.sol\":1085:1112  user2credit[_user] = credit */\n      dup2\n      swap1\n      sstore\n      pop\n        /* \".deps/contracts/creditOp.sol\":753:1123  if (credit < upperLimitCredit) {... */\n      pop\n      pop\n    tag_71:\n        /* \".deps/contracts/creditOp.sol\":536:1129  function incCredit(address _user) public {... */\n      pop\n      pop\n      pop\n      pop\n      jump\t// out\n        /* \".deps/contracts/creditOp.sol\":139:162  uint256 public listSize */\n    tag_34:\n      sload(0x02)\n      dup2\n      jump\t// out\n        /* \".deps/contracts/creditOp.sol\":1148:1486  function decCredit(address _user, uint _dec) public {... */\n    tag_37:\n        /* \".deps/contracts/creditOp.sol\":1210:1221  uint credit */\n      0x00\n        /* \".deps/contracts/creditOp.sol\":1224:1235  user2credit */\n      dup1\n        /* \".deps/contracts/creditOp.sol\":1224:1242  user2credit[_user] */\n      0x00\n        /* \".deps/contracts/creditOp.sol\":1236:1241  _user */\n      dup5\n        /* \".deps/contracts/creditOp.sol\":1224:1242  user2credit[_user] */\n      0xffffffffffffffffffffffffffffffffffffffff\n      and\n      0xffffffffffffffffffffffffffffffffffffffff\n      and\n      dup2\n      mstore\n      0x20\n      add\n      swap1\n      dup2\n      mstore\n      0x20\n      add\n      0x00\n      keccak256\n      sload\n        /* \".deps/contracts/creditOp.sol\":1210:1242  uint credit = user2credit[_user] */\n      swap1\n      pop\n        /* \".deps/contracts/creditOp.sol\":1260:1263  100 */\n      0x64\n        /* \".deps/contracts/creditOp.sol\":1252:1263  _dec *= 100 */\n      dup3\n      mul\n      swap2\n      pop\n        /* \".deps/contracts/creditOp.sol\":1283:1287  _dec */\n      dup2\n        /* \".deps/contracts/creditOp.sol\":1273:1287  credit -= _dec */\n      dup2\n      sub\n      swap1\n      pop\n        /* \".deps/contracts/creditOp.sol\":1336:1338  50 */\n      0x32\n        /* \".deps/contracts/creditOp.sol\":1327:1333  credit */\n      dup2\n        /* \".deps/contracts/creditOp.sol\":1327:1338  credit < 50 */\n      lt\n        /* \".deps/contracts/creditOp.sol\":1323:1443  if (credit < 50) {... */\n      iszero\n      tag_80\n      jumpi\n        /* \".deps/contracts/creditOp.sol\":1354:1366  uint8 isQual */\n      0x00\n        /* \".deps/contracts/creditOp.sol\":1369:1380  qualifiable */\n      0x03\n        /* \".deps/contracts/creditOp.sol\":1369:1387  qualifiable[_user] */\n      0x00\n        /* \".deps/contracts/creditOp.sol\":1381:1386  _user */\n      dup6\n        /* \".deps/contracts/creditOp.sol\":1369:1387  qualifiable[_user] */\n      0xffffffffffffffffffffffffffffffffffffffff\n      and\n      0xffffffffffffffffffffffffffffffffffffffff\n      and\n      dup2\n      mstore\n      0x20\n      add\n      swap1\n      dup2\n      mstore\n      0x20\n      add\n      0x00\n      keccak256\n      0x00\n      swap1\n      sload\n      swap1\n      0x0100\n      exp\n      swap1\n      div\n      0xff\n      and\n        /* \".deps/contracts/creditOp.sol\":1354:1387  uint8 isQual = qualifiable[_user] */\n      swap1\n      pop\n        /* \".deps/contracts/creditOp.sol\":1431:1432  1 */\n      0x01\n        /* \".deps/contracts/creditOp.sol\":1422:1428  isQual */\n      dup2\n        /* \".deps/contracts/creditOp.sol\":1422:1432  isQual + 1 */\n      add\n        /* \".deps/contracts/creditOp.sol\":1401:1412  qualifiable */\n      0x03\n        /* \".deps/contracts/creditOp.sol\":1401:1419  qualifiable[_user] */\n      0x00\n        /* \".deps/contracts/creditOp.sol\":1413:1418  _user */\n      dup7\n        /* \".deps/contracts/creditOp.sol\":1401:1419  qualifiable[_user] */\n      0xffffffffffffffffffffffffffffffffffffffff\n      and\n      0xffffffffffffffffffffffffffffffffffffffff\n      and\n      dup2\n      mstore\n      0x20\n      add\n      swap1\n      dup2\n      mstore\n      0x20\n      add\n      0x00\n      keccak256\n      0x00\n        /* \".deps/contracts/creditOp.sol\":1401:1432  qualifiable[_user] = isQual + 1 */\n      0x0100\n      exp\n      dup2\n      sload\n      dup2\n      0xff\n      mul\n      not\n      and\n      swap1\n      dup4\n      0xff\n      and\n      mul\n      or\n      swap1\n      sstore\n      pop\n        /* \".deps/contracts/creditOp.sol\":1323:1443  if (credit < 50) {... */\n      pop\n    tag_80:\n        /* \".deps/contracts/creditOp.sol\":1473:1479  credit */\n      dup1\n        /* \".deps/contracts/creditOp.sol\":1452:1463  user2credit */\n      0x00\n        /* \".deps/contracts/creditOp.sol\":1452:1470  user2credit[_user] */\n      dup1\n        /* \".deps/contracts/creditOp.sol\":1464:1469  _user */\n      dup6\n        /* \".deps/contracts/creditOp.sol\":1452:1470  user2credit[_user] */\n      0xffffffffffffffffffffffffffffffffffffffff\n      and\n      0xffffffffffffffffffffffffffffffffffffffff\n      and\n      dup2\n      mstore\n      0x20\n      add\n      swap1\n      dup2\n      mstore\n      0x20\n      add\n      0x00\n      keccak256\n        /* \".deps/contracts/creditOp.sol\":1452:1479  user2credit[_user] = credit */\n      dup2\n      swap1\n      sstore\n      pop\n        /* \".deps/contracts/creditOp.sol\":1148:1486  function decCredit(address _user, uint _dec) public {... */\n      pop\n      pop\n      pop\n      jump\t// out\n        /* \".deps/contracts/creditOp.sol\":211:256  mapping (address => uint8) public qualifiable */\n    tag_40:\n      mstore(0x20, 0x03)\n      dup1\n      0x00\n      mstore\n      keccak256(0x00, 0x40)\n      0x00\n      swap2\n      pop\n      sload\n      swap1\n      0x0100\n      exp\n      swap1\n      div\n      0xff\n      and\n      dup2\n      jump\t// out\n        /* \".deps/contracts/creditOp.sol\":49:93  mapping (address => uint) public user2credit */\n    tag_43:\n      mstore(0x20, 0x00)\n      dup1\n      0x00\n      mstore\n      keccak256(0x00, 0x40)\n      0x00\n      swap2\n      pop\n      swap1\n      pop\n      sload\n      dup2\n      jump\t// out\n        /* \".deps/contracts/creditOp.sol\":2651:2911  function removeCredit(address _user) public {... */\n    tag_46:\n        /* \".deps/contracts/creditOp.sol\":2737:2738  0 */\n      0x00\n        /* \".deps/contracts/creditOp.sol\":2713:2739  _next[_user] != address(0) */\n      0xffffffffffffffffffffffffffffffffffffffff\n      and\n        /* \".deps/contracts/creditOp.sol\":2713:2718  _next */\n      0x01\n        /* \".deps/contracts/creditOp.sol\":2713:2725  _next[_user] */\n      0x00\n        /* \".deps/contracts/creditOp.sol\":2719:2724  _user */\n      dup4\n        /* \".deps/contracts/creditOp.sol\":2713:2725  _next[_user] */\n      0xffffffffffffffffffffffffffffffffffffffff\n      and\n      0xffffffffffffffffffffffffffffffffffffffff\n      and\n      dup2\n      mstore\n      0x20\n      add\n      swap1\n      dup2\n      mstore\n      0x20\n      add\n      0x00\n      keccak256\n      0x00\n      swap1\n      sload\n      swap1\n      0x0100\n      exp\n      swap1\n      div\n      0xffffffffffffffffffffffffffffffffffffffff\n      and\n        /* \".deps/contracts/creditOp.sol\":2713:2739  _next[_user] != address(0) */\n      0xffffffffffffffffffffffffffffffffffffffff\n      and\n      eq\n      iszero\n        /* \".deps/contracts/creditOp.sol\":2705:2740  require(_next[_user] != address(0)) */\n      tag_82\n      jumpi\n      0x00\n      dup1\n      revert\n    tag_82:\n        /* \".deps/contracts/creditOp.sol\":2750:2762  address prev */\n      0x00\n        /* \".deps/contracts/creditOp.sol\":2765:2781  _findPrev(_user) */\n      tag_83\n        /* \".deps/contracts/creditOp.sol\":2775:2780  _user */\n      dup3\n        /* \".deps/contracts/creditOp.sol\":2765:2774  _findPrev */\n      tag_59\n        /* \".deps/contracts/creditOp.sol\":2765:2781  _findPrev(_user) */\n      jump\t// in\n    tag_83:\n        /* \".deps/contracts/creditOp.sol\":2750:2781  address prev = _findPrev(_user) */\n      swap1\n      pop\n        /* \".deps/contracts/creditOp.sol\":2805:2810  _next */\n      0x01\n        /* \".deps/contracts/creditOp.sol\":2805:2817  _next[_user] */\n      0x00\n        /* \".deps/contracts/creditOp.sol\":2811:2816  _user */\n      dup4\n        /* \".deps/contracts/creditOp.sol\":2805:2817  _next[_user] */\n      0xffffffffffffffffffffffffffffffffffffffff\n      and\n      0xffffffffffffffffffffffffffffffffffffffff\n      and\n      dup2\n      mstore\n      0x20\n      add\n      swap1\n      dup2\n      mstore\n      0x20\n      add\n      0x00\n      keccak256\n      0x00\n      swap1\n      sload\n      swap1\n      0x0100\n      exp\n      swap1\n      div\n      0xffffffffffffffffffffffffffffffffffffffff\n      and\n        /* \".deps/contracts/creditOp.sol\":2791:2796  _next */\n      0x01\n        /* \".deps/contracts/creditOp.sol\":2791:2802  _next[prev] */\n      0x00\n        /* \".deps/contracts/creditOp.sol\":2797:2801  prev */\n      dup4\n        /* \".deps/contracts/creditOp.sol\":2791:2802  _next[prev] */\n      0xffffffffffffffffffffffffffffffffffffffff\n      and\n      0xffffffffffffffffffffffffffffffffffffffff\n      and\n      dup2\n      mstore\n      0x20\n      add\n      swap1\n      dup2\n      mstore\n      0x20\n      add\n      0x00\n      keccak256\n      0x00\n        /* \".deps/contracts/creditOp.sol\":2791:2817  _next[prev] = _next[_user] */\n      0x0100\n      exp\n      dup2\n      sload\n      dup2\n      0xffffffffffffffffffffffffffffffffffffffff\n      mul\n      not\n      and\n      swap1\n      dup4\n      0xffffffffffffffffffffffffffffffffffffffff\n      and\n      mul\n      or\n      swap1\n      sstore\n      pop\n        /* \".deps/contracts/creditOp.sol\":2850:2851  0 */\n      0x00\n        /* \".deps/contracts/creditOp.sol\":2827:2832  _next */\n      0x01\n        /* \".deps/contracts/creditOp.sol\":2827:2839  _next[_user] */\n      0x00\n        /* \".deps/contracts/creditOp.sol\":2833:2838  _user */\n      dup5\n        /* \".deps/contracts/creditOp.sol\":2827:2839  _next[_user] */\n      0xffffffffffffffffffffffffffffffffffffffff\n      and\n      0xffffffffffffffffffffffffffffffffffffffff\n      and\n      dup2\n      mstore\n      0x20\n      add\n      swap1\n      dup2\n      mstore\n      0x20\n      add\n      0x00\n      keccak256\n      0x00\n        /* \".deps/contracts/creditOp.sol\":2827:2852  _next[_user] = address(0) */\n      0x0100\n      exp\n      dup2\n      sload\n      dup2\n      0xffffffffffffffffffffffffffffffffffffffff\n      mul\n      not\n      and\n      swap1\n      dup4\n      0xffffffffffffffffffffffffffffffffffffffff\n      and\n      mul\n      or\n      swap1\n      sstore\n      pop\n        /* \".deps/contracts/creditOp.sol\":2883:2884  0 */\n      0x00\n        /* \".deps/contracts/creditOp.sol\":2862:2873  user2credit */\n      dup1\n        /* \".deps/contracts/creditOp.sol\":2862:2880  user2credit[_user] */\n      0x00\n        /* \".deps/contracts/creditOp.sol\":2874:2879  _user */\n      dup5\n        /* \".deps/contracts/creditOp.sol\":2862:2880  user2credit[_user] */\n      0xffffffffffffffffffffffffffffffffffffffff\n      and\n      0xffffffffffffffffffffffffffffffffffffffff\n      and\n      dup2\n      mstore\n      0x20\n      add\n      swap1\n      dup2\n      mstore\n      0x20\n      add\n      0x00\n      keccak256\n        /* \".deps/contracts/creditOp.sol\":2862:2884  user2credit[_user] = 0 */\n      dup2\n      swap1\n      sstore\n      pop\n        /* \".deps/contracts/creditOp.sol\":2894:2902  listSize */\n      0x02\n      0x00\n        /* \".deps/contracts/creditOp.sol\":2894:2904  listSize-- */\n      dup2\n      sload\n      dup1\n      swap3\n      swap2\n      swap1\n      0x01\n      swap1\n      sub\n      swap2\n      swap1\n      pop\n      sstore\n      pop\n        /* \".deps/contracts/creditOp.sol\":2651:2911  function removeCredit(address _user) public {... */\n      pop\n      pop\n      jump\t// out\n        /* \".deps/contracts/creditOp.sol\":1630:1736  function isQualifiable(address _user) private returns(bool) {... */\n    tag_49:\n        /* \".deps/contracts/creditOp.sol\":1684:1688  bool */\n      0x00\n        /* \".deps/contracts/creditOp.sol\":1728:1729  2 */\n      0x02\n        /* \".deps/contracts/creditOp.sol\":1707:1718  qualifiable */\n      0x03\n        /* \".deps/contracts/creditOp.sol\":1707:1725  qualifiable[_user] */\n      0x00\n        /* \".deps/contracts/creditOp.sol\":1719:1724  _user */\n      dup5\n        /* \".deps/contracts/creditOp.sol\":1707:1725  qualifiable[_user] */\n      0xffffffffffffffffffffffffffffffffffffffff\n      and\n      0xffffffffffffffffffffffffffffffffffffffff\n      and\n      dup2\n      mstore\n      0x20\n      add\n      swap1\n      dup2\n      mstore\n      0x20\n      add\n      0x00\n      keccak256\n      0x00\n      swap1\n      sload\n      swap1\n      0x0100\n      exp\n      swap1\n      div\n      0xff\n      and\n        /* \".deps/contracts/creditOp.sol\":1707:1729  qualifiable[_user] < 2 */\n      0xff\n      and\n      lt\n        /* \".deps/contracts/creditOp.sol\":1700:1729  return qualifiable[_user] < 2 */\n      swap1\n      pop\n        /* \".deps/contracts/creditOp.sol\":1630:1736  function isQualifiable(address _user) private returns(bool) {... */\n      swap2\n      swap1\n      pop\n      jump\t// out\n        /* \".deps/contracts/creditOp.sol\":3827:4161  function _findPrev(address user) internal view returns(address) {... */\n    tag_59:\n        /* \".deps/contracts/creditOp.sol\":3882:3889  address */\n      0x00\n        /* \".deps/contracts/creditOp.sol\":3901:3923  address currentAddress */\n      dup1\n        /* \".deps/contracts/creditOp.sol\":201:202  1 */\n      0x01\n        /* \".deps/contracts/creditOp.sol\":3901:3931  address currentAddress = GUARD */\n      swap1\n      pop\n        /* \".deps/contracts/creditOp.sol\":3941:4128  while(_next[currentAddress] != GUARD) {... */\n    tag_86:\n        /* \".deps/contracts/creditOp.sol\":201:202  1 */\n      0x01\n        /* \".deps/contracts/creditOp.sol\":3947:3977  _next[currentAddress] != GUARD */\n      0xffffffffffffffffffffffffffffffffffffffff\n      and\n        /* \".deps/contracts/creditOp.sol\":3947:3952  _next */\n      0x01\n        /* \".deps/contracts/creditOp.sol\":3947:3968  _next[currentAddress] */\n      0x00\n        /* \".deps/contracts/creditOp.sol\":3953:3967  currentAddress */\n      dup4\n        /* \".deps/contracts/creditOp.sol\":3947:3968  _next[currentAddress] */\n      0xffffffffffffffffffffffffffffffffffffffff\n      and\n      0xffffffffffffffffffffffffffffffffffffffff\n      and\n      dup2\n      mstore\n      0x20\n      add\n      swap1\n      dup2\n      mstore\n      0x20\n      add\n      0x00\n      keccak256\n      0x00\n      swap1\n      sload\n      swap1\n      0x0100\n      exp\n      swap1\n      div\n      0xffffffffffffffffffffffffffffffffffffffff\n      and\n        /* \".deps/contracts/creditOp.sol\":3947:3977  _next[currentAddress] != GUARD */\n      0xffffffffffffffffffffffffffffffffffffffff\n      and\n      eq\n        /* \".deps/contracts/creditOp.sol\":3941:4128  while(_next[currentAddress] != GUARD) {... */\n      tag_87\n      jumpi\n        /* \".deps/contracts/creditOp.sol\":3997:4026  _isPrev(user, currentAddress) */\n      tag_88\n        /* \".deps/contracts/creditOp.sol\":4005:4009  user */\n      dup4\n        /* \".deps/contracts/creditOp.sol\":4011:4025  currentAddress */\n      dup3\n        /* \".deps/contracts/creditOp.sol\":3997:4004  _isPrev */\n      tag_89\n        /* \".deps/contracts/creditOp.sol\":3997:4026  _isPrev(user, currentAddress) */\n      jump\t// in\n    tag_88:\n        /* \".deps/contracts/creditOp.sol\":3993:4065  if (_isPrev(user, currentAddress))... */\n      iszero\n      tag_90\n      jumpi\n        /* \".deps/contracts/creditOp.sol\":4051:4065  currentAddress */\n      dup1\n        /* \".deps/contracts/creditOp.sol\":4044:4065  return currentAddress */\n      swap2\n      pop\n      pop\n      jump(tag_85)\n        /* \".deps/contracts/creditOp.sol\":3993:4065  if (_isPrev(user, currentAddress))... */\n    tag_90:\n        /* \".deps/contracts/creditOp.sol\":4096:4101  _next */\n      0x01\n        /* \".deps/contracts/creditOp.sol\":4096:4117  _next[currentAddress] */\n      0x00\n        /* \".deps/contracts/creditOp.sol\":4102:4116  currentAddress */\n      dup3\n        /* \".deps/contracts/creditOp.sol\":4096:4117  _next[currentAddress] */\n      0xffffffffffffffffffffffffffffffffffffffff\n      and\n      0xffffffffffffffffffffffffffffffffffffffff\n      and\n      dup2\n      mstore\n      0x20\n      add\n      swap1\n      dup2\n      mstore\n      0x20\n      add\n      0x00\n      keccak256\n      0x00\n      swap1\n      sload\n      swap1\n      0x0100\n      exp\n      swap1\n      div\n      0xffffffffffffffffffffffffffffffffffffffff\n      and\n        /* \".deps/contracts/creditOp.sol\":4079:4117  currentAddress = _next[currentAddress] */\n      swap1\n      pop\n        /* \".deps/contracts/creditOp.sol\":3941:4128  while(_next[currentAddress] != GUARD) {... */\n      jump(tag_86)\n    tag_87:\n        /* \".deps/contracts/creditOp.sol\":4152:4153  0 */\n      0x00\n        /* \".deps/contracts/creditOp.sol\":4137:4154  return address(0) */\n      swap2\n      pop\n      pop\n        /* \".deps/contracts/creditOp.sol\":3827:4161  function _findPrev(address user) internal view returns(address) {... */\n    tag_85:\n      swap2\n      swap1\n      pop\n      jump\t// out\n        /* \".deps/contracts/creditOp.sol\":3129:3366  function _verifyIndex(address prev, uint newValue, address next) ... */\n    tag_61:\n        /* \".deps/contracts/creditOp.sol\":3225:3229  bool */\n      0x00\n        /* \".deps/contracts/creditOp.sol\":201:202  1 */\n      0x01\n        /* \".deps/contracts/creditOp.sol\":3249:3262  prev == GUARD */\n      0xffffffffffffffffffffffffffffffffffffffff\n      and\n        /* \".deps/contracts/creditOp.sol\":3249:3253  prev */\n      dup5\n        /* \".deps/contracts/creditOp.sol\":3249:3262  prev == GUARD */\n      0xffffffffffffffffffffffffffffffffffffffff\n      and\n      eq\n        /* \".deps/contracts/creditOp.sol\":3249:3295  prev == GUARD || user2credit[prev] >= newValue */\n      dup1\n      tag_92\n      jumpi\n      pop\n        /* \".deps/contracts/creditOp.sol\":3287:3295  newValue */\n      dup3\n        /* \".deps/contracts/creditOp.sol\":3266:3277  user2credit */\n      0x00\n        /* \".deps/contracts/creditOp.sol\":3266:3283  user2credit[prev] */\n      dup1\n        /* \".deps/contracts/creditOp.sol\":3278:3282  prev */\n      dup7\n        /* \".deps/contracts/creditOp.sol\":3266:3283  user2credit[prev] */\n      0xffffffffffffffffffffffffffffffffffffffff\n      and\n      0xffffffffffffffffffffffffffffffffffffffff\n      and\n      dup2\n      mstore\n      0x20\n      add\n      swap1\n      dup2\n      mstore\n      0x20\n      add\n      0x00\n      keccak256\n      sload\n        /* \".deps/contracts/creditOp.sol\":3266:3295  user2credit[prev] >= newValue */\n      lt\n      iszero\n        /* \".deps/contracts/creditOp.sol\":3249:3295  prev == GUARD || user2credit[prev] >= newValue */\n    tag_92:\n        /* \".deps/contracts/creditOp.sol\":3248:3359  (prev == GUARD || user2credit[prev] >= newValue)... */\n      dup1\n      iszero\n      tag_93\n      jumpi\n      pop\n        /* \".deps/contracts/creditOp.sol\":201:202  1 */\n      0x01\n        /* \".deps/contracts/creditOp.sol\":3313:3326  next == GUARD */\n      0xffffffffffffffffffffffffffffffffffffffff\n      and\n        /* \".deps/contracts/creditOp.sol\":3313:3317  next */\n      dup3\n        /* \".deps/contracts/creditOp.sol\":3313:3326  next == GUARD */\n      0xffffffffffffffffffffffffffffffffffffffff\n      and\n      eq\n        /* \".deps/contracts/creditOp.sol\":3313:3358  next == GUARD || newValue > user2credit[next] */\n      dup1\n      tag_94\n      jumpi\n      pop\n        /* \".deps/contracts/creditOp.sol\":3341:3352  user2credit */\n      0x00\n        /* \".deps/contracts/creditOp.sol\":3341:3358  user2credit[next] */\n      dup1\n        /* \".deps/contracts/creditOp.sol\":3353:3357  next */\n      dup4\n        /* \".deps/contracts/creditOp.sol\":3341:3358  user2credit[next] */\n      0xffffffffffffffffffffffffffffffffffffffff\n      and\n      0xffffffffffffffffffffffffffffffffffffffff\n      and\n      dup2\n      mstore\n      0x20\n      add\n      swap1\n      dup2\n      mstore\n      0x20\n      add\n      0x00\n      keccak256\n      sload\n        /* \".deps/contracts/creditOp.sol\":3330:3338  newValue */\n      dup4\n        /* \".deps/contracts/creditOp.sol\":3330:3358  newValue > user2credit[next] */\n      gt\n        /* \".deps/contracts/creditOp.sol\":3313:3358  next == GUARD || newValue > user2credit[next] */\n    tag_94:\n        /* \".deps/contracts/creditOp.sol\":3248:3359  (prev == GUARD || user2credit[prev] >= newValue)... */\n    tag_93:\n        /* \".deps/contracts/creditOp.sol\":3241:3359  return (prev == GUARD || user2credit[prev] >= newValue)... */\n      swap1\n      pop\n        /* \".deps/contracts/creditOp.sol\":3129:3366  function _verifyIndex(address prev, uint newValue, address next) ... */\n      swap4\n      swap3\n      pop\n      pop\n      pop\n      jump\t// out\n        /* \".deps/contracts/creditOp.sol\":3372:3699  function _findIndex(uint newValue) internal view returns(address) {... */\n    tag_69:\n        /* \".deps/contracts/creditOp.sol\":3429:3436  address */\n      0x00\n        /* \".deps/contracts/creditOp.sol\":3448:3472  address candidateAddress */\n      dup1\n        /* \".deps/contracts/creditOp.sol\":201:202  1 */\n      0x01\n        /* \".deps/contracts/creditOp.sol\":3448:3480  address candidateAddress = GUARD */\n      swap1\n      pop\n        /* \".deps/contracts/creditOp.sol\":3490:3693  while(true) {... */\n    tag_96:\n        /* \".deps/contracts/creditOp.sol\":3496:3500  true */\n      0x01\n        /* \".deps/contracts/creditOp.sol\":3490:3693  while(true) {... */\n      iszero\n      tag_97\n      jumpi\n        /* \".deps/contracts/creditOp.sol\":3520:3585  _verifyIndex(candidateAddress, newValue, _next[candidateAddress]) */\n      tag_98\n        /* \".deps/contracts/creditOp.sol\":3533:3549  candidateAddress */\n      dup2\n        /* \".deps/contracts/creditOp.sol\":3551:3559  newValue */\n      dup5\n        /* \".deps/contracts/creditOp.sol\":3561:3566  _next */\n      0x01\n        /* \".deps/contracts/creditOp.sol\":3561:3584  _next[candidateAddress] */\n      0x00\n        /* \".deps/contracts/creditOp.sol\":3567:3583  candidateAddress */\n      dup6\n        /* \".deps/contracts/creditOp.sol\":3561:3584  _next[candidateAddress] */\n      0xffffffffffffffffffffffffffffffffffffffff\n      and\n      0xffffffffffffffffffffffffffffffffffffffff\n      and\n      dup2\n      mstore\n      0x20\n      add\n      swap1\n      dup2\n      mstore\n      0x20\n      add\n      0x00\n      keccak256\n      0x00\n      swap1\n      sload\n      swap1\n      0x0100\n      exp\n      swap1\n      div\n      0xffffffffffffffffffffffffffffffffffffffff\n      and\n        /* \".deps/contracts/creditOp.sol\":3520:3532  _verifyIndex */\n      tag_61\n        /* \".deps/contracts/creditOp.sol\":3520:3585  _verifyIndex(candidateAddress, newValue, _next[candidateAddress]) */\n      jump\t// in\n    tag_98:\n        /* \".deps/contracts/creditOp.sol\":3516:3626  if (_verifyIndex(candidateAddress, newValue, _next[candidateAddress]))... */\n      iszero\n      tag_99\n      jumpi\n        /* \".deps/contracts/creditOp.sol\":3610:3626  candidateAddress */\n      dup1\n        /* \".deps/contracts/creditOp.sol\":3603:3626  return candidateAddress */\n      swap2\n      pop\n      pop\n      jump(tag_95)\n        /* \".deps/contracts/creditOp.sol\":3516:3626  if (_verifyIndex(candidateAddress, newValue, _next[candidateAddress]))... */\n    tag_99:\n        /* \".deps/contracts/creditOp.sol\":3659:3664  _next */\n      0x01\n        /* \".deps/contracts/creditOp.sol\":3659:3682  _next[candidateAddress] */\n      0x00\n        /* \".deps/contracts/creditOp.sol\":3665:3681  candidateAddress */\n      dup3\n        /* \".deps/contracts/creditOp.sol\":3659:3682  _next[candidateAddress] */\n      0xffffffffffffffffffffffffffffffffffffffff\n      and\n      0xffffffffffffffffffffffffffffffffffffffff\n      and\n      dup2\n      mstore\n      0x20\n      add\n      swap1\n      dup2\n      mstore\n      0x20\n      add\n      0x00\n      keccak256\n      0x00\n      swap1\n      sload\n      swap1\n      0x0100\n      exp\n      swap1\n      div\n      0xffffffffffffffffffffffffffffffffffffffff\n      and\n        /* \".deps/contracts/creditOp.sol\":3640:3682  candidateAddress = _next[candidateAddress] */\n      swap1\n      pop\n        /* \".deps/contracts/creditOp.sol\":3490:3693  while(true) {... */\n      jump(tag_96)\n    tag_97:\n        /* \".deps/contracts/creditOp.sol\":3372:3699  function _findIndex(uint newValue) internal view returns(address) {... */\n      pop\n    tag_95:\n      swap2\n      swap1\n      pop\n      jump\t// out\n        /* \".deps/contracts/creditOp.sol\":3705:3821  function _isPrev(address user, address prev) internal view returns(bool) {... */\n    tag_89:\n        /* \".deps/contracts/creditOp.sol\":3772:3776  bool */\n      0x00\n        /* \".deps/contracts/creditOp.sol\":3810:3814  user */\n      dup3\n        /* \".deps/contracts/creditOp.sol\":3795:3814  _next[prev] == user */\n      0xffffffffffffffffffffffffffffffffffffffff\n      and\n        /* \".deps/contracts/creditOp.sol\":3795:3800  _next */\n      0x01\n        /* \".deps/contracts/creditOp.sol\":3795:3806  _next[prev] */\n      0x00\n        /* \".deps/contracts/creditOp.sol\":3801:3805  prev */\n      dup5\n        /* \".deps/contracts/creditOp.sol\":3795:3806  _next[prev] */\n      0xffffffffffffffffffffffffffffffffffffffff\n      and\n      0xffffffffffffffffffffffffffffffffffffffff\n      and\n      dup2\n      mstore\n      0x20\n      add\n      swap1\n      dup2\n      mstore\n      0x20\n      add\n      0x00\n      keccak256\n      0x00\n      swap1\n      sload\n      swap1\n      0x0100\n      exp\n      swap1\n      div\n      0xffffffffffffffffffffffffffffffffffffffff\n      and\n        /* \".deps/contracts/creditOp.sol\":3795:3814  _next[prev] == user */\n      0xffffffffffffffffffffffffffffffffffffffff\n      and\n      eq\n        /* \".deps/contracts/creditOp.sol\":3788:3814  return _next[prev] == user */\n      swap1\n      pop\n        /* \".deps/contracts/creditOp.sol\":3705:3821  function _isPrev(address user, address prev) internal view returns(bool) {... */\n      swap3\n      swap2\n      pop\n      pop\n      jump\t// out\n\n    auxdata: 0xa264697066735822122029115d51cf0d79784dc174f0cebab18e0bfb3ac039344c03e0fdc06c6818836064736f6c63430007060033\n}\n",
				"bytecode": {
					"linkReferences": {},
					"object": "6080604052612710600455614e2060055561138860065561177060075534801561002857600080fd5b506001806000600173ffffffffffffffffffffffffffffffffffffffff1673ffffffffffffffffffffffffffffffffffffffff16815260200190815260200160002060006101000a81548173ffffffffffffffffffffffffffffffffffffffff021916908373ffffffffffffffffffffffffffffffffffffffff160217905550611279806100b76000396000f3fe608060405234801561001057600080fd5b50600436106100a95760003560e01c8063904fba8d11610071578063904fba8d14610240578063972c5356146102845780639dc29cdb146102a2578063d4268f4a146102f0578063de6e6d3e1461034b578063eaeadac9146103a3576100a9565b80631eab150d146100ae5780631f72a7d51461010857806357344e6f1461014c57806365d97724146101a45780637d27d66c146101f2575b600080fd5b6100f0600480360360208110156100c457600080fd5b81019080803573ffffffffffffffffffffffffffffffffffffffff1690602001909291905050506103e7565b60405180821515815260200191505060405180910390f35b61014a6004803603602081101561011e57600080fd5b81019080803573ffffffffffffffffffffffffffffffffffffffff16906020019092919050505061040e565b005b61018e6004803603602081101561016257600080fd5b81019080803573ffffffffffffffffffffffffffffffffffffffff169060200190929190505050610476565b6040518082815260200191505060405180910390f35b6101f0600480360360408110156101ba57600080fd5b81019080803573ffffffffffffffffffffffffffffffffffffffff169060200190929190803590602001909291905050506104c8565b005b61023e6004803603604081101561020857600080fd5b81019080803573ffffffffffffffffffffffffffffffffffffffff16906020019092919080359060200190929190505050610644565b005b6102826004803603602081101561025657600080fd5b81019080803573ffffffffffffffffffffffffffffffffffffffff16906020019092919050505061089e565b005b61028c610a49565b6040518082815260200191505060405180910390f35b6102ee600480360360408110156102b857600080fd5b81019080803573ffffffffffffffffffffffffffffffffffffffff16906020019092919080359060200190929190505050610a4f565b005b6103326004803603602081101561030657600080fd5b81019080803573ffffffffffffffffffffffffffffffffffffffff169060200190929190505050610b9c565b604051808260ff16815260200191505060405180910390f35b61038d6004803603602081101561036157600080fd5b81019080803573ffffffffffffffffffffffffffffffffffffffff169060200190929190505050610bbc565b6040518082815260200191505060405180910390f35b6103e5600480360360208110156103b957600080fd5b81019080803573ffffffffffffffffffffffffffffffffffffffff169060200190929190505050610bd4565b005b60006103f282610e31565b80156104075750603261040483610476565b10155b9050919050565b61041a81600454610644565b6000600360008373ffffffffffffffffffffffffffffffffffffffff1673ffffffffffffffffffffffffffffffffffffffff16815260200190815260200160002060006101000a81548160ff021916908360ff16021790555050565b600060646000808473ffffffffffffffffffffffffffffffffffffffff1673ffffffffffffffffffffffffffffffffffffffff16815260200190815260200160002054816104c057fe5b049050919050565b600073ffffffffffffffffffffffffffffffffffffffff16600160008473ffffffffffffffffffffffffffffffffffffffff1673ffffffffffffffffffffffffffffffffffffffff16815260200190815260200160002060009054906101000a900473ffffffffffffffffffffffffffffffffffffffff1673ffffffffffffffffffffffffffffffffffffffff16141561056157600080fd5b600061056c83610e8d565b90506000600160008573ffffffffffffffffffffffffffffffffffffffff1673ffffffffffffffffffffffffffffffffffffffff16815260200190815260200160002060009054906101000a900473ffffffffffffffffffffffffffffffffffffffff1690506105dd828483610fb2565b1561062a57826000808673ffffffffffffffffffffffffffffffffffffffff1673ffffffffffffffffffffffffffffffffffffffff1681526020019081526020016000208190555061063e565b61063384610bd4565b61063d8484610644565b5b50505050565b600073ffffffffffffffffffffffffffffffffffffffff16600160008473ffffffffffffffffffffffffffffffffffffffff1673ffffffffffffffffffffffffffffffffffffffff16815260200190815260200160002060009054906101000a900473ffffffffffffffffffffffffffffffffffffffff1673ffffffffffffffffffffffffffffffffffffffff16146106dc57600080fd5b60006106e7826110b6565b9050816000808573ffffffffffffffffffffffffffffffffffffffff1673ffffffffffffffffffffffffffffffffffffffff16815260200190815260200160002081905550600160008273ffffffffffffffffffffffffffffffffffffffff1673ffffffffffffffffffffffffffffffffffffffff16815260200190815260200160002060009054906101000a900473ffffffffffffffffffffffffffffffffffffffff16600160008573ffffffffffffffffffffffffffffffffffffffff1673ffffffffffffffffffffffffffffffffffffffff16815260200190815260200160002060006101000a81548173ffffffffffffffffffffffffffffffffffffffff021916908373ffffffffffffffffffffffffffffffffffffffff16021790555082600160008373ffffffffffffffffffffffffffffffffffffffff1673ffffffffffffffffffffffffffffffffffffffff16815260200190815260200160002060006101000a81548173ffffffffffffffffffffffffffffffffffffffff021916908373ffffffffffffffffffffffffffffffffffffffff160217905550600260008154809291906001019190505550505050565b60008060008373ffffffffffffffffffffffffffffffffffffffff1673ffffffffffffffffffffffffffffffffffffffff16815260200190815260200160002054905060006040518060c00160405280600061ffff16815260200161271061ffff168152602001612af861ffff168152602001613a9861ffff16815260200161465061ffff168152602001614e2061ffff16815250905060006040518060a00160405280606460ff168152602001606060ff168152602001601060ff168152602001600560ff168152602001600160ff168152509050600554831015610a4357600080600190505b60068110156109fd578484836006811061099c57fe5b602002015161ffff16111580156109c657508381600681106109ba57fe5b602002015161ffff1685105b156109e8578282600581106109d757fe5b602002015160ff16850194506109fd565b81806001019250508080600101915050610986565b846000808873ffffffffffffffffffffffffffffffffffffffff1673ffffffffffffffffffffffffffffffffffffffff1681526020019081526020016000208190555050505b50505050565b60025481565b60008060008473ffffffffffffffffffffffffffffffffffffffff1673ffffffffffffffffffffffffffffffffffffffff16815260200190815260200160002054905060648202915081810390506032811015610b54576000600360008573ffffffffffffffffffffffffffffffffffffffff1673ffffffffffffffffffffffffffffffffffffffff16815260200190815260200160002060009054906101000a900460ff16905060018101600360008673ffffffffffffffffffffffffffffffffffffffff1673ffffffffffffffffffffffffffffffffffffffff16815260200190815260200160002060006101000a81548160ff021916908360ff160217905550505b806000808573ffffffffffffffffffffffffffffffffffffffff1673ffffffffffffffffffffffffffffffffffffffff16815260200190815260200160002081905550505050565b60036020528060005260406000206000915054906101000a900460ff1681565b60006020528060005260406000206000915090505481565b600073ffffffffffffffffffffffffffffffffffffffff16600160008373ffffffffffffffffffffffffffffffffffffffff1673ffffffffffffffffffffffffffffffffffffffff16815260200190815260200160002060009054906101000a900473ffffffffffffffffffffffffffffffffffffffff1673ffffffffffffffffffffffffffffffffffffffff161415610c6d57600080fd5b6000610c7882610e8d565b9050600160008373ffffffffffffffffffffffffffffffffffffffff1673ffffffffffffffffffffffffffffffffffffffff16815260200190815260200160002060009054906101000a900473ffffffffffffffffffffffffffffffffffffffff16600160008373ffffffffffffffffffffffffffffffffffffffff1673ffffffffffffffffffffffffffffffffffffffff16815260200190815260200160002060006101000a81548173ffffffffffffffffffffffffffffffffffffffff021916908373ffffffffffffffffffffffffffffffffffffffff1602179055506000600160008473ffffffffffffffffffffffffffffffffffffffff1673ffffffffffffffffffffffffffffffffffffffff16815260200190815260200160002060006101000a81548173ffffffffffffffffffffffffffffffffffffffff021916908373ffffffffffffffffffffffffffffffffffffffff16021790555060008060008473ffffffffffffffffffffffffffffffffffffffff1673ffffffffffffffffffffffffffffffffffffffff16815260200190815260200160002081905550600260008154809291906001900391905055505050565b60006002600360008473ffffffffffffffffffffffffffffffffffffffff1673ffffffffffffffffffffffffffffffffffffffff16815260200190815260200160002060009054906101000a900460ff1660ff16109050919050565b600080600190505b600173ffffffffffffffffffffffffffffffffffffffff16600160008373ffffffffffffffffffffffffffffffffffffffff1673ffffffffffffffffffffffffffffffffffffffff16815260200190815260200160002060009054906101000a900473ffffffffffffffffffffffffffffffffffffffff1673ffffffffffffffffffffffffffffffffffffffff1614610fa757610f3283826111ab565b15610f405780915050610fad565b600160008273ffffffffffffffffffffffffffffffffffffffff1673ffffffffffffffffffffffffffffffffffffffff16815260200190815260200160002060009054906101000a900473ffffffffffffffffffffffffffffffffffffffff169050610e95565b60009150505b919050565b6000600173ffffffffffffffffffffffffffffffffffffffff168473ffffffffffffffffffffffffffffffffffffffff16148061102d5750826000808673ffffffffffffffffffffffffffffffffffffffff1673ffffffffffffffffffffffffffffffffffffffff1681526020019081526020016000205410155b80156110ad5750600173ffffffffffffffffffffffffffffffffffffffff168273ffffffffffffffffffffffffffffffffffffffff1614806110ac57506000808373ffffffffffffffffffffffffffffffffffffffff1673ffffffffffffffffffffffffffffffffffffffff1681526020019081526020016000205483115b5b90509392505050565b600080600190505b6001156111a45761112f8184600160008573ffffffffffffffffffffffffffffffffffffffff1673ffffffffffffffffffffffffffffffffffffffff16815260200190815260200160002060009054906101000a900473ffffffffffffffffffffffffffffffffffffffff16610fb2565b1561113d57809150506111a6565b600160008273ffffffffffffffffffffffffffffffffffffffff1673ffffffffffffffffffffffffffffffffffffffff16815260200190815260200160002060009054906101000a900473ffffffffffffffffffffffffffffffffffffffff1690506110be565b505b919050565b60008273ffffffffffffffffffffffffffffffffffffffff16600160008473ffffffffffffffffffffffffffffffffffffffff1673ffffffffffffffffffffffffffffffffffffffff16815260200190815260200160002060009054906101000a900473ffffffffffffffffffffffffffffffffffffffff1673ffffffffffffffffffffffffffffffffffffffff161490509291505056fea264697066735822122029115d51cf0d79784dc174f0cebab18e0bfb3ac039344c03e0fdc06c6818836064736f6c63430007060033",
					"opcodes": "PUSH1 0x80 PUSH1 0x40 MSTORE PUSH2 0x2710 PUSH1 0x4 SSTORE PUSH2 0x4E20 PUSH1 0x5 SSTORE PUSH2 0x1388 PUSH1 0x6 SSTORE PUSH2 0x1770 PUSH1 0x7 SSTORE CALLVALUE DUP1 ISZERO PUSH2 0x28 JUMPI PUSH1 0x0 DUP1 REVERT JUMPDEST POP PUSH1 0x1 DUP1 PUSH1 0x0 PUSH1 0x1 PUSH20 0xFFFFFFFFFFFFFFFFFFFFFFFFFFFFFFFFFFFFFFFF AND PUSH20 0xFFFFFFFFFFFFFFFFFFFFFFFFFFFFFFFFFFFFFFFF AND DUP2 MSTORE PUSH1 0x20 ADD SWAP1 DUP2 MSTORE PUSH1 0x20 ADD PUSH1 0x0 KECCAK256 PUSH1 0x0 PUSH2 0x100 EXP DUP2 SLOAD DUP2 PUSH20 0xFFFFFFFFFFFFFFFFFFFFFFFFFFFFFFFFFFFFFFFF MUL NOT AND SWAP1 DUP4 PUSH20 0xFFFFFFFFFFFFFFFFFFFFFFFFFFFFFFFFFFFFFFFF AND MUL OR SWAP1 SSTORE POP PUSH2 0x1279 DUP1 PUSH2 0xB7 PUSH1 0x0 CODECOPY PUSH1 0x0 RETURN INVALID PUSH1 0x80 PUSH1 0x40 MSTORE CALLVALUE DUP1 ISZERO PUSH2 0x10 JUMPI PUSH1 0x0 DUP1 REVERT JUMPDEST POP PUSH1 0x4 CALLDATASIZE LT PUSH2 0xA9 JUMPI PUSH1 0x0 CALLDATALOAD PUSH1 0xE0 SHR DUP1 PUSH4 0x904FBA8D GT PUSH2 0x71 JUMPI DUP1 PUSH4 0x904FBA8D EQ PUSH2 0x240 JUMPI DUP1 PUSH4 0x972C5356 EQ PUSH2 0x284 JUMPI DUP1 PUSH4 0x9DC29CDB EQ PUSH2 0x2A2 JUMPI DUP1 PUSH4 0xD4268F4A EQ PUSH2 0x2F0 JUMPI DUP1 PUSH4 0xDE6E6D3E EQ PUSH2 0x34B JUMPI DUP1 PUSH4 0xEAEADAC9 EQ PUSH2 0x3A3 JUMPI PUSH2 0xA9 JUMP JUMPDEST DUP1 PUSH4 0x1EAB150D EQ PUSH2 0xAE JUMPI DUP1 PUSH4 0x1F72A7D5 EQ PUSH2 0x108 JUMPI DUP1 PUSH4 0x57344E6F EQ PUSH2 0x14C JUMPI DUP1 PUSH4 0x65D97724 EQ PUSH2 0x1A4 JUMPI DUP1 PUSH4 0x7D27D66C EQ PUSH2 0x1F2 JUMPI JUMPDEST PUSH1 0x0 DUP1 REVERT JUMPDEST PUSH2 0xF0 PUSH1 0x4 DUP1 CALLDATASIZE SUB PUSH1 0x20 DUP2 LT ISZERO PUSH2 0xC4 JUMPI PUSH1 0x0 DUP1 REVERT JUMPDEST DUP2 ADD SWAP1 DUP1 DUP1 CALLDATALOAD PUSH20 0xFFFFFFFFFFFFFFFFFFFFFFFFFFFFFFFFFFFFFFFF AND SWAP1 PUSH1 0x20 ADD SWAP1 SWAP3 SWAP2 SWAP1 POP POP POP PUSH2 0x3E7 JUMP JUMPDEST PUSH1 0x40 MLOAD DUP1 DUP3 ISZERO ISZERO DUP2 MSTORE PUSH1 0x20 ADD SWAP2 POP POP PUSH1 0x40 MLOAD DUP1 SWAP2 SUB SWAP1 RETURN JUMPDEST PUSH2 0x14A PUSH1 0x4 DUP1 CALLDATASIZE SUB PUSH1 0x20 DUP2 LT ISZERO PUSH2 0x11E JUMPI PUSH1 0x0 DUP1 REVERT JUMPDEST DUP2 ADD SWAP1 DUP1 DUP1 CALLDATALOAD PUSH20 0xFFFFFFFFFFFFFFFFFFFFFFFFFFFFFFFFFFFFFFFF AND SWAP1 PUSH1 0x20 ADD SWAP1 SWAP3 SWAP2 SWAP1 POP POP POP PUSH2 0x40E JUMP JUMPDEST STOP JUMPDEST PUSH2 0x18E PUSH1 0x4 DUP1 CALLDATASIZE SUB PUSH1 0x20 DUP2 LT ISZERO PUSH2 0x162 JUMPI PUSH1 0x0 DUP1 REVERT JUMPDEST DUP2 ADD SWAP1 DUP1 DUP1 CALLDATALOAD PUSH20 0xFFFFFFFFFFFFFFFFFFFFFFFFFFFFFFFFFFFFFFFF AND SWAP1 PUSH1 0x20 ADD SWAP1 SWAP3 SWAP2 SWAP1 POP POP POP PUSH2 0x476 JUMP JUMPDEST PUSH1 0x40 MLOAD DUP1 DUP3 DUP2 MSTORE PUSH1 0x20 ADD SWAP2 POP POP PUSH1 0x40 MLOAD DUP1 SWAP2 SUB SWAP1 RETURN JUMPDEST PUSH2 0x1F0 PUSH1 0x4 DUP1 CALLDATASIZE SUB PUSH1 0x40 DUP2 LT ISZERO PUSH2 0x1BA JUMPI PUSH1 0x0 DUP1 REVERT JUMPDEST DUP2 ADD SWAP1 DUP1 DUP1 CALLDATALOAD PUSH20 0xFFFFFFFFFFFFFFFFFFFFFFFFFFFFFFFFFFFFFFFF AND SWAP1 PUSH1 0x20 ADD SWAP1 SWAP3 SWAP2 SWAP1 DUP1 CALLDATALOAD SWAP1 PUSH1 0x20 ADD SWAP1 SWAP3 SWAP2 SWAP1 POP POP POP PUSH2 0x4C8 JUMP JUMPDEST STOP JUMPDEST PUSH2 0x23E PUSH1 0x4 DUP1 CALLDATASIZE SUB PUSH1 0x40 DUP2 LT ISZERO PUSH2 0x208 JUMPI PUSH1 0x0 DUP1 REVERT JUMPDEST DUP2 ADD SWAP1 DUP1 DUP1 CALLDATALOAD PUSH20 0xFFFFFFFFFFFFFFFFFFFFFFFFFFFFFFFFFFFFFFFF AND SWAP1 PUSH1 0x20 ADD SWAP1 SWAP3 SWAP2 SWAP1 DUP1 CALLDATALOAD SWAP1 PUSH1 0x20 ADD SWAP1 SWAP3 SWAP2 SWAP1 POP POP POP PUSH2 0x644 JUMP JUMPDEST STOP JUMPDEST PUSH2 0x282 PUSH1 0x4 DUP1 CALLDATASIZE SUB PUSH1 0x20 DUP2 LT ISZERO PUSH2 0x256 JUMPI PUSH1 0x0 DUP1 REVERT JUMPDEST DUP2 ADD SWAP1 DUP1 DUP1 CALLDATALOAD PUSH20 0xFFFFFFFFFFFFFFFFFFFFFFFFFFFFFFFFFFFFFFFF AND SWAP1 PUSH1 0x20 ADD SWAP1 SWAP3 SWAP2 SWAP1 POP POP POP PUSH2 0x89E JUMP JUMPDEST STOP JUMPDEST PUSH2 0x28C PUSH2 0xA49 JUMP JUMPDEST PUSH1 0x40 MLOAD DUP1 DUP3 DUP2 MSTORE PUSH1 0x20 ADD SWAP2 POP POP PUSH1 0x40 MLOAD DUP1 SWAP2 SUB SWAP1 RETURN JUMPDEST PUSH2 0x2EE PUSH1 0x4 DUP1 CALLDATASIZE SUB PUSH1 0x40 DUP2 LT ISZERO PUSH2 0x2B8 JUMPI PUSH1 0x0 DUP1 REVERT JUMPDEST DUP2 ADD SWAP1 DUP1 DUP1 CALLDATALOAD PUSH20 0xFFFFFFFFFFFFFFFFFFFFFFFFFFFFFFFFFFFFFFFF AND SWAP1 PUSH1 0x20 ADD SWAP1 SWAP3 SWAP2 SWAP1 DUP1 CALLDATALOAD SWAP1 PUSH1 0x20 ADD SWAP1 SWAP3 SWAP2 SWAP1 POP POP POP PUSH2 0xA4F JUMP JUMPDEST STOP JUMPDEST PUSH2 0x332 PUSH1 0x4 DUP1 CALLDATASIZE SUB PUSH1 0x20 DUP2 LT ISZERO PUSH2 0x306 JUMPI PUSH1 0x0 DUP1 REVERT JUMPDEST DUP2 ADD SWAP1 DUP1 DUP1 CALLDATALOAD PUSH20 0xFFFFFFFFFFFFFFFFFFFFFFFFFFFFFFFFFFFFFFFF AND SWAP1 PUSH1 0x20 ADD SWAP1 SWAP3 SWAP2 SWAP1 POP POP POP PUSH2 0xB9C JUMP JUMPDEST PUSH1 0x40 MLOAD DUP1 DUP3 PUSH1 0xFF AND DUP2 MSTORE PUSH1 0x20 ADD SWAP2 POP POP PUSH1 0x40 MLOAD DUP1 SWAP2 SUB SWAP1 RETURN JUMPDEST PUSH2 0x38D PUSH1 0x4 DUP1 CALLDATASIZE SUB PUSH1 0x20 DUP2 LT ISZERO PUSH2 0x361 JUMPI PUSH1 0x0 DUP1 REVERT JUMPDEST DUP2 ADD SWAP1 DUP1 DUP1 CALLDATALOAD PUSH20 0xFFFFFFFFFFFFFFFFFFFFFFFFFFFFFFFFFFFFFFFF AND SWAP1 PUSH1 0x20 ADD SWAP1 SWAP3 SWAP2 SWAP1 POP POP POP PUSH2 0xBBC JUMP JUMPDEST PUSH1 0x40 MLOAD DUP1 DUP3 DUP2 MSTORE PUSH1 0x20 ADD SWAP2 POP POP PUSH1 0x40 MLOAD DUP1 SWAP2 SUB SWAP1 RETURN JUMPDEST PUSH2 0x3E5 PUSH1 0x4 DUP1 CALLDATASIZE SUB PUSH1 0x20 DUP2 LT ISZERO PUSH2 0x3B9 JUMPI PUSH1 0x0 DUP1 REVERT JUMPDEST DUP2 ADD SWAP1 DUP1 DUP1 CALLDATALOAD PUSH20 0xFFFFFFFFFFFFFFFFFFFFFFFFFFFFFFFFFFFFFFFF AND SWAP1 PUSH1 0x20 ADD SWAP1 SWAP3 SWAP2 SWAP1 POP POP POP PUSH2 0xBD4 JUMP JUMPDEST STOP JUMPDEST PUSH1 0x0 PUSH2 0x3F2 DUP3 PUSH2 0xE31 JUMP JUMPDEST DUP1 ISZERO PUSH2 0x407 JUMPI POP PUSH1 0x32 PUSH2 0x404 DUP4 PUSH2 0x476 JUMP JUMPDEST LT ISZERO JUMPDEST SWAP1 POP SWAP2 SWAP1 POP JUMP JUMPDEST PUSH2 0x41A DUP2 PUSH1 0x4 SLOAD PUSH2 0x644 JUMP JUMPDEST PUSH1 0x0 PUSH1 0x3 PUSH1 0x0 DUP4 PUSH20 0xFFFFFFFFFFFFFFFFFFFFFFFFFFFFFFFFFFFFFFFF AND PUSH20 0xFFFFFFFFFFFFFFFFFFFFFFFFFFFFFFFFFFFFFFFF AND DUP2 MSTORE PUSH1 0x20 ADD SWAP1 DUP2 MSTORE PUSH1 0x20 ADD PUSH1 0x0 KECCAK256 PUSH1 0x0 PUSH2 0x100 EXP DUP2 SLOAD DUP2 PUSH1 0xFF MUL NOT AND SWAP1 DUP4 PUSH1 0xFF AND MUL OR SWAP1 SSTORE POP POP JUMP JUMPDEST PUSH1 0x0 PUSH1 0x64 PUSH1 0x0 DUP1 DUP5 PUSH20 0xFFFFFFFFFFFFFFFFFFFFFFFFFFFFFFFFFFFFFFFF AND PUSH20 0xFFFFFFFFFFFFFFFFFFFFFFFFFFFFFFFFFFFFFFFF AND DUP2 MSTORE PUSH1 0x20 ADD SWAP1 DUP2 MSTORE PUSH1 0x20 ADD PUSH1 0x0 KECCAK256 SLOAD DUP2 PUSH2 0x4C0 JUMPI INVALID JUMPDEST DIV SWAP1 POP SWAP2 SWAP1 POP JUMP JUMPDEST PUSH1 0x0 PUSH20 0xFFFFFFFFFFFFFFFFFFFFFFFFFFFFFFFFFFFFFFFF AND PUSH1 0x1 PUSH1 0x0 DUP5 PUSH20 0xFFFFFFFFFFFFFFFFFFFFFFFFFFFFFFFFFFFFFFFF AND PUSH20 0xFFFFFFFFFFFFFFFFFFFFFFFFFFFFFFFFFFFFFFFF AND DUP2 MSTORE PUSH1 0x20 ADD SWAP1 DUP2 MSTORE PUSH1 0x20 ADD PUSH1 0x0 KECCAK256 PUSH1 0x0 SWAP1 SLOAD SWAP1 PUSH2 0x100 EXP SWAP1 DIV PUSH20 0xFFFFFFFFFFFFFFFFFFFFFFFFFFFFFFFFFFFFFFFF AND PUSH20 0xFFFFFFFFFFFFFFFFFFFFFFFFFFFFFFFFFFFFFFFF AND EQ ISZERO PUSH2 0x561 JUMPI PUSH1 0x0 DUP1 REVERT JUMPDEST PUSH1 0x0 PUSH2 0x56C DUP4 PUSH2 0xE8D JUMP JUMPDEST SWAP1 POP PUSH1 0x0 PUSH1 0x1 PUSH1 0x0 DUP6 PUSH20 0xFFFFFFFFFFFFFFFFFFFFFFFFFFFFFFFFFFFFFFFF AND PUSH20 0xFFFFFFFFFFFFFFFFFFFFFFFFFFFFFFFFFFFFFFFF AND DUP2 MSTORE PUSH1 0x20 ADD SWAP1 DUP2 MSTORE PUSH1 0x20 ADD PUSH1 0x0 KECCAK256 PUSH1 0x0 SWAP1 SLOAD SWAP1 PUSH2 0x100 EXP SWAP1 DIV PUSH20 0xFFFFFFFFFFFFFFFFFFFFFFFFFFFFFFFFFFFFFFFF AND SWAP1 POP PUSH2 0x5DD DUP3 DUP5 DUP4 PUSH2 0xFB2 JUMP JUMPDEST ISZERO PUSH2 0x62A JUMPI DUP3 PUSH1 0x0 DUP1 DUP7 PUSH20 0xFFFFFFFFFFFFFFFFFFFFFFFFFFFFFFFFFFFFFFFF AND PUSH20 0xFFFFFFFFFFFFFFFFFFFFFFFFFFFFFFFFFFFFFFFF AND DUP2 MSTORE PUSH1 0x20 ADD SWAP1 DUP2 MSTORE PUSH1 0x20 ADD PUSH1 0x0 KECCAK256 DUP2 SWAP1 SSTORE POP PUSH2 0x63E JUMP JUMPDEST PUSH2 0x633 DUP5 PUSH2 0xBD4 JUMP JUMPDEST PUSH2 0x63D DUP5 DUP5 PUSH2 0x644 JUMP JUMPDEST JUMPDEST POP POP POP POP JUMP JUMPDEST PUSH1 0x0 PUSH20 0xFFFFFFFFFFFFFFFFFFFFFFFFFFFFFFFFFFFFFFFF AND PUSH1 0x1 PUSH1 0x0 DUP5 PUSH20 0xFFFFFFFFFFFFFFFFFFFFFFFFFFFFFFFFFFFFFFFF AND PUSH20 0xFFFFFFFFFFFFFFFFFFFFFFFFFFFFFFFFFFFFFFFF AND DUP2 MSTORE PUSH1 0x20 ADD SWAP1 DUP2 MSTORE PUSH1 0x20 ADD PUSH1 0x0 KECCAK256 PUSH1 0x0 SWAP1 SLOAD SWAP1 PUSH2 0x100 EXP SWAP1 DIV PUSH20 0xFFFFFFFFFFFFFFFFFFFFFFFFFFFFFFFFFFFFFFFF AND PUSH20 0xFFFFFFFFFFFFFFFFFFFFFFFFFFFFFFFFFFFFFFFF AND EQ PUSH2 0x6DC JUMPI PUSH1 0x0 DUP1 REVERT JUMPDEST PUSH1 0x0 PUSH2 0x6E7 DUP3 PUSH2 0x10B6 JUMP JUMPDEST SWAP1 POP DUP2 PUSH1 0x0 DUP1 DUP6 PUSH20 0xFFFFFFFFFFFFFFFFFFFFFFFFFFFFFFFFFFFFFFFF AND PUSH20 0xFFFFFFFFFFFFFFFFFFFFFFFFFFFFFFFFFFFFFFFF AND DUP2 MSTORE PUSH1 0x20 ADD SWAP1 DUP2 MSTORE PUSH1 0x20 ADD PUSH1 0x0 KECCAK256 DUP2 SWAP1 SSTORE POP PUSH1 0x1 PUSH1 0x0 DUP3 PUSH20 0xFFFFFFFFFFFFFFFFFFFFFFFFFFFFFFFFFFFFFFFF AND PUSH20 0xFFFFFFFFFFFFFFFFFFFFFFFFFFFFFFFFFFFFFFFF AND DUP2 MSTORE PUSH1 0x20 ADD SWAP1 DUP2 MSTORE PUSH1 0x20 ADD PUSH1 0x0 KECCAK256 PUSH1 0x0 SWAP1 SLOAD SWAP1 PUSH2 0x100 EXP SWAP1 DIV PUSH20 0xFFFFFFFFFFFFFFFFFFFFFFFFFFFFFFFFFFFFFFFF AND PUSH1 0x1 PUSH1 0x0 DUP6 PUSH20 0xFFFFFFFFFFFFFFFFFFFFFFFFFFFFFFFFFFFFFFFF AND PUSH20 0xFFFFFFFFFFFFFFFFFFFFFFFFFFFFFFFFFFFFFFFF AND DUP2 MSTORE PUSH1 0x20 ADD SWAP1 DUP2 MSTORE PUSH1 0x20 ADD PUSH1 0x0 KECCAK256 PUSH1 0x0 PUSH2 0x100 EXP DUP2 SLOAD DUP2 PUSH20 0xFFFFFFFFFFFFFFFFFFFFFFFFFFFFFFFFFFFFFFFF MUL NOT AND SWAP1 DUP4 PUSH20 0xFFFFFFFFFFFFFFFFFFFFFFFFFFFFFFFFFFFFFFFF AND MUL OR SWAP1 SSTORE POP DUP3 PUSH1 0x1 PUSH1 0x0 DUP4 PUSH20 0xFFFFFFFFFFFFFFFFFFFFFFFFFFFFFFFFFFFFFFFF AND PUSH20 0xFFFFFFFFFFFFFFFFFFFFFFFFFFFFFFFFFFFFFFFF AND DUP2 MSTORE PUSH1 0x20 ADD SWAP1 DUP2 MSTORE PUSH1 0x20 ADD PUSH1 0x0 KECCAK256 PUSH1 0x0 PUSH2 0x100 EXP DUP2 SLOAD DUP2 PUSH20 0xFFFFFFFFFFFFFFFFFFFFFFFFFFFFFFFFFFFFFFFF MUL NOT AND SWAP1 DUP4 PUSH20 0xFFFFFFFFFFFFFFFFFFFFFFFFFFFFFFFFFFFFFFFF AND MUL OR SWAP1 SSTORE POP PUSH1 0x2 PUSH1 0x0 DUP2 SLOAD DUP1 SWAP3 SWAP2 SWAP1 PUSH1 0x1 ADD SWAP2 SWAP1 POP SSTORE POP POP POP POP JUMP JUMPDEST PUSH1 0x0 DUP1 PUSH1 0x0 DUP4 PUSH20 0xFFFFFFFFFFFFFFFFFFFFFFFFFFFFFFFFFFFFFFFF AND PUSH20 0xFFFFFFFFFFFFFFFFFFFFFFFFFFFFFFFFFFFFFFFF AND DUP2 MSTORE PUSH1 0x20 ADD SWAP1 DUP2 MSTORE PUSH1 0x20 ADD PUSH1 0x0 KECCAK256 SLOAD SWAP1 POP PUSH1 0x0 PUSH1 0x40 MLOAD DUP1 PUSH1 0xC0 ADD PUSH1 0x40 MSTORE DUP1 PUSH1 0x0 PUSH2 0xFFFF AND DUP2 MSTORE PUSH1 0x20 ADD PUSH2 0x2710 PUSH2 0xFFFF AND DUP2 MSTORE PUSH1 0x20 ADD PUSH2 0x2AF8 PUSH2 0xFFFF AND DUP2 MSTORE PUSH1 0x20 ADD PUSH2 0x3A98 PUSH2 0xFFFF AND DUP2 MSTORE PUSH1 0x20 ADD PUSH2 0x4650 PUSH2 0xFFFF AND DUP2 MSTORE PUSH1 0x20 ADD PUSH2 0x4E20 PUSH2 0xFFFF AND DUP2 MSTORE POP SWAP1 POP PUSH1 0x0 PUSH1 0x40 MLOAD DUP1 PUSH1 0xA0 ADD PUSH1 0x40 MSTORE DUP1 PUSH1 0x64 PUSH1 0xFF AND DUP2 MSTORE PUSH1 0x20 ADD PUSH1 0x60 PUSH1 0xFF AND DUP2 MSTORE PUSH1 0x20 ADD PUSH1 0x10 PUSH1 0xFF AND DUP2 MSTORE PUSH1 0x20 ADD PUSH1 0x5 PUSH1 0xFF AND DUP2 MSTORE PUSH1 0x20 ADD PUSH1 0x1 PUSH1 0xFF AND DUP2 MSTORE POP SWAP1 POP PUSH1 0x5 SLOAD DUP4 LT ISZERO PUSH2 0xA43 JUMPI PUSH1 0x0 DUP1 PUSH1 0x1 SWAP1 POP JUMPDEST PUSH1 0x6 DUP2 LT ISZERO PUSH2 0x9FD JUMPI DUP5 DUP5 DUP4 PUSH1 0x6 DUP2 LT PUSH2 0x99C JUMPI INVALID JUMPDEST PUSH1 0x20 MUL ADD MLOAD PUSH2 0xFFFF AND GT ISZERO DUP1 ISZERO PUSH2 0x9C6 JUMPI POP DUP4 DUP2 PUSH1 0x6 DUP2 LT PUSH2 0x9BA JUMPI INVALID JUMPDEST PUSH1 0x20 MUL ADD MLOAD PUSH2 0xFFFF AND DUP6 LT JUMPDEST ISZERO PUSH2 0x9E8 JUMPI DUP3 DUP3 PUSH1 0x5 DUP2 LT PUSH2 0x9D7 JUMPI INVALID JUMPDEST PUSH1 0x20 MUL ADD MLOAD PUSH1 0xFF AND DUP6 ADD SWAP5 POP PUSH2 0x9FD JUMP JUMPDEST DUP2 DUP1 PUSH1 0x1 ADD SWAP3 POP POP DUP1 DUP1 PUSH1 0x1 ADD SWAP2 POP POP PUSH2 0x986 JUMP JUMPDEST DUP5 PUSH1 0x0 DUP1 DUP9 PUSH20 0xFFFFFFFFFFFFFFFFFFFFFFFFFFFFFFFFFFFFFFFF AND PUSH20 0xFFFFFFFFFFFFFFFFFFFFFFFFFFFFFFFFFFFFFFFF AND DUP2 MSTORE PUSH1 0x20 ADD SWAP1 DUP2 MSTORE PUSH1 0x20 ADD PUSH1 0x0 KECCAK256 DUP2 SWAP1 SSTORE POP POP POP JUMPDEST POP POP POP POP JUMP JUMPDEST PUSH1 0x2 SLOAD DUP2 JUMP JUMPDEST PUSH1 0x0 DUP1 PUSH1 0x0 DUP5 PUSH20 0xFFFFFFFFFFFFFFFFFFFFFFFFFFFFFFFFFFFFFFFF AND PUSH20 0xFFFFFFFFFFFFFFFFFFFFFFFFFFFFFFFFFFFFFFFF AND DUP2 MSTORE PUSH1 0x20 ADD SWAP1 DUP2 MSTORE PUSH1 0x20 ADD PUSH1 0x0 KECCAK256 SLOAD SWAP1 POP PUSH1 0x64 DUP3 MUL SWAP2 POP DUP2 DUP2 SUB SWAP1 POP PUSH1 0x32 DUP2 LT ISZERO PUSH2 0xB54 JUMPI PUSH1 0x0 PUSH1 0x3 PUSH1 0x0 DUP6 PUSH20 0xFFFFFFFFFFFFFFFFFFFFFFFFFFFFFFFFFFFFFFFF AND PUSH20 0xFFFFFFFFFFFFFFFFFFFFFFFFFFFFFFFFFFFFFFFF AND DUP2 MSTORE PUSH1 0x20 ADD SWAP1 DUP2 MSTORE PUSH1 0x20 ADD PUSH1 0x0 KECCAK256 PUSH1 0x0 SWAP1 SLOAD SWAP1 PUSH2 0x100 EXP SWAP1 DIV PUSH1 0xFF AND SWAP1 POP PUSH1 0x1 DUP2 ADD PUSH1 0x3 PUSH1 0x0 DUP7 PUSH20 0xFFFFFFFFFFFFFFFFFFFFFFFFFFFFFFFFFFFFFFFF AND PUSH20 0xFFFFFFFFFFFFFFFFFFFFFFFFFFFFFFFFFFFFFFFF AND DUP2 MSTORE PUSH1 0x20 ADD SWAP1 DUP2 MSTORE PUSH1 0x20 ADD PUSH1 0x0 KECCAK256 PUSH1 0x0 PUSH2 0x100 EXP DUP2 SLOAD DUP2 PUSH1 0xFF MUL NOT AND SWAP1 DUP4 PUSH1 0xFF AND MUL OR SWAP1 SSTORE POP POP JUMPDEST DUP1 PUSH1 0x0 DUP1 DUP6 PUSH20 0xFFFFFFFFFFFFFFFFFFFFFFFFFFFFFFFFFFFFFFFF AND PUSH20 0xFFFFFFFFFFFFFFFFFFFFFFFFFFFFFFFFFFFFFFFF AND DUP2 MSTORE PUSH1 0x20 ADD SWAP1 DUP2 MSTORE PUSH1 0x20 ADD PUSH1 0x0 KECCAK256 DUP2 SWAP1 SSTORE POP POP POP POP JUMP JUMPDEST PUSH1 0x3 PUSH1 0x20 MSTORE DUP1 PUSH1 0x0 MSTORE PUSH1 0x40 PUSH1 0x0 KECCAK256 PUSH1 0x0 SWAP2 POP SLOAD SWAP1 PUSH2 0x100 EXP SWAP1 DIV PUSH1 0xFF AND DUP2 JUMP JUMPDEST PUSH1 0x0 PUSH1 0x20 MSTORE DUP1 PUSH1 0x0 MSTORE PUSH1 0x40 PUSH1 0x0 KECCAK256 PUSH1 0x0 SWAP2 POP SWAP1 POP SLOAD DUP2 JUMP JUMPDEST PUSH1 0x0 PUSH20 0xFFFFFFFFFFFFFFFFFFFFFFFFFFFFFFFFFFFFFFFF AND PUSH1 0x1 PUSH1 0x0 DUP4 PUSH20 0xFFFFFFFFFFFFFFFFFFFFFFFFFFFFFFFFFFFFFFFF AND PUSH20 0xFFFFFFFFFFFFFFFFFFFFFFFFFFFFFFFFFFFFFFFF AND DUP2 MSTORE PUSH1 0x20 ADD SWAP1 DUP2 MSTORE PUSH1 0x20 ADD PUSH1 0x0 KECCAK256 PUSH1 0x0 SWAP1 SLOAD SWAP1 PUSH2 0x100 EXP SWAP1 DIV PUSH20 0xFFFFFFFFFFFFFFFFFFFFFFFFFFFFFFFFFFFFFFFF AND PUSH20 0xFFFFFFFFFFFFFFFFFFFFFFFFFFFFFFFFFFFFFFFF AND EQ ISZERO PUSH2 0xC6D JUMPI PUSH1 0x0 DUP1 REVERT JUMPDEST PUSH1 0x0 PUSH2 0xC78 DUP3 PUSH2 0xE8D JUMP JUMPDEST SWAP1 POP PUSH1 0x1 PUSH1 0x0 DUP4 PUSH20 0xFFFFFFFFFFFFFFFFFFFFFFFFFFFFFFFFFFFFFFFF AND PUSH20 0xFFFFFFFFFFFFFFFFFFFFFFFFFFFFFFFFFFFFFFFF AND DUP2 MSTORE PUSH1 0x20 ADD SWAP1 DUP2 MSTORE PUSH1 0x20 ADD PUSH1 0x0 KECCAK256 PUSH1 0x0 SWAP1 SLOAD SWAP1 PUSH2 0x100 EXP SWAP1 DIV PUSH20 0xFFFFFFFFFFFFFFFFFFFFFFFFFFFFFFFFFFFFFFFF AND PUSH1 0x1 PUSH1 0x0 DUP4 PUSH20 0xFFFFFFFFFFFFFFFFFFFFFFFFFFFFFFFFFFFFFFFF AND PUSH20 0xFFFFFFFFFFFFFFFFFFFFFFFFFFFFFFFFFFFFFFFF AND DUP2 MSTORE PUSH1 0x20 ADD SWAP1 DUP2 MSTORE PUSH1 0x20 ADD PUSH1 0x0 KECCAK256 PUSH1 0x0 PUSH2 0x100 EXP DUP2 SLOAD DUP2 PUSH20 0xFFFFFFFFFFFFFFFFFFFFFFFFFFFFFFFFFFFFFFFF MUL NOT AND SWAP1 DUP4 PUSH20 0xFFFFFFFFFFFFFFFFFFFFFFFFFFFFFFFFFFFFFFFF AND MUL OR SWAP1 SSTORE POP PUSH1 0x0 PUSH1 0x1 PUSH1 0x0 DUP5 PUSH20 0xFFFFFFFFFFFFFFFFFFFFFFFFFFFFFFFFFFFFFFFF AND PUSH20 0xFFFFFFFFFFFFFFFFFFFFFFFFFFFFFFFFFFFFFFFF AND DUP2 MSTORE PUSH1 0x20 ADD SWAP1 DUP2 MSTORE PUSH1 0x20 ADD PUSH1 0x0 KECCAK256 PUSH1 0x0 PUSH2 0x100 EXP DUP2 SLOAD DUP2 PUSH20 0xFFFFFFFFFFFFFFFFFFFFFFFFFFFFFFFFFFFFFFFF MUL NOT AND SWAP1 DUP4 PUSH20 0xFFFFFFFFFFFFFFFFFFFFFFFFFFFFFFFFFFFFFFFF AND MUL OR SWAP1 SSTORE POP PUSH1 0x0 DUP1 PUSH1 0x0 DUP5 PUSH20 0xFFFFFFFFFFFFFFFFFFFFFFFFFFFFFFFFFFFFFFFF AND PUSH20 0xFFFFFFFFFFFFFFFFFFFFFFFFFFFFFFFFFFFFFFFF AND DUP2 MSTORE PUSH1 0x20 ADD SWAP1 DUP2 MSTORE PUSH1 0x20 ADD PUSH1 0x0 KECCAK256 DUP2 SWAP1 SSTORE POP PUSH1 0x2 PUSH1 0x0 DUP2 SLOAD DUP1 SWAP3 SWAP2 SWAP1 PUSH1 0x1 SWAP1 SUB SWAP2 SWAP1 POP SSTORE POP POP POP JUMP JUMPDEST PUSH1 0x0 PUSH1 0x2 PUSH1 0x3 PUSH1 0x0 DUP5 PUSH20 0xFFFFFFFFFFFFFFFFFFFFFFFFFFFFFFFFFFFFFFFF AND PUSH20 0xFFFFFFFFFFFFFFFFFFFFFFFFFFFFFFFFFFFFFFFF AND DUP2 MSTORE PUSH1 0x20 ADD SWAP1 DUP2 MSTORE PUSH1 0x20 ADD PUSH1 0x0 KECCAK256 PUSH1 0x0 SWAP1 SLOAD SWAP1 PUSH2 0x100 EXP SWAP1 DIV PUSH1 0xFF AND PUSH1 0xFF AND LT SWAP1 POP SWAP2 SWAP1 POP JUMP JUMPDEST PUSH1 0x0 DUP1 PUSH1 0x1 SWAP1 POP JUMPDEST PUSH1 0x1 PUSH20 0xFFFFFFFFFFFFFFFFFFFFFFFFFFFFFFFFFFFFFFFF AND PUSH1 0x1 PUSH1 0x0 DUP4 PUSH20 0xFFFFFFFFFFFFFFFFFFFFFFFFFFFFFFFFFFFFFFFF AND PUSH20 0xFFFFFFFFFFFFFFFFFFFFFFFFFFFFFFFFFFFFFFFF AND DUP2 MSTORE PUSH1 0x20 ADD SWAP1 DUP2 MSTORE PUSH1 0x20 ADD PUSH1 0x0 KECCAK256 PUSH1 0x0 SWAP1 SLOAD SWAP1 PUSH2 0x100 EXP SWAP1 DIV PUSH20 0xFFFFFFFFFFFFFFFFFFFFFFFFFFFFFFFFFFFFFFFF AND PUSH20 0xFFFFFFFFFFFFFFFFFFFFFFFFFFFFFFFFFFFFFFFF AND EQ PUSH2 0xFA7 JUMPI PUSH2 0xF32 DUP4 DUP3 PUSH2 0x11AB JUMP JUMPDEST ISZERO PUSH2 0xF40 JUMPI DUP1 SWAP2 POP POP PUSH2 0xFAD JUMP JUMPDEST PUSH1 0x1 PUSH1 0x0 DUP3 PUSH20 0xFFFFFFFFFFFFFFFFFFFFFFFFFFFFFFFFFFFFFFFF AND PUSH20 0xFFFFFFFFFFFFFFFFFFFFFFFFFFFFFFFFFFFFFFFF AND DUP2 MSTORE PUSH1 0x20 ADD SWAP1 DUP2 MSTORE PUSH1 0x20 ADD PUSH1 0x0 KECCAK256 PUSH1 0x0 SWAP1 SLOAD SWAP1 PUSH2 0x100 EXP SWAP1 DIV PUSH20 0xFFFFFFFFFFFFFFFFFFFFFFFFFFFFFFFFFFFFFFFF AND SWAP1 POP PUSH2 0xE95 JUMP JUMPDEST PUSH1 0x0 SWAP2 POP POP JUMPDEST SWAP2 SWAP1 POP JUMP JUMPDEST PUSH1 0x0 PUSH1 0x1 PUSH20 0xFFFFFFFFFFFFFFFFFFFFFFFFFFFFFFFFFFFFFFFF AND DUP5 PUSH20 0xFFFFFFFFFFFFFFFFFFFFFFFFFFFFFFFFFFFFFFFF AND EQ DUP1 PUSH2 0x102D JUMPI POP DUP3 PUSH1 0x0 DUP1 DUP7 PUSH20 0xFFFFFFFFFFFFFFFFFFFFFFFFFFFFFFFFFFFFFFFF AND PUSH20 0xFFFFFFFFFFFFFFFFFFFFFFFFFFFFFFFFFFFFFFFF AND DUP2 MSTORE PUSH1 0x20 ADD SWAP1 DUP2 MSTORE PUSH1 0x20 ADD PUSH1 0x0 KECCAK256 SLOAD LT ISZERO JUMPDEST DUP1 ISZERO PUSH2 0x10AD JUMPI POP PUSH1 0x1 PUSH20 0xFFFFFFFFFFFFFFFFFFFFFFFFFFFFFFFFFFFFFFFF AND DUP3 PUSH20 0xFFFFFFFFFFFFFFFFFFFFFFFFFFFFFFFFFFFFFFFF AND EQ DUP1 PUSH2 0x10AC JUMPI POP PUSH1 0x0 DUP1 DUP4 PUSH20 0xFFFFFFFFFFFFFFFFFFFFFFFFFFFFFFFFFFFFFFFF AND PUSH20 0xFFFFFFFFFFFFFFFFFFFFFFFFFFFFFFFFFFFFFFFF AND DUP2 MSTORE PUSH1 0x20 ADD SWAP1 DUP2 MSTORE PUSH1 0x20 ADD PUSH1 0x0 KECCAK256 SLOAD DUP4 GT JUMPDEST JUMPDEST SWAP1 POP SWAP4 SWAP3 POP POP POP JUMP JUMPDEST PUSH1 0x0 DUP1 PUSH1 0x1 SWAP1 POP JUMPDEST PUSH1 0x1 ISZERO PUSH2 0x11A4 JUMPI PUSH2 0x112F DUP2 DUP5 PUSH1 0x1 PUSH1 0x0 DUP6 PUSH20 0xFFFFFFFFFFFFFFFFFFFFFFFFFFFFFFFFFFFFFFFF AND PUSH20 0xFFFFFFFFFFFFFFFFFFFFFFFFFFFFFFFFFFFFFFFF AND DUP2 MSTORE PUSH1 0x20 ADD SWAP1 DUP2 MSTORE PUSH1 0x20 ADD PUSH1 0x0 KECCAK256 PUSH1 0x0 SWAP1 SLOAD SWAP1 PUSH2 0x100 EXP SWAP1 DIV PUSH20 0xFFFFFFFFFFFFFFFFFFFFFFFFFFFFFFFFFFFFFFFF AND PUSH2 0xFB2 JUMP JUMPDEST ISZERO PUSH2 0x113D JUMPI DUP1 SWAP2 POP POP PUSH2 0x11A6 JUMP JUMPDEST PUSH1 0x1 PUSH1 0x0 DUP3 PUSH20 0xFFFFFFFFFFFFFFFFFFFFFFFFFFFFFFFFFFFFFFFF AND PUSH20 0xFFFFFFFFFFFFFFFFFFFFFFFFFFFFFFFFFFFFFFFF AND DUP2 MSTORE PUSH1 0x20 ADD SWAP1 DUP2 MSTORE PUSH1 0x20 ADD PUSH1 0x0 KECCAK256 PUSH1 0x0 SWAP1 SLOAD SWAP1 PUSH2 0x100 EXP SWAP1 DIV PUSH20 0xFFFFFFFFFFFFFFFFFFFFFFFFFFFFFFFFFFFFFFFF AND SWAP1 POP PUSH2 0x10BE JUMP JUMPDEST POP JUMPDEST SWAP2 SWAP1 POP JUMP JUMPDEST PUSH1 0x0 DUP3 PUSH20 0xFFFFFFFFFFFFFFFFFFFFFFFFFFFFFFFFFFFFFFFF AND PUSH1 0x1 PUSH1 0x0 DUP5 PUSH20 0xFFFFFFFFFFFFFFFFFFFFFFFFFFFFFFFFFFFFFFFF AND PUSH20 0xFFFFFFFFFFFFFFFFFFFFFFFFFFFFFFFFFFFFFFFF AND DUP2 MSTORE PUSH1 0x20 ADD SWAP1 DUP2 MSTORE PUSH1 0x20 ADD PUSH1 0x0 KECCAK256 PUSH1 0x0 SWAP1 SLOAD SWAP1 PUSH2 0x100 EXP SWAP1 DIV PUSH20 0xFFFFFFFFFFFFFFFFFFFFFFFFFFFFFFFFFFFFFFFF AND PUSH20 0xFFFFFFFFFFFFFFFFFFFFFFFFFFFFFFFFFFFFFFFF AND EQ SWAP1 POP SWAP3 SWAP2 POP POP JUMP INVALID LOG2 PUSH5 0x6970667358 0x22 SLT KECCAK256 0x29 GT 0x5D MLOAD 0xCF 0xD PUSH26 0x784DC174F0CEBAB18E0BFB3AC039344C03E0FDC06C6818836064 PUSH20 0x6F6C634300070600330000000000000000000000 "
				},
				"gasEstimates": {
					"creation": {
						"codeDepositCost": "945800",
						"executionCost": "101962",
						"totalCost": "1047762"
					},
					"external": {
						"addCredit(address,uint256)": "infinite",
						"decCredit(address,uint256)": "43272",
						"getCredit(address)": "1266",
						"incCredit(address)": "infinite",
						"isProjectable(address)": "2286",
						"listSize()": "1027",
						"qualifiable(address)": "1266",
						"removeCredit(address)": "infinite",
						"setCredit(address)": "infinite",
						"updateScore(address,uint256)": "infinite",
						"user2credit(address)": "1257"
					},
					"internal": {
						"_findIndex(uint256)": "infinite",
						"_findPrev(address)": "infinite",
						"_isPrev(address,address)": "980",
						"_verifyIndex(address,uint256,address)": "1938",
						"isQualifiable(address)": "972"
					}
				},
				"methodIdentifiers": {
					"addCredit(address,uint256)": "7d27d66c",
					"decCredit(address,uint256)": "9dc29cdb",
					"getCredit(address)": "57344e6f",
					"incCredit(address)": "904fba8d",
					"isProjectable(address)": "1eab150d",
					"listSize()": "972c5356",
					"qualifiable(address)": "d4268f4a",
					"removeCredit(address)": "eaeadac9",
					"setCredit(address)": "1f72a7d5",
					"updateScore(address,uint256)": "65d97724",
					"user2credit(address)": "de6e6d3e"
				}
			},
			"storageLayout": {
				"storage": [
					{
						"astId": 5,
						"contract": ".deps/contracts/creditOp.sol:creditOp",
						"label": "user2credit",
						"offset": 0,
						"slot": "0",
						"type": "t_mapping(t_address,t_uint256)"
					},
					{
						"astId": 9,
						"contract": ".deps/contracts/creditOp.sol:creditOp",
						"label": "_next",
						"offset": 0,
						"slot": "1",
						"type": "t_mapping(t_address,t_address)"
					},
					{
						"astId": 11,
						"contract": ".deps/contracts/creditOp.sol:creditOp",
						"label": "listSize",
						"offset": 0,
						"slot": "2",
						"type": "t_uint256"
					},
					{
						"astId": 21,
						"contract": ".deps/contracts/creditOp.sol:creditOp",
						"label": "qualifiable",
						"offset": 0,
						"slot": "3",
						"type": "t_mapping(t_address,t_uint8)"
					},
					{
						"astId": 24,
						"contract": ".deps/contracts/creditOp.sol:creditOp",
						"label": "initCredit",
						"offset": 0,
						"slot": "4",
						"type": "t_uint256"
					},
					{
						"astId": 27,
						"contract": ".deps/contracts/creditOp.sol:creditOp",
						"label": "upperLimitCredit",
						"offset": 0,
						"slot": "5",
						"type": "t_uint256"
					},
					{
						"astId": 30,
						"contract": ".deps/contracts/creditOp.sol:creditOp",
						"label": "qualifiedCredit",
						"offset": 0,
						"slot": "6",
						"type": "t_uint256"
					},
					{
						"astId": 33,
						"contract": ".deps/contracts/creditOp.sol:creditOp",
						"label": "returnedCredit",
						"offset": 0,
						"slot": "7",
						"type": "t_uint256"
					}
				],
				"types": {
					"t_address": {
						"encoding": "inplace",
						"label": "address",
						"numberOfBytes": "20"
					},
					"t_mapping(t_address,t_address)": {
						"encoding": "mapping",
						"key": "t_address",
						"label": "mapping(address => address)",
						"numberOfBytes": "32",
						"value": "t_address"
					},
					"t_mapping(t_address,t_uint256)": {
						"encoding": "mapping",
						"key": "t_address",
						"label": "mapping(address => uint256)",
						"numberOfBytes": "32",
						"value": "t_uint256"
					},
					"t_mapping(t_address,t_uint8)": {
						"encoding": "mapping",
						"key": "t_address",
						"label": "mapping(address => uint8)",
						"numberOfBytes": "32",
						"value": "t_uint8"
					},
					"t_uint256": {
						"encoding": "inplace",
						"label": "uint256",
						"numberOfBytes": "32"
					},
					"t_uint8": {
						"encoding": "inplace",
						"label": "uint8",
						"numberOfBytes": "1"
					}
				}
			},
			"userdoc": {
				"kind": "user",
				"methods": {},
				"version": 1
			}
		}
	}
}