{
	".deps/contracts/creditOp.sol": {
		"creditOp": {
			"abi": [
				{
					"inputs": [],
					"stateMutability": "nonpayable",
					"type": "constructor"
				},
				{
					"inputs": [
						{
							"internalType": "address",
							"name": "_user",
							"type": "address"
						},
						{
							"internalType": "uint256",
							"name": "credit",
							"type": "uint256"
						}
					],
					"name": "addCredit",
					"outputs": [],
					"stateMutability": "nonpayable",
					"type": "function"
				},
				{
					"inputs": [
						{
							"internalType": "address",
							"name": "_user",
							"type": "address"
						},
						{
							"internalType": "uint256",
							"name": "_dec",
							"type": "uint256"
						}
					],
					"name": "decCredit",
					"outputs": [],
					"stateMutability": "nonpayable",
					"type": "function"
				},
				{
					"inputs": [
						{
							"internalType": "address",
							"name": "_user",
							"type": "address"
						}
					],
					"name": "getCredit",
					"outputs": [
						{
							"internalType": "uint256",
							"name": "",
							"type": "uint256"
						}
					],
					"stateMutability": "view",
					"type": "function"
				},
				{
					"inputs": [],
					"name": "getTopTen",
					"outputs": [
						{
							"internalType": "address[]",
							"name": "",
							"type": "address[]"
						}
					],
					"stateMutability": "view",
					"type": "function"
				},
				{
					"inputs": [
						{
							"internalType": "address",
							"name": "_user",
							"type": "address"
						}
					],
					"name": "incCredit",
					"outputs": [],
					"stateMutability": "nonpayable",
					"type": "function"
				},
				{
					"inputs": [
						{
							"internalType": "address",
							"name": "_user",
							"type": "address"
						}
					],
					"name": "isProjectable",
					"outputs": [
						{
							"internalType": "bool",
							"name": "",
							"type": "bool"
						}
					],
					"stateMutability": "nonpayable",
					"type": "function"
				},
				{
					"inputs": [],
					"name": "listSize",
					"outputs": [
						{
							"internalType": "uint256",
							"name": "",
							"type": "uint256"
						}
					],
					"stateMutability": "view",
					"type": "function"
				},
				{
					"inputs": [
						{
							"internalType": "address",
							"name": "",
							"type": "address"
						}
					],
					"name": "qualifiable",
					"outputs": [
						{
							"internalType": "uint8",
							"name": "",
							"type": "uint8"
						}
					],
					"stateMutability": "view",
					"type": "function"
				},
				{
					"inputs": [
						{
							"internalType": "address",
							"name": "_user",
							"type": "address"
						}
					],
					"name": "removeCredit",
					"outputs": [],
					"stateMutability": "nonpayable",
					"type": "function"
				},
				{
					"inputs": [
						{
							"internalType": "address",
							"name": "_user",
							"type": "address"
						}
					],
					"name": "setCredit",
					"outputs": [],
					"stateMutability": "nonpayable",
					"type": "function"
				},
				{
					"inputs": [
						{
							"internalType": "address",
							"name": "_user",
							"type": "address"
						},
						{
							"internalType": "uint256",
							"name": "newCredit",
							"type": "uint256"
						}
					],
					"name": "updateScore",
					"outputs": [],
					"stateMutability": "nonpayable",
					"type": "function"
				},
				{
					"inputs": [
						{
							"internalType": "address",
							"name": "",
							"type": "address"
						}
					],
					"name": "user2credit",
					"outputs": [
						{
							"internalType": "uint256",
							"name": "",
							"type": "uint256"
						}
					],
					"stateMutability": "view",
					"type": "function"
				}
			],
			"devdoc": {
				"kind": "dev",
				"methods": {},
				"version": 1
			},
			"evm": {
				"assembly": "    /* \".deps/contracts/creditOp.sol\":25:4337  contract creditOp {... */\n  mstore(0x40, 0x80)\n    /* \".deps/contracts/creditOp.sol\":291:296  10000 */\n  0x2710\n    /* \".deps/contracts/creditOp.sol\":262:296  uint256 private initCredit = 10000 */\n  0x04\n  sstore\n    /* \".deps/contracts/creditOp.sol\":337:342  20000 */\n  0x4e20\n    /* \".deps/contracts/creditOp.sol\":302:342  uint256 private upperLimitCredit = 20000 */\n  0x05\n  sstore\n    /* \".deps/contracts/creditOp.sol\":382:386  5000 */\n  0x1388\n    /* \".deps/contracts/creditOp.sol\":348:386  uint256 private qualifiedCredit = 5000 */\n  0x06\n  sstore\n    /* \".deps/contracts/creditOp.sol\":425:429  6000 */\n  0x1770\n    /* \".deps/contracts/creditOp.sol\":392:429  uint256 private returnedCredit = 6000 */\n  0x07\n  sstore\n    /* \".deps/contracts/creditOp.sol\":436:517  constructor() public {... */\n  callvalue\n  dup1\n  iszero\n  tag_1\n  jumpi\n  0x00\n  dup1\n  revert\ntag_1:\n  pop\n    /* \".deps/contracts/creditOp.sol\":201:202  1 */\n  0x01\n    /* \".deps/contracts/creditOp.sol\":467:472  _next */\n  dup1\n    /* \".deps/contracts/creditOp.sol\":467:479  _next[GUARD] */\n  0x00\n    /* \".deps/contracts/creditOp.sol\":201:202  1 */\n  0x01\n    /* \".deps/contracts/creditOp.sol\":467:479  _next[GUARD] */\n  0xffffffffffffffffffffffffffffffffffffffff\n  and\n  0xffffffffffffffffffffffffffffffffffffffff\n  and\n  dup2\n  mstore\n  0x20\n  add\n  swap1\n  dup2\n  mstore\n  0x20\n  add\n  0x00\n  keccak256\n  0x00\n    /* \".deps/contracts/creditOp.sol\":467:487  _next[GUARD] = GUARD */\n  0x0100\n  exp\n  dup2\n  sload\n  dup2\n  0xffffffffffffffffffffffffffffffffffffffff\n  mul\n  not\n  and\n  swap1\n  dup4\n  0xffffffffffffffffffffffffffffffffffffffff\n  and\n  mul\n  or\n  swap1\n  sstore\n  pop\n    /* \".deps/contracts/creditOp.sol\":25:4337  contract creditOp {... */\n  dataSize(sub_0)\n  dup1\n  dataOffset(sub_0)\n  0x00\n  codecopy\n  0x00\n  return\nstop\n\nsub_0: assembly {\n        /* \".deps/contracts/creditOp.sol\":25:4337  contract creditOp {... */\n      mstore(0x40, 0x80)\n      callvalue\n      dup1\n      iszero\n      tag_1\n      jumpi\n      0x00\n      dup1\n      revert\n    tag_1:\n      pop\n      jumpi(tag_2, lt(calldatasize, 0x04))\n      shr(0xe0, calldataload(0x00))\n      dup1\n      0x972c5356\n      gt\n      tag_15\n      jumpi\n      dup1\n      0x972c5356\n      eq\n      tag_9\n      jumpi\n      dup1\n      0x9dc29cdb\n      eq\n      tag_10\n      jumpi\n      dup1\n      0xb278fa4b\n      eq\n      tag_11\n      jumpi\n      dup1\n      0xd4268f4a\n      eq\n      tag_12\n      jumpi\n      dup1\n      0xde6e6d3e\n      eq\n      tag_13\n      jumpi\n      dup1\n      0xeaeadac9\n      eq\n      tag_14\n      jumpi\n      jump(tag_2)\n    tag_15:\n      dup1\n      0x1eab150d\n      eq\n      tag_3\n      jumpi\n      dup1\n      0x1f72a7d5\n      eq\n      tag_4\n      jumpi\n      dup1\n      0x57344e6f\n      eq\n      tag_5\n      jumpi\n      dup1\n      0x65d97724\n      eq\n      tag_6\n      jumpi\n      dup1\n      0x7d27d66c\n      eq\n      tag_7\n      jumpi\n      dup1\n      0x904fba8d\n      eq\n      tag_8\n      jumpi\n    tag_2:\n      0x00\n      dup1\n      revert\n        /* \".deps/contracts/creditOp.sol\":1490:1621  function isProjectable(address _user) public returns(bool) {... */\n    tag_3:\n      tag_16\n      0x04\n      dup1\n      calldatasize\n      sub\n      0x20\n      dup2\n      lt\n      iszero\n      tag_17\n      jumpi\n      0x00\n      dup1\n      revert\n    tag_17:\n      dup2\n      add\n      swap1\n      dup1\n      dup1\n      calldataload\n      0xffffffffffffffffffffffffffffffffffffffff\n      and\n      swap1\n      0x20\n      add\n      swap1\n      swap3\n      swap2\n      swap1\n      pop\n      pop\n      pop\n      tag_18\n      jump\t// in\n    tag_16:\n      mload(0x40)\n      dup1\n      dup3\n      iszero\n      iszero\n      dup2\n      mstore\n      0x20\n      add\n      swap2\n      pop\n      pop\n      mload(0x40)\n      dup1\n      swap2\n      sub\n      swap1\n      return\n        /* \".deps/contracts/creditOp.sol\":2525:2643  function setCredit(address _user) public {... */\n    tag_4:\n      tag_19\n      0x04\n      dup1\n      calldatasize\n      sub\n      0x20\n      dup2\n      lt\n      iszero\n      tag_20\n      jumpi\n      0x00\n      dup1\n      revert\n    tag_20:\n      dup2\n      add\n      swap1\n      dup1\n      dup1\n      calldataload\n      0xffffffffffffffffffffffffffffffffffffffff\n      and\n      swap1\n      0x20\n      add\n      swap1\n      swap3\n      swap2\n      swap1\n      pop\n      pop\n      pop\n      tag_21\n      jump\t// in\n    tag_19:\n      stop\n        /* \".deps/contracts/creditOp.sol\":1740:1848  function getCredit(address _user) view public returns(uint) {... */\n    tag_5:\n      tag_22\n      0x04\n      dup1\n      calldatasize\n      sub\n      0x20\n      dup2\n      lt\n      iszero\n      tag_23\n      jumpi\n      0x00\n      dup1\n      revert\n    tag_23:\n      dup2\n      add\n      swap1\n      dup1\n      dup1\n      calldataload\n      0xffffffffffffffffffffffffffffffffffffffff\n      and\n      swap1\n      0x20\n      add\n      swap1\n      swap3\n      swap2\n      swap1\n      pop\n      pop\n      pop\n      tag_24\n      jump\t// in\n    tag_22:\n      mload(0x40)\n      dup1\n      dup3\n      dup2\n      mstore\n      0x20\n      add\n      swap2\n      pop\n      pop\n      mload(0x40)\n      dup1\n      swap2\n      sub\n      swap1\n      return\n        /* \".deps/contracts/creditOp.sol\":1854:2239  function updateScore(address _user, uint newCredit) public {... */\n    tag_6:\n      tag_25\n      0x04\n      dup1\n      calldatasize\n      sub\n      0x40\n      dup2\n      lt\n      iszero\n      tag_26\n      jumpi\n      0x00\n      dup1\n      revert\n    tag_26:\n      dup2\n      add\n      swap1\n      dup1\n      dup1\n      calldataload\n      0xffffffffffffffffffffffffffffffffffffffff\n      and\n      swap1\n      0x20\n      add\n      swap1\n      swap3\n      swap2\n      swap1\n      dup1\n      calldataload\n      swap1\n      0x20\n      add\n      swap1\n      swap3\n      swap2\n      swap1\n      pop\n      pop\n      pop\n      tag_27\n      jump\t// in\n    tag_25:\n      stop\n        /* \".deps/contracts/creditOp.sol\":2245:2519  function addCredit(address _user, uint credit) public {... */\n    tag_7:\n      tag_28\n      0x04\n      dup1\n      calldatasize\n      sub\n      0x40\n      dup2\n      lt\n      iszero\n      tag_29\n      jumpi\n      0x00\n      dup1\n      revert\n    tag_29:\n      dup2\n      add\n      swap1\n      dup1\n      dup1\n      calldataload\n      0xffffffffffffffffffffffffffffffffffffffff\n      and\n      swap1\n      0x20\n      add\n      swap1\n      swap3\n      swap2\n      swap1\n      dup1\n      calldataload\n      swap1\n      0x20\n      add\n      swap1\n      swap3\n      swap2\n      swap1\n      pop\n      pop\n      pop\n      tag_30\n      jump\t// in\n    tag_28:\n      stop\n        /* \".deps/contracts/creditOp.sol\":536:1128  function incCredit(address _user) public {... */\n    tag_8:\n      tag_31\n      0x04\n      dup1\n      calldatasize\n      sub\n      0x20\n      dup2\n      lt\n      iszero\n      tag_32\n      jumpi\n      0x00\n      dup1\n      revert\n    tag_32:\n      dup2\n      add\n      swap1\n      dup1\n      dup1\n      calldataload\n      0xffffffffffffffffffffffffffffffffffffffff\n      and\n      swap1\n      0x20\n      add\n      swap1\n      swap3\n      swap2\n      swap1\n      pop\n      pop\n      pop\n      tag_33\n      jump\t// in\n    tag_31:\n      stop\n        /* \".deps/contracts/creditOp.sol\":139:162  uint256 public listSize */\n    tag_9:\n      tag_34\n      tag_35\n      jump\t// in\n    tag_34:\n      mload(0x40)\n      dup1\n      dup3\n      dup2\n      mstore\n      0x20\n      add\n      swap2\n      pop\n      pop\n      mload(0x40)\n      dup1\n      swap2\n      sub\n      swap1\n      return\n        /* \".deps/contracts/creditOp.sol\":1147:1484  function decCredit(address _user, uint _dec) public {... */\n    tag_10:\n      tag_36\n      0x04\n      dup1\n      calldatasize\n      sub\n      0x40\n      dup2\n      lt\n      iszero\n      tag_37\n      jumpi\n      0x00\n      dup1\n      revert\n    tag_37:\n      dup2\n      add\n      swap1\n      dup1\n      dup1\n      calldataload\n      0xffffffffffffffffffffffffffffffffffffffff\n      and\n      swap1\n      0x20\n      add\n      swap1\n      swap3\n      swap2\n      swap1\n      dup1\n      calldataload\n      swap1\n      0x20\n      add\n      swap1\n      swap3\n      swap2\n      swap1\n      pop\n      pop\n      pop\n      tag_38\n      jump\t// in\n    tag_36:\n      stop\n        /* \".deps/contracts/creditOp.sol\":2915:3296  function getTopTen() public view returns(address[] memory) {... */\n    tag_11:\n      tag_39\n      tag_40\n      jump\t// in\n    tag_39:\n      mload(0x40)\n      dup1\n      dup1\n      0x20\n      add\n      dup3\n      dup2\n      sub\n      dup3\n      mstore\n      dup4\n      dup2\n      dup2\n      mload\n      dup2\n      mstore\n      0x20\n      add\n      swap2\n      pop\n      dup1\n      mload\n      swap1\n      0x20\n      add\n      swap1\n      0x20\n      mul\n      dup1\n      dup4\n      dup4\n      0x00\n    tag_41:\n      dup4\n      dup2\n      lt\n      iszero\n      tag_43\n      jumpi\n      dup1\n      dup3\n      add\n      mload\n      dup2\n      dup5\n      add\n      mstore\n      0x20\n      dup2\n      add\n      swap1\n      pop\n      jump(tag_41)\n    tag_43:\n      pop\n      pop\n      pop\n      pop\n      swap1\n      pop\n      add\n      swap3\n      pop\n      pop\n      pop\n      mload(0x40)\n      dup1\n      swap2\n      sub\n      swap1\n      return\n        /* \".deps/contracts/creditOp.sol\":211:256  mapping (address => uint8) public qualifiable */\n    tag_12:\n      tag_44\n      0x04\n      dup1\n      calldatasize\n      sub\n      0x20\n      dup2\n      lt\n      iszero\n      tag_45\n      jumpi\n      0x00\n      dup1\n      revert\n    tag_45:\n      dup2\n      add\n      swap1\n      dup1\n      dup1\n      calldataload\n      0xffffffffffffffffffffffffffffffffffffffff\n      and\n      swap1\n      0x20\n      add\n      swap1\n      swap3\n      swap2\n      swap1\n      pop\n      pop\n      pop\n      tag_46\n      jump\t// in\n    tag_44:\n      mload(0x40)\n      dup1\n      dup3\n      0xff\n      and\n      dup2\n      mstore\n      0x20\n      add\n      swap2\n      pop\n      pop\n      mload(0x40)\n      dup1\n      swap2\n      sub\n      swap1\n      return\n        /* \".deps/contracts/creditOp.sol\":49:93  mapping (address => uint) public user2credit */\n    tag_13:\n      tag_47\n      0x04\n      dup1\n      calldatasize\n      sub\n      0x20\n      dup2\n      lt\n      iszero\n      tag_48\n      jumpi\n      0x00\n      dup1\n      revert\n    tag_48:\n      dup2\n      add\n      swap1\n      dup1\n      dup1\n      calldataload\n      0xffffffffffffffffffffffffffffffffffffffff\n      and\n      swap1\n      0x20\n      add\n      swap1\n      swap3\n      swap2\n      swap1\n      pop\n      pop\n      pop\n      tag_49\n      jump\t// in\n    tag_47:\n      mload(0x40)\n      dup1\n      dup3\n      dup2\n      mstore\n      0x20\n      add\n      swap2\n      pop\n      pop\n      mload(0x40)\n      dup1\n      swap2\n      sub\n      swap1\n      return\n        /* \".deps/contracts/creditOp.sol\":2649:2909  function removeCredit(address _user) public {... */\n    tag_14:\n      tag_50\n      0x04\n      dup1\n      calldatasize\n      sub\n      0x20\n      dup2\n      lt\n      iszero\n      tag_51\n      jumpi\n      0x00\n      dup1\n      revert\n    tag_51:\n      dup2\n      add\n      swap1\n      dup1\n      dup1\n      calldataload\n      0xffffffffffffffffffffffffffffffffffffffff\n      and\n      swap1\n      0x20\n      add\n      swap1\n      swap3\n      swap2\n      swap1\n      pop\n      pop\n      pop\n      tag_52\n      jump\t// in\n    tag_50:\n      stop\n        /* \".deps/contracts/creditOp.sol\":1490:1621  function isProjectable(address _user) public returns(bool) {... */\n    tag_18:\n        /* \".deps/contracts/creditOp.sol\":1543:1547  bool */\n      0x00\n        /* \".deps/contracts/creditOp.sol\":1566:1586  isQualifiable(_user) */\n      tag_54\n        /* \".deps/contracts/creditOp.sol\":1580:1585  _user */\n      dup3\n        /* \".deps/contracts/creditOp.sol\":1566:1579  isQualifiable */\n      tag_55\n        /* \".deps/contracts/creditOp.sol\":1566:1586  isQualifiable(_user) */\n      jump\t// in\n    tag_54:\n        /* \".deps/contracts/creditOp.sol\":1566:1614  isQualifiable(_user) && (getCredit(_user) >= 50) */\n      dup1\n      iszero\n      tag_56\n      jumpi\n      pop\n        /* \".deps/contracts/creditOp.sol\":1611:1613  50 */\n      0x32\n        /* \".deps/contracts/creditOp.sol\":1591:1607  getCredit(_user) */\n      tag_57\n        /* \".deps/contracts/creditOp.sol\":1601:1606  _user */\n      dup4\n        /* \".deps/contracts/creditOp.sol\":1591:1600  getCredit */\n      tag_24\n        /* \".deps/contracts/creditOp.sol\":1591:1607  getCredit(_user) */\n      jump\t// in\n    tag_57:\n        /* \".deps/contracts/creditOp.sol\":1591:1613  getCredit(_user) >= 50 */\n      lt\n      iszero\n        /* \".deps/contracts/creditOp.sol\":1566:1614  isQualifiable(_user) && (getCredit(_user) >= 50) */\n    tag_56:\n        /* \".deps/contracts/creditOp.sol\":1559:1614  return isQualifiable(_user) && (getCredit(_user) >= 50) */\n      swap1\n      pop\n        /* \".deps/contracts/creditOp.sol\":1490:1621  function isProjectable(address _user) public returns(bool) {... */\n      swap2\n      swap1\n      pop\n      jump\t// out\n        /* \".deps/contracts/creditOp.sol\":2525:2643  function setCredit(address _user) public {... */\n    tag_21:\n        /* \".deps/contracts/creditOp.sol\":2576:2604  addCredit(_user, initCredit) */\n      tag_59\n        /* \".deps/contracts/creditOp.sol\":2586:2591  _user */\n      dup2\n        /* \".deps/contracts/creditOp.sol\":2593:2603  initCredit */\n      sload(0x04)\n        /* \".deps/contracts/creditOp.sol\":2576:2585  addCredit */\n      tag_30\n        /* \".deps/contracts/creditOp.sol\":2576:2604  addCredit(_user, initCredit) */\n      jump\t// in\n    tag_59:\n        /* \".deps/contracts/creditOp.sol\":2635:2636  0 */\n      0x00\n        /* \".deps/contracts/creditOp.sol\":2614:2625  qualifiable */\n      0x03\n        /* \".deps/contracts/creditOp.sol\":2614:2632  qualifiable[_user] */\n      0x00\n        /* \".deps/contracts/creditOp.sol\":2626:2631  _user */\n      dup4\n        /* \".deps/contracts/creditOp.sol\":2614:2632  qualifiable[_user] */\n      0xffffffffffffffffffffffffffffffffffffffff\n      and\n      0xffffffffffffffffffffffffffffffffffffffff\n      and\n      dup2\n      mstore\n      0x20\n      add\n      swap1\n      dup2\n      mstore\n      0x20\n      add\n      0x00\n      keccak256\n      0x00\n        /* \".deps/contracts/creditOp.sol\":2614:2636  qualifiable[_user] = 0 */\n      0x0100\n      exp\n      dup2\n      sload\n      dup2\n      0xff\n      mul\n      not\n      and\n      swap1\n      dup4\n      0xff\n      and\n      mul\n      or\n      swap1\n      sstore\n      pop\n        /* \".deps/contracts/creditOp.sol\":2525:2643  function setCredit(address _user) public {... */\n      pop\n      jump\t// out\n        /* \".deps/contracts/creditOp.sol\":1740:1848  function getCredit(address _user) view public returns(uint) {... */\n    tag_24:\n        /* \".deps/contracts/creditOp.sol\":1794:1798  uint */\n      0x00\n        /* \".deps/contracts/creditOp.sol\":1838:1841  100 */\n      0x64\n        /* \".deps/contracts/creditOp.sol\":1817:1828  user2credit */\n      0x00\n        /* \".deps/contracts/creditOp.sol\":1817:1835  user2credit[_user] */\n      dup1\n        /* \".deps/contracts/creditOp.sol\":1829:1834  _user */\n      dup5\n        /* \".deps/contracts/creditOp.sol\":1817:1835  user2credit[_user] */\n      0xffffffffffffffffffffffffffffffffffffffff\n      and\n      0xffffffffffffffffffffffffffffffffffffffff\n      and\n      dup2\n      mstore\n      0x20\n      add\n      swap1\n      dup2\n      mstore\n      0x20\n      add\n      0x00\n      keccak256\n      sload\n        /* \".deps/contracts/creditOp.sol\":1817:1841  user2credit[_user] / 100 */\n      dup2\n      tag_61\n      jumpi\n      invalid\n    tag_61:\n      div\n        /* \".deps/contracts/creditOp.sol\":1810:1841  return user2credit[_user] / 100 */\n      swap1\n      pop\n        /* \".deps/contracts/creditOp.sol\":1740:1848  function getCredit(address _user) view public returns(uint) {... */\n      swap2\n      swap1\n      pop\n      jump\t// out\n        /* \".deps/contracts/creditOp.sol\":1854:2239  function updateScore(address _user, uint newCredit) public {... */\n    tag_27:\n        /* \".deps/contracts/creditOp.sol\":1955:1956  0 */\n      0x00\n        /* \".deps/contracts/creditOp.sol\":1931:1957  _next[_user] != address(0) */\n      0xffffffffffffffffffffffffffffffffffffffff\n      and\n        /* \".deps/contracts/creditOp.sol\":1931:1936  _next */\n      0x01\n        /* \".deps/contracts/creditOp.sol\":1931:1943  _next[_user] */\n      0x00\n        /* \".deps/contracts/creditOp.sol\":1937:1942  _user */\n      dup5\n        /* \".deps/contracts/creditOp.sol\":1931:1943  _next[_user] */\n      0xffffffffffffffffffffffffffffffffffffffff\n      and\n      0xffffffffffffffffffffffffffffffffffffffff\n      and\n      dup2\n      mstore\n      0x20\n      add\n      swap1\n      dup2\n      mstore\n      0x20\n      add\n      0x00\n      keccak256\n      0x00\n      swap1\n      sload\n      swap1\n      0x0100\n      exp\n      swap1\n      div\n      0xffffffffffffffffffffffffffffffffffffffff\n      and\n        /* \".deps/contracts/creditOp.sol\":1931:1957  _next[_user] != address(0) */\n      0xffffffffffffffffffffffffffffffffffffffff\n      and\n      eq\n      iszero\n        /* \".deps/contracts/creditOp.sol\":1923:1958  require(_next[_user] != address(0)) */\n      tag_63\n      jumpi\n      0x00\n      dup1\n      revert\n    tag_63:\n        /* \".deps/contracts/creditOp.sol\":1968:1980  address prev */\n      0x00\n        /* \".deps/contracts/creditOp.sol\":1983:1999  _findPrev(_user) */\n      tag_64\n        /* \".deps/contracts/creditOp.sol\":1993:1998  _user */\n      dup4\n        /* \".deps/contracts/creditOp.sol\":1983:1992  _findPrev */\n      tag_65\n        /* \".deps/contracts/creditOp.sol\":1983:1999  _findPrev(_user) */\n      jump\t// in\n    tag_64:\n        /* \".deps/contracts/creditOp.sol\":1968:1999  address prev = _findPrev(_user) */\n      swap1\n      pop\n        /* \".deps/contracts/creditOp.sol\":2009:2021  address next */\n      0x00\n        /* \".deps/contracts/creditOp.sol\":2024:2029  _next */\n      0x01\n        /* \".deps/contracts/creditOp.sol\":2024:2036  _next[_user] */\n      0x00\n        /* \".deps/contracts/creditOp.sol\":2030:2035  _user */\n      dup6\n        /* \".deps/contracts/creditOp.sol\":2024:2036  _next[_user] */\n      0xffffffffffffffffffffffffffffffffffffffff\n      and\n      0xffffffffffffffffffffffffffffffffffffffff\n      and\n      dup2\n      mstore\n      0x20\n      add\n      swap1\n      dup2\n      mstore\n      0x20\n      add\n      0x00\n      keccak256\n      0x00\n      swap1\n      sload\n      swap1\n      0x0100\n      exp\n      swap1\n      div\n      0xffffffffffffffffffffffffffffffffffffffff\n      and\n        /* \".deps/contracts/creditOp.sol\":2009:2036  address next = _next[_user] */\n      swap1\n      pop\n        /* \".deps/contracts/creditOp.sol\":2050:2085  _verifyIndex(prev, newCredit, next) */\n      tag_66\n        /* \".deps/contracts/creditOp.sol\":2063:2067  prev */\n      dup3\n        /* \".deps/contracts/creditOp.sol\":2069:2078  newCredit */\n      dup5\n        /* \".deps/contracts/creditOp.sol\":2080:2084  next */\n      dup4\n        /* \".deps/contracts/creditOp.sol\":2050:2062  _verifyIndex */\n      tag_67\n        /* \".deps/contracts/creditOp.sol\":2050:2085  _verifyIndex(prev, newCredit, next) */\n      jump\t// in\n    tag_66:\n        /* \".deps/contracts/creditOp.sol\":2046:2233  if (_verifyIndex(prev, newCredit, next)) {... */\n      iszero\n      tag_68\n      jumpi\n        /* \".deps/contracts/creditOp.sol\":2122:2131  newCredit */\n      dup3\n        /* \".deps/contracts/creditOp.sol\":2101:2112  user2credit */\n      0x00\n        /* \".deps/contracts/creditOp.sol\":2101:2119  user2credit[_user] */\n      dup1\n        /* \".deps/contracts/creditOp.sol\":2113:2118  _user */\n      dup7\n        /* \".deps/contracts/creditOp.sol\":2101:2119  user2credit[_user] */\n      0xffffffffffffffffffffffffffffffffffffffff\n      and\n      0xffffffffffffffffffffffffffffffffffffffff\n      and\n      dup2\n      mstore\n      0x20\n      add\n      swap1\n      dup2\n      mstore\n      0x20\n      add\n      0x00\n      keccak256\n        /* \".deps/contracts/creditOp.sol\":2101:2131  user2credit[_user] = newCredit */\n      dup2\n      swap1\n      sstore\n      pop\n        /* \".deps/contracts/creditOp.sol\":2046:2233  if (_verifyIndex(prev, newCredit, next)) {... */\n      jump(tag_69)\n    tag_68:\n        /* \".deps/contracts/creditOp.sol\":2162:2181  removeCredit(_user) */\n      tag_70\n        /* \".deps/contracts/creditOp.sol\":2175:2180  _user */\n      dup5\n        /* \".deps/contracts/creditOp.sol\":2162:2174  removeCredit */\n      tag_52\n        /* \".deps/contracts/creditOp.sol\":2162:2181  removeCredit(_user) */\n      jump\t// in\n    tag_70:\n        /* \".deps/contracts/creditOp.sol\":2195:2222  addCredit(_user, newCredit) */\n      tag_71\n        /* \".deps/contracts/creditOp.sol\":2205:2210  _user */\n      dup5\n        /* \".deps/contracts/creditOp.sol\":2212:2221  newCredit */\n      dup5\n        /* \".deps/contracts/creditOp.sol\":2195:2204  addCredit */\n      tag_30\n        /* \".deps/contracts/creditOp.sol\":2195:2222  addCredit(_user, newCredit) */\n      jump\t// in\n    tag_71:\n        /* \".deps/contracts/creditOp.sol\":2046:2233  if (_verifyIndex(prev, newCredit, next)) {... */\n    tag_69:\n        /* \".deps/contracts/creditOp.sol\":1854:2239  function updateScore(address _user, uint newCredit) public {... */\n      pop\n      pop\n      pop\n      pop\n      jump\t// out\n        /* \".deps/contracts/creditOp.sol\":2245:2519  function addCredit(address _user, uint credit) public {... */\n    tag_30:\n        /* \".deps/contracts/creditOp.sol\":2341:2342  0 */\n      0x00\n        /* \".deps/contracts/creditOp.sol\":2317:2343  _next[_user] == address(0) */\n      0xffffffffffffffffffffffffffffffffffffffff\n      and\n        /* \".deps/contracts/creditOp.sol\":2317:2322  _next */\n      0x01\n        /* \".deps/contracts/creditOp.sol\":2317:2329  _next[_user] */\n      0x00\n        /* \".deps/contracts/creditOp.sol\":2323:2328  _user */\n      dup5\n        /* \".deps/contracts/creditOp.sol\":2317:2329  _next[_user] */\n      0xffffffffffffffffffffffffffffffffffffffff\n      and\n      0xffffffffffffffffffffffffffffffffffffffff\n      and\n      dup2\n      mstore\n      0x20\n      add\n      swap1\n      dup2\n      mstore\n      0x20\n      add\n      0x00\n      keccak256\n      0x00\n      swap1\n      sload\n      swap1\n      0x0100\n      exp\n      swap1\n      div\n      0xffffffffffffffffffffffffffffffffffffffff\n      and\n        /* \".deps/contracts/creditOp.sol\":2317:2343  _next[_user] == address(0) */\n      0xffffffffffffffffffffffffffffffffffffffff\n      and\n      eq\n        /* \".deps/contracts/creditOp.sol\":2309:2344  require(_next[_user] == address(0)) */\n      tag_73\n      jumpi\n      0x00\n      dup1\n      revert\n    tag_73:\n        /* \".deps/contracts/creditOp.sol\":2354:2367  address index */\n      0x00\n        /* \".deps/contracts/creditOp.sol\":2370:2388  _findIndex(credit) */\n      tag_74\n        /* \".deps/contracts/creditOp.sol\":2381:2387  credit */\n      dup3\n        /* \".deps/contracts/creditOp.sol\":2370:2380  _findIndex */\n      tag_75\n        /* \".deps/contracts/creditOp.sol\":2370:2388  _findIndex(credit) */\n      jump\t// in\n    tag_74:\n        /* \".deps/contracts/creditOp.sol\":2354:2388  address index = _findIndex(credit) */\n      swap1\n      pop\n        /* \".deps/contracts/creditOp.sol\":2419:2425  credit */\n      dup2\n        /* \".deps/contracts/creditOp.sol\":2398:2409  user2credit */\n      0x00\n        /* \".deps/contracts/creditOp.sol\":2398:2416  user2credit[_user] */\n      dup1\n        /* \".deps/contracts/creditOp.sol\":2410:2415  _user */\n      dup6\n        /* \".deps/contracts/creditOp.sol\":2398:2416  user2credit[_user] */\n      0xffffffffffffffffffffffffffffffffffffffff\n      and\n      0xffffffffffffffffffffffffffffffffffffffff\n      and\n      dup2\n      mstore\n      0x20\n      add\n      swap1\n      dup2\n      mstore\n      0x20\n      add\n      0x00\n      keccak256\n        /* \".deps/contracts/creditOp.sol\":2398:2425  user2credit[_user] = credit */\n      dup2\n      swap1\n      sstore\n      pop\n        /* \".deps/contracts/creditOp.sol\":2450:2455  _next */\n      0x01\n        /* \".deps/contracts/creditOp.sol\":2450:2462  _next[index] */\n      0x00\n        /* \".deps/contracts/creditOp.sol\":2456:2461  index */\n      dup3\n        /* \".deps/contracts/creditOp.sol\":2450:2462  _next[index] */\n      0xffffffffffffffffffffffffffffffffffffffff\n      and\n      0xffffffffffffffffffffffffffffffffffffffff\n      and\n      dup2\n      mstore\n      0x20\n      add\n      swap1\n      dup2\n      mstore\n      0x20\n      add\n      0x00\n      keccak256\n      0x00\n      swap1\n      sload\n      swap1\n      0x0100\n      exp\n      swap1\n      div\n      0xffffffffffffffffffffffffffffffffffffffff\n      and\n        /* \".deps/contracts/creditOp.sol\":2435:2440  _next */\n      0x01\n        /* \".deps/contracts/creditOp.sol\":2435:2447  _next[_user] */\n      0x00\n        /* \".deps/contracts/creditOp.sol\":2441:2446  _user */\n      dup6\n        /* \".deps/contracts/creditOp.sol\":2435:2447  _next[_user] */\n      0xffffffffffffffffffffffffffffffffffffffff\n      and\n      0xffffffffffffffffffffffffffffffffffffffff\n      and\n      dup2\n      mstore\n      0x20\n      add\n      swap1\n      dup2\n      mstore\n      0x20\n      add\n      0x00\n      keccak256\n      0x00\n        /* \".deps/contracts/creditOp.sol\":2435:2462  _next[_user] = _next[index] */\n      0x0100\n      exp\n      dup2\n      sload\n      dup2\n      0xffffffffffffffffffffffffffffffffffffffff\n      mul\n      not\n      and\n      swap1\n      dup4\n      0xffffffffffffffffffffffffffffffffffffffff\n      and\n      mul\n      or\n      swap1\n      sstore\n      pop\n        /* \".deps/contracts/creditOp.sol\":2487:2492  _user */\n      dup3\n        /* \".deps/contracts/creditOp.sol\":2472:2477  _next */\n      0x01\n        /* \".deps/contracts/creditOp.sol\":2472:2484  _next[index] */\n      0x00\n        /* \".deps/contracts/creditOp.sol\":2478:2483  index */\n      dup4\n        /* \".deps/contracts/creditOp.sol\":2472:2484  _next[index] */\n      0xffffffffffffffffffffffffffffffffffffffff\n      and\n      0xffffffffffffffffffffffffffffffffffffffff\n      and\n      dup2\n      mstore\n      0x20\n      add\n      swap1\n      dup2\n      mstore\n      0x20\n      add\n      0x00\n      keccak256\n      0x00\n        /* \".deps/contracts/creditOp.sol\":2472:2492  _next[index] = _user */\n      0x0100\n      exp\n      dup2\n      sload\n      dup2\n      0xffffffffffffffffffffffffffffffffffffffff\n      mul\n      not\n      and\n      swap1\n      dup4\n      0xffffffffffffffffffffffffffffffffffffffff\n      and\n      mul\n      or\n      swap1\n      sstore\n      pop\n        /* \".deps/contracts/creditOp.sol\":2502:2510  listSize */\n      0x02\n      0x00\n        /* \".deps/contracts/creditOp.sol\":2502:2512  listSize++ */\n      dup2\n      sload\n      dup1\n      swap3\n      swap2\n      swap1\n      0x01\n      add\n      swap2\n      swap1\n      pop\n      sstore\n      pop\n        /* \".deps/contracts/creditOp.sol\":2245:2519  function addCredit(address _user, uint credit) public {... */\n      pop\n      pop\n      pop\n      jump\t// out\n        /* \".deps/contracts/creditOp.sol\":536:1128  function incCredit(address _user) public {... */\n    tag_33:\n        /* \".deps/contracts/creditOp.sol\":587:598  uint credit */\n      0x00\n        /* \".deps/contracts/creditOp.sol\":601:612  user2credit */\n      dup1\n        /* \".deps/contracts/creditOp.sol\":601:619  user2credit[_user] */\n      0x00\n        /* \".deps/contracts/creditOp.sol\":613:618  _user */\n      dup4\n        /* \".deps/contracts/creditOp.sol\":601:619  user2credit[_user] */\n      0xffffffffffffffffffffffffffffffffffffffff\n      and\n      0xffffffffffffffffffffffffffffffffffffffff\n      and\n      dup2\n      mstore\n      0x20\n      add\n      swap1\n      dup2\n      mstore\n      0x20\n      add\n      0x00\n      keccak256\n      sload\n        /* \".deps/contracts/creditOp.sol\":587:619  uint credit = user2credit[_user] */\n      swap1\n      pop\n        /* \".deps/contracts/creditOp.sol\":629:650  uint16[6] memory bars */\n      0x00\n        /* \".deps/contracts/creditOp.sol\":629:691  uint16[6] memory bars = [0, 10000, 11000, 15000, 18000, 20000] */\n      mload(0x40)\n      dup1\n      0xc0\n      add\n      0x40\n      mstore\n      dup1\n        /* \".deps/contracts/creditOp.sol\":654:655  0 */\n      0x00\n        /* \".deps/contracts/creditOp.sol\":629:691  uint16[6] memory bars = [0, 10000, 11000, 15000, 18000, 20000] */\n      0xffff\n      and\n      dup2\n      mstore\n      0x20\n      add\n        /* \".deps/contracts/creditOp.sol\":657:662  10000 */\n      0x2710\n        /* \".deps/contracts/creditOp.sol\":629:691  uint16[6] memory bars = [0, 10000, 11000, 15000, 18000, 20000] */\n      0xffff\n      and\n      dup2\n      mstore\n      0x20\n      add\n        /* \".deps/contracts/creditOp.sol\":664:669  11000 */\n      0x2af8\n        /* \".deps/contracts/creditOp.sol\":629:691  uint16[6] memory bars = [0, 10000, 11000, 15000, 18000, 20000] */\n      0xffff\n      and\n      dup2\n      mstore\n      0x20\n      add\n        /* \".deps/contracts/creditOp.sol\":671:676  15000 */\n      0x3a98\n        /* \".deps/contracts/creditOp.sol\":629:691  uint16[6] memory bars = [0, 10000, 11000, 15000, 18000, 20000] */\n      0xffff\n      and\n      dup2\n      mstore\n      0x20\n      add\n        /* \".deps/contracts/creditOp.sol\":678:683  18000 */\n      0x4650\n        /* \".deps/contracts/creditOp.sol\":629:691  uint16[6] memory bars = [0, 10000, 11000, 15000, 18000, 20000] */\n      0xffff\n      and\n      dup2\n      mstore\n      0x20\n      add\n        /* \".deps/contracts/creditOp.sol\":685:690  20000 */\n      0x4e20\n        /* \".deps/contracts/creditOp.sol\":629:691  uint16[6] memory bars = [0, 10000, 11000, 15000, 18000, 20000] */\n      0xffff\n      and\n      dup2\n      mstore\n      pop\n      swap1\n      pop\n        /* \".deps/contracts/creditOp.sol\":701:721  uint8[5] memory incs */\n      0x00\n        /* \".deps/contracts/creditOp.sol\":701:743  uint8[5] memory incs = [100, 96, 16, 5, 1] */\n      mload(0x40)\n      dup1\n      0xa0\n      add\n      0x40\n      mstore\n      dup1\n        /* \".deps/contracts/creditOp.sol\":725:728  100 */\n      0x64\n        /* \".deps/contracts/creditOp.sol\":701:743  uint8[5] memory incs = [100, 96, 16, 5, 1] */\n      0xff\n      and\n      dup2\n      mstore\n      0x20\n      add\n        /* \".deps/contracts/creditOp.sol\":730:732  96 */\n      0x60\n        /* \".deps/contracts/creditOp.sol\":701:743  uint8[5] memory incs = [100, 96, 16, 5, 1] */\n      0xff\n      and\n      dup2\n      mstore\n      0x20\n      add\n        /* \".deps/contracts/creditOp.sol\":734:736  16 */\n      0x10\n        /* \".deps/contracts/creditOp.sol\":701:743  uint8[5] memory incs = [100, 96, 16, 5, 1] */\n      0xff\n      and\n      dup2\n      mstore\n      0x20\n      add\n        /* \".deps/contracts/creditOp.sol\":738:739  5 */\n      0x05\n        /* \".deps/contracts/creditOp.sol\":701:743  uint8[5] memory incs = [100, 96, 16, 5, 1] */\n      0xff\n      and\n      dup2\n      mstore\n      0x20\n      add\n        /* \".deps/contracts/creditOp.sol\":741:742  1 */\n      0x01\n        /* \".deps/contracts/creditOp.sol\":701:743  uint8[5] memory incs = [100, 96, 16, 5, 1] */\n      0xff\n      and\n      dup2\n      mstore\n      pop\n      swap1\n      pop\n        /* \".deps/contracts/creditOp.sol\":766:782  upperLimitCredit */\n      sload(0x05)\n        /* \".deps/contracts/creditOp.sol\":757:763  credit */\n      dup4\n        /* \".deps/contracts/creditOp.sol\":757:782  credit < upperLimitCredit */\n      lt\n        /* \".deps/contracts/creditOp.sol\":753:1122  if (credit < upperLimitCredit) {... */\n      iszero\n      tag_77\n      jumpi\n        /* \".deps/contracts/creditOp.sol\":798:804  uint i */\n      0x00\n        /* \".deps/contracts/creditOp.sol\":822:828  uint j */\n      dup1\n        /* \".deps/contracts/creditOp.sol\":831:832  1 */\n      0x01\n        /* \".deps/contracts/creditOp.sol\":822:832  uint j = 1 */\n      swap1\n      pop\n        /* \".deps/contracts/creditOp.sol\":846:1072  while (j < bars.length) {... */\n    tag_78:\n        /* \".deps/contracts/creditOp.sol\":857:868  bars.length */\n      0x06\n        /* \".deps/contracts/creditOp.sol\":853:854  j */\n      dup2\n        /* \".deps/contracts/creditOp.sol\":853:868  j < bars.length */\n      lt\n        /* \".deps/contracts/creditOp.sol\":846:1072  while (j < bars.length) {... */\n      iszero\n      tag_79\n      jumpi\n        /* \".deps/contracts/creditOp.sol\":903:909  credit */\n      dup5\n        /* \".deps/contracts/creditOp.sol\":892:896  bars */\n      dup5\n        /* \".deps/contracts/creditOp.sol\":897:898  i */\n      dup4\n        /* \".deps/contracts/creditOp.sol\":892:899  bars[i] */\n      0x06\n      dup2\n      lt\n      tag_80\n      jumpi\n      invalid\n    tag_80:\n      0x20\n      mul\n      add\n      mload\n        /* \".deps/contracts/creditOp.sol\":892:909  bars[i] <= credit */\n      0xffff\n      and\n      gt\n      iszero\n        /* \".deps/contracts/creditOp.sol\":892:929  bars[i] <= credit && credit < bars[j] */\n      dup1\n      iszero\n      tag_81\n      jumpi\n      pop\n        /* \".deps/contracts/creditOp.sol\":922:926  bars */\n      dup4\n        /* \".deps/contracts/creditOp.sol\":927:928  j */\n      dup2\n        /* \".deps/contracts/creditOp.sol\":922:929  bars[j] */\n      0x06\n      dup2\n      lt\n      tag_82\n      jumpi\n      invalid\n    tag_82:\n      0x20\n      mul\n      add\n      mload\n        /* \".deps/contracts/creditOp.sol\":913:929  credit < bars[j] */\n      0xffff\n      and\n        /* \".deps/contracts/creditOp.sol\":913:919  credit */\n      dup6\n        /* \".deps/contracts/creditOp.sol\":913:929  credit < bars[j] */\n      lt\n        /* \".deps/contracts/creditOp.sol\":892:929  bars[i] <= credit && credit < bars[j] */\n    tag_81:\n        /* \".deps/contracts/creditOp.sol\":888:1016  if (bars[i] <= credit && credit < bars[j]) {... */\n      iszero\n      tag_83\n      jumpi\n        /* \".deps/contracts/creditOp.sol\":963:967  incs */\n      dup3\n        /* \".deps/contracts/creditOp.sol\":968:969  i */\n      dup3\n        /* \".deps/contracts/creditOp.sol\":963:970  incs[i] */\n      0x05\n      dup2\n      lt\n      tag_84\n      jumpi\n      invalid\n    tag_84:\n      0x20\n      mul\n      add\n      mload\n        /* \".deps/contracts/creditOp.sol\":953:970  credit += incs[i] */\n      0xff\n      and\n      dup6\n      add\n      swap5\n      pop\n        /* \".deps/contracts/creditOp.sol\":992:997  break */\n      jump(tag_79)\n        /* \".deps/contracts/creditOp.sol\":888:1016  if (bars[i] <= credit && credit < bars[j]) {... */\n    tag_83:\n        /* \".deps/contracts/creditOp.sol\":1033:1036  i++ */\n      dup2\n      dup1\n      0x01\n      add\n      swap3\n      pop\n      pop\n        /* \".deps/contracts/creditOp.sol\":1054:1057  j++ */\n      dup1\n      dup1\n      0x01\n      add\n      swap2\n      pop\n      pop\n        /* \".deps/contracts/creditOp.sol\":846:1072  while (j < bars.length) {... */\n      jump(tag_78)\n    tag_79:\n        /* \".deps/contracts/creditOp.sol\":1085:1111  updateScore(_user, credit) */\n      tag_85\n        /* \".deps/contracts/creditOp.sol\":1097:1102  _user */\n      dup7\n        /* \".deps/contracts/creditOp.sol\":1104:1110  credit */\n      dup7\n        /* \".deps/contracts/creditOp.sol\":1085:1096  updateScore */\n      tag_27\n        /* \".deps/contracts/creditOp.sol\":1085:1111  updateScore(_user, credit) */\n      jump\t// in\n    tag_85:\n        /* \".deps/contracts/creditOp.sol\":753:1122  if (credit < upperLimitCredit) {... */\n      pop\n      pop\n    tag_77:\n        /* \".deps/contracts/creditOp.sol\":536:1128  function incCredit(address _user) public {... */\n      pop\n      pop\n      pop\n      pop\n      jump\t// out\n        /* \".deps/contracts/creditOp.sol\":139:162  uint256 public listSize */\n    tag_35:\n      sload(0x02)\n      dup2\n      jump\t// out\n        /* \".deps/contracts/creditOp.sol\":1147:1484  function decCredit(address _user, uint _dec) public {... */\n    tag_38:\n        /* \".deps/contracts/creditOp.sol\":1209:1220  uint credit */\n      0x00\n        /* \".deps/contracts/creditOp.sol\":1223:1234  user2credit */\n      dup1\n        /* \".deps/contracts/creditOp.sol\":1223:1241  user2credit[_user] */\n      0x00\n        /* \".deps/contracts/creditOp.sol\":1235:1240  _user */\n      dup5\n        /* \".deps/contracts/creditOp.sol\":1223:1241  user2credit[_user] */\n      0xffffffffffffffffffffffffffffffffffffffff\n      and\n      0xffffffffffffffffffffffffffffffffffffffff\n      and\n      dup2\n      mstore\n      0x20\n      add\n      swap1\n      dup2\n      mstore\n      0x20\n      add\n      0x00\n      keccak256\n      sload\n        /* \".deps/contracts/creditOp.sol\":1209:1241  uint credit = user2credit[_user] */\n      swap1\n      pop\n        /* \".deps/contracts/creditOp.sol\":1259:1262  100 */\n      0x64\n        /* \".deps/contracts/creditOp.sol\":1251:1262  _dec *= 100 */\n      dup3\n      mul\n      swap2\n      pop\n        /* \".deps/contracts/creditOp.sol\":1282:1286  _dec */\n      dup2\n        /* \".deps/contracts/creditOp.sol\":1272:1286  credit -= _dec */\n      dup2\n      sub\n      swap1\n      pop\n        /* \".deps/contracts/creditOp.sol\":1335:1337  50 */\n      0x32\n        /* \".deps/contracts/creditOp.sol\":1326:1332  credit */\n      dup2\n        /* \".deps/contracts/creditOp.sol\":1326:1337  credit < 50 */\n      lt\n        /* \".deps/contracts/creditOp.sol\":1322:1442  if (credit < 50) {... */\n      iszero\n      tag_87\n      jumpi\n        /* \".deps/contracts/creditOp.sol\":1353:1365  uint8 isQual */\n      0x00\n        /* \".deps/contracts/creditOp.sol\":1368:1379  qualifiable */\n      0x03\n        /* \".deps/contracts/creditOp.sol\":1368:1386  qualifiable[_user] */\n      0x00\n        /* \".deps/contracts/creditOp.sol\":1380:1385  _user */\n      dup6\n        /* \".deps/contracts/creditOp.sol\":1368:1386  qualifiable[_user] */\n      0xffffffffffffffffffffffffffffffffffffffff\n      and\n      0xffffffffffffffffffffffffffffffffffffffff\n      and\n      dup2\n      mstore\n      0x20\n      add\n      swap1\n      dup2\n      mstore\n      0x20\n      add\n      0x00\n      keccak256\n      0x00\n      swap1\n      sload\n      swap1\n      0x0100\n      exp\n      swap1\n      div\n      0xff\n      and\n        /* \".deps/contracts/creditOp.sol\":1353:1386  uint8 isQual = qualifiable[_user] */\n      swap1\n      pop\n        /* \".deps/contracts/creditOp.sol\":1430:1431  1 */\n      0x01\n        /* \".deps/contracts/creditOp.sol\":1421:1427  isQual */\n      dup2\n        /* \".deps/contracts/creditOp.sol\":1421:1431  isQual + 1 */\n      add\n        /* \".deps/contracts/creditOp.sol\":1400:1411  qualifiable */\n      0x03\n        /* \".deps/contracts/creditOp.sol\":1400:1418  qualifiable[_user] */\n      0x00\n        /* \".deps/contracts/creditOp.sol\":1412:1417  _user */\n      dup7\n        /* \".deps/contracts/creditOp.sol\":1400:1418  qualifiable[_user] */\n      0xffffffffffffffffffffffffffffffffffffffff\n      and\n      0xffffffffffffffffffffffffffffffffffffffff\n      and\n      dup2\n      mstore\n      0x20\n      add\n      swap1\n      dup2\n      mstore\n      0x20\n      add\n      0x00\n      keccak256\n      0x00\n        /* \".deps/contracts/creditOp.sol\":1400:1431  qualifiable[_user] = isQual + 1 */\n      0x0100\n      exp\n      dup2\n      sload\n      dup2\n      0xff\n      mul\n      not\n      and\n      swap1\n      dup4\n      0xff\n      and\n      mul\n      or\n      swap1\n      sstore\n      pop\n        /* \".deps/contracts/creditOp.sol\":1322:1442  if (credit < 50) {... */\n      pop\n    tag_87:\n        /* \".deps/contracts/creditOp.sol\":1451:1477  updateScore(_user, credit) */\n      tag_88\n        /* \".deps/contracts/creditOp.sol\":1463:1468  _user */\n      dup4\n        /* \".deps/contracts/creditOp.sol\":1470:1476  credit */\n      dup3\n        /* \".deps/contracts/creditOp.sol\":1451:1462  updateScore */\n      tag_27\n        /* \".deps/contracts/creditOp.sol\":1451:1477  updateScore(_user, credit) */\n      jump\t// in\n    tag_88:\n        /* \".deps/contracts/creditOp.sol\":1147:1484  function decCredit(address _user, uint _dec) public {... */\n      pop\n      pop\n      pop\n      jump\t// out\n        /* \".deps/contracts/creditOp.sol\":2915:3296  function getTopTen() public view returns(address[] memory) {... */\n    tag_40:\n        /* \".deps/contracts/creditOp.sol\":2956:2972  address[] memory */\n      0x60\n        /* \".deps/contracts/creditOp.sol\":3003:3005  10 */\n      0x0a\n        /* \".deps/contracts/creditOp.sol\":2992:3000  listSize */\n      sload(0x02)\n        /* \".deps/contracts/creditOp.sol\":2992:3005  listSize > 10 */\n      gt\n        /* \".deps/contracts/creditOp.sol\":2984:3006  require(listSize > 10) */\n      tag_90\n      jumpi\n      0x00\n      dup1\n      revert\n    tag_90:\n        /* \".deps/contracts/creditOp.sol\":3016:3045  address[] memory addressLists */\n      0x00\n        /* \".deps/contracts/creditOp.sol\":3062:3064  10 */\n      0x0a\n        /* \".deps/contracts/creditOp.sol\":3048:3065  new address[](10) */\n      0xffffffffffffffff\n      dup2\n      gt\n      dup1\n      iszero\n      tag_91\n      jumpi\n      0x00\n      dup1\n      revert\n    tag_91:\n      pop\n      mload(0x40)\n      swap1\n      dup1\n      dup3\n      mstore\n      dup1\n      0x20\n      mul\n      0x20\n      add\n      dup3\n      add\n      0x40\n      mstore\n      dup1\n      iszero\n      tag_92\n      jumpi\n      dup2\n      0x20\n      add\n      0x20\n      dup3\n      mul\n      dup1\n      calldatasize\n      dup4\n      calldatacopy\n      dup1\n      dup3\n      add\n      swap2\n      pop\n      pop\n      swap1\n      pop\n    tag_92:\n      pop\n        /* \".deps/contracts/creditOp.sol\":3016:3065  address[] memory addressLists = new address[](10) */\n      swap1\n      pop\n        /* \".deps/contracts/creditOp.sol\":3075:3097  address currentAddress */\n      0x00\n        /* \".deps/contracts/creditOp.sol\":3100:3105  _next */\n      0x01\n        /* \".deps/contracts/creditOp.sol\":3100:3112  _next[GUARD] */\n      0x00\n        /* \".deps/contracts/creditOp.sol\":201:202  1 */\n      0x01\n        /* \".deps/contracts/creditOp.sol\":3100:3112  _next[GUARD] */\n      0xffffffffffffffffffffffffffffffffffffffff\n      and\n      0xffffffffffffffffffffffffffffffffffffffff\n      and\n      dup2\n      mstore\n      0x20\n      add\n      swap1\n      dup2\n      mstore\n      0x20\n      add\n      0x00\n      keccak256\n      0x00\n      swap1\n      sload\n      swap1\n      0x0100\n      exp\n      swap1\n      div\n      0xffffffffffffffffffffffffffffffffffffffff\n      and\n        /* \".deps/contracts/creditOp.sol\":3075:3112  address currentAddress = _next[GUARD] */\n      swap1\n      pop\n        /* \".deps/contracts/creditOp.sol\":3127:3133  uint i */\n      0x00\n        /* \".deps/contracts/creditOp.sol\":3122:3261  for (uint i = 0; i < 10; i++) {... */\n    tag_93:\n        /* \".deps/contracts/creditOp.sol\":3143:3145  10 */\n      0x0a\n        /* \".deps/contracts/creditOp.sol\":3139:3140  i */\n      dup2\n        /* \".deps/contracts/creditOp.sol\":3139:3145  i < 10 */\n      lt\n        /* \".deps/contracts/creditOp.sol\":3122:3261  for (uint i = 0; i < 10; i++) {... */\n      iszero\n      tag_94\n      jumpi\n        /* \".deps/contracts/creditOp.sol\":3184:3198  currentAddress */\n      dup2\n        /* \".deps/contracts/creditOp.sol\":3166:3178  addressLists */\n      dup4\n        /* \".deps/contracts/creditOp.sol\":3179:3180  i */\n      dup3\n        /* \".deps/contracts/creditOp.sol\":3166:3181  addressLists[i] */\n      dup2\n      mload\n      dup2\n      lt\n      tag_96\n      jumpi\n      invalid\n    tag_96:\n      0x20\n      mul\n      0x20\n      add\n      add\n        /* \".deps/contracts/creditOp.sol\":3166:3198  addressLists[i] = currentAddress */\n      swap1\n      0xffffffffffffffffffffffffffffffffffffffff\n      and\n      swap1\n      dup2\n      0xffffffffffffffffffffffffffffffffffffffff\n      and\n      dup2\n      mstore\n      pop\n      pop\n        /* \".deps/contracts/creditOp.sol\":3229:3234  _next */\n      0x01\n        /* \".deps/contracts/creditOp.sol\":3229:3250  _next[currentAddress] */\n      0x00\n        /* \".deps/contracts/creditOp.sol\":3235:3249  currentAddress */\n      dup4\n        /* \".deps/contracts/creditOp.sol\":3229:3250  _next[currentAddress] */\n      0xffffffffffffffffffffffffffffffffffffffff\n      and\n      0xffffffffffffffffffffffffffffffffffffffff\n      and\n      dup2\n      mstore\n      0x20\n      add\n      swap1\n      dup2\n      mstore\n      0x20\n      add\n      0x00\n      keccak256\n      0x00\n      swap1\n      sload\n      swap1\n      0x0100\n      exp\n      swap1\n      div\n      0xffffffffffffffffffffffffffffffffffffffff\n      and\n        /* \".deps/contracts/creditOp.sol\":3212:3250  currentAddress = _next[currentAddress] */\n      swap2\n      pop\n        /* \".deps/contracts/creditOp.sol\":3147:3150  i++ */\n      dup1\n      dup1\n      0x01\n      add\n      swap2\n      pop\n      pop\n        /* \".deps/contracts/creditOp.sol\":3122:3261  for (uint i = 0; i < 10; i++) {... */\n      jump(tag_93)\n    tag_94:\n      pop\n        /* \".deps/contracts/creditOp.sol\":3277:3289  addressLists */\n      dup2\n        /* \".deps/contracts/creditOp.sol\":3270:3289  return addressLists */\n      swap3\n      pop\n      pop\n      pop\n        /* \".deps/contracts/creditOp.sol\":2915:3296  function getTopTen() public view returns(address[] memory) {... */\n      swap1\n      jump\t// out\n        /* \".deps/contracts/creditOp.sol\":211:256  mapping (address => uint8) public qualifiable */\n    tag_46:\n      mstore(0x20, 0x03)\n      dup1\n      0x00\n      mstore\n      keccak256(0x00, 0x40)\n      0x00\n      swap2\n      pop\n      sload\n      swap1\n      0x0100\n      exp\n      swap1\n      div\n      0xff\n      and\n      dup2\n      jump\t// out\n        /* \".deps/contracts/creditOp.sol\":49:93  mapping (address => uint) public user2credit */\n    tag_49:\n      mstore(0x20, 0x00)\n      dup1\n      0x00\n      mstore\n      keccak256(0x00, 0x40)\n      0x00\n      swap2\n      pop\n      swap1\n      pop\n      sload\n      dup2\n      jump\t// out\n        /* \".deps/contracts/creditOp.sol\":2649:2909  function removeCredit(address _user) public {... */\n    tag_52:\n        /* \".deps/contracts/creditOp.sol\":2735:2736  0 */\n      0x00\n        /* \".deps/contracts/creditOp.sol\":2711:2737  _next[_user] != address(0) */\n      0xffffffffffffffffffffffffffffffffffffffff\n      and\n        /* \".deps/contracts/creditOp.sol\":2711:2716  _next */\n      0x01\n        /* \".deps/contracts/creditOp.sol\":2711:2723  _next[_user] */\n      0x00\n        /* \".deps/contracts/creditOp.sol\":2717:2722  _user */\n      dup4\n        /* \".deps/contracts/creditOp.sol\":2711:2723  _next[_user] */\n      0xffffffffffffffffffffffffffffffffffffffff\n      and\n      0xffffffffffffffffffffffffffffffffffffffff\n      and\n      dup2\n      mstore\n      0x20\n      add\n      swap1\n      dup2\n      mstore\n      0x20\n      add\n      0x00\n      keccak256\n      0x00\n      swap1\n      sload\n      swap1\n      0x0100\n      exp\n      swap1\n      div\n      0xffffffffffffffffffffffffffffffffffffffff\n      and\n        /* \".deps/contracts/creditOp.sol\":2711:2737  _next[_user] != address(0) */\n      0xffffffffffffffffffffffffffffffffffffffff\n      and\n      eq\n      iszero\n        /* \".deps/contracts/creditOp.sol\":2703:2738  require(_next[_user] != address(0)) */\n      tag_98\n      jumpi\n      0x00\n      dup1\n      revert\n    tag_98:\n        /* \".deps/contracts/creditOp.sol\":2748:2760  address prev */\n      0x00\n        /* \".deps/contracts/creditOp.sol\":2763:2779  _findPrev(_user) */\n      tag_99\n        /* \".deps/contracts/creditOp.sol\":2773:2778  _user */\n      dup3\n        /* \".deps/contracts/creditOp.sol\":2763:2772  _findPrev */\n      tag_65\n        /* \".deps/contracts/creditOp.sol\":2763:2779  _findPrev(_user) */\n      jump\t// in\n    tag_99:\n        /* \".deps/contracts/creditOp.sol\":2748:2779  address prev = _findPrev(_user) */\n      swap1\n      pop\n        /* \".deps/contracts/creditOp.sol\":2803:2808  _next */\n      0x01\n        /* \".deps/contracts/creditOp.sol\":2803:2815  _next[_user] */\n      0x00\n        /* \".deps/contracts/creditOp.sol\":2809:2814  _user */\n      dup4\n        /* \".deps/contracts/creditOp.sol\":2803:2815  _next[_user] */\n      0xffffffffffffffffffffffffffffffffffffffff\n      and\n      0xffffffffffffffffffffffffffffffffffffffff\n      and\n      dup2\n      mstore\n      0x20\n      add\n      swap1\n      dup2\n      mstore\n      0x20\n      add\n      0x00\n      keccak256\n      0x00\n      swap1\n      sload\n      swap1\n      0x0100\n      exp\n      swap1\n      div\n      0xffffffffffffffffffffffffffffffffffffffff\n      and\n        /* \".deps/contracts/creditOp.sol\":2789:2794  _next */\n      0x01\n        /* \".deps/contracts/creditOp.sol\":2789:2800  _next[prev] */\n      0x00\n        /* \".deps/contracts/creditOp.sol\":2795:2799  prev */\n      dup4\n        /* \".deps/contracts/creditOp.sol\":2789:2800  _next[prev] */\n      0xffffffffffffffffffffffffffffffffffffffff\n      and\n      0xffffffffffffffffffffffffffffffffffffffff\n      and\n      dup2\n      mstore\n      0x20\n      add\n      swap1\n      dup2\n      mstore\n      0x20\n      add\n      0x00\n      keccak256\n      0x00\n        /* \".deps/contracts/creditOp.sol\":2789:2815  _next[prev] = _next[_user] */\n      0x0100\n      exp\n      dup2\n      sload\n      dup2\n      0xffffffffffffffffffffffffffffffffffffffff\n      mul\n      not\n      and\n      swap1\n      dup4\n      0xffffffffffffffffffffffffffffffffffffffff\n      and\n      mul\n      or\n      swap1\n      sstore\n      pop\n        /* \".deps/contracts/creditOp.sol\":2848:2849  0 */\n      0x00\n        /* \".deps/contracts/creditOp.sol\":2825:2830  _next */\n      0x01\n        /* \".deps/contracts/creditOp.sol\":2825:2837  _next[_user] */\n      0x00\n        /* \".deps/contracts/creditOp.sol\":2831:2836  _user */\n      dup5\n        /* \".deps/contracts/creditOp.sol\":2825:2837  _next[_user] */\n      0xffffffffffffffffffffffffffffffffffffffff\n      and\n      0xffffffffffffffffffffffffffffffffffffffff\n      and\n      dup2\n      mstore\n      0x20\n      add\n      swap1\n      dup2\n      mstore\n      0x20\n      add\n      0x00\n      keccak256\n      0x00\n        /* \".deps/contracts/creditOp.sol\":2825:2850  _next[_user] = address(0) */\n      0x0100\n      exp\n      dup2\n      sload\n      dup2\n      0xffffffffffffffffffffffffffffffffffffffff\n      mul\n      not\n      and\n      swap1\n      dup4\n      0xffffffffffffffffffffffffffffffffffffffff\n      and\n      mul\n      or\n      swap1\n      sstore\n      pop\n        /* \".deps/contracts/creditOp.sol\":2881:2882  0 */\n      0x00\n        /* \".deps/contracts/creditOp.sol\":2860:2871  user2credit */\n      dup1\n        /* \".deps/contracts/creditOp.sol\":2860:2878  user2credit[_user] */\n      0x00\n        /* \".deps/contracts/creditOp.sol\":2872:2877  _user */\n      dup5\n        /* \".deps/contracts/creditOp.sol\":2860:2878  user2credit[_user] */\n      0xffffffffffffffffffffffffffffffffffffffff\n      and\n      0xffffffffffffffffffffffffffffffffffffffff\n      and\n      dup2\n      mstore\n      0x20\n      add\n      swap1\n      dup2\n      mstore\n      0x20\n      add\n      0x00\n      keccak256\n        /* \".deps/contracts/creditOp.sol\":2860:2882  user2credit[_user] = 0 */\n      dup2\n      swap1\n      sstore\n      pop\n        /* \".deps/contracts/creditOp.sol\":2892:2900  listSize */\n      0x02\n      0x00\n        /* \".deps/contracts/creditOp.sol\":2892:2902  listSize-- */\n      dup2\n      sload\n      dup1\n      swap3\n      swap2\n      swap1\n      0x01\n      swap1\n      sub\n      swap2\n      swap1\n      pop\n      sstore\n      pop\n        /* \".deps/contracts/creditOp.sol\":2649:2909  function removeCredit(address _user) public {... */\n      pop\n      pop\n      jump\t// out\n        /* \".deps/contracts/creditOp.sol\":1628:1734  function isQualifiable(address _user) private returns(bool) {... */\n    tag_55:\n        /* \".deps/contracts/creditOp.sol\":1682:1686  bool */\n      0x00\n        /* \".deps/contracts/creditOp.sol\":1726:1727  2 */\n      0x02\n        /* \".deps/contracts/creditOp.sol\":1705:1716  qualifiable */\n      0x03\n        /* \".deps/contracts/creditOp.sol\":1705:1723  qualifiable[_user] */\n      0x00\n        /* \".deps/contracts/creditOp.sol\":1717:1722  _user */\n      dup5\n        /* \".deps/contracts/creditOp.sol\":1705:1723  qualifiable[_user] */\n      0xffffffffffffffffffffffffffffffffffffffff\n      and\n      0xffffffffffffffffffffffffffffffffffffffff\n      and\n      dup2\n      mstore\n      0x20\n      add\n      swap1\n      dup2\n      mstore\n      0x20\n      add\n      0x00\n      keccak256\n      0x00\n      swap1\n      sload\n      swap1\n      0x0100\n      exp\n      swap1\n      div\n      0xff\n      and\n        /* \".deps/contracts/creditOp.sol\":1705:1727  qualifiable[_user] < 2 */\n      0xff\n      and\n      lt\n        /* \".deps/contracts/creditOp.sol\":1698:1727  return qualifiable[_user] < 2 */\n      swap1\n      pop\n        /* \".deps/contracts/creditOp.sol\":1628:1734  function isQualifiable(address _user) private returns(bool) {... */\n      swap2\n      swap1\n      pop\n      jump\t// out\n        /* \".deps/contracts/creditOp.sol\":4000:4334  function _findPrev(address user) internal view returns(address) {... */\n    tag_65:\n        /* \".deps/contracts/creditOp.sol\":4055:4062  address */\n      0x00\n        /* \".deps/contracts/creditOp.sol\":4074:4096  address currentAddress */\n      dup1\n        /* \".deps/contracts/creditOp.sol\":201:202  1 */\n      0x01\n        /* \".deps/contracts/creditOp.sol\":4074:4104  address currentAddress = GUARD */\n      swap1\n      pop\n        /* \".deps/contracts/creditOp.sol\":4114:4301  while(_next[currentAddress] != GUARD) {... */\n    tag_102:\n        /* \".deps/contracts/creditOp.sol\":201:202  1 */\n      0x01\n        /* \".deps/contracts/creditOp.sol\":4120:4150  _next[currentAddress] != GUARD */\n      0xffffffffffffffffffffffffffffffffffffffff\n      and\n        /* \".deps/contracts/creditOp.sol\":4120:4125  _next */\n      0x01\n        /* \".deps/contracts/creditOp.sol\":4120:4141  _next[currentAddress] */\n      0x00\n        /* \".deps/contracts/creditOp.sol\":4126:4140  currentAddress */\n      dup4\n        /* \".deps/contracts/creditOp.sol\":4120:4141  _next[currentAddress] */\n      0xffffffffffffffffffffffffffffffffffffffff\n      and\n      0xffffffffffffffffffffffffffffffffffffffff\n      and\n      dup2\n      mstore\n      0x20\n      add\n      swap1\n      dup2\n      mstore\n      0x20\n      add\n      0x00\n      keccak256\n      0x00\n      swap1\n      sload\n      swap1\n      0x0100\n      exp\n      swap1\n      div\n      0xffffffffffffffffffffffffffffffffffffffff\n      and\n        /* \".deps/contracts/creditOp.sol\":4120:4150  _next[currentAddress] != GUARD */\n      0xffffffffffffffffffffffffffffffffffffffff\n      and\n      eq\n        /* \".deps/contracts/creditOp.sol\":4114:4301  while(_next[currentAddress] != GUARD) {... */\n      tag_103\n      jumpi\n        /* \".deps/contracts/creditOp.sol\":4170:4199  _isPrev(user, currentAddress) */\n      tag_104\n        /* \".deps/contracts/creditOp.sol\":4178:4182  user */\n      dup4\n        /* \".deps/contracts/creditOp.sol\":4184:4198  currentAddress */\n      dup3\n        /* \".deps/contracts/creditOp.sol\":4170:4177  _isPrev */\n      tag_105\n        /* \".deps/contracts/creditOp.sol\":4170:4199  _isPrev(user, currentAddress) */\n      jump\t// in\n    tag_104:\n        /* \".deps/contracts/creditOp.sol\":4166:4238  if (_isPrev(user, currentAddress))... */\n      iszero\n      tag_106\n      jumpi\n        /* \".deps/contracts/creditOp.sol\":4224:4238  currentAddress */\n      dup1\n        /* \".deps/contracts/creditOp.sol\":4217:4238  return currentAddress */\n      swap2\n      pop\n      pop\n      jump(tag_101)\n        /* \".deps/contracts/creditOp.sol\":4166:4238  if (_isPrev(user, currentAddress))... */\n    tag_106:\n        /* \".deps/contracts/creditOp.sol\":4269:4274  _next */\n      0x01\n        /* \".deps/contracts/creditOp.sol\":4269:4290  _next[currentAddress] */\n      0x00\n        /* \".deps/contracts/creditOp.sol\":4275:4289  currentAddress */\n      dup3\n        /* \".deps/contracts/creditOp.sol\":4269:4290  _next[currentAddress] */\n      0xffffffffffffffffffffffffffffffffffffffff\n      and\n      0xffffffffffffffffffffffffffffffffffffffff\n      and\n      dup2\n      mstore\n      0x20\n      add\n      swap1\n      dup2\n      mstore\n      0x20\n      add\n      0x00\n      keccak256\n      0x00\n      swap1\n      sload\n      swap1\n      0x0100\n      exp\n      swap1\n      div\n      0xffffffffffffffffffffffffffffffffffffffff\n      and\n        /* \".deps/contracts/creditOp.sol\":4252:4290  currentAddress = _next[currentAddress] */\n      swap1\n      pop\n        /* \".deps/contracts/creditOp.sol\":4114:4301  while(_next[currentAddress] != GUARD) {... */\n      jump(tag_102)\n    tag_103:\n        /* \".deps/contracts/creditOp.sol\":4325:4326  0 */\n      0x00\n        /* \".deps/contracts/creditOp.sol\":4310:4327  return address(0) */\n      swap2\n      pop\n      pop\n        /* \".deps/contracts/creditOp.sol\":4000:4334  function _findPrev(address user) internal view returns(address) {... */\n    tag_101:\n      swap2\n      swap1\n      pop\n      jump\t// out\n        /* \".deps/contracts/creditOp.sol\":3302:3539  function _verifyIndex(address prev, uint newValue, address next) ... */\n    tag_67:\n        /* \".deps/contracts/creditOp.sol\":3398:3402  bool */\n      0x00\n        /* \".deps/contracts/creditOp.sol\":201:202  1 */\n      0x01\n        /* \".deps/contracts/creditOp.sol\":3422:3435  prev == GUARD */\n      0xffffffffffffffffffffffffffffffffffffffff\n      and\n        /* \".deps/contracts/creditOp.sol\":3422:3426  prev */\n      dup5\n        /* \".deps/contracts/creditOp.sol\":3422:3435  prev == GUARD */\n      0xffffffffffffffffffffffffffffffffffffffff\n      and\n      eq\n        /* \".deps/contracts/creditOp.sol\":3422:3468  prev == GUARD || user2credit[prev] >= newValue */\n      dup1\n      tag_108\n      jumpi\n      pop\n        /* \".deps/contracts/creditOp.sol\":3460:3468  newValue */\n      dup3\n        /* \".deps/contracts/creditOp.sol\":3439:3450  user2credit */\n      0x00\n        /* \".deps/contracts/creditOp.sol\":3439:3456  user2credit[prev] */\n      dup1\n        /* \".deps/contracts/creditOp.sol\":3451:3455  prev */\n      dup7\n        /* \".deps/contracts/creditOp.sol\":3439:3456  user2credit[prev] */\n      0xffffffffffffffffffffffffffffffffffffffff\n      and\n      0xffffffffffffffffffffffffffffffffffffffff\n      and\n      dup2\n      mstore\n      0x20\n      add\n      swap1\n      dup2\n      mstore\n      0x20\n      add\n      0x00\n      keccak256\n      sload\n        /* \".deps/contracts/creditOp.sol\":3439:3468  user2credit[prev] >= newValue */\n      lt\n      iszero\n        /* \".deps/contracts/creditOp.sol\":3422:3468  prev == GUARD || user2credit[prev] >= newValue */\n    tag_108:\n        /* \".deps/contracts/creditOp.sol\":3421:3532  (prev == GUARD || user2credit[prev] >= newValue)... */\n      dup1\n      iszero\n      tag_109\n      jumpi\n      pop\n        /* \".deps/contracts/creditOp.sol\":201:202  1 */\n      0x01\n        /* \".deps/contracts/creditOp.sol\":3486:3499  next == GUARD */\n      0xffffffffffffffffffffffffffffffffffffffff\n      and\n        /* \".deps/contracts/creditOp.sol\":3486:3490  next */\n      dup3\n        /* \".deps/contracts/creditOp.sol\":3486:3499  next == GUARD */\n      0xffffffffffffffffffffffffffffffffffffffff\n      and\n      eq\n        /* \".deps/contracts/creditOp.sol\":3486:3531  next == GUARD || newValue > user2credit[next] */\n      dup1\n      tag_110\n      jumpi\n      pop\n        /* \".deps/contracts/creditOp.sol\":3514:3525  user2credit */\n      0x00\n        /* \".deps/contracts/creditOp.sol\":3514:3531  user2credit[next] */\n      dup1\n        /* \".deps/contracts/creditOp.sol\":3526:3530  next */\n      dup4\n        /* \".deps/contracts/creditOp.sol\":3514:3531  user2credit[next] */\n      0xffffffffffffffffffffffffffffffffffffffff\n      and\n      0xffffffffffffffffffffffffffffffffffffffff\n      and\n      dup2\n      mstore\n      0x20\n      add\n      swap1\n      dup2\n      mstore\n      0x20\n      add\n      0x00\n      keccak256\n      sload\n        /* \".deps/contracts/creditOp.sol\":3503:3511  newValue */\n      dup4\n        /* \".deps/contracts/creditOp.sol\":3503:3531  newValue > user2credit[next] */\n      gt\n        /* \".deps/contracts/creditOp.sol\":3486:3531  next == GUARD || newValue > user2credit[next] */\n    tag_110:\n        /* \".deps/contracts/creditOp.sol\":3421:3532  (prev == GUARD || user2credit[prev] >= newValue)... */\n    tag_109:\n        /* \".deps/contracts/creditOp.sol\":3414:3532  return (prev == GUARD || user2credit[prev] >= newValue)... */\n      swap1\n      pop\n        /* \".deps/contracts/creditOp.sol\":3302:3539  function _verifyIndex(address prev, uint newValue, address next) ... */\n      swap4\n      swap3\n      pop\n      pop\n      pop\n      jump\t// out\n        /* \".deps/contracts/creditOp.sol\":3545:3872  function _findIndex(uint newValue) internal view returns(address) {... */\n    tag_75:\n        /* \".deps/contracts/creditOp.sol\":3602:3609  address */\n      0x00\n        /* \".deps/contracts/creditOp.sol\":3621:3645  address candidateAddress */\n      dup1\n        /* \".deps/contracts/creditOp.sol\":201:202  1 */\n      0x01\n        /* \".deps/contracts/creditOp.sol\":3621:3653  address candidateAddress = GUARD */\n      swap1\n      pop\n        /* \".deps/contracts/creditOp.sol\":3663:3866  while(true) {... */\n    tag_112:\n        /* \".deps/contracts/creditOp.sol\":3669:3673  true */\n      0x01\n        /* \".deps/contracts/creditOp.sol\":3663:3866  while(true) {... */\n      iszero\n      tag_113\n      jumpi\n        /* \".deps/contracts/creditOp.sol\":3693:3758  _verifyIndex(candidateAddress, newValue, _next[candidateAddress]) */\n      tag_114\n        /* \".deps/contracts/creditOp.sol\":3706:3722  candidateAddress */\n      dup2\n        /* \".deps/contracts/creditOp.sol\":3724:3732  newValue */\n      dup5\n        /* \".deps/contracts/creditOp.sol\":3734:3739  _next */\n      0x01\n        /* \".deps/contracts/creditOp.sol\":3734:3757  _next[candidateAddress] */\n      0x00\n        /* \".deps/contracts/creditOp.sol\":3740:3756  candidateAddress */\n      dup6\n        /* \".deps/contracts/creditOp.sol\":3734:3757  _next[candidateAddress] */\n      0xffffffffffffffffffffffffffffffffffffffff\n      and\n      0xffffffffffffffffffffffffffffffffffffffff\n      and\n      dup2\n      mstore\n      0x20\n      add\n      swap1\n      dup2\n      mstore\n      0x20\n      add\n      0x00\n      keccak256\n      0x00\n      swap1\n      sload\n      swap1\n      0x0100\n      exp\n      swap1\n      div\n      0xffffffffffffffffffffffffffffffffffffffff\n      and\n        /* \".deps/contracts/creditOp.sol\":3693:3705  _verifyIndex */\n      tag_67\n        /* \".deps/contracts/creditOp.sol\":3693:3758  _verifyIndex(candidateAddress, newValue, _next[candidateAddress]) */\n      jump\t// in\n    tag_114:\n        /* \".deps/contracts/creditOp.sol\":3689:3799  if (_verifyIndex(candidateAddress, newValue, _next[candidateAddress]))... */\n      iszero\n      tag_115\n      jumpi\n        /* \".deps/contracts/creditOp.sol\":3783:3799  candidateAddress */\n      dup1\n        /* \".deps/contracts/creditOp.sol\":3776:3799  return candidateAddress */\n      swap2\n      pop\n      pop\n      jump(tag_111)\n        /* \".deps/contracts/creditOp.sol\":3689:3799  if (_verifyIndex(candidateAddress, newValue, _next[candidateAddress]))... */\n    tag_115:\n        /* \".deps/contracts/creditOp.sol\":3832:3837  _next */\n      0x01\n        /* \".deps/contracts/creditOp.sol\":3832:3855  _next[candidateAddress] */\n      0x00\n        /* \".deps/contracts/creditOp.sol\":3838:3854  candidateAddress */\n      dup3\n        /* \".deps/contracts/creditOp.sol\":3832:3855  _next[candidateAddress] */\n      0xffffffffffffffffffffffffffffffffffffffff\n      and\n      0xffffffffffffffffffffffffffffffffffffffff\n      and\n      dup2\n      mstore\n      0x20\n      add\n      swap1\n      dup2\n      mstore\n      0x20\n      add\n      0x00\n      keccak256\n      0x00\n      swap1\n      sload\n      swap1\n      0x0100\n      exp\n      swap1\n      div\n      0xffffffffffffffffffffffffffffffffffffffff\n      and\n        /* \".deps/contracts/creditOp.sol\":3813:3855  candidateAddress = _next[candidateAddress] */\n      swap1\n      pop\n        /* \".deps/contracts/creditOp.sol\":3663:3866  while(true) {... */\n      jump(tag_112)\n    tag_113:\n        /* \".deps/contracts/creditOp.sol\":3545:3872  function _findIndex(uint newValue) internal view returns(address) {... */\n      pop\n    tag_111:\n      swap2\n      swap1\n      pop\n      jump\t// out\n        /* \".deps/contracts/creditOp.sol\":3878:3994  function _isPrev(address user, address prev) internal view returns(bool) {... */\n    tag_105:\n        /* \".deps/contracts/creditOp.sol\":3945:3949  bool */\n      0x00\n        /* \".deps/contracts/creditOp.sol\":3983:3987  user */\n      dup3\n        /* \".deps/contracts/creditOp.sol\":3968:3987  _next[prev] == user */\n      0xffffffffffffffffffffffffffffffffffffffff\n      and\n        /* \".deps/contracts/creditOp.sol\":3968:3973  _next */\n      0x01\n        /* \".deps/contracts/creditOp.sol\":3968:3979  _next[prev] */\n      0x00\n        /* \".deps/contracts/creditOp.sol\":3974:3978  prev */\n      dup5\n        /* \".deps/contracts/creditOp.sol\":3968:3979  _next[prev] */\n      0xffffffffffffffffffffffffffffffffffffffff\n      and\n      0xffffffffffffffffffffffffffffffffffffffff\n      and\n      dup2\n      mstore\n      0x20\n      add\n      swap1\n      dup2\n      mstore\n      0x20\n      add\n      0x00\n      keccak256\n      0x00\n      swap1\n      sload\n      swap1\n      0x0100\n      exp\n      swap1\n      div\n      0xffffffffffffffffffffffffffffffffffffffff\n      and\n        /* \".deps/contracts/creditOp.sol\":3968:3987  _next[prev] == user */\n      0xffffffffffffffffffffffffffffffffffffffff\n      and\n      eq\n        /* \".deps/contracts/creditOp.sol\":3961:3987  return _next[prev] == user */\n      swap1\n      pop\n        /* \".deps/contracts/creditOp.sol\":3878:3994  function _isPrev(address user, address prev) internal view returns(bool) {... */\n      swap3\n      swap2\n      pop\n      pop\n      jump\t// out\n\n    auxdata: 0xa264697066735822122061cf643aee04fbb9444f767ce825e67c840410f59d4c02fee380e9bff1cb830b64736f6c63430007060033\n}\n",
				"bytecode": {
					"linkReferences": {},
					"object": "6080604052612710600455614e2060055561138860065561177060075534801561002857600080fd5b506001806000600173ffffffffffffffffffffffffffffffffffffffff1673ffffffffffffffffffffffffffffffffffffffff16815260200190815260200160002060006101000a81548173ffffffffffffffffffffffffffffffffffffffff021916908373ffffffffffffffffffffffffffffffffffffffff1602179055506113fe806100b76000396000f3fe608060405234801561001057600080fd5b50600436106100b45760003560e01c8063972c535611610071578063972c53561461028f5780639dc29cdb146102ad578063b278fa4b146102fb578063d4268f4a1461035a578063de6e6d3e146103b5578063eaeadac91461040d576100b4565b80631eab150d146100b95780631f72a7d51461011357806357344e6f1461015757806365d97724146101af5780637d27d66c146101fd578063904fba8d1461024b575b600080fd5b6100fb600480360360208110156100cf57600080fd5b81019080803573ffffffffffffffffffffffffffffffffffffffff169060200190929190505050610451565b60405180821515815260200191505060405180910390f35b6101556004803603602081101561012957600080fd5b81019080803573ffffffffffffffffffffffffffffffffffffffff169060200190929190505050610478565b005b6101996004803603602081101561016d57600080fd5b81019080803573ffffffffffffffffffffffffffffffffffffffff1690602001909291905050506104e0565b6040518082815260200191505060405180910390f35b6101fb600480360360408110156101c557600080fd5b81019080803573ffffffffffffffffffffffffffffffffffffffff16906020019092919080359060200190929190505050610532565b005b6102496004803603604081101561021357600080fd5b81019080803573ffffffffffffffffffffffffffffffffffffffff169060200190929190803590602001909291905050506106ae565b005b61028d6004803603602081101561026157600080fd5b81019080803573ffffffffffffffffffffffffffffffffffffffff169060200190929190505050610908565b005b610297610a7a565b6040518082815260200191505060405180910390f35b6102f9600480360360408110156102c357600080fd5b81019080803573ffffffffffffffffffffffffffffffffffffffff16906020019092919080359060200190929190505050610a80565b005b610303610b94565b6040518080602001828103825283818151815260200191508051906020019060200280838360005b8381101561034657808201518184015260208101905061032b565b505050509050019250505060405180910390f35b61039c6004803603602081101561037057600080fd5b81019080803573ffffffffffffffffffffffffffffffffffffffff169060200190929190505050610d21565b604051808260ff16815260200191505060405180910390f35b6103f7600480360360208110156103cb57600080fd5b81019080803573ffffffffffffffffffffffffffffffffffffffff169060200190929190505050610d41565b6040518082815260200191505060405180910390f35b61044f6004803603602081101561042357600080fd5b81019080803573ffffffffffffffffffffffffffffffffffffffff169060200190929190505050610d59565b005b600061045c82610fb6565b80156104715750603261046e836104e0565b10155b9050919050565b610484816004546106ae565b6000600360008373ffffffffffffffffffffffffffffffffffffffff1673ffffffffffffffffffffffffffffffffffffffff16815260200190815260200160002060006101000a81548160ff021916908360ff16021790555050565b600060646000808473ffffffffffffffffffffffffffffffffffffffff1673ffffffffffffffffffffffffffffffffffffffff168152602001908152602001600020548161052a57fe5b049050919050565b600073ffffffffffffffffffffffffffffffffffffffff16600160008473ffffffffffffffffffffffffffffffffffffffff1673ffffffffffffffffffffffffffffffffffffffff16815260200190815260200160002060009054906101000a900473ffffffffffffffffffffffffffffffffffffffff1673ffffffffffffffffffffffffffffffffffffffff1614156105cb57600080fd5b60006105d683611012565b90506000600160008573ffffffffffffffffffffffffffffffffffffffff1673ffffffffffffffffffffffffffffffffffffffff16815260200190815260200160002060009054906101000a900473ffffffffffffffffffffffffffffffffffffffff169050610647828483611137565b1561069457826000808673ffffffffffffffffffffffffffffffffffffffff1673ffffffffffffffffffffffffffffffffffffffff168152602001908152602001600020819055506106a8565b61069d84610d59565b6106a784846106ae565b5b50505050565b600073ffffffffffffffffffffffffffffffffffffffff16600160008473ffffffffffffffffffffffffffffffffffffffff1673ffffffffffffffffffffffffffffffffffffffff16815260200190815260200160002060009054906101000a900473ffffffffffffffffffffffffffffffffffffffff1673ffffffffffffffffffffffffffffffffffffffff161461074657600080fd5b60006107518261123b565b9050816000808573ffffffffffffffffffffffffffffffffffffffff1673ffffffffffffffffffffffffffffffffffffffff16815260200190815260200160002081905550600160008273ffffffffffffffffffffffffffffffffffffffff1673ffffffffffffffffffffffffffffffffffffffff16815260200190815260200160002060009054906101000a900473ffffffffffffffffffffffffffffffffffffffff16600160008573ffffffffffffffffffffffffffffffffffffffff1673ffffffffffffffffffffffffffffffffffffffff16815260200190815260200160002060006101000a81548173ffffffffffffffffffffffffffffffffffffffff021916908373ffffffffffffffffffffffffffffffffffffffff16021790555082600160008373ffffffffffffffffffffffffffffffffffffffff1673ffffffffffffffffffffffffffffffffffffffff16815260200190815260200160002060006101000a81548173ffffffffffffffffffffffffffffffffffffffff021916908373ffffffffffffffffffffffffffffffffffffffff160217905550600260008154809291906001019190505550505050565b60008060008373ffffffffffffffffffffffffffffffffffffffff1673ffffffffffffffffffffffffffffffffffffffff16815260200190815260200160002054905060006040518060c00160405280600061ffff16815260200161271061ffff168152602001612af861ffff168152602001613a9861ffff16815260200161465061ffff168152602001614e2061ffff16815250905060006040518060a00160405280606460ff168152602001606060ff168152602001601060ff168152602001600560ff168152602001600160ff168152509050600554831015610a7457600080600190505b6006811015610a675784848360068110610a0657fe5b602002015161ffff1611158015610a305750838160068110610a2457fe5b602002015161ffff1685105b15610a5257828260058110610a4157fe5b602002015160ff1685019450610a67565b818060010192505080806001019150506109f0565b610a718686610532565b50505b50505050565b60025481565b60008060008473ffffffffffffffffffffffffffffffffffffffff1673ffffffffffffffffffffffffffffffffffffffff16815260200190815260200160002054905060648202915081810390506032811015610b85576000600360008573ffffffffffffffffffffffffffffffffffffffff1673ffffffffffffffffffffffffffffffffffffffff16815260200190815260200160002060009054906101000a900460ff16905060018101600360008673ffffffffffffffffffffffffffffffffffffffff1673ffffffffffffffffffffffffffffffffffffffff16815260200190815260200160002060006101000a81548160ff021916908360ff160217905550505b610b8f8382610532565b505050565b6060600a60025411610ba557600080fd5b6000600a67ffffffffffffffff81118015610bbf57600080fd5b50604051908082528060200260200182016040528015610bee5781602001602082028036833780820191505090505b509050600060016000600173ffffffffffffffffffffffffffffffffffffffff1673ffffffffffffffffffffffffffffffffffffffff16815260200190815260200160002060009054906101000a900473ffffffffffffffffffffffffffffffffffffffff16905060005b600a811015610d185781838281518110610c6f57fe5b602002602001019073ffffffffffffffffffffffffffffffffffffffff16908173ffffffffffffffffffffffffffffffffffffffff1681525050600160008373ffffffffffffffffffffffffffffffffffffffff1673ffffffffffffffffffffffffffffffffffffffff16815260200190815260200160002060009054906101000a900473ffffffffffffffffffffffffffffffffffffffff1691508080600101915050610c59565b50819250505090565b60036020528060005260406000206000915054906101000a900460ff1681565b60006020528060005260406000206000915090505481565b600073ffffffffffffffffffffffffffffffffffffffff16600160008373ffffffffffffffffffffffffffffffffffffffff1673ffffffffffffffffffffffffffffffffffffffff16815260200190815260200160002060009054906101000a900473ffffffffffffffffffffffffffffffffffffffff1673ffffffffffffffffffffffffffffffffffffffff161415610df257600080fd5b6000610dfd82611012565b9050600160008373ffffffffffffffffffffffffffffffffffffffff1673ffffffffffffffffffffffffffffffffffffffff16815260200190815260200160002060009054906101000a900473ffffffffffffffffffffffffffffffffffffffff16600160008373ffffffffffffffffffffffffffffffffffffffff1673ffffffffffffffffffffffffffffffffffffffff16815260200190815260200160002060006101000a81548173ffffffffffffffffffffffffffffffffffffffff021916908373ffffffffffffffffffffffffffffffffffffffff1602179055506000600160008473ffffffffffffffffffffffffffffffffffffffff1673ffffffffffffffffffffffffffffffffffffffff16815260200190815260200160002060006101000a81548173ffffffffffffffffffffffffffffffffffffffff021916908373ffffffffffffffffffffffffffffffffffffffff16021790555060008060008473ffffffffffffffffffffffffffffffffffffffff1673ffffffffffffffffffffffffffffffffffffffff16815260200190815260200160002081905550600260008154809291906001900391905055505050565b60006002600360008473ffffffffffffffffffffffffffffffffffffffff1673ffffffffffffffffffffffffffffffffffffffff16815260200190815260200160002060009054906101000a900460ff1660ff16109050919050565b600080600190505b600173ffffffffffffffffffffffffffffffffffffffff16600160008373ffffffffffffffffffffffffffffffffffffffff1673ffffffffffffffffffffffffffffffffffffffff16815260200190815260200160002060009054906101000a900473ffffffffffffffffffffffffffffffffffffffff1673ffffffffffffffffffffffffffffffffffffffff161461112c576110b78382611330565b156110c55780915050611132565b600160008273ffffffffffffffffffffffffffffffffffffffff1673ffffffffffffffffffffffffffffffffffffffff16815260200190815260200160002060009054906101000a900473ffffffffffffffffffffffffffffffffffffffff16905061101a565b60009150505b919050565b6000600173ffffffffffffffffffffffffffffffffffffffff168473ffffffffffffffffffffffffffffffffffffffff1614806111b25750826000808673ffffffffffffffffffffffffffffffffffffffff1673ffffffffffffffffffffffffffffffffffffffff1681526020019081526020016000205410155b80156112325750600173ffffffffffffffffffffffffffffffffffffffff168273ffffffffffffffffffffffffffffffffffffffff16148061123157506000808373ffffffffffffffffffffffffffffffffffffffff1673ffffffffffffffffffffffffffffffffffffffff1681526020019081526020016000205483115b5b90509392505050565b600080600190505b600115611329576112b48184600160008573ffffffffffffffffffffffffffffffffffffffff1673ffffffffffffffffffffffffffffffffffffffff16815260200190815260200160002060009054906101000a900473ffffffffffffffffffffffffffffffffffffffff16611137565b156112c2578091505061132b565b600160008273ffffffffffffffffffffffffffffffffffffffff1673ffffffffffffffffffffffffffffffffffffffff16815260200190815260200160002060009054906101000a900473ffffffffffffffffffffffffffffffffffffffff169050611243565b505b919050565b60008273ffffffffffffffffffffffffffffffffffffffff16600160008473ffffffffffffffffffffffffffffffffffffffff1673ffffffffffffffffffffffffffffffffffffffff16815260200190815260200160002060009054906101000a900473ffffffffffffffffffffffffffffffffffffffff1673ffffffffffffffffffffffffffffffffffffffff161490509291505056fea264697066735822122061cf643aee04fbb9444f767ce825e67c840410f59d4c02fee380e9bff1cb830b64736f6c63430007060033",
					"opcodes": "PUSH1 0x80 PUSH1 0x40 MSTORE PUSH2 0x2710 PUSH1 0x4 SSTORE PUSH2 0x4E20 PUSH1 0x5 SSTORE PUSH2 0x1388 PUSH1 0x6 SSTORE PUSH2 0x1770 PUSH1 0x7 SSTORE CALLVALUE DUP1 ISZERO PUSH2 0x28 JUMPI PUSH1 0x0 DUP1 REVERT JUMPDEST POP PUSH1 0x1 DUP1 PUSH1 0x0 PUSH1 0x1 PUSH20 0xFFFFFFFFFFFFFFFFFFFFFFFFFFFFFFFFFFFFFFFF AND PUSH20 0xFFFFFFFFFFFFFFFFFFFFFFFFFFFFFFFFFFFFFFFF AND DUP2 MSTORE PUSH1 0x20 ADD SWAP1 DUP2 MSTORE PUSH1 0x20 ADD PUSH1 0x0 KECCAK256 PUSH1 0x0 PUSH2 0x100 EXP DUP2 SLOAD DUP2 PUSH20 0xFFFFFFFFFFFFFFFFFFFFFFFFFFFFFFFFFFFFFFFF MUL NOT AND SWAP1 DUP4 PUSH20 0xFFFFFFFFFFFFFFFFFFFFFFFFFFFFFFFFFFFFFFFF AND MUL OR SWAP1 SSTORE POP PUSH2 0x13FE DUP1 PUSH2 0xB7 PUSH1 0x0 CODECOPY PUSH1 0x0 RETURN INVALID PUSH1 0x80 PUSH1 0x40 MSTORE CALLVALUE DUP1 ISZERO PUSH2 0x10 JUMPI PUSH1 0x0 DUP1 REVERT JUMPDEST POP PUSH1 0x4 CALLDATASIZE LT PUSH2 0xB4 JUMPI PUSH1 0x0 CALLDATALOAD PUSH1 0xE0 SHR DUP1 PUSH4 0x972C5356 GT PUSH2 0x71 JUMPI DUP1 PUSH4 0x972C5356 EQ PUSH2 0x28F JUMPI DUP1 PUSH4 0x9DC29CDB EQ PUSH2 0x2AD JUMPI DUP1 PUSH4 0xB278FA4B EQ PUSH2 0x2FB JUMPI DUP1 PUSH4 0xD4268F4A EQ PUSH2 0x35A JUMPI DUP1 PUSH4 0xDE6E6D3E EQ PUSH2 0x3B5 JUMPI DUP1 PUSH4 0xEAEADAC9 EQ PUSH2 0x40D JUMPI PUSH2 0xB4 JUMP JUMPDEST DUP1 PUSH4 0x1EAB150D EQ PUSH2 0xB9 JUMPI DUP1 PUSH4 0x1F72A7D5 EQ PUSH2 0x113 JUMPI DUP1 PUSH4 0x57344E6F EQ PUSH2 0x157 JUMPI DUP1 PUSH4 0x65D97724 EQ PUSH2 0x1AF JUMPI DUP1 PUSH4 0x7D27D66C EQ PUSH2 0x1FD JUMPI DUP1 PUSH4 0x904FBA8D EQ PUSH2 0x24B JUMPI JUMPDEST PUSH1 0x0 DUP1 REVERT JUMPDEST PUSH2 0xFB PUSH1 0x4 DUP1 CALLDATASIZE SUB PUSH1 0x20 DUP2 LT ISZERO PUSH2 0xCF JUMPI PUSH1 0x0 DUP1 REVERT JUMPDEST DUP2 ADD SWAP1 DUP1 DUP1 CALLDATALOAD PUSH20 0xFFFFFFFFFFFFFFFFFFFFFFFFFFFFFFFFFFFFFFFF AND SWAP1 PUSH1 0x20 ADD SWAP1 SWAP3 SWAP2 SWAP1 POP POP POP PUSH2 0x451 JUMP JUMPDEST PUSH1 0x40 MLOAD DUP1 DUP3 ISZERO ISZERO DUP2 MSTORE PUSH1 0x20 ADD SWAP2 POP POP PUSH1 0x40 MLOAD DUP1 SWAP2 SUB SWAP1 RETURN JUMPDEST PUSH2 0x155 PUSH1 0x4 DUP1 CALLDATASIZE SUB PUSH1 0x20 DUP2 LT ISZERO PUSH2 0x129 JUMPI PUSH1 0x0 DUP1 REVERT JUMPDEST DUP2 ADD SWAP1 DUP1 DUP1 CALLDATALOAD PUSH20 0xFFFFFFFFFFFFFFFFFFFFFFFFFFFFFFFFFFFFFFFF AND SWAP1 PUSH1 0x20 ADD SWAP1 SWAP3 SWAP2 SWAP1 POP POP POP PUSH2 0x478 JUMP JUMPDEST STOP JUMPDEST PUSH2 0x199 PUSH1 0x4 DUP1 CALLDATASIZE SUB PUSH1 0x20 DUP2 LT ISZERO PUSH2 0x16D JUMPI PUSH1 0x0 DUP1 REVERT JUMPDEST DUP2 ADD SWAP1 DUP1 DUP1 CALLDATALOAD PUSH20 0xFFFFFFFFFFFFFFFFFFFFFFFFFFFFFFFFFFFFFFFF AND SWAP1 PUSH1 0x20 ADD SWAP1 SWAP3 SWAP2 SWAP1 POP POP POP PUSH2 0x4E0 JUMP JUMPDEST PUSH1 0x40 MLOAD DUP1 DUP3 DUP2 MSTORE PUSH1 0x20 ADD SWAP2 POP POP PUSH1 0x40 MLOAD DUP1 SWAP2 SUB SWAP1 RETURN JUMPDEST PUSH2 0x1FB PUSH1 0x4 DUP1 CALLDATASIZE SUB PUSH1 0x40 DUP2 LT ISZERO PUSH2 0x1C5 JUMPI PUSH1 0x0 DUP1 REVERT JUMPDEST DUP2 ADD SWAP1 DUP1 DUP1 CALLDATALOAD PUSH20 0xFFFFFFFFFFFFFFFFFFFFFFFFFFFFFFFFFFFFFFFF AND SWAP1 PUSH1 0x20 ADD SWAP1 SWAP3 SWAP2 SWAP1 DUP1 CALLDATALOAD SWAP1 PUSH1 0x20 ADD SWAP1 SWAP3 SWAP2 SWAP1 POP POP POP PUSH2 0x532 JUMP JUMPDEST STOP JUMPDEST PUSH2 0x249 PUSH1 0x4 DUP1 CALLDATASIZE SUB PUSH1 0x40 DUP2 LT ISZERO PUSH2 0x213 JUMPI PUSH1 0x0 DUP1 REVERT JUMPDEST DUP2 ADD SWAP1 DUP1 DUP1 CALLDATALOAD PUSH20 0xFFFFFFFFFFFFFFFFFFFFFFFFFFFFFFFFFFFFFFFF AND SWAP1 PUSH1 0x20 ADD SWAP1 SWAP3 SWAP2 SWAP1 DUP1 CALLDATALOAD SWAP1 PUSH1 0x20 ADD SWAP1 SWAP3 SWAP2 SWAP1 POP POP POP PUSH2 0x6AE JUMP JUMPDEST STOP JUMPDEST PUSH2 0x28D PUSH1 0x4 DUP1 CALLDATASIZE SUB PUSH1 0x20 DUP2 LT ISZERO PUSH2 0x261 JUMPI PUSH1 0x0 DUP1 REVERT JUMPDEST DUP2 ADD SWAP1 DUP1 DUP1 CALLDATALOAD PUSH20 0xFFFFFFFFFFFFFFFFFFFFFFFFFFFFFFFFFFFFFFFF AND SWAP1 PUSH1 0x20 ADD SWAP1 SWAP3 SWAP2 SWAP1 POP POP POP PUSH2 0x908 JUMP JUMPDEST STOP JUMPDEST PUSH2 0x297 PUSH2 0xA7A JUMP JUMPDEST PUSH1 0x40 MLOAD DUP1 DUP3 DUP2 MSTORE PUSH1 0x20 ADD SWAP2 POP POP PUSH1 0x40 MLOAD DUP1 SWAP2 SUB SWAP1 RETURN JUMPDEST PUSH2 0x2F9 PUSH1 0x4 DUP1 CALLDATASIZE SUB PUSH1 0x40 DUP2 LT ISZERO PUSH2 0x2C3 JUMPI PUSH1 0x0 DUP1 REVERT JUMPDEST DUP2 ADD SWAP1 DUP1 DUP1 CALLDATALOAD PUSH20 0xFFFFFFFFFFFFFFFFFFFFFFFFFFFFFFFFFFFFFFFF AND SWAP1 PUSH1 0x20 ADD SWAP1 SWAP3 SWAP2 SWAP1 DUP1 CALLDATALOAD SWAP1 PUSH1 0x20 ADD SWAP1 SWAP3 SWAP2 SWAP1 POP POP POP PUSH2 0xA80 JUMP JUMPDEST STOP JUMPDEST PUSH2 0x303 PUSH2 0xB94 JUMP JUMPDEST PUSH1 0x40 MLOAD DUP1 DUP1 PUSH1 0x20 ADD DUP3 DUP2 SUB DUP3 MSTORE DUP4 DUP2 DUP2 MLOAD DUP2 MSTORE PUSH1 0x20 ADD SWAP2 POP DUP1 MLOAD SWAP1 PUSH1 0x20 ADD SWAP1 PUSH1 0x20 MUL DUP1 DUP4 DUP4 PUSH1 0x0 JUMPDEST DUP4 DUP2 LT ISZERO PUSH2 0x346 JUMPI DUP1 DUP3 ADD MLOAD DUP2 DUP5 ADD MSTORE PUSH1 0x20 DUP2 ADD SWAP1 POP PUSH2 0x32B JUMP JUMPDEST POP POP POP POP SWAP1 POP ADD SWAP3 POP POP POP PUSH1 0x40 MLOAD DUP1 SWAP2 SUB SWAP1 RETURN JUMPDEST PUSH2 0x39C PUSH1 0x4 DUP1 CALLDATASIZE SUB PUSH1 0x20 DUP2 LT ISZERO PUSH2 0x370 JUMPI PUSH1 0x0 DUP1 REVERT JUMPDEST DUP2 ADD SWAP1 DUP1 DUP1 CALLDATALOAD PUSH20 0xFFFFFFFFFFFFFFFFFFFFFFFFFFFFFFFFFFFFFFFF AND SWAP1 PUSH1 0x20 ADD SWAP1 SWAP3 SWAP2 SWAP1 POP POP POP PUSH2 0xD21 JUMP JUMPDEST PUSH1 0x40 MLOAD DUP1 DUP3 PUSH1 0xFF AND DUP2 MSTORE PUSH1 0x20 ADD SWAP2 POP POP PUSH1 0x40 MLOAD DUP1 SWAP2 SUB SWAP1 RETURN JUMPDEST PUSH2 0x3F7 PUSH1 0x4 DUP1 CALLDATASIZE SUB PUSH1 0x20 DUP2 LT ISZERO PUSH2 0x3CB JUMPI PUSH1 0x0 DUP1 REVERT JUMPDEST DUP2 ADD SWAP1 DUP1 DUP1 CALLDATALOAD PUSH20 0xFFFFFFFFFFFFFFFFFFFFFFFFFFFFFFFFFFFFFFFF AND SWAP1 PUSH1 0x20 ADD SWAP1 SWAP3 SWAP2 SWAP1 POP POP POP PUSH2 0xD41 JUMP JUMPDEST PUSH1 0x40 MLOAD DUP1 DUP3 DUP2 MSTORE PUSH1 0x20 ADD SWAP2 POP POP PUSH1 0x40 MLOAD DUP1 SWAP2 SUB SWAP1 RETURN JUMPDEST PUSH2 0x44F PUSH1 0x4 DUP1 CALLDATASIZE SUB PUSH1 0x20 DUP2 LT ISZERO PUSH2 0x423 JUMPI PUSH1 0x0 DUP1 REVERT JUMPDEST DUP2 ADD SWAP1 DUP1 DUP1 CALLDATALOAD PUSH20 0xFFFFFFFFFFFFFFFFFFFFFFFFFFFFFFFFFFFFFFFF AND SWAP1 PUSH1 0x20 ADD SWAP1 SWAP3 SWAP2 SWAP1 POP POP POP PUSH2 0xD59 JUMP JUMPDEST STOP JUMPDEST PUSH1 0x0 PUSH2 0x45C DUP3 PUSH2 0xFB6 JUMP JUMPDEST DUP1 ISZERO PUSH2 0x471 JUMPI POP PUSH1 0x32 PUSH2 0x46E DUP4 PUSH2 0x4E0 JUMP JUMPDEST LT ISZERO JUMPDEST SWAP1 POP SWAP2 SWAP1 POP JUMP JUMPDEST PUSH2 0x484 DUP2 PUSH1 0x4 SLOAD PUSH2 0x6AE JUMP JUMPDEST PUSH1 0x0 PUSH1 0x3 PUSH1 0x0 DUP4 PUSH20 0xFFFFFFFFFFFFFFFFFFFFFFFFFFFFFFFFFFFFFFFF AND PUSH20 0xFFFFFFFFFFFFFFFFFFFFFFFFFFFFFFFFFFFFFFFF AND DUP2 MSTORE PUSH1 0x20 ADD SWAP1 DUP2 MSTORE PUSH1 0x20 ADD PUSH1 0x0 KECCAK256 PUSH1 0x0 PUSH2 0x100 EXP DUP2 SLOAD DUP2 PUSH1 0xFF MUL NOT AND SWAP1 DUP4 PUSH1 0xFF AND MUL OR SWAP1 SSTORE POP POP JUMP JUMPDEST PUSH1 0x0 PUSH1 0x64 PUSH1 0x0 DUP1 DUP5 PUSH20 0xFFFFFFFFFFFFFFFFFFFFFFFFFFFFFFFFFFFFFFFF AND PUSH20 0xFFFFFFFFFFFFFFFFFFFFFFFFFFFFFFFFFFFFFFFF AND DUP2 MSTORE PUSH1 0x20 ADD SWAP1 DUP2 MSTORE PUSH1 0x20 ADD PUSH1 0x0 KECCAK256 SLOAD DUP2 PUSH2 0x52A JUMPI INVALID JUMPDEST DIV SWAP1 POP SWAP2 SWAP1 POP JUMP JUMPDEST PUSH1 0x0 PUSH20 0xFFFFFFFFFFFFFFFFFFFFFFFFFFFFFFFFFFFFFFFF AND PUSH1 0x1 PUSH1 0x0 DUP5 PUSH20 0xFFFFFFFFFFFFFFFFFFFFFFFFFFFFFFFFFFFFFFFF AND PUSH20 0xFFFFFFFFFFFFFFFFFFFFFFFFFFFFFFFFFFFFFFFF AND DUP2 MSTORE PUSH1 0x20 ADD SWAP1 DUP2 MSTORE PUSH1 0x20 ADD PUSH1 0x0 KECCAK256 PUSH1 0x0 SWAP1 SLOAD SWAP1 PUSH2 0x100 EXP SWAP1 DIV PUSH20 0xFFFFFFFFFFFFFFFFFFFFFFFFFFFFFFFFFFFFFFFF AND PUSH20 0xFFFFFFFFFFFFFFFFFFFFFFFFFFFFFFFFFFFFFFFF AND EQ ISZERO PUSH2 0x5CB JUMPI PUSH1 0x0 DUP1 REVERT JUMPDEST PUSH1 0x0 PUSH2 0x5D6 DUP4 PUSH2 0x1012 JUMP JUMPDEST SWAP1 POP PUSH1 0x0 PUSH1 0x1 PUSH1 0x0 DUP6 PUSH20 0xFFFFFFFFFFFFFFFFFFFFFFFFFFFFFFFFFFFFFFFF AND PUSH20 0xFFFFFFFFFFFFFFFFFFFFFFFFFFFFFFFFFFFFFFFF AND DUP2 MSTORE PUSH1 0x20 ADD SWAP1 DUP2 MSTORE PUSH1 0x20 ADD PUSH1 0x0 KECCAK256 PUSH1 0x0 SWAP1 SLOAD SWAP1 PUSH2 0x100 EXP SWAP1 DIV PUSH20 0xFFFFFFFFFFFFFFFFFFFFFFFFFFFFFFFFFFFFFFFF AND SWAP1 POP PUSH2 0x647 DUP3 DUP5 DUP4 PUSH2 0x1137 JUMP JUMPDEST ISZERO PUSH2 0x694 JUMPI DUP3 PUSH1 0x0 DUP1 DUP7 PUSH20 0xFFFFFFFFFFFFFFFFFFFFFFFFFFFFFFFFFFFFFFFF AND PUSH20 0xFFFFFFFFFFFFFFFFFFFFFFFFFFFFFFFFFFFFFFFF AND DUP2 MSTORE PUSH1 0x20 ADD SWAP1 DUP2 MSTORE PUSH1 0x20 ADD PUSH1 0x0 KECCAK256 DUP2 SWAP1 SSTORE POP PUSH2 0x6A8 JUMP JUMPDEST PUSH2 0x69D DUP5 PUSH2 0xD59 JUMP JUMPDEST PUSH2 0x6A7 DUP5 DUP5 PUSH2 0x6AE JUMP JUMPDEST JUMPDEST POP POP POP POP JUMP JUMPDEST PUSH1 0x0 PUSH20 0xFFFFFFFFFFFFFFFFFFFFFFFFFFFFFFFFFFFFFFFF AND PUSH1 0x1 PUSH1 0x0 DUP5 PUSH20 0xFFFFFFFFFFFFFFFFFFFFFFFFFFFFFFFFFFFFFFFF AND PUSH20 0xFFFFFFFFFFFFFFFFFFFFFFFFFFFFFFFFFFFFFFFF AND DUP2 MSTORE PUSH1 0x20 ADD SWAP1 DUP2 MSTORE PUSH1 0x20 ADD PUSH1 0x0 KECCAK256 PUSH1 0x0 SWAP1 SLOAD SWAP1 PUSH2 0x100 EXP SWAP1 DIV PUSH20 0xFFFFFFFFFFFFFFFFFFFFFFFFFFFFFFFFFFFFFFFF AND PUSH20 0xFFFFFFFFFFFFFFFFFFFFFFFFFFFFFFFFFFFFFFFF AND EQ PUSH2 0x746 JUMPI PUSH1 0x0 DUP1 REVERT JUMPDEST PUSH1 0x0 PUSH2 0x751 DUP3 PUSH2 0x123B JUMP JUMPDEST SWAP1 POP DUP2 PUSH1 0x0 DUP1 DUP6 PUSH20 0xFFFFFFFFFFFFFFFFFFFFFFFFFFFFFFFFFFFFFFFF AND PUSH20 0xFFFFFFFFFFFFFFFFFFFFFFFFFFFFFFFFFFFFFFFF AND DUP2 MSTORE PUSH1 0x20 ADD SWAP1 DUP2 MSTORE PUSH1 0x20 ADD PUSH1 0x0 KECCAK256 DUP2 SWAP1 SSTORE POP PUSH1 0x1 PUSH1 0x0 DUP3 PUSH20 0xFFFFFFFFFFFFFFFFFFFFFFFFFFFFFFFFFFFFFFFF AND PUSH20 0xFFFFFFFFFFFFFFFFFFFFFFFFFFFFFFFFFFFFFFFF AND DUP2 MSTORE PUSH1 0x20 ADD SWAP1 DUP2 MSTORE PUSH1 0x20 ADD PUSH1 0x0 KECCAK256 PUSH1 0x0 SWAP1 SLOAD SWAP1 PUSH2 0x100 EXP SWAP1 DIV PUSH20 0xFFFFFFFFFFFFFFFFFFFFFFFFFFFFFFFFFFFFFFFF AND PUSH1 0x1 PUSH1 0x0 DUP6 PUSH20 0xFFFFFFFFFFFFFFFFFFFFFFFFFFFFFFFFFFFFFFFF AND PUSH20 0xFFFFFFFFFFFFFFFFFFFFFFFFFFFFFFFFFFFFFFFF AND DUP2 MSTORE PUSH1 0x20 ADD SWAP1 DUP2 MSTORE PUSH1 0x20 ADD PUSH1 0x0 KECCAK256 PUSH1 0x0 PUSH2 0x100 EXP DUP2 SLOAD DUP2 PUSH20 0xFFFFFFFFFFFFFFFFFFFFFFFFFFFFFFFFFFFFFFFF MUL NOT AND SWAP1 DUP4 PUSH20 0xFFFFFFFFFFFFFFFFFFFFFFFFFFFFFFFFFFFFFFFF AND MUL OR SWAP1 SSTORE POP DUP3 PUSH1 0x1 PUSH1 0x0 DUP4 PUSH20 0xFFFFFFFFFFFFFFFFFFFFFFFFFFFFFFFFFFFFFFFF AND PUSH20 0xFFFFFFFFFFFFFFFFFFFFFFFFFFFFFFFFFFFFFFFF AND DUP2 MSTORE PUSH1 0x20 ADD SWAP1 DUP2 MSTORE PUSH1 0x20 ADD PUSH1 0x0 KECCAK256 PUSH1 0x0 PUSH2 0x100 EXP DUP2 SLOAD DUP2 PUSH20 0xFFFFFFFFFFFFFFFFFFFFFFFFFFFFFFFFFFFFFFFF MUL NOT AND SWAP1 DUP4 PUSH20 0xFFFFFFFFFFFFFFFFFFFFFFFFFFFFFFFFFFFFFFFF AND MUL OR SWAP1 SSTORE POP PUSH1 0x2 PUSH1 0x0 DUP2 SLOAD DUP1 SWAP3 SWAP2 SWAP1 PUSH1 0x1 ADD SWAP2 SWAP1 POP SSTORE POP POP POP POP JUMP JUMPDEST PUSH1 0x0 DUP1 PUSH1 0x0 DUP4 PUSH20 0xFFFFFFFFFFFFFFFFFFFFFFFFFFFFFFFFFFFFFFFF AND PUSH20 0xFFFFFFFFFFFFFFFFFFFFFFFFFFFFFFFFFFFFFFFF AND DUP2 MSTORE PUSH1 0x20 ADD SWAP1 DUP2 MSTORE PUSH1 0x20 ADD PUSH1 0x0 KECCAK256 SLOAD SWAP1 POP PUSH1 0x0 PUSH1 0x40 MLOAD DUP1 PUSH1 0xC0 ADD PUSH1 0x40 MSTORE DUP1 PUSH1 0x0 PUSH2 0xFFFF AND DUP2 MSTORE PUSH1 0x20 ADD PUSH2 0x2710 PUSH2 0xFFFF AND DUP2 MSTORE PUSH1 0x20 ADD PUSH2 0x2AF8 PUSH2 0xFFFF AND DUP2 MSTORE PUSH1 0x20 ADD PUSH2 0x3A98 PUSH2 0xFFFF AND DUP2 MSTORE PUSH1 0x20 ADD PUSH2 0x4650 PUSH2 0xFFFF AND DUP2 MSTORE PUSH1 0x20 ADD PUSH2 0x4E20 PUSH2 0xFFFF AND DUP2 MSTORE POP SWAP1 POP PUSH1 0x0 PUSH1 0x40 MLOAD DUP1 PUSH1 0xA0 ADD PUSH1 0x40 MSTORE DUP1 PUSH1 0x64 PUSH1 0xFF AND DUP2 MSTORE PUSH1 0x20 ADD PUSH1 0x60 PUSH1 0xFF AND DUP2 MSTORE PUSH1 0x20 ADD PUSH1 0x10 PUSH1 0xFF AND DUP2 MSTORE PUSH1 0x20 ADD PUSH1 0x5 PUSH1 0xFF AND DUP2 MSTORE PUSH1 0x20 ADD PUSH1 0x1 PUSH1 0xFF AND DUP2 MSTORE POP SWAP1 POP PUSH1 0x5 SLOAD DUP4 LT ISZERO PUSH2 0xA74 JUMPI PUSH1 0x0 DUP1 PUSH1 0x1 SWAP1 POP JUMPDEST PUSH1 0x6 DUP2 LT ISZERO PUSH2 0xA67 JUMPI DUP5 DUP5 DUP4 PUSH1 0x6 DUP2 LT PUSH2 0xA06 JUMPI INVALID JUMPDEST PUSH1 0x20 MUL ADD MLOAD PUSH2 0xFFFF AND GT ISZERO DUP1 ISZERO PUSH2 0xA30 JUMPI POP DUP4 DUP2 PUSH1 0x6 DUP2 LT PUSH2 0xA24 JUMPI INVALID JUMPDEST PUSH1 0x20 MUL ADD MLOAD PUSH2 0xFFFF AND DUP6 LT JUMPDEST ISZERO PUSH2 0xA52 JUMPI DUP3 DUP3 PUSH1 0x5 DUP2 LT PUSH2 0xA41 JUMPI INVALID JUMPDEST PUSH1 0x20 MUL ADD MLOAD PUSH1 0xFF AND DUP6 ADD SWAP5 POP PUSH2 0xA67 JUMP JUMPDEST DUP2 DUP1 PUSH1 0x1 ADD SWAP3 POP POP DUP1 DUP1 PUSH1 0x1 ADD SWAP2 POP POP PUSH2 0x9F0 JUMP JUMPDEST PUSH2 0xA71 DUP7 DUP7 PUSH2 0x532 JUMP JUMPDEST POP POP JUMPDEST POP POP POP POP JUMP JUMPDEST PUSH1 0x2 SLOAD DUP2 JUMP JUMPDEST PUSH1 0x0 DUP1 PUSH1 0x0 DUP5 PUSH20 0xFFFFFFFFFFFFFFFFFFFFFFFFFFFFFFFFFFFFFFFF AND PUSH20 0xFFFFFFFFFFFFFFFFFFFFFFFFFFFFFFFFFFFFFFFF AND DUP2 MSTORE PUSH1 0x20 ADD SWAP1 DUP2 MSTORE PUSH1 0x20 ADD PUSH1 0x0 KECCAK256 SLOAD SWAP1 POP PUSH1 0x64 DUP3 MUL SWAP2 POP DUP2 DUP2 SUB SWAP1 POP PUSH1 0x32 DUP2 LT ISZERO PUSH2 0xB85 JUMPI PUSH1 0x0 PUSH1 0x3 PUSH1 0x0 DUP6 PUSH20 0xFFFFFFFFFFFFFFFFFFFFFFFFFFFFFFFFFFFFFFFF AND PUSH20 0xFFFFFFFFFFFFFFFFFFFFFFFFFFFFFFFFFFFFFFFF AND DUP2 MSTORE PUSH1 0x20 ADD SWAP1 DUP2 MSTORE PUSH1 0x20 ADD PUSH1 0x0 KECCAK256 PUSH1 0x0 SWAP1 SLOAD SWAP1 PUSH2 0x100 EXP SWAP1 DIV PUSH1 0xFF AND SWAP1 POP PUSH1 0x1 DUP2 ADD PUSH1 0x3 PUSH1 0x0 DUP7 PUSH20 0xFFFFFFFFFFFFFFFFFFFFFFFFFFFFFFFFFFFFFFFF AND PUSH20 0xFFFFFFFFFFFFFFFFFFFFFFFFFFFFFFFFFFFFFFFF AND DUP2 MSTORE PUSH1 0x20 ADD SWAP1 DUP2 MSTORE PUSH1 0x20 ADD PUSH1 0x0 KECCAK256 PUSH1 0x0 PUSH2 0x100 EXP DUP2 SLOAD DUP2 PUSH1 0xFF MUL NOT AND SWAP1 DUP4 PUSH1 0xFF AND MUL OR SWAP1 SSTORE POP POP JUMPDEST PUSH2 0xB8F DUP4 DUP3 PUSH2 0x532 JUMP JUMPDEST POP POP POP JUMP JUMPDEST PUSH1 0x60 PUSH1 0xA PUSH1 0x2 SLOAD GT PUSH2 0xBA5 JUMPI PUSH1 0x0 DUP1 REVERT JUMPDEST PUSH1 0x0 PUSH1 0xA PUSH8 0xFFFFFFFFFFFFFFFF DUP2 GT DUP1 ISZERO PUSH2 0xBBF JUMPI PUSH1 0x0 DUP1 REVERT JUMPDEST POP PUSH1 0x40 MLOAD SWAP1 DUP1 DUP3 MSTORE DUP1 PUSH1 0x20 MUL PUSH1 0x20 ADD DUP3 ADD PUSH1 0x40 MSTORE DUP1 ISZERO PUSH2 0xBEE JUMPI DUP2 PUSH1 0x20 ADD PUSH1 0x20 DUP3 MUL DUP1 CALLDATASIZE DUP4 CALLDATACOPY DUP1 DUP3 ADD SWAP2 POP POP SWAP1 POP JUMPDEST POP SWAP1 POP PUSH1 0x0 PUSH1 0x1 PUSH1 0x0 PUSH1 0x1 PUSH20 0xFFFFFFFFFFFFFFFFFFFFFFFFFFFFFFFFFFFFFFFF AND PUSH20 0xFFFFFFFFFFFFFFFFFFFFFFFFFFFFFFFFFFFFFFFF AND DUP2 MSTORE PUSH1 0x20 ADD SWAP1 DUP2 MSTORE PUSH1 0x20 ADD PUSH1 0x0 KECCAK256 PUSH1 0x0 SWAP1 SLOAD SWAP1 PUSH2 0x100 EXP SWAP1 DIV PUSH20 0xFFFFFFFFFFFFFFFFFFFFFFFFFFFFFFFFFFFFFFFF AND SWAP1 POP PUSH1 0x0 JUMPDEST PUSH1 0xA DUP2 LT ISZERO PUSH2 0xD18 JUMPI DUP2 DUP4 DUP3 DUP2 MLOAD DUP2 LT PUSH2 0xC6F JUMPI INVALID JUMPDEST PUSH1 0x20 MUL PUSH1 0x20 ADD ADD SWAP1 PUSH20 0xFFFFFFFFFFFFFFFFFFFFFFFFFFFFFFFFFFFFFFFF AND SWAP1 DUP2 PUSH20 0xFFFFFFFFFFFFFFFFFFFFFFFFFFFFFFFFFFFFFFFF AND DUP2 MSTORE POP POP PUSH1 0x1 PUSH1 0x0 DUP4 PUSH20 0xFFFFFFFFFFFFFFFFFFFFFFFFFFFFFFFFFFFFFFFF AND PUSH20 0xFFFFFFFFFFFFFFFFFFFFFFFFFFFFFFFFFFFFFFFF AND DUP2 MSTORE PUSH1 0x20 ADD SWAP1 DUP2 MSTORE PUSH1 0x20 ADD PUSH1 0x0 KECCAK256 PUSH1 0x0 SWAP1 SLOAD SWAP1 PUSH2 0x100 EXP SWAP1 DIV PUSH20 0xFFFFFFFFFFFFFFFFFFFFFFFFFFFFFFFFFFFFFFFF AND SWAP2 POP DUP1 DUP1 PUSH1 0x1 ADD SWAP2 POP POP PUSH2 0xC59 JUMP JUMPDEST POP DUP2 SWAP3 POP POP POP SWAP1 JUMP JUMPDEST PUSH1 0x3 PUSH1 0x20 MSTORE DUP1 PUSH1 0x0 MSTORE PUSH1 0x40 PUSH1 0x0 KECCAK256 PUSH1 0x0 SWAP2 POP SLOAD SWAP1 PUSH2 0x100 EXP SWAP1 DIV PUSH1 0xFF AND DUP2 JUMP JUMPDEST PUSH1 0x0 PUSH1 0x20 MSTORE DUP1 PUSH1 0x0 MSTORE PUSH1 0x40 PUSH1 0x0 KECCAK256 PUSH1 0x0 SWAP2 POP SWAP1 POP SLOAD DUP2 JUMP JUMPDEST PUSH1 0x0 PUSH20 0xFFFFFFFFFFFFFFFFFFFFFFFFFFFFFFFFFFFFFFFF AND PUSH1 0x1 PUSH1 0x0 DUP4 PUSH20 0xFFFFFFFFFFFFFFFFFFFFFFFFFFFFFFFFFFFFFFFF AND PUSH20 0xFFFFFFFFFFFFFFFFFFFFFFFFFFFFFFFFFFFFFFFF AND DUP2 MSTORE PUSH1 0x20 ADD SWAP1 DUP2 MSTORE PUSH1 0x20 ADD PUSH1 0x0 KECCAK256 PUSH1 0x0 SWAP1 SLOAD SWAP1 PUSH2 0x100 EXP SWAP1 DIV PUSH20 0xFFFFFFFFFFFFFFFFFFFFFFFFFFFFFFFFFFFFFFFF AND PUSH20 0xFFFFFFFFFFFFFFFFFFFFFFFFFFFFFFFFFFFFFFFF AND EQ ISZERO PUSH2 0xDF2 JUMPI PUSH1 0x0 DUP1 REVERT JUMPDEST PUSH1 0x0 PUSH2 0xDFD DUP3 PUSH2 0x1012 JUMP JUMPDEST SWAP1 POP PUSH1 0x1 PUSH1 0x0 DUP4 PUSH20 0xFFFFFFFFFFFFFFFFFFFFFFFFFFFFFFFFFFFFFFFF AND PUSH20 0xFFFFFFFFFFFFFFFFFFFFFFFFFFFFFFFFFFFFFFFF AND DUP2 MSTORE PUSH1 0x20 ADD SWAP1 DUP2 MSTORE PUSH1 0x20 ADD PUSH1 0x0 KECCAK256 PUSH1 0x0 SWAP1 SLOAD SWAP1 PUSH2 0x100 EXP SWAP1 DIV PUSH20 0xFFFFFFFFFFFFFFFFFFFFFFFFFFFFFFFFFFFFFFFF AND PUSH1 0x1 PUSH1 0x0 DUP4 PUSH20 0xFFFFFFFFFFFFFFFFFFFFFFFFFFFFFFFFFFFFFFFF AND PUSH20 0xFFFFFFFFFFFFFFFFFFFFFFFFFFFFFFFFFFFFFFFF AND DUP2 MSTORE PUSH1 0x20 ADD SWAP1 DUP2 MSTORE PUSH1 0x20 ADD PUSH1 0x0 KECCAK256 PUSH1 0x0 PUSH2 0x100 EXP DUP2 SLOAD DUP2 PUSH20 0xFFFFFFFFFFFFFFFFFFFFFFFFFFFFFFFFFFFFFFFF MUL NOT AND SWAP1 DUP4 PUSH20 0xFFFFFFFFFFFFFFFFFFFFFFFFFFFFFFFFFFFFFFFF AND MUL OR SWAP1 SSTORE POP PUSH1 0x0 PUSH1 0x1 PUSH1 0x0 DUP5 PUSH20 0xFFFFFFFFFFFFFFFFFFFFFFFFFFFFFFFFFFFFFFFF AND PUSH20 0xFFFFFFFFFFFFFFFFFFFFFFFFFFFFFFFFFFFFFFFF AND DUP2 MSTORE PUSH1 0x20 ADD SWAP1 DUP2 MSTORE PUSH1 0x20 ADD PUSH1 0x0 KECCAK256 PUSH1 0x0 PUSH2 0x100 EXP DUP2 SLOAD DUP2 PUSH20 0xFFFFFFFFFFFFFFFFFFFFFFFFFFFFFFFFFFFFFFFF MUL NOT AND SWAP1 DUP4 PUSH20 0xFFFFFFFFFFFFFFFFFFFFFFFFFFFFFFFFFFFFFFFF AND MUL OR SWAP1 SSTORE POP PUSH1 0x0 DUP1 PUSH1 0x0 DUP5 PUSH20 0xFFFFFFFFFFFFFFFFFFFFFFFFFFFFFFFFFFFFFFFF AND PUSH20 0xFFFFFFFFFFFFFFFFFFFFFFFFFFFFFFFFFFFFFFFF AND DUP2 MSTORE PUSH1 0x20 ADD SWAP1 DUP2 MSTORE PUSH1 0x20 ADD PUSH1 0x0 KECCAK256 DUP2 SWAP1 SSTORE POP PUSH1 0x2 PUSH1 0x0 DUP2 SLOAD DUP1 SWAP3 SWAP2 SWAP1 PUSH1 0x1 SWAP1 SUB SWAP2 SWAP1 POP SSTORE POP POP POP JUMP JUMPDEST PUSH1 0x0 PUSH1 0x2 PUSH1 0x3 PUSH1 0x0 DUP5 PUSH20 0xFFFFFFFFFFFFFFFFFFFFFFFFFFFFFFFFFFFFFFFF AND PUSH20 0xFFFFFFFFFFFFFFFFFFFFFFFFFFFFFFFFFFFFFFFF AND DUP2 MSTORE PUSH1 0x20 ADD SWAP1 DUP2 MSTORE PUSH1 0x20 ADD PUSH1 0x0 KECCAK256 PUSH1 0x0 SWAP1 SLOAD SWAP1 PUSH2 0x100 EXP SWAP1 DIV PUSH1 0xFF AND PUSH1 0xFF AND LT SWAP1 POP SWAP2 SWAP1 POP JUMP JUMPDEST PUSH1 0x0 DUP1 PUSH1 0x1 SWAP1 POP JUMPDEST PUSH1 0x1 PUSH20 0xFFFFFFFFFFFFFFFFFFFFFFFFFFFFFFFFFFFFFFFF AND PUSH1 0x1 PUSH1 0x0 DUP4 PUSH20 0xFFFFFFFFFFFFFFFFFFFFFFFFFFFFFFFFFFFFFFFF AND PUSH20 0xFFFFFFFFFFFFFFFFFFFFFFFFFFFFFFFFFFFFFFFF AND DUP2 MSTORE PUSH1 0x20 ADD SWAP1 DUP2 MSTORE PUSH1 0x20 ADD PUSH1 0x0 KECCAK256 PUSH1 0x0 SWAP1 SLOAD SWAP1 PUSH2 0x100 EXP SWAP1 DIV PUSH20 0xFFFFFFFFFFFFFFFFFFFFFFFFFFFFFFFFFFFFFFFF AND PUSH20 0xFFFFFFFFFFFFFFFFFFFFFFFFFFFFFFFFFFFFFFFF AND EQ PUSH2 0x112C JUMPI PUSH2 0x10B7 DUP4 DUP3 PUSH2 0x1330 JUMP JUMPDEST ISZERO PUSH2 0x10C5 JUMPI DUP1 SWAP2 POP POP PUSH2 0x1132 JUMP JUMPDEST PUSH1 0x1 PUSH1 0x0 DUP3 PUSH20 0xFFFFFFFFFFFFFFFFFFFFFFFFFFFFFFFFFFFFFFFF AND PUSH20 0xFFFFFFFFFFFFFFFFFFFFFFFFFFFFFFFFFFFFFFFF AND DUP2 MSTORE PUSH1 0x20 ADD SWAP1 DUP2 MSTORE PUSH1 0x20 ADD PUSH1 0x0 KECCAK256 PUSH1 0x0 SWAP1 SLOAD SWAP1 PUSH2 0x100 EXP SWAP1 DIV PUSH20 0xFFFFFFFFFFFFFFFFFFFFFFFFFFFFFFFFFFFFFFFF AND SWAP1 POP PUSH2 0x101A JUMP JUMPDEST PUSH1 0x0 SWAP2 POP POP JUMPDEST SWAP2 SWAP1 POP JUMP JUMPDEST PUSH1 0x0 PUSH1 0x1 PUSH20 0xFFFFFFFFFFFFFFFFFFFFFFFFFFFFFFFFFFFFFFFF AND DUP5 PUSH20 0xFFFFFFFFFFFFFFFFFFFFFFFFFFFFFFFFFFFFFFFF AND EQ DUP1 PUSH2 0x11B2 JUMPI POP DUP3 PUSH1 0x0 DUP1 DUP7 PUSH20 0xFFFFFFFFFFFFFFFFFFFFFFFFFFFFFFFFFFFFFFFF AND PUSH20 0xFFFFFFFFFFFFFFFFFFFFFFFFFFFFFFFFFFFFFFFF AND DUP2 MSTORE PUSH1 0x20 ADD SWAP1 DUP2 MSTORE PUSH1 0x20 ADD PUSH1 0x0 KECCAK256 SLOAD LT ISZERO JUMPDEST DUP1 ISZERO PUSH2 0x1232 JUMPI POP PUSH1 0x1 PUSH20 0xFFFFFFFFFFFFFFFFFFFFFFFFFFFFFFFFFFFFFFFF AND DUP3 PUSH20 0xFFFFFFFFFFFFFFFFFFFFFFFFFFFFFFFFFFFFFFFF AND EQ DUP1 PUSH2 0x1231 JUMPI POP PUSH1 0x0 DUP1 DUP4 PUSH20 0xFFFFFFFFFFFFFFFFFFFFFFFFFFFFFFFFFFFFFFFF AND PUSH20 0xFFFFFFFFFFFFFFFFFFFFFFFFFFFFFFFFFFFFFFFF AND DUP2 MSTORE PUSH1 0x20 ADD SWAP1 DUP2 MSTORE PUSH1 0x20 ADD PUSH1 0x0 KECCAK256 SLOAD DUP4 GT JUMPDEST JUMPDEST SWAP1 POP SWAP4 SWAP3 POP POP POP JUMP JUMPDEST PUSH1 0x0 DUP1 PUSH1 0x1 SWAP1 POP JUMPDEST PUSH1 0x1 ISZERO PUSH2 0x1329 JUMPI PUSH2 0x12B4 DUP2 DUP5 PUSH1 0x1 PUSH1 0x0 DUP6 PUSH20 0xFFFFFFFFFFFFFFFFFFFFFFFFFFFFFFFFFFFFFFFF AND PUSH20 0xFFFFFFFFFFFFFFFFFFFFFFFFFFFFFFFFFFFFFFFF AND DUP2 MSTORE PUSH1 0x20 ADD SWAP1 DUP2 MSTORE PUSH1 0x20 ADD PUSH1 0x0 KECCAK256 PUSH1 0x0 SWAP1 SLOAD SWAP1 PUSH2 0x100 EXP SWAP1 DIV PUSH20 0xFFFFFFFFFFFFFFFFFFFFFFFFFFFFFFFFFFFFFFFF AND PUSH2 0x1137 JUMP JUMPDEST ISZERO PUSH2 0x12C2 JUMPI DUP1 SWAP2 POP POP PUSH2 0x132B JUMP JUMPDEST PUSH1 0x1 PUSH1 0x0 DUP3 PUSH20 0xFFFFFFFFFFFFFFFFFFFFFFFFFFFFFFFFFFFFFFFF AND PUSH20 0xFFFFFFFFFFFFFFFFFFFFFFFFFFFFFFFFFFFFFFFF AND DUP2 MSTORE PUSH1 0x20 ADD SWAP1 DUP2 MSTORE PUSH1 0x20 ADD PUSH1 0x0 KECCAK256 PUSH1 0x0 SWAP1 SLOAD SWAP1 PUSH2 0x100 EXP SWAP1 DIV PUSH20 0xFFFFFFFFFFFFFFFFFFFFFFFFFFFFFFFFFFFFFFFF AND SWAP1 POP PUSH2 0x1243 JUMP JUMPDEST POP JUMPDEST SWAP2 SWAP1 POP JUMP JUMPDEST PUSH1 0x0 DUP3 PUSH20 0xFFFFFFFFFFFFFFFFFFFFFFFFFFFFFFFFFFFFFFFF AND PUSH1 0x1 PUSH1 0x0 DUP5 PUSH20 0xFFFFFFFFFFFFFFFFFFFFFFFFFFFFFFFFFFFFFFFF AND PUSH20 0xFFFFFFFFFFFFFFFFFFFFFFFFFFFFFFFFFFFFFFFF AND DUP2 MSTORE PUSH1 0x20 ADD SWAP1 DUP2 MSTORE PUSH1 0x20 ADD PUSH1 0x0 KECCAK256 PUSH1 0x0 SWAP1 SLOAD SWAP1 PUSH2 0x100 EXP SWAP1 DIV PUSH20 0xFFFFFFFFFFFFFFFFFFFFFFFFFFFFFFFFFFFFFFFF AND PUSH20 0xFFFFFFFFFFFFFFFFFFFFFFFFFFFFFFFFFFFFFFFF AND EQ SWAP1 POP SWAP3 SWAP2 POP POP JUMP INVALID LOG2 PUSH5 0x6970667358 0x22 SLT KECCAK256 PUSH2 0xCF64 GASPRICE 0xEE DIV 0xFB 0xB9 DIFFICULTY 0x4F PUSH23 0x7CE825E67C840410F59D4C02FEE380E9BFF1CB830B6473 PUSH16 0x6C634300070600330000000000000000 "
				},
				"gasEstimates": {
					"creation": {
						"codeDepositCost": "1023600",
						"executionCost": "102042",
						"totalCost": "1125642"
					},
					"external": {
						"addCredit(address,uint256)": "infinite",
						"decCredit(address,uint256)": "infinite",
						"getCredit(address)": "1266",
						"getTopTen()": "infinite",
						"incCredit(address)": "infinite",
						"isProjectable(address)": "2286",
						"listSize()": "1005",
						"qualifiable(address)": "1266",
						"removeCredit(address)": "infinite",
						"setCredit(address)": "infinite",
						"updateScore(address,uint256)": "infinite",
						"user2credit(address)": "1257"
					},
					"internal": {
						"_findIndex(uint256)": "infinite",
						"_findPrev(address)": "infinite",
						"_isPrev(address,address)": "980",
						"_verifyIndex(address,uint256,address)": "1938",
						"isQualifiable(address)": "972"
					}
				},
				"methodIdentifiers": {
					"addCredit(address,uint256)": "7d27d66c",
					"decCredit(address,uint256)": "9dc29cdb",
					"getCredit(address)": "57344e6f",
					"getTopTen()": "b278fa4b",
					"incCredit(address)": "904fba8d",
					"isProjectable(address)": "1eab150d",
					"listSize()": "972c5356",
					"qualifiable(address)": "d4268f4a",
					"removeCredit(address)": "eaeadac9",
					"setCredit(address)": "1f72a7d5",
					"updateScore(address,uint256)": "65d97724",
					"user2credit(address)": "de6e6d3e"
				}
			},
			"storageLayout": {
				"storage": [
					{
						"astId": 5,
						"contract": ".deps/contracts/creditOp.sol:creditOp",
						"label": "user2credit",
						"offset": 0,
						"slot": "0",
						"type": "t_mapping(t_address,t_uint256)"
					},
					{
						"astId": 9,
						"contract": ".deps/contracts/creditOp.sol:creditOp",
						"label": "_next",
						"offset": 0,
						"slot": "1",
						"type": "t_mapping(t_address,t_address)"
					},
					{
						"astId": 11,
						"contract": ".deps/contracts/creditOp.sol:creditOp",
						"label": "listSize",
						"offset": 0,
						"slot": "2",
						"type": "t_uint256"
					},
					{
						"astId": 21,
						"contract": ".deps/contracts/creditOp.sol:creditOp",
						"label": "qualifiable",
						"offset": 0,
						"slot": "3",
						"type": "t_mapping(t_address,t_uint8)"
					},
					{
						"astId": 24,
						"contract": ".deps/contracts/creditOp.sol:creditOp",
						"label": "initCredit",
						"offset": 0,
						"slot": "4",
						"type": "t_uint256"
					},
					{
						"astId": 27,
						"contract": ".deps/contracts/creditOp.sol:creditOp",
						"label": "upperLimitCredit",
						"offset": 0,
						"slot": "5",
						"type": "t_uint256"
					},
					{
						"astId": 30,
						"contract": ".deps/contracts/creditOp.sol:creditOp",
						"label": "qualifiedCredit",
						"offset": 0,
						"slot": "6",
						"type": "t_uint256"
					},
					{
						"astId": 33,
						"contract": ".deps/contracts/creditOp.sol:creditOp",
						"label": "returnedCredit",
						"offset": 0,
						"slot": "7",
						"type": "t_uint256"
					}
				],
				"types": {
					"t_address": {
						"encoding": "inplace",
						"label": "address",
						"numberOfBytes": "20"
					},
					"t_mapping(t_address,t_address)": {
						"encoding": "mapping",
						"key": "t_address",
						"label": "mapping(address => address)",
						"numberOfBytes": "32",
						"value": "t_address"
					},
					"t_mapping(t_address,t_uint256)": {
						"encoding": "mapping",
						"key": "t_address",
						"label": "mapping(address => uint256)",
						"numberOfBytes": "32",
						"value": "t_uint256"
					},
					"t_mapping(t_address,t_uint8)": {
						"encoding": "mapping",
						"key": "t_address",
						"label": "mapping(address => uint8)",
						"numberOfBytes": "32",
						"value": "t_uint8"
					},
					"t_uint256": {
						"encoding": "inplace",
						"label": "uint256",
						"numberOfBytes": "32"
					},
					"t_uint8": {
						"encoding": "inplace",
						"label": "uint8",
						"numberOfBytes": "1"
					}
				}
			},
			"userdoc": {
				"kind": "user",
				"methods": {},
				"version": 1
			}
		}
	}
}