{
	".deps/contracts/creditOp.sol": {
		"creditOp": {
			"abi": [
				{
					"inputs": [],
					"stateMutability": "nonpayable",
					"type": "constructor"
				},
				{
					"inputs": [
						{
							"internalType": "address",
							"name": "_user",
							"type": "address"
						},
						{
							"internalType": "uint256",
							"name": "_dec",
							"type": "uint256"
						}
					],
					"name": "decCredit",
					"outputs": [],
					"stateMutability": "nonpayable",
					"type": "function"
				},
				{
					"inputs": [
						{
							"internalType": "address",
							"name": "_user",
							"type": "address"
						}
					],
					"name": "getCredit",
					"outputs": [
						{
							"internalType": "uint256",
							"name": "",
							"type": "uint256"
						}
					],
					"stateMutability": "view",
					"type": "function"
				},
				{
					"inputs": [
						{
							"internalType": "address",
							"name": "_user",
							"type": "address"
						}
					],
					"name": "incCredit",
					"outputs": [],
					"stateMutability": "nonpayable",
					"type": "function"
				},
				{
					"inputs": [
						{
							"internalType": "address",
							"name": "_user",
							"type": "address"
						}
					],
					"name": "isProjectable",
					"outputs": [
						{
							"internalType": "bool",
							"name": "",
							"type": "bool"
						}
					],
					"stateMutability": "nonpayable",
					"type": "function"
				},
				{
					"inputs": [],
					"name": "listSize",
					"outputs": [
						{
							"internalType": "uint256",
							"name": "",
							"type": "uint256"
						}
					],
					"stateMutability": "view",
					"type": "function"
				},
				{
					"inputs": [
						{
							"internalType": "address",
							"name": "",
							"type": "address"
						}
					],
					"name": "qualifiable",
					"outputs": [
						{
							"internalType": "uint8",
							"name": "",
							"type": "uint8"
						}
					],
					"stateMutability": "view",
					"type": "function"
				},
				{
					"inputs": [
						{
							"internalType": "address",
							"name": "_user",
							"type": "address"
						}
					],
					"name": "removeCredit",
					"outputs": [],
					"stateMutability": "nonpayable",
					"type": "function"
				},
				{
					"inputs": [
						{
							"internalType": "address",
							"name": "_user",
							"type": "address"
						}
					],
					"name": "setCredit",
					"outputs": [],
					"stateMutability": "nonpayable",
					"type": "function"
				},
				{
					"inputs": [
						{
							"internalType": "address",
							"name": "_user",
							"type": "address"
						},
						{
							"internalType": "uint256",
							"name": "newCredit",
							"type": "uint256"
						}
					],
					"name": "updateScore",
					"outputs": [],
					"stateMutability": "nonpayable",
					"type": "function"
				},
				{
					"inputs": [
						{
							"internalType": "address",
							"name": "",
							"type": "address"
						}
					],
					"name": "user2credit",
					"outputs": [
						{
							"internalType": "uint256",
							"name": "",
							"type": "uint256"
						}
					],
					"stateMutability": "view",
					"type": "function"
				}
			],
			"devdoc": {
				"kind": "dev",
				"methods": {},
				"version": 1
			},
			"evm": {
				"assembly": "    /* \".deps/contracts/creditOp.sol\":25:3954  contract creditOp {... */\n  mstore(0x40, 0x80)\n    /* \".deps/contracts/creditOp.sol\":291:296  10000 */\n  0x2710\n    /* \".deps/contracts/creditOp.sol\":262:296  uint256 private initCredit = 10000 */\n  0x04\n  sstore\n    /* \".deps/contracts/creditOp.sol\":337:342  20000 */\n  0x4e20\n    /* \".deps/contracts/creditOp.sol\":302:342  uint256 private upperLimitCredit = 20000 */\n  0x05\n  sstore\n    /* \".deps/contracts/creditOp.sol\":382:386  5000 */\n  0x1388\n    /* \".deps/contracts/creditOp.sol\":348:386  uint256 private qualifiedCredit = 5000 */\n  0x06\n  sstore\n    /* \".deps/contracts/creditOp.sol\":425:429  6000 */\n  0x1770\n    /* \".deps/contracts/creditOp.sol\":392:429  uint256 private returnedCredit = 6000 */\n  0x07\n  sstore\n    /* \".deps/contracts/creditOp.sol\":436:517  constructor() public {... */\n  callvalue\n  dup1\n  iszero\n  tag_1\n  jumpi\n  0x00\n  dup1\n  revert\ntag_1:\n  pop\n    /* \".deps/contracts/creditOp.sol\":201:202  1 */\n  0x01\n    /* \".deps/contracts/creditOp.sol\":467:472  _next */\n  dup1\n    /* \".deps/contracts/creditOp.sol\":467:479  _next[GUARD] */\n  0x00\n    /* \".deps/contracts/creditOp.sol\":201:202  1 */\n  0x01\n    /* \".deps/contracts/creditOp.sol\":467:479  _next[GUARD] */\n  0xffffffffffffffffffffffffffffffffffffffff\n  and\n  0xffffffffffffffffffffffffffffffffffffffff\n  and\n  dup2\n  mstore\n  0x20\n  add\n  swap1\n  dup2\n  mstore\n  0x20\n  add\n  0x00\n  keccak256\n  0x00\n    /* \".deps/contracts/creditOp.sol\":467:487  _next[GUARD] = GUARD */\n  0x0100\n  exp\n  dup2\n  sload\n  dup2\n  0xffffffffffffffffffffffffffffffffffffffff\n  mul\n  not\n  and\n  swap1\n  dup4\n  0xffffffffffffffffffffffffffffffffffffffff\n  and\n  mul\n  or\n  swap1\n  sstore\n  pop\n    /* \".deps/contracts/creditOp.sol\":25:3954  contract creditOp {... */\n  dataSize(sub_0)\n  dup1\n  dataOffset(sub_0)\n  0x00\n  codecopy\n  0x00\n  return\nstop\n\nsub_0: assembly {\n        /* \".deps/contracts/creditOp.sol\":25:3954  contract creditOp {... */\n      mstore(0x40, 0x80)\n      callvalue\n      dup1\n      iszero\n      tag_1\n      jumpi\n      0x00\n      dup1\n      revert\n    tag_1:\n      pop\n      jumpi(tag_2, lt(calldatasize, 0x04))\n      shr(0xe0, calldataload(0x00))\n      dup1\n      0x972c5356\n      gt\n      tag_13\n      jumpi\n      dup1\n      0x972c5356\n      eq\n      tag_8\n      jumpi\n      dup1\n      0x9dc29cdb\n      eq\n      tag_9\n      jumpi\n      dup1\n      0xd4268f4a\n      eq\n      tag_10\n      jumpi\n      dup1\n      0xde6e6d3e\n      eq\n      tag_11\n      jumpi\n      dup1\n      0xeaeadac9\n      eq\n      tag_12\n      jumpi\n      jump(tag_2)\n    tag_13:\n      dup1\n      0x1eab150d\n      eq\n      tag_3\n      jumpi\n      dup1\n      0x1f72a7d5\n      eq\n      tag_4\n      jumpi\n      dup1\n      0x57344e6f\n      eq\n      tag_5\n      jumpi\n      dup1\n      0x65d97724\n      eq\n      tag_6\n      jumpi\n      dup1\n      0x904fba8d\n      eq\n      tag_7\n      jumpi\n    tag_2:\n      0x00\n      dup1\n      revert\n        /* \".deps/contracts/creditOp.sol\":1492:1623  function isProjectable(address _user) public returns(bool) {... */\n    tag_3:\n      tag_14\n      0x04\n      dup1\n      calldatasize\n      sub\n      0x20\n      dup2\n      lt\n      iszero\n      tag_15\n      jumpi\n      0x00\n      dup1\n      revert\n    tag_15:\n      dup2\n      add\n      swap1\n      dup1\n      dup1\n      calldataload\n      0xffffffffffffffffffffffffffffffffffffffff\n      and\n      swap1\n      0x20\n      add\n      swap1\n      swap3\n      swap2\n      swap1\n      pop\n      pop\n      pop\n      tag_16\n      jump\t// in\n    tag_14:\n      mload(0x40)\n      dup1\n      dup3\n      iszero\n      iszero\n      dup2\n      mstore\n      0x20\n      add\n      swap2\n      pop\n      pop\n      mload(0x40)\n      dup1\n      swap2\n      sub\n      swap1\n      return\n        /* \".deps/contracts/creditOp.sol\":2186:2487  function setCredit(address _user) public {... */\n    tag_4:\n      tag_17\n      0x04\n      dup1\n      calldatasize\n      sub\n      0x20\n      dup2\n      lt\n      iszero\n      tag_18\n      jumpi\n      0x00\n      dup1\n      revert\n    tag_18:\n      dup2\n      add\n      swap1\n      dup1\n      dup1\n      calldataload\n      0xffffffffffffffffffffffffffffffffffffffff\n      and\n      swap1\n      0x20\n      add\n      swap1\n      swap3\n      swap2\n      swap1\n      pop\n      pop\n      pop\n      tag_19\n      jump\t// in\n    tag_17:\n      stop\n        /* \".deps/contracts/creditOp.sol\":1742:1850  function getCredit(address _user) view public returns(uint) {... */\n    tag_5:\n      tag_20\n      0x04\n      dup1\n      calldatasize\n      sub\n      0x20\n      dup2\n      lt\n      iszero\n      tag_21\n      jumpi\n      0x00\n      dup1\n      revert\n    tag_21:\n      dup2\n      add\n      swap1\n      dup1\n      dup1\n      calldataload\n      0xffffffffffffffffffffffffffffffffffffffff\n      and\n      swap1\n      0x20\n      add\n      swap1\n      swap3\n      swap2\n      swap1\n      pop\n      pop\n      pop\n      tag_22\n      jump\t// in\n    tag_20:\n      mload(0x40)\n      dup1\n      dup3\n      dup2\n      mstore\n      0x20\n      add\n      swap2\n      pop\n      pop\n      mload(0x40)\n      dup1\n      swap2\n      sub\n      swap1\n      return\n        /* \".deps/contracts/creditOp.sol\":1856:2180  function updateScore(address _user, uint newCredit) public {... */\n    tag_6:\n      tag_23\n      0x04\n      dup1\n      calldatasize\n      sub\n      0x40\n      dup2\n      lt\n      iszero\n      tag_24\n      jumpi\n      0x00\n      dup1\n      revert\n    tag_24:\n      dup2\n      add\n      swap1\n      dup1\n      dup1\n      calldataload\n      0xffffffffffffffffffffffffffffffffffffffff\n      and\n      swap1\n      0x20\n      add\n      swap1\n      swap3\n      swap2\n      swap1\n      dup1\n      calldataload\n      swap1\n      0x20\n      add\n      swap1\n      swap3\n      swap2\n      swap1\n      pop\n      pop\n      pop\n      tag_25\n      jump\t// in\n    tag_23:\n      stop\n        /* \".deps/contracts/creditOp.sol\":536:1129  function incCredit(address _user) public {... */\n    tag_7:\n      tag_26\n      0x04\n      dup1\n      calldatasize\n      sub\n      0x20\n      dup2\n      lt\n      iszero\n      tag_27\n      jumpi\n      0x00\n      dup1\n      revert\n    tag_27:\n      dup2\n      add\n      swap1\n      dup1\n      dup1\n      calldataload\n      0xffffffffffffffffffffffffffffffffffffffff\n      and\n      swap1\n      0x20\n      add\n      swap1\n      swap3\n      swap2\n      swap1\n      pop\n      pop\n      pop\n      tag_28\n      jump\t// in\n    tag_26:\n      stop\n        /* \".deps/contracts/creditOp.sol\":139:162  uint256 public listSize */\n    tag_8:\n      tag_29\n      tag_30\n      jump\t// in\n    tag_29:\n      mload(0x40)\n      dup1\n      dup3\n      dup2\n      mstore\n      0x20\n      add\n      swap2\n      pop\n      pop\n      mload(0x40)\n      dup1\n      swap2\n      sub\n      swap1\n      return\n        /* \".deps/contracts/creditOp.sol\":1148:1486  function decCredit(address _user, uint _dec) public {... */\n    tag_9:\n      tag_31\n      0x04\n      dup1\n      calldatasize\n      sub\n      0x40\n      dup2\n      lt\n      iszero\n      tag_32\n      jumpi\n      0x00\n      dup1\n      revert\n    tag_32:\n      dup2\n      add\n      swap1\n      dup1\n      dup1\n      calldataload\n      0xffffffffffffffffffffffffffffffffffffffff\n      and\n      swap1\n      0x20\n      add\n      swap1\n      swap3\n      swap2\n      swap1\n      dup1\n      calldataload\n      swap1\n      0x20\n      add\n      swap1\n      swap3\n      swap2\n      swap1\n      pop\n      pop\n      pop\n      tag_33\n      jump\t// in\n    tag_31:\n      stop\n        /* \".deps/contracts/creditOp.sol\":211:256  mapping (address => uint8) public qualifiable */\n    tag_10:\n      tag_34\n      0x04\n      dup1\n      calldatasize\n      sub\n      0x20\n      dup2\n      lt\n      iszero\n      tag_35\n      jumpi\n      0x00\n      dup1\n      revert\n    tag_35:\n      dup2\n      add\n      swap1\n      dup1\n      dup1\n      calldataload\n      0xffffffffffffffffffffffffffffffffffffffff\n      and\n      swap1\n      0x20\n      add\n      swap1\n      swap3\n      swap2\n      swap1\n      pop\n      pop\n      pop\n      tag_36\n      jump\t// in\n    tag_34:\n      mload(0x40)\n      dup1\n      dup3\n      0xff\n      and\n      dup2\n      mstore\n      0x20\n      add\n      swap2\n      pop\n      pop\n      mload(0x40)\n      dup1\n      swap2\n      sub\n      swap1\n      return\n        /* \".deps/contracts/creditOp.sol\":49:93  mapping (address => uint) public user2credit */\n    tag_11:\n      tag_37\n      0x04\n      dup1\n      calldatasize\n      sub\n      0x20\n      dup2\n      lt\n      iszero\n      tag_38\n      jumpi\n      0x00\n      dup1\n      revert\n    tag_38:\n      dup2\n      add\n      swap1\n      dup1\n      dup1\n      calldataload\n      0xffffffffffffffffffffffffffffffffffffffff\n      and\n      swap1\n      0x20\n      add\n      swap1\n      swap3\n      swap2\n      swap1\n      pop\n      pop\n      pop\n      tag_39\n      jump\t// in\n    tag_37:\n      mload(0x40)\n      dup1\n      dup3\n      dup2\n      mstore\n      0x20\n      add\n      swap2\n      pop\n      pop\n      mload(0x40)\n      dup1\n      swap2\n      sub\n      swap1\n      return\n        /* \".deps/contracts/creditOp.sol\":2493:2701  function removeCredit(address _user) public {... */\n    tag_12:\n      tag_40\n      0x04\n      dup1\n      calldatasize\n      sub\n      0x20\n      dup2\n      lt\n      iszero\n      tag_41\n      jumpi\n      0x00\n      dup1\n      revert\n    tag_41:\n      dup2\n      add\n      swap1\n      dup1\n      dup1\n      calldataload\n      0xffffffffffffffffffffffffffffffffffffffff\n      and\n      swap1\n      0x20\n      add\n      swap1\n      swap3\n      swap2\n      swap1\n      pop\n      pop\n      pop\n      tag_42\n      jump\t// in\n    tag_40:\n      stop\n        /* \".deps/contracts/creditOp.sol\":1492:1623  function isProjectable(address _user) public returns(bool) {... */\n    tag_16:\n        /* \".deps/contracts/creditOp.sol\":1545:1549  bool */\n      0x00\n        /* \".deps/contracts/creditOp.sol\":1568:1588  isQualifiable(_user) */\n      tag_44\n        /* \".deps/contracts/creditOp.sol\":1582:1587  _user */\n      dup3\n        /* \".deps/contracts/creditOp.sol\":1568:1581  isQualifiable */\n      tag_45\n        /* \".deps/contracts/creditOp.sol\":1568:1588  isQualifiable(_user) */\n      jump\t// in\n    tag_44:\n        /* \".deps/contracts/creditOp.sol\":1568:1616  isQualifiable(_user) && (getCredit(_user) >= 50) */\n      dup1\n      iszero\n      tag_46\n      jumpi\n      pop\n        /* \".deps/contracts/creditOp.sol\":1613:1615  50 */\n      0x32\n        /* \".deps/contracts/creditOp.sol\":1593:1609  getCredit(_user) */\n      tag_47\n        /* \".deps/contracts/creditOp.sol\":1603:1608  _user */\n      dup4\n        /* \".deps/contracts/creditOp.sol\":1593:1602  getCredit */\n      tag_22\n        /* \".deps/contracts/creditOp.sol\":1593:1609  getCredit(_user) */\n      jump\t// in\n    tag_47:\n        /* \".deps/contracts/creditOp.sol\":1593:1615  getCredit(_user) >= 50 */\n      lt\n      iszero\n        /* \".deps/contracts/creditOp.sol\":1568:1616  isQualifiable(_user) && (getCredit(_user) >= 50) */\n    tag_46:\n        /* \".deps/contracts/creditOp.sol\":1561:1616  return isQualifiable(_user) && (getCredit(_user) >= 50) */\n      swap1\n      pop\n        /* \".deps/contracts/creditOp.sol\":1492:1623  function isProjectable(address _user) public returns(bool) {... */\n      swap2\n      swap1\n      pop\n      jump\t// out\n        /* \".deps/contracts/creditOp.sol\":2186:2487  function setCredit(address _user) public {... */\n    tag_19:\n        /* \".deps/contracts/creditOp.sol\":2269:2270  0 */\n      0x00\n        /* \".deps/contracts/creditOp.sol\":2245:2271  _next[_user] == address(0) */\n      0xffffffffffffffffffffffffffffffffffffffff\n      and\n        /* \".deps/contracts/creditOp.sol\":2245:2250  _next */\n      0x01\n        /* \".deps/contracts/creditOp.sol\":2245:2257  _next[_user] */\n      0x00\n        /* \".deps/contracts/creditOp.sol\":2251:2256  _user */\n      dup4\n        /* \".deps/contracts/creditOp.sol\":2245:2257  _next[_user] */\n      0xffffffffffffffffffffffffffffffffffffffff\n      and\n      0xffffffffffffffffffffffffffffffffffffffff\n      and\n      dup2\n      mstore\n      0x20\n      add\n      swap1\n      dup2\n      mstore\n      0x20\n      add\n      0x00\n      keccak256\n      0x00\n      swap1\n      sload\n      swap1\n      0x0100\n      exp\n      swap1\n      div\n      0xffffffffffffffffffffffffffffffffffffffff\n      and\n        /* \".deps/contracts/creditOp.sol\":2245:2271  _next[_user] == address(0) */\n      0xffffffffffffffffffffffffffffffffffffffff\n      and\n      eq\n        /* \".deps/contracts/creditOp.sol\":2237:2272  require(_next[_user] == address(0)) */\n      tag_49\n      jumpi\n      0x00\n      dup1\n      revert\n    tag_49:\n        /* \".deps/contracts/creditOp.sol\":2282:2295  address index */\n      0x00\n        /* \".deps/contracts/creditOp.sol\":2298:2320  _findIndex(initCredit) */\n      tag_50\n        /* \".deps/contracts/creditOp.sol\":2309:2319  initCredit */\n      sload(0x04)\n        /* \".deps/contracts/creditOp.sol\":2298:2308  _findIndex */\n      tag_51\n        /* \".deps/contracts/creditOp.sol\":2298:2320  _findIndex(initCredit) */\n      jump\t// in\n    tag_50:\n        /* \".deps/contracts/creditOp.sol\":2282:2320  address index = _findIndex(initCredit) */\n      swap1\n      pop\n        /* \".deps/contracts/creditOp.sol\":2351:2361  initCredit */\n      sload(0x04)\n        /* \".deps/contracts/creditOp.sol\":2330:2341  user2credit */\n      0x00\n        /* \".deps/contracts/creditOp.sol\":2330:2348  user2credit[_user] */\n      dup1\n        /* \".deps/contracts/creditOp.sol\":2342:2347  _user */\n      dup5\n        /* \".deps/contracts/creditOp.sol\":2330:2348  user2credit[_user] */\n      0xffffffffffffffffffffffffffffffffffffffff\n      and\n      0xffffffffffffffffffffffffffffffffffffffff\n      and\n      dup2\n      mstore\n      0x20\n      add\n      swap1\n      dup2\n      mstore\n      0x20\n      add\n      0x00\n      keccak256\n        /* \".deps/contracts/creditOp.sol\":2330:2361  user2credit[_user] = initCredit */\n      dup2\n      swap1\n      sstore\n      pop\n        /* \".deps/contracts/creditOp.sol\":2386:2391  _next */\n      0x01\n        /* \".deps/contracts/creditOp.sol\":2386:2398  _next[index] */\n      0x00\n        /* \".deps/contracts/creditOp.sol\":2392:2397  index */\n      dup3\n        /* \".deps/contracts/creditOp.sol\":2386:2398  _next[index] */\n      0xffffffffffffffffffffffffffffffffffffffff\n      and\n      0xffffffffffffffffffffffffffffffffffffffff\n      and\n      dup2\n      mstore\n      0x20\n      add\n      swap1\n      dup2\n      mstore\n      0x20\n      add\n      0x00\n      keccak256\n      0x00\n      swap1\n      sload\n      swap1\n      0x0100\n      exp\n      swap1\n      div\n      0xffffffffffffffffffffffffffffffffffffffff\n      and\n        /* \".deps/contracts/creditOp.sol\":2371:2376  _next */\n      0x01\n        /* \".deps/contracts/creditOp.sol\":2371:2383  _next[_user] */\n      0x00\n        /* \".deps/contracts/creditOp.sol\":2377:2382  _user */\n      dup5\n        /* \".deps/contracts/creditOp.sol\":2371:2383  _next[_user] */\n      0xffffffffffffffffffffffffffffffffffffffff\n      and\n      0xffffffffffffffffffffffffffffffffffffffff\n      and\n      dup2\n      mstore\n      0x20\n      add\n      swap1\n      dup2\n      mstore\n      0x20\n      add\n      0x00\n      keccak256\n      0x00\n        /* \".deps/contracts/creditOp.sol\":2371:2398  _next[_user] = _next[index] */\n      0x0100\n      exp\n      dup2\n      sload\n      dup2\n      0xffffffffffffffffffffffffffffffffffffffff\n      mul\n      not\n      and\n      swap1\n      dup4\n      0xffffffffffffffffffffffffffffffffffffffff\n      and\n      mul\n      or\n      swap1\n      sstore\n      pop\n        /* \".deps/contracts/creditOp.sol\":2423:2428  _user */\n      dup2\n        /* \".deps/contracts/creditOp.sol\":2408:2413  _next */\n      0x01\n        /* \".deps/contracts/creditOp.sol\":2408:2420  _next[index] */\n      0x00\n        /* \".deps/contracts/creditOp.sol\":2414:2419  index */\n      dup4\n        /* \".deps/contracts/creditOp.sol\":2408:2420  _next[index] */\n      0xffffffffffffffffffffffffffffffffffffffff\n      and\n      0xffffffffffffffffffffffffffffffffffffffff\n      and\n      dup2\n      mstore\n      0x20\n      add\n      swap1\n      dup2\n      mstore\n      0x20\n      add\n      0x00\n      keccak256\n      0x00\n        /* \".deps/contracts/creditOp.sol\":2408:2428  _next[index] = _user */\n      0x0100\n      exp\n      dup2\n      sload\n      dup2\n      0xffffffffffffffffffffffffffffffffffffffff\n      mul\n      not\n      and\n      swap1\n      dup4\n      0xffffffffffffffffffffffffffffffffffffffff\n      and\n      mul\n      or\n      swap1\n      sstore\n      pop\n        /* \".deps/contracts/creditOp.sol\":2438:2446  listSize */\n      0x02\n      0x00\n        /* \".deps/contracts/creditOp.sol\":2438:2448  listSize++ */\n      dup2\n      sload\n      dup1\n      swap3\n      swap2\n      swap1\n      0x01\n      add\n      swap2\n      swap1\n      pop\n      sstore\n      pop\n        /* \".deps/contracts/creditOp.sol\":2479:2480  0 */\n      0x00\n        /* \".deps/contracts/creditOp.sol\":2458:2469  qualifiable */\n      0x03\n        /* \".deps/contracts/creditOp.sol\":2458:2476  qualifiable[_user] */\n      0x00\n        /* \".deps/contracts/creditOp.sol\":2470:2475  _user */\n      dup5\n        /* \".deps/contracts/creditOp.sol\":2458:2476  qualifiable[_user] */\n      0xffffffffffffffffffffffffffffffffffffffff\n      and\n      0xffffffffffffffffffffffffffffffffffffffff\n      and\n      dup2\n      mstore\n      0x20\n      add\n      swap1\n      dup2\n      mstore\n      0x20\n      add\n      0x00\n      keccak256\n      0x00\n        /* \".deps/contracts/creditOp.sol\":2458:2480  qualifiable[_user] = 0 */\n      0x0100\n      exp\n      dup2\n      sload\n      dup2\n      0xff\n      mul\n      not\n      and\n      swap1\n      dup4\n      0xff\n      and\n      mul\n      or\n      swap1\n      sstore\n      pop\n        /* \".deps/contracts/creditOp.sol\":2186:2487  function setCredit(address _user) public {... */\n      pop\n      pop\n      jump\t// out\n        /* \".deps/contracts/creditOp.sol\":1742:1850  function getCredit(address _user) view public returns(uint) {... */\n    tag_22:\n        /* \".deps/contracts/creditOp.sol\":1796:1800  uint */\n      0x00\n        /* \".deps/contracts/creditOp.sol\":1840:1843  100 */\n      0x64\n        /* \".deps/contracts/creditOp.sol\":1819:1830  user2credit */\n      0x00\n        /* \".deps/contracts/creditOp.sol\":1819:1837  user2credit[_user] */\n      dup1\n        /* \".deps/contracts/creditOp.sol\":1831:1836  _user */\n      dup5\n        /* \".deps/contracts/creditOp.sol\":1819:1837  user2credit[_user] */\n      0xffffffffffffffffffffffffffffffffffffffff\n      and\n      0xffffffffffffffffffffffffffffffffffffffff\n      and\n      dup2\n      mstore\n      0x20\n      add\n      swap1\n      dup2\n      mstore\n      0x20\n      add\n      0x00\n      keccak256\n      sload\n        /* \".deps/contracts/creditOp.sol\":1819:1843  user2credit[_user] / 100 */\n      dup2\n      tag_53\n      jumpi\n      invalid\n    tag_53:\n      div\n        /* \".deps/contracts/creditOp.sol\":1812:1843  return user2credit[_user] / 100 */\n      swap1\n      pop\n        /* \".deps/contracts/creditOp.sol\":1742:1850  function getCredit(address _user) view public returns(uint) {... */\n      swap2\n      swap1\n      pop\n      jump\t// out\n        /* \".deps/contracts/creditOp.sol\":1856:2180  function updateScore(address _user, uint newCredit) public {... */\n    tag_25:\n        /* \".deps/contracts/creditOp.sol\":1957:1958  0 */\n      0x00\n        /* \".deps/contracts/creditOp.sol\":1933:1959  _next[_user] != address(0) */\n      0xffffffffffffffffffffffffffffffffffffffff\n      and\n        /* \".deps/contracts/creditOp.sol\":1933:1938  _next */\n      0x01\n        /* \".deps/contracts/creditOp.sol\":1933:1945  _next[_user] */\n      0x00\n        /* \".deps/contracts/creditOp.sol\":1939:1944  _user */\n      dup5\n        /* \".deps/contracts/creditOp.sol\":1933:1945  _next[_user] */\n      0xffffffffffffffffffffffffffffffffffffffff\n      and\n      0xffffffffffffffffffffffffffffffffffffffff\n      and\n      dup2\n      mstore\n      0x20\n      add\n      swap1\n      dup2\n      mstore\n      0x20\n      add\n      0x00\n      keccak256\n      0x00\n      swap1\n      sload\n      swap1\n      0x0100\n      exp\n      swap1\n      div\n      0xffffffffffffffffffffffffffffffffffffffff\n      and\n        /* \".deps/contracts/creditOp.sol\":1933:1959  _next[_user] != address(0) */\n      0xffffffffffffffffffffffffffffffffffffffff\n      and\n      eq\n      iszero\n        /* \".deps/contracts/creditOp.sol\":1925:1960  require(_next[_user] != address(0)) */\n      tag_55\n      jumpi\n      0x00\n      dup1\n      revert\n    tag_55:\n        /* \".deps/contracts/creditOp.sol\":1970:1982  address prev */\n      0x00\n        /* \".deps/contracts/creditOp.sol\":1985:2001  _findPrev(_user) */\n      tag_56\n        /* \".deps/contracts/creditOp.sol\":1995:2000  _user */\n      dup4\n        /* \".deps/contracts/creditOp.sol\":1985:1994  _findPrev */\n      tag_57\n        /* \".deps/contracts/creditOp.sol\":1985:2001  _findPrev(_user) */\n      jump\t// in\n    tag_56:\n        /* \".deps/contracts/creditOp.sol\":1970:2001  address prev = _findPrev(_user) */\n      swap1\n      pop\n        /* \".deps/contracts/creditOp.sol\":2011:2023  address next */\n      0x00\n        /* \".deps/contracts/creditOp.sol\":2026:2031  _next */\n      0x01\n        /* \".deps/contracts/creditOp.sol\":2026:2038  _next[_user] */\n      0x00\n        /* \".deps/contracts/creditOp.sol\":2032:2037  _user */\n      dup6\n        /* \".deps/contracts/creditOp.sol\":2026:2038  _next[_user] */\n      0xffffffffffffffffffffffffffffffffffffffff\n      and\n      0xffffffffffffffffffffffffffffffffffffffff\n      and\n      dup2\n      mstore\n      0x20\n      add\n      swap1\n      dup2\n      mstore\n      0x20\n      add\n      0x00\n      keccak256\n      0x00\n      swap1\n      sload\n      swap1\n      0x0100\n      exp\n      swap1\n      div\n      0xffffffffffffffffffffffffffffffffffffffff\n      and\n        /* \".deps/contracts/creditOp.sol\":2011:2038  address next = _next[_user] */\n      swap1\n      pop\n        /* \".deps/contracts/creditOp.sol\":2052:2087  _verifyIndex(prev, newCredit, next) */\n      tag_58\n        /* \".deps/contracts/creditOp.sol\":2065:2069  prev */\n      dup3\n        /* \".deps/contracts/creditOp.sol\":2071:2080  newCredit */\n      dup5\n        /* \".deps/contracts/creditOp.sol\":2082:2086  next */\n      dup4\n        /* \".deps/contracts/creditOp.sol\":2052:2064  _verifyIndex */\n      tag_59\n        /* \".deps/contracts/creditOp.sol\":2052:2087  _verifyIndex(prev, newCredit, next) */\n      jump\t// in\n    tag_58:\n        /* \".deps/contracts/creditOp.sol\":2048:2174  if (_verifyIndex(prev, newCredit, next)) {... */\n      iszero\n      tag_60\n      jumpi\n        /* \".deps/contracts/creditOp.sol\":2124:2133  newCredit */\n      dup3\n        /* \".deps/contracts/creditOp.sol\":2103:2114  user2credit */\n      0x00\n        /* \".deps/contracts/creditOp.sol\":2103:2121  user2credit[_user] */\n      dup1\n        /* \".deps/contracts/creditOp.sol\":2115:2120  _user */\n      dup7\n        /* \".deps/contracts/creditOp.sol\":2103:2121  user2credit[_user] */\n      0xffffffffffffffffffffffffffffffffffffffff\n      and\n      0xffffffffffffffffffffffffffffffffffffffff\n      and\n      dup2\n      mstore\n      0x20\n      add\n      swap1\n      dup2\n      mstore\n      0x20\n      add\n      0x00\n      keccak256\n        /* \".deps/contracts/creditOp.sol\":2103:2133  user2credit[_user] = newCredit */\n      dup2\n      swap1\n      sstore\n      pop\n        /* \".deps/contracts/creditOp.sol\":2048:2174  if (_verifyIndex(prev, newCredit, next)) {... */\n      jump(tag_61)\n    tag_60:\n    tag_61:\n        /* \".deps/contracts/creditOp.sol\":1856:2180  function updateScore(address _user, uint newCredit) public {... */\n      pop\n      pop\n      pop\n      pop\n      jump\t// out\n        /* \".deps/contracts/creditOp.sol\":536:1129  function incCredit(address _user) public {... */\n    tag_28:\n        /* \".deps/contracts/creditOp.sol\":587:598  uint credit */\n      0x00\n        /* \".deps/contracts/creditOp.sol\":601:612  user2credit */\n      dup1\n        /* \".deps/contracts/creditOp.sol\":601:619  user2credit[_user] */\n      0x00\n        /* \".deps/contracts/creditOp.sol\":613:618  _user */\n      dup4\n        /* \".deps/contracts/creditOp.sol\":601:619  user2credit[_user] */\n      0xffffffffffffffffffffffffffffffffffffffff\n      and\n      0xffffffffffffffffffffffffffffffffffffffff\n      and\n      dup2\n      mstore\n      0x20\n      add\n      swap1\n      dup2\n      mstore\n      0x20\n      add\n      0x00\n      keccak256\n      sload\n        /* \".deps/contracts/creditOp.sol\":587:619  uint credit = user2credit[_user] */\n      swap1\n      pop\n        /* \".deps/contracts/creditOp.sol\":629:650  uint16[6] memory bars */\n      0x00\n        /* \".deps/contracts/creditOp.sol\":629:691  uint16[6] memory bars = [0, 10000, 11000, 15000, 18000, 20000] */\n      mload(0x40)\n      dup1\n      0xc0\n      add\n      0x40\n      mstore\n      dup1\n        /* \".deps/contracts/creditOp.sol\":654:655  0 */\n      0x00\n        /* \".deps/contracts/creditOp.sol\":629:691  uint16[6] memory bars = [0, 10000, 11000, 15000, 18000, 20000] */\n      0xffff\n      and\n      dup2\n      mstore\n      0x20\n      add\n        /* \".deps/contracts/creditOp.sol\":657:662  10000 */\n      0x2710\n        /* \".deps/contracts/creditOp.sol\":629:691  uint16[6] memory bars = [0, 10000, 11000, 15000, 18000, 20000] */\n      0xffff\n      and\n      dup2\n      mstore\n      0x20\n      add\n        /* \".deps/contracts/creditOp.sol\":664:669  11000 */\n      0x2af8\n        /* \".deps/contracts/creditOp.sol\":629:691  uint16[6] memory bars = [0, 10000, 11000, 15000, 18000, 20000] */\n      0xffff\n      and\n      dup2\n      mstore\n      0x20\n      add\n        /* \".deps/contracts/creditOp.sol\":671:676  15000 */\n      0x3a98\n        /* \".deps/contracts/creditOp.sol\":629:691  uint16[6] memory bars = [0, 10000, 11000, 15000, 18000, 20000] */\n      0xffff\n      and\n      dup2\n      mstore\n      0x20\n      add\n        /* \".deps/contracts/creditOp.sol\":678:683  18000 */\n      0x4650\n        /* \".deps/contracts/creditOp.sol\":629:691  uint16[6] memory bars = [0, 10000, 11000, 15000, 18000, 20000] */\n      0xffff\n      and\n      dup2\n      mstore\n      0x20\n      add\n        /* \".deps/contracts/creditOp.sol\":685:690  20000 */\n      0x4e20\n        /* \".deps/contracts/creditOp.sol\":629:691  uint16[6] memory bars = [0, 10000, 11000, 15000, 18000, 20000] */\n      0xffff\n      and\n      dup2\n      mstore\n      pop\n      swap1\n      pop\n        /* \".deps/contracts/creditOp.sol\":701:721  uint8[5] memory incs */\n      0x00\n        /* \".deps/contracts/creditOp.sol\":701:743  uint8[5] memory incs = [100, 96, 16, 5, 1] */\n      mload(0x40)\n      dup1\n      0xa0\n      add\n      0x40\n      mstore\n      dup1\n        /* \".deps/contracts/creditOp.sol\":725:728  100 */\n      0x64\n        /* \".deps/contracts/creditOp.sol\":701:743  uint8[5] memory incs = [100, 96, 16, 5, 1] */\n      0xff\n      and\n      dup2\n      mstore\n      0x20\n      add\n        /* \".deps/contracts/creditOp.sol\":730:732  96 */\n      0x60\n        /* \".deps/contracts/creditOp.sol\":701:743  uint8[5] memory incs = [100, 96, 16, 5, 1] */\n      0xff\n      and\n      dup2\n      mstore\n      0x20\n      add\n        /* \".deps/contracts/creditOp.sol\":734:736  16 */\n      0x10\n        /* \".deps/contracts/creditOp.sol\":701:743  uint8[5] memory incs = [100, 96, 16, 5, 1] */\n      0xff\n      and\n      dup2\n      mstore\n      0x20\n      add\n        /* \".deps/contracts/creditOp.sol\":738:739  5 */\n      0x05\n        /* \".deps/contracts/creditOp.sol\":701:743  uint8[5] memory incs = [100, 96, 16, 5, 1] */\n      0xff\n      and\n      dup2\n      mstore\n      0x20\n      add\n        /* \".deps/contracts/creditOp.sol\":741:742  1 */\n      0x01\n        /* \".deps/contracts/creditOp.sol\":701:743  uint8[5] memory incs = [100, 96, 16, 5, 1] */\n      0xff\n      and\n      dup2\n      mstore\n      pop\n      swap1\n      pop\n        /* \".deps/contracts/creditOp.sol\":766:782  upperLimitCredit */\n      sload(0x05)\n        /* \".deps/contracts/creditOp.sol\":757:763  credit */\n      dup4\n        /* \".deps/contracts/creditOp.sol\":757:782  credit < upperLimitCredit */\n      lt\n        /* \".deps/contracts/creditOp.sol\":753:1123  if (credit < upperLimitCredit) {... */\n      iszero\n      tag_63\n      jumpi\n        /* \".deps/contracts/creditOp.sol\":798:804  uint i */\n      0x00\n        /* \".deps/contracts/creditOp.sol\":822:828  uint j */\n      dup1\n        /* \".deps/contracts/creditOp.sol\":831:832  1 */\n      0x01\n        /* \".deps/contracts/creditOp.sol\":822:832  uint j = 1 */\n      swap1\n      pop\n        /* \".deps/contracts/creditOp.sol\":846:1072  while (j < bars.length) {... */\n    tag_64:\n        /* \".deps/contracts/creditOp.sol\":857:868  bars.length */\n      0x06\n        /* \".deps/contracts/creditOp.sol\":853:854  j */\n      dup2\n        /* \".deps/contracts/creditOp.sol\":853:868  j < bars.length */\n      lt\n        /* \".deps/contracts/creditOp.sol\":846:1072  while (j < bars.length) {... */\n      iszero\n      tag_65\n      jumpi\n        /* \".deps/contracts/creditOp.sol\":903:909  credit */\n      dup5\n        /* \".deps/contracts/creditOp.sol\":892:896  bars */\n      dup5\n        /* \".deps/contracts/creditOp.sol\":897:898  i */\n      dup4\n        /* \".deps/contracts/creditOp.sol\":892:899  bars[i] */\n      0x06\n      dup2\n      lt\n      tag_66\n      jumpi\n      invalid\n    tag_66:\n      0x20\n      mul\n      add\n      mload\n        /* \".deps/contracts/creditOp.sol\":892:909  bars[i] <= credit */\n      0xffff\n      and\n      gt\n      iszero\n        /* \".deps/contracts/creditOp.sol\":892:929  bars[i] <= credit && credit < bars[j] */\n      dup1\n      iszero\n      tag_67\n      jumpi\n      pop\n        /* \".deps/contracts/creditOp.sol\":922:926  bars */\n      dup4\n        /* \".deps/contracts/creditOp.sol\":927:928  j */\n      dup2\n        /* \".deps/contracts/creditOp.sol\":922:929  bars[j] */\n      0x06\n      dup2\n      lt\n      tag_68\n      jumpi\n      invalid\n    tag_68:\n      0x20\n      mul\n      add\n      mload\n        /* \".deps/contracts/creditOp.sol\":913:929  credit < bars[j] */\n      0xffff\n      and\n        /* \".deps/contracts/creditOp.sol\":913:919  credit */\n      dup6\n        /* \".deps/contracts/creditOp.sol\":913:929  credit < bars[j] */\n      lt\n        /* \".deps/contracts/creditOp.sol\":892:929  bars[i] <= credit && credit < bars[j] */\n    tag_67:\n        /* \".deps/contracts/creditOp.sol\":888:1016  if (bars[i] <= credit && credit < bars[j]) {... */\n      iszero\n      tag_69\n      jumpi\n        /* \".deps/contracts/creditOp.sol\":963:967  incs */\n      dup3\n        /* \".deps/contracts/creditOp.sol\":968:969  i */\n      dup3\n        /* \".deps/contracts/creditOp.sol\":963:970  incs[i] */\n      0x05\n      dup2\n      lt\n      tag_70\n      jumpi\n      invalid\n    tag_70:\n      0x20\n      mul\n      add\n      mload\n        /* \".deps/contracts/creditOp.sol\":953:970  credit += incs[i] */\n      0xff\n      and\n      dup6\n      add\n      swap5\n      pop\n        /* \".deps/contracts/creditOp.sol\":992:997  break */\n      jump(tag_65)\n        /* \".deps/contracts/creditOp.sol\":888:1016  if (bars[i] <= credit && credit < bars[j]) {... */\n    tag_69:\n        /* \".deps/contracts/creditOp.sol\":1033:1036  i++ */\n      dup2\n      dup1\n      0x01\n      add\n      swap3\n      pop\n      pop\n        /* \".deps/contracts/creditOp.sol\":1054:1057  j++ */\n      dup1\n      dup1\n      0x01\n      add\n      swap2\n      pop\n      pop\n        /* \".deps/contracts/creditOp.sol\":846:1072  while (j < bars.length) {... */\n      jump(tag_64)\n    tag_65:\n        /* \".deps/contracts/creditOp.sol\":1106:1112  credit */\n      dup5\n        /* \".deps/contracts/creditOp.sol\":1085:1096  user2credit */\n      0x00\n        /* \".deps/contracts/creditOp.sol\":1085:1103  user2credit[_user] */\n      dup1\n        /* \".deps/contracts/creditOp.sol\":1097:1102  _user */\n      dup9\n        /* \".deps/contracts/creditOp.sol\":1085:1103  user2credit[_user] */\n      0xffffffffffffffffffffffffffffffffffffffff\n      and\n      0xffffffffffffffffffffffffffffffffffffffff\n      and\n      dup2\n      mstore\n      0x20\n      add\n      swap1\n      dup2\n      mstore\n      0x20\n      add\n      0x00\n      keccak256\n        /* \".deps/contracts/creditOp.sol\":1085:1112  user2credit[_user] = credit */\n      dup2\n      swap1\n      sstore\n      pop\n        /* \".deps/contracts/creditOp.sol\":753:1123  if (credit < upperLimitCredit) {... */\n      pop\n      pop\n    tag_63:\n        /* \".deps/contracts/creditOp.sol\":536:1129  function incCredit(address _user) public {... */\n      pop\n      pop\n      pop\n      pop\n      jump\t// out\n        /* \".deps/contracts/creditOp.sol\":139:162  uint256 public listSize */\n    tag_30:\n      sload(0x02)\n      dup2\n      jump\t// out\n        /* \".deps/contracts/creditOp.sol\":1148:1486  function decCredit(address _user, uint _dec) public {... */\n    tag_33:\n        /* \".deps/contracts/creditOp.sol\":1210:1221  uint credit */\n      0x00\n        /* \".deps/contracts/creditOp.sol\":1224:1235  user2credit */\n      dup1\n        /* \".deps/contracts/creditOp.sol\":1224:1242  user2credit[_user] */\n      0x00\n        /* \".deps/contracts/creditOp.sol\":1236:1241  _user */\n      dup5\n        /* \".deps/contracts/creditOp.sol\":1224:1242  user2credit[_user] */\n      0xffffffffffffffffffffffffffffffffffffffff\n      and\n      0xffffffffffffffffffffffffffffffffffffffff\n      and\n      dup2\n      mstore\n      0x20\n      add\n      swap1\n      dup2\n      mstore\n      0x20\n      add\n      0x00\n      keccak256\n      sload\n        /* \".deps/contracts/creditOp.sol\":1210:1242  uint credit = user2credit[_user] */\n      swap1\n      pop\n        /* \".deps/contracts/creditOp.sol\":1260:1263  100 */\n      0x64\n        /* \".deps/contracts/creditOp.sol\":1252:1263  _dec *= 100 */\n      dup3\n      mul\n      swap2\n      pop\n        /* \".deps/contracts/creditOp.sol\":1283:1287  _dec */\n      dup2\n        /* \".deps/contracts/creditOp.sol\":1273:1287  credit -= _dec */\n      dup2\n      sub\n      swap1\n      pop\n        /* \".deps/contracts/creditOp.sol\":1336:1338  50 */\n      0x32\n        /* \".deps/contracts/creditOp.sol\":1327:1333  credit */\n      dup2\n        /* \".deps/contracts/creditOp.sol\":1327:1338  credit < 50 */\n      lt\n        /* \".deps/contracts/creditOp.sol\":1323:1443  if (credit < 50) {... */\n      iszero\n      tag_72\n      jumpi\n        /* \".deps/contracts/creditOp.sol\":1354:1366  uint8 isQual */\n      0x00\n        /* \".deps/contracts/creditOp.sol\":1369:1380  qualifiable */\n      0x03\n        /* \".deps/contracts/creditOp.sol\":1369:1387  qualifiable[_user] */\n      0x00\n        /* \".deps/contracts/creditOp.sol\":1381:1386  _user */\n      dup6\n        /* \".deps/contracts/creditOp.sol\":1369:1387  qualifiable[_user] */\n      0xffffffffffffffffffffffffffffffffffffffff\n      and\n      0xffffffffffffffffffffffffffffffffffffffff\n      and\n      dup2\n      mstore\n      0x20\n      add\n      swap1\n      dup2\n      mstore\n      0x20\n      add\n      0x00\n      keccak256\n      0x00\n      swap1\n      sload\n      swap1\n      0x0100\n      exp\n      swap1\n      div\n      0xff\n      and\n        /* \".deps/contracts/creditOp.sol\":1354:1387  uint8 isQual = qualifiable[_user] */\n      swap1\n      pop\n        /* \".deps/contracts/creditOp.sol\":1431:1432  1 */\n      0x01\n        /* \".deps/contracts/creditOp.sol\":1422:1428  isQual */\n      dup2\n        /* \".deps/contracts/creditOp.sol\":1422:1432  isQual + 1 */\n      add\n        /* \".deps/contracts/creditOp.sol\":1401:1412  qualifiable */\n      0x03\n        /* \".deps/contracts/creditOp.sol\":1401:1419  qualifiable[_user] */\n      0x00\n        /* \".deps/contracts/creditOp.sol\":1413:1418  _user */\n      dup7\n        /* \".deps/contracts/creditOp.sol\":1401:1419  qualifiable[_user] */\n      0xffffffffffffffffffffffffffffffffffffffff\n      and\n      0xffffffffffffffffffffffffffffffffffffffff\n      and\n      dup2\n      mstore\n      0x20\n      add\n      swap1\n      dup2\n      mstore\n      0x20\n      add\n      0x00\n      keccak256\n      0x00\n        /* \".deps/contracts/creditOp.sol\":1401:1432  qualifiable[_user] = isQual + 1 */\n      0x0100\n      exp\n      dup2\n      sload\n      dup2\n      0xff\n      mul\n      not\n      and\n      swap1\n      dup4\n      0xff\n      and\n      mul\n      or\n      swap1\n      sstore\n      pop\n        /* \".deps/contracts/creditOp.sol\":1323:1443  if (credit < 50) {... */\n      pop\n    tag_72:\n        /* \".deps/contracts/creditOp.sol\":1473:1479  credit */\n      dup1\n        /* \".deps/contracts/creditOp.sol\":1452:1463  user2credit */\n      0x00\n        /* \".deps/contracts/creditOp.sol\":1452:1470  user2credit[_user] */\n      dup1\n        /* \".deps/contracts/creditOp.sol\":1464:1469  _user */\n      dup6\n        /* \".deps/contracts/creditOp.sol\":1452:1470  user2credit[_user] */\n      0xffffffffffffffffffffffffffffffffffffffff\n      and\n      0xffffffffffffffffffffffffffffffffffffffff\n      and\n      dup2\n      mstore\n      0x20\n      add\n      swap1\n      dup2\n      mstore\n      0x20\n      add\n      0x00\n      keccak256\n        /* \".deps/contracts/creditOp.sol\":1452:1479  user2credit[_user] = credit */\n      dup2\n      swap1\n      sstore\n      pop\n        /* \".deps/contracts/creditOp.sol\":1148:1486  function decCredit(address _user, uint _dec) public {... */\n      pop\n      pop\n      pop\n      jump\t// out\n        /* \".deps/contracts/creditOp.sol\":211:256  mapping (address => uint8) public qualifiable */\n    tag_36:\n      mstore(0x20, 0x03)\n      dup1\n      0x00\n      mstore\n      keccak256(0x00, 0x40)\n      0x00\n      swap2\n      pop\n      sload\n      swap1\n      0x0100\n      exp\n      swap1\n      div\n      0xff\n      and\n      dup2\n      jump\t// out\n        /* \".deps/contracts/creditOp.sol\":49:93  mapping (address => uint) public user2credit */\n    tag_39:\n      mstore(0x20, 0x00)\n      dup1\n      0x00\n      mstore\n      keccak256(0x00, 0x40)\n      0x00\n      swap2\n      pop\n      swap1\n      pop\n      sload\n      dup2\n      jump\t// out\n        /* \".deps/contracts/creditOp.sol\":2493:2701  function removeCredit(address _user) public {... */\n    tag_42:\n        /* \".deps/contracts/creditOp.sol\":2579:2580  0 */\n      0x00\n        /* \".deps/contracts/creditOp.sol\":2555:2581  _next[_user] != address(0) */\n      0xffffffffffffffffffffffffffffffffffffffff\n      and\n        /* \".deps/contracts/creditOp.sol\":2555:2560  _next */\n      0x01\n        /* \".deps/contracts/creditOp.sol\":2555:2567  _next[_user] */\n      0x00\n        /* \".deps/contracts/creditOp.sol\":2561:2566  _user */\n      dup4\n        /* \".deps/contracts/creditOp.sol\":2555:2567  _next[_user] */\n      0xffffffffffffffffffffffffffffffffffffffff\n      and\n      0xffffffffffffffffffffffffffffffffffffffff\n      and\n      dup2\n      mstore\n      0x20\n      add\n      swap1\n      dup2\n      mstore\n      0x20\n      add\n      0x00\n      keccak256\n      0x00\n      swap1\n      sload\n      swap1\n      0x0100\n      exp\n      swap1\n      div\n      0xffffffffffffffffffffffffffffffffffffffff\n      and\n        /* \".deps/contracts/creditOp.sol\":2555:2581  _next[_user] != address(0) */\n      0xffffffffffffffffffffffffffffffffffffffff\n      and\n      eq\n      iszero\n        /* \".deps/contracts/creditOp.sol\":2547:2582  require(_next[_user] != address(0)) */\n      tag_74\n      jumpi\n      0x00\n      dup1\n      revert\n    tag_74:\n        /* \".deps/contracts/creditOp.sol\":2592:2604  address prev */\n      0x00\n        /* \".deps/contracts/creditOp.sol\":2607:2623  _findPrev(_user) */\n      tag_75\n        /* \".deps/contracts/creditOp.sol\":2617:2622  _user */\n      dup3\n        /* \".deps/contracts/creditOp.sol\":2607:2616  _findPrev */\n      tag_57\n        /* \".deps/contracts/creditOp.sol\":2607:2623  _findPrev(_user) */\n      jump\t// in\n    tag_75:\n        /* \".deps/contracts/creditOp.sol\":2592:2623  address prev = _findPrev(_user) */\n      swap1\n      pop\n        /* \".deps/contracts/creditOp.sol\":2647:2652  _next */\n      0x01\n        /* \".deps/contracts/creditOp.sol\":2647:2659  _next[_user] */\n      0x00\n        /* \".deps/contracts/creditOp.sol\":2653:2658  _user */\n      dup4\n        /* \".deps/contracts/creditOp.sol\":2647:2659  _next[_user] */\n      0xffffffffffffffffffffffffffffffffffffffff\n      and\n      0xffffffffffffffffffffffffffffffffffffffff\n      and\n      dup2\n      mstore\n      0x20\n      add\n      swap1\n      dup2\n      mstore\n      0x20\n      add\n      0x00\n      keccak256\n      0x00\n      swap1\n      sload\n      swap1\n      0x0100\n      exp\n      swap1\n      div\n      0xffffffffffffffffffffffffffffffffffffffff\n      and\n        /* \".deps/contracts/creditOp.sol\":2633:2638  _next */\n      0x01\n        /* \".deps/contracts/creditOp.sol\":2633:2644  _next[prev] */\n      0x00\n        /* \".deps/contracts/creditOp.sol\":2639:2643  prev */\n      dup4\n        /* \".deps/contracts/creditOp.sol\":2633:2644  _next[prev] */\n      0xffffffffffffffffffffffffffffffffffffffff\n      and\n      0xffffffffffffffffffffffffffffffffffffffff\n      and\n      dup2\n      mstore\n      0x20\n      add\n      swap1\n      dup2\n      mstore\n      0x20\n      add\n      0x00\n      keccak256\n      0x00\n        /* \".deps/contracts/creditOp.sol\":2633:2659  _next[prev] = _next[_user] */\n      0x0100\n      exp\n      dup2\n      sload\n      dup2\n      0xffffffffffffffffffffffffffffffffffffffff\n      mul\n      not\n      and\n      swap1\n      dup4\n      0xffffffffffffffffffffffffffffffffffffffff\n      and\n      mul\n      or\n      swap1\n      sstore\n      pop\n        /* \".deps/contracts/creditOp.sol\":2692:2693  0 */\n      0x00\n        /* \".deps/contracts/creditOp.sol\":2669:2674  _next */\n      0x01\n        /* \".deps/contracts/creditOp.sol\":2669:2681  _next[_user] */\n      0x00\n        /* \".deps/contracts/creditOp.sol\":2675:2680  _user */\n      dup5\n        /* \".deps/contracts/creditOp.sol\":2669:2681  _next[_user] */\n      0xffffffffffffffffffffffffffffffffffffffff\n      and\n      0xffffffffffffffffffffffffffffffffffffffff\n      and\n      dup2\n      mstore\n      0x20\n      add\n      swap1\n      dup2\n      mstore\n      0x20\n      add\n      0x00\n      keccak256\n      0x00\n        /* \".deps/contracts/creditOp.sol\":2669:2694  _next[_user] = address(0) */\n      0x0100\n      exp\n      dup2\n      sload\n      dup2\n      0xffffffffffffffffffffffffffffffffffffffff\n      mul\n      not\n      and\n      swap1\n      dup4\n      0xffffffffffffffffffffffffffffffffffffffff\n      and\n      mul\n      or\n      swap1\n      sstore\n      pop\n        /* \".deps/contracts/creditOp.sol\":2493:2701  function removeCredit(address _user) public {... */\n      pop\n      pop\n      jump\t// out\n        /* \".deps/contracts/creditOp.sol\":1630:1736  function isQualifiable(address _user) private returns(bool) {... */\n    tag_45:\n        /* \".deps/contracts/creditOp.sol\":1684:1688  bool */\n      0x00\n        /* \".deps/contracts/creditOp.sol\":1728:1729  2 */\n      0x02\n        /* \".deps/contracts/creditOp.sol\":1707:1718  qualifiable */\n      0x03\n        /* \".deps/contracts/creditOp.sol\":1707:1725  qualifiable[_user] */\n      0x00\n        /* \".deps/contracts/creditOp.sol\":1719:1724  _user */\n      dup5\n        /* \".deps/contracts/creditOp.sol\":1707:1725  qualifiable[_user] */\n      0xffffffffffffffffffffffffffffffffffffffff\n      and\n      0xffffffffffffffffffffffffffffffffffffffff\n      and\n      dup2\n      mstore\n      0x20\n      add\n      swap1\n      dup2\n      mstore\n      0x20\n      add\n      0x00\n      keccak256\n      0x00\n      swap1\n      sload\n      swap1\n      0x0100\n      exp\n      swap1\n      div\n      0xff\n      and\n        /* \".deps/contracts/creditOp.sol\":1707:1729  qualifiable[_user] < 2 */\n      0xff\n      and\n      lt\n        /* \".deps/contracts/creditOp.sol\":1700:1729  return qualifiable[_user] < 2 */\n      swap1\n      pop\n        /* \".deps/contracts/creditOp.sol\":1630:1736  function isQualifiable(address _user) private returns(bool) {... */\n      swap2\n      swap1\n      pop\n      jump\t// out\n        /* \".deps/contracts/creditOp.sol\":3162:3489  function _findIndex(uint newValue) internal view returns(address) {... */\n    tag_51:\n        /* \".deps/contracts/creditOp.sol\":3219:3226  address */\n      0x00\n        /* \".deps/contracts/creditOp.sol\":3238:3262  address candidateAddress */\n      dup1\n        /* \".deps/contracts/creditOp.sol\":201:202  1 */\n      0x01\n        /* \".deps/contracts/creditOp.sol\":3238:3270  address candidateAddress = GUARD */\n      swap1\n      pop\n        /* \".deps/contracts/creditOp.sol\":3280:3483  while(true) {... */\n    tag_78:\n        /* \".deps/contracts/creditOp.sol\":3286:3290  true */\n      0x01\n        /* \".deps/contracts/creditOp.sol\":3280:3483  while(true) {... */\n      iszero\n      tag_79\n      jumpi\n        /* \".deps/contracts/creditOp.sol\":3310:3375  _verifyIndex(candidateAddress, newValue, _next[candidateAddress]) */\n      tag_80\n        /* \".deps/contracts/creditOp.sol\":3323:3339  candidateAddress */\n      dup2\n        /* \".deps/contracts/creditOp.sol\":3341:3349  newValue */\n      dup5\n        /* \".deps/contracts/creditOp.sol\":3351:3356  _next */\n      0x01\n        /* \".deps/contracts/creditOp.sol\":3351:3374  _next[candidateAddress] */\n      0x00\n        /* \".deps/contracts/creditOp.sol\":3357:3373  candidateAddress */\n      dup6\n        /* \".deps/contracts/creditOp.sol\":3351:3374  _next[candidateAddress] */\n      0xffffffffffffffffffffffffffffffffffffffff\n      and\n      0xffffffffffffffffffffffffffffffffffffffff\n      and\n      dup2\n      mstore\n      0x20\n      add\n      swap1\n      dup2\n      mstore\n      0x20\n      add\n      0x00\n      keccak256\n      0x00\n      swap1\n      sload\n      swap1\n      0x0100\n      exp\n      swap1\n      div\n      0xffffffffffffffffffffffffffffffffffffffff\n      and\n        /* \".deps/contracts/creditOp.sol\":3310:3322  _verifyIndex */\n      tag_59\n        /* \".deps/contracts/creditOp.sol\":3310:3375  _verifyIndex(candidateAddress, newValue, _next[candidateAddress]) */\n      jump\t// in\n    tag_80:\n        /* \".deps/contracts/creditOp.sol\":3306:3416  if (_verifyIndex(candidateAddress, newValue, _next[candidateAddress]))... */\n      iszero\n      tag_81\n      jumpi\n        /* \".deps/contracts/creditOp.sol\":3400:3416  candidateAddress */\n      dup1\n        /* \".deps/contracts/creditOp.sol\":3393:3416  return candidateAddress */\n      swap2\n      pop\n      pop\n      jump(tag_77)\n        /* \".deps/contracts/creditOp.sol\":3306:3416  if (_verifyIndex(candidateAddress, newValue, _next[candidateAddress]))... */\n    tag_81:\n        /* \".deps/contracts/creditOp.sol\":3449:3454  _next */\n      0x01\n        /* \".deps/contracts/creditOp.sol\":3449:3472  _next[candidateAddress] */\n      0x00\n        /* \".deps/contracts/creditOp.sol\":3455:3471  candidateAddress */\n      dup3\n        /* \".deps/contracts/creditOp.sol\":3449:3472  _next[candidateAddress] */\n      0xffffffffffffffffffffffffffffffffffffffff\n      and\n      0xffffffffffffffffffffffffffffffffffffffff\n      and\n      dup2\n      mstore\n      0x20\n      add\n      swap1\n      dup2\n      mstore\n      0x20\n      add\n      0x00\n      keccak256\n      0x00\n      swap1\n      sload\n      swap1\n      0x0100\n      exp\n      swap1\n      div\n      0xffffffffffffffffffffffffffffffffffffffff\n      and\n        /* \".deps/contracts/creditOp.sol\":3430:3472  candidateAddress = _next[candidateAddress] */\n      swap1\n      pop\n        /* \".deps/contracts/creditOp.sol\":3280:3483  while(true) {... */\n      jump(tag_78)\n    tag_79:\n        /* \".deps/contracts/creditOp.sol\":3162:3489  function _findIndex(uint newValue) internal view returns(address) {... */\n      pop\n    tag_77:\n      swap2\n      swap1\n      pop\n      jump\t// out\n        /* \".deps/contracts/creditOp.sol\":3617:3951  function _findPrev(address user) internal view returns(address) {... */\n    tag_57:\n        /* \".deps/contracts/creditOp.sol\":3672:3679  address */\n      0x00\n        /* \".deps/contracts/creditOp.sol\":3691:3713  address currentAddress */\n      dup1\n        /* \".deps/contracts/creditOp.sol\":201:202  1 */\n      0x01\n        /* \".deps/contracts/creditOp.sol\":3691:3721  address currentAddress = GUARD */\n      swap1\n      pop\n        /* \".deps/contracts/creditOp.sol\":3731:3918  while(_next[currentAddress] != GUARD) {... */\n    tag_83:\n        /* \".deps/contracts/creditOp.sol\":201:202  1 */\n      0x01\n        /* \".deps/contracts/creditOp.sol\":3737:3767  _next[currentAddress] != GUARD */\n      0xffffffffffffffffffffffffffffffffffffffff\n      and\n        /* \".deps/contracts/creditOp.sol\":3737:3742  _next */\n      0x01\n        /* \".deps/contracts/creditOp.sol\":3737:3758  _next[currentAddress] */\n      0x00\n        /* \".deps/contracts/creditOp.sol\":3743:3757  currentAddress */\n      dup4\n        /* \".deps/contracts/creditOp.sol\":3737:3758  _next[currentAddress] */\n      0xffffffffffffffffffffffffffffffffffffffff\n      and\n      0xffffffffffffffffffffffffffffffffffffffff\n      and\n      dup2\n      mstore\n      0x20\n      add\n      swap1\n      dup2\n      mstore\n      0x20\n      add\n      0x00\n      keccak256\n      0x00\n      swap1\n      sload\n      swap1\n      0x0100\n      exp\n      swap1\n      div\n      0xffffffffffffffffffffffffffffffffffffffff\n      and\n        /* \".deps/contracts/creditOp.sol\":3737:3767  _next[currentAddress] != GUARD */\n      0xffffffffffffffffffffffffffffffffffffffff\n      and\n      eq\n        /* \".deps/contracts/creditOp.sol\":3731:3918  while(_next[currentAddress] != GUARD) {... */\n      tag_84\n      jumpi\n        /* \".deps/contracts/creditOp.sol\":3787:3816  _isPrev(user, currentAddress) */\n      tag_85\n        /* \".deps/contracts/creditOp.sol\":3795:3799  user */\n      dup4\n        /* \".deps/contracts/creditOp.sol\":3801:3815  currentAddress */\n      dup3\n        /* \".deps/contracts/creditOp.sol\":3787:3794  _isPrev */\n      tag_86\n        /* \".deps/contracts/creditOp.sol\":3787:3816  _isPrev(user, currentAddress) */\n      jump\t// in\n    tag_85:\n        /* \".deps/contracts/creditOp.sol\":3783:3855  if (_isPrev(user, currentAddress))... */\n      iszero\n      tag_87\n      jumpi\n        /* \".deps/contracts/creditOp.sol\":3841:3855  currentAddress */\n      dup1\n        /* \".deps/contracts/creditOp.sol\":3834:3855  return currentAddress */\n      swap2\n      pop\n      pop\n      jump(tag_82)\n        /* \".deps/contracts/creditOp.sol\":3783:3855  if (_isPrev(user, currentAddress))... */\n    tag_87:\n        /* \".deps/contracts/creditOp.sol\":3886:3891  _next */\n      0x01\n        /* \".deps/contracts/creditOp.sol\":3886:3907  _next[currentAddress] */\n      0x00\n        /* \".deps/contracts/creditOp.sol\":3892:3906  currentAddress */\n      dup3\n        /* \".deps/contracts/creditOp.sol\":3886:3907  _next[currentAddress] */\n      0xffffffffffffffffffffffffffffffffffffffff\n      and\n      0xffffffffffffffffffffffffffffffffffffffff\n      and\n      dup2\n      mstore\n      0x20\n      add\n      swap1\n      dup2\n      mstore\n      0x20\n      add\n      0x00\n      keccak256\n      0x00\n      swap1\n      sload\n      swap1\n      0x0100\n      exp\n      swap1\n      div\n      0xffffffffffffffffffffffffffffffffffffffff\n      and\n        /* \".deps/contracts/creditOp.sol\":3869:3907  currentAddress = _next[currentAddress] */\n      swap1\n      pop\n        /* \".deps/contracts/creditOp.sol\":3731:3918  while(_next[currentAddress] != GUARD) {... */\n      jump(tag_83)\n    tag_84:\n        /* \".deps/contracts/creditOp.sol\":3942:3943  0 */\n      0x00\n        /* \".deps/contracts/creditOp.sol\":3927:3944  return address(0) */\n      swap2\n      pop\n      pop\n        /* \".deps/contracts/creditOp.sol\":3617:3951  function _findPrev(address user) internal view returns(address) {... */\n    tag_82:\n      swap2\n      swap1\n      pop\n      jump\t// out\n        /* \".deps/contracts/creditOp.sol\":2919:3156  function _verifyIndex(address prev, uint newValue, address next) ... */\n    tag_59:\n        /* \".deps/contracts/creditOp.sol\":3015:3019  bool */\n      0x00\n        /* \".deps/contracts/creditOp.sol\":201:202  1 */\n      0x01\n        /* \".deps/contracts/creditOp.sol\":3039:3052  prev == GUARD */\n      0xffffffffffffffffffffffffffffffffffffffff\n      and\n        /* \".deps/contracts/creditOp.sol\":3039:3043  prev */\n      dup5\n        /* \".deps/contracts/creditOp.sol\":3039:3052  prev == GUARD */\n      0xffffffffffffffffffffffffffffffffffffffff\n      and\n      eq\n        /* \".deps/contracts/creditOp.sol\":3039:3085  prev == GUARD || user2credit[prev] >= newValue */\n      dup1\n      tag_89\n      jumpi\n      pop\n        /* \".deps/contracts/creditOp.sol\":3077:3085  newValue */\n      dup3\n        /* \".deps/contracts/creditOp.sol\":3056:3067  user2credit */\n      0x00\n        /* \".deps/contracts/creditOp.sol\":3056:3073  user2credit[prev] */\n      dup1\n        /* \".deps/contracts/creditOp.sol\":3068:3072  prev */\n      dup7\n        /* \".deps/contracts/creditOp.sol\":3056:3073  user2credit[prev] */\n      0xffffffffffffffffffffffffffffffffffffffff\n      and\n      0xffffffffffffffffffffffffffffffffffffffff\n      and\n      dup2\n      mstore\n      0x20\n      add\n      swap1\n      dup2\n      mstore\n      0x20\n      add\n      0x00\n      keccak256\n      sload\n        /* \".deps/contracts/creditOp.sol\":3056:3085  user2credit[prev] >= newValue */\n      lt\n      iszero\n        /* \".deps/contracts/creditOp.sol\":3039:3085  prev == GUARD || user2credit[prev] >= newValue */\n    tag_89:\n        /* \".deps/contracts/creditOp.sol\":3038:3149  (prev == GUARD || user2credit[prev] >= newValue)... */\n      dup1\n      iszero\n      tag_90\n      jumpi\n      pop\n        /* \".deps/contracts/creditOp.sol\":201:202  1 */\n      0x01\n        /* \".deps/contracts/creditOp.sol\":3103:3116  next == GUARD */\n      0xffffffffffffffffffffffffffffffffffffffff\n      and\n        /* \".deps/contracts/creditOp.sol\":3103:3107  next */\n      dup3\n        /* \".deps/contracts/creditOp.sol\":3103:3116  next == GUARD */\n      0xffffffffffffffffffffffffffffffffffffffff\n      and\n      eq\n        /* \".deps/contracts/creditOp.sol\":3103:3148  next == GUARD || newValue > user2credit[next] */\n      dup1\n      tag_91\n      jumpi\n      pop\n        /* \".deps/contracts/creditOp.sol\":3131:3142  user2credit */\n      0x00\n        /* \".deps/contracts/creditOp.sol\":3131:3148  user2credit[next] */\n      dup1\n        /* \".deps/contracts/creditOp.sol\":3143:3147  next */\n      dup4\n        /* \".deps/contracts/creditOp.sol\":3131:3148  user2credit[next] */\n      0xffffffffffffffffffffffffffffffffffffffff\n      and\n      0xffffffffffffffffffffffffffffffffffffffff\n      and\n      dup2\n      mstore\n      0x20\n      add\n      swap1\n      dup2\n      mstore\n      0x20\n      add\n      0x00\n      keccak256\n      sload\n        /* \".deps/contracts/creditOp.sol\":3120:3128  newValue */\n      dup4\n        /* \".deps/contracts/creditOp.sol\":3120:3148  newValue > user2credit[next] */\n      gt\n        /* \".deps/contracts/creditOp.sol\":3103:3148  next == GUARD || newValue > user2credit[next] */\n    tag_91:\n        /* \".deps/contracts/creditOp.sol\":3038:3149  (prev == GUARD || user2credit[prev] >= newValue)... */\n    tag_90:\n        /* \".deps/contracts/creditOp.sol\":3031:3149  return (prev == GUARD || user2credit[prev] >= newValue)... */\n      swap1\n      pop\n        /* \".deps/contracts/creditOp.sol\":2919:3156  function _verifyIndex(address prev, uint newValue, address next) ... */\n      swap4\n      swap3\n      pop\n      pop\n      pop\n      jump\t// out\n        /* \".deps/contracts/creditOp.sol\":3495:3611  function _isPrev(address user, address prev) internal view returns(bool) {... */\n    tag_86:\n        /* \".deps/contracts/creditOp.sol\":3562:3566  bool */\n      0x00\n        /* \".deps/contracts/creditOp.sol\":3600:3604  user */\n      dup3\n        /* \".deps/contracts/creditOp.sol\":3585:3604  _next[prev] == user */\n      0xffffffffffffffffffffffffffffffffffffffff\n      and\n        /* \".deps/contracts/creditOp.sol\":3585:3590  _next */\n      0x01\n        /* \".deps/contracts/creditOp.sol\":3585:3596  _next[prev] */\n      0x00\n        /* \".deps/contracts/creditOp.sol\":3591:3595  prev */\n      dup5\n        /* \".deps/contracts/creditOp.sol\":3585:3596  _next[prev] */\n      0xffffffffffffffffffffffffffffffffffffffff\n      and\n      0xffffffffffffffffffffffffffffffffffffffff\n      and\n      dup2\n      mstore\n      0x20\n      add\n      swap1\n      dup2\n      mstore\n      0x20\n      add\n      0x00\n      keccak256\n      0x00\n      swap1\n      sload\n      swap1\n      0x0100\n      exp\n      swap1\n      div\n      0xffffffffffffffffffffffffffffffffffffffff\n      and\n        /* \".deps/contracts/creditOp.sol\":3585:3604  _next[prev] == user */\n      0xffffffffffffffffffffffffffffffffffffffff\n      and\n      eq\n        /* \".deps/contracts/creditOp.sol\":3578:3604  return _next[prev] == user */\n      swap1\n      pop\n        /* \".deps/contracts/creditOp.sol\":3495:3611  function _isPrev(address user, address prev) internal view returns(bool) {... */\n      swap3\n      swap2\n      pop\n      pop\n      jump\t// out\n\n    auxdata: 0xa2646970667358221220ce93a3ef9685f435d7da7085f9a5040000bdb7e6776a20fdc43ccca735a2d32264736f6c63430007060033\n}\n",
				"bytecode": {
					"linkReferences": {},
					"object": "6080604052612710600455614e2060055561138860065561177060075534801561002857600080fd5b506001806000600173ffffffffffffffffffffffffffffffffffffffff1673ffffffffffffffffffffffffffffffffffffffff16815260200190815260200160002060006101000a81548173ffffffffffffffffffffffffffffffffffffffff021916908373ffffffffffffffffffffffffffffffffffffffff1602179055506111aa806100b76000396000f3fe608060405234801561001057600080fd5b506004361061009e5760003560e01c8063972c535611610066578063972c53561461022b5780639dc29cdb14610249578063d4268f4a14610297578063de6e6d3e146102f2578063eaeadac91461034a5761009e565b80631eab150d146100a35780631f72a7d5146100fd57806357344e6f1461014157806365d9772414610199578063904fba8d146101e7575b600080fd5b6100e5600480360360208110156100b957600080fd5b81019080803573ffffffffffffffffffffffffffffffffffffffff16906020019092919050505061038e565b60405180821515815260200191505060405180910390f35b61013f6004803603602081101561011357600080fd5b81019080803573ffffffffffffffffffffffffffffffffffffffff1690602001909291905050506103b5565b005b6101836004803603602081101561015757600080fd5b81019080803573ffffffffffffffffffffffffffffffffffffffff16906020019092919050505061066b565b6040518082815260200191505060405180910390f35b6101e5600480360360408110156101af57600080fd5b81019080803573ffffffffffffffffffffffffffffffffffffffff169060200190929190803590602001909291905050506106bd565b005b610229600480360360208110156101fd57600080fd5b81019080803573ffffffffffffffffffffffffffffffffffffffff169060200190929190505050610826565b005b6102336109d1565b6040518082815260200191505060405180910390f35b6102956004803603604081101561025f57600080fd5b81019080803573ffffffffffffffffffffffffffffffffffffffff169060200190929190803590602001909291905050506109d7565b005b6102d9600480360360208110156102ad57600080fd5b81019080803573ffffffffffffffffffffffffffffffffffffffff169060200190929190505050610b24565b604051808260ff16815260200191505060405180910390f35b6103346004803603602081101561030857600080fd5b81019080803573ffffffffffffffffffffffffffffffffffffffff169060200190929190505050610b44565b6040518082815260200191505060405180910390f35b61038c6004803603602081101561036057600080fd5b81019080803573ffffffffffffffffffffffffffffffffffffffff169060200190929190505050610b5c565b005b600061039982610d62565b80156103ae575060326103ab8361066b565b10155b9050919050565b600073ffffffffffffffffffffffffffffffffffffffff16600160008373ffffffffffffffffffffffffffffffffffffffff1673ffffffffffffffffffffffffffffffffffffffff16815260200190815260200160002060009054906101000a900473ffffffffffffffffffffffffffffffffffffffff1673ffffffffffffffffffffffffffffffffffffffff161461044d57600080fd5b600061045a600454610dbe565b90506004546000808473ffffffffffffffffffffffffffffffffffffffff1673ffffffffffffffffffffffffffffffffffffffff16815260200190815260200160002081905550600160008273ffffffffffffffffffffffffffffffffffffffff1673ffffffffffffffffffffffffffffffffffffffff16815260200190815260200160002060009054906101000a900473ffffffffffffffffffffffffffffffffffffffff16600160008473ffffffffffffffffffffffffffffffffffffffff1673ffffffffffffffffffffffffffffffffffffffff16815260200190815260200160002060006101000a81548173ffffffffffffffffffffffffffffffffffffffff021916908373ffffffffffffffffffffffffffffffffffffffff16021790555081600160008373ffffffffffffffffffffffffffffffffffffffff1673ffffffffffffffffffffffffffffffffffffffff16815260200190815260200160002060006101000a81548173ffffffffffffffffffffffffffffffffffffffff021916908373ffffffffffffffffffffffffffffffffffffffff1602179055506002600081548092919060010191905055506000600360008473ffffffffffffffffffffffffffffffffffffffff1673ffffffffffffffffffffffffffffffffffffffff16815260200190815260200160002060006101000a81548160ff021916908360ff1602179055505050565b600060646000808473ffffffffffffffffffffffffffffffffffffffff1673ffffffffffffffffffffffffffffffffffffffff16815260200190815260200160002054816106b557fe5b049050919050565b600073ffffffffffffffffffffffffffffffffffffffff16600160008473ffffffffffffffffffffffffffffffffffffffff1673ffffffffffffffffffffffffffffffffffffffff16815260200190815260200160002060009054906101000a900473ffffffffffffffffffffffffffffffffffffffff1673ffffffffffffffffffffffffffffffffffffffff16141561075657600080fd5b600061076183610eb3565b90506000600160008573ffffffffffffffffffffffffffffffffffffffff1673ffffffffffffffffffffffffffffffffffffffff16815260200190815260200160002060009054906101000a900473ffffffffffffffffffffffffffffffffffffffff1690506107d2828483610fd8565b1561081f57826000808673ffffffffffffffffffffffffffffffffffffffff1673ffffffffffffffffffffffffffffffffffffffff16815260200190815260200160002081905550610820565b5b50505050565b60008060008373ffffffffffffffffffffffffffffffffffffffff1673ffffffffffffffffffffffffffffffffffffffff16815260200190815260200160002054905060006040518060c00160405280600061ffff16815260200161271061ffff168152602001612af861ffff168152602001613a9861ffff16815260200161465061ffff168152602001614e2061ffff16815250905060006040518060a00160405280606460ff168152602001606060ff168152602001601060ff168152602001600560ff168152602001600160ff1681525090506005548310156109cb57600080600190505b6006811015610985578484836006811061092457fe5b602002015161ffff161115801561094e575083816006811061094257fe5b602002015161ffff1685105b156109705782826005811061095f57fe5b602002015160ff1685019450610985565b8180600101925050808060010191505061090e565b846000808873ffffffffffffffffffffffffffffffffffffffff1673ffffffffffffffffffffffffffffffffffffffff1681526020019081526020016000208190555050505b50505050565b60025481565b60008060008473ffffffffffffffffffffffffffffffffffffffff1673ffffffffffffffffffffffffffffffffffffffff16815260200190815260200160002054905060648202915081810390506032811015610adc576000600360008573ffffffffffffffffffffffffffffffffffffffff1673ffffffffffffffffffffffffffffffffffffffff16815260200190815260200160002060009054906101000a900460ff16905060018101600360008673ffffffffffffffffffffffffffffffffffffffff1673ffffffffffffffffffffffffffffffffffffffff16815260200190815260200160002060006101000a81548160ff021916908360ff160217905550505b806000808573ffffffffffffffffffffffffffffffffffffffff1673ffffffffffffffffffffffffffffffffffffffff16815260200190815260200160002081905550505050565b60036020528060005260406000206000915054906101000a900460ff1681565b60006020528060005260406000206000915090505481565b600073ffffffffffffffffffffffffffffffffffffffff16600160008373ffffffffffffffffffffffffffffffffffffffff1673ffffffffffffffffffffffffffffffffffffffff16815260200190815260200160002060009054906101000a900473ffffffffffffffffffffffffffffffffffffffff1673ffffffffffffffffffffffffffffffffffffffff161415610bf557600080fd5b6000610c0082610eb3565b9050600160008373ffffffffffffffffffffffffffffffffffffffff1673ffffffffffffffffffffffffffffffffffffffff16815260200190815260200160002060009054906101000a900473ffffffffffffffffffffffffffffffffffffffff16600160008373ffffffffffffffffffffffffffffffffffffffff1673ffffffffffffffffffffffffffffffffffffffff16815260200190815260200160002060006101000a81548173ffffffffffffffffffffffffffffffffffffffff021916908373ffffffffffffffffffffffffffffffffffffffff1602179055506000600160008473ffffffffffffffffffffffffffffffffffffffff1673ffffffffffffffffffffffffffffffffffffffff16815260200190815260200160002060006101000a81548173ffffffffffffffffffffffffffffffffffffffff021916908373ffffffffffffffffffffffffffffffffffffffff1602179055505050565b60006002600360008473ffffffffffffffffffffffffffffffffffffffff1673ffffffffffffffffffffffffffffffffffffffff16815260200190815260200160002060009054906101000a900460ff1660ff16109050919050565b600080600190505b600115610eac57610e378184600160008573ffffffffffffffffffffffffffffffffffffffff1673ffffffffffffffffffffffffffffffffffffffff16815260200190815260200160002060009054906101000a900473ffffffffffffffffffffffffffffffffffffffff16610fd8565b15610e455780915050610eae565b600160008273ffffffffffffffffffffffffffffffffffffffff1673ffffffffffffffffffffffffffffffffffffffff16815260200190815260200160002060009054906101000a900473ffffffffffffffffffffffffffffffffffffffff169050610dc6565b505b919050565b600080600190505b600173ffffffffffffffffffffffffffffffffffffffff16600160008373ffffffffffffffffffffffffffffffffffffffff1673ffffffffffffffffffffffffffffffffffffffff16815260200190815260200160002060009054906101000a900473ffffffffffffffffffffffffffffffffffffffff1673ffffffffffffffffffffffffffffffffffffffff1614610fcd57610f5883826110dc565b15610f665780915050610fd3565b600160008273ffffffffffffffffffffffffffffffffffffffff1673ffffffffffffffffffffffffffffffffffffffff16815260200190815260200160002060009054906101000a900473ffffffffffffffffffffffffffffffffffffffff169050610ebb565b60009150505b919050565b6000600173ffffffffffffffffffffffffffffffffffffffff168473ffffffffffffffffffffffffffffffffffffffff1614806110535750826000808673ffffffffffffffffffffffffffffffffffffffff1673ffffffffffffffffffffffffffffffffffffffff1681526020019081526020016000205410155b80156110d35750600173ffffffffffffffffffffffffffffffffffffffff168273ffffffffffffffffffffffffffffffffffffffff1614806110d257506000808373ffffffffffffffffffffffffffffffffffffffff1673ffffffffffffffffffffffffffffffffffffffff1681526020019081526020016000205483115b5b90509392505050565b60008273ffffffffffffffffffffffffffffffffffffffff16600160008473ffffffffffffffffffffffffffffffffffffffff1673ffffffffffffffffffffffffffffffffffffffff16815260200190815260200160002060009054906101000a900473ffffffffffffffffffffffffffffffffffffffff1673ffffffffffffffffffffffffffffffffffffffff161490509291505056fea2646970667358221220ce93a3ef9685f435d7da7085f9a5040000bdb7e6776a20fdc43ccca735a2d32264736f6c63430007060033",
					"opcodes": "PUSH1 0x80 PUSH1 0x40 MSTORE PUSH2 0x2710 PUSH1 0x4 SSTORE PUSH2 0x4E20 PUSH1 0x5 SSTORE PUSH2 0x1388 PUSH1 0x6 SSTORE PUSH2 0x1770 PUSH1 0x7 SSTORE CALLVALUE DUP1 ISZERO PUSH2 0x28 JUMPI PUSH1 0x0 DUP1 REVERT JUMPDEST POP PUSH1 0x1 DUP1 PUSH1 0x0 PUSH1 0x1 PUSH20 0xFFFFFFFFFFFFFFFFFFFFFFFFFFFFFFFFFFFFFFFF AND PUSH20 0xFFFFFFFFFFFFFFFFFFFFFFFFFFFFFFFFFFFFFFFF AND DUP2 MSTORE PUSH1 0x20 ADD SWAP1 DUP2 MSTORE PUSH1 0x20 ADD PUSH1 0x0 KECCAK256 PUSH1 0x0 PUSH2 0x100 EXP DUP2 SLOAD DUP2 PUSH20 0xFFFFFFFFFFFFFFFFFFFFFFFFFFFFFFFFFFFFFFFF MUL NOT AND SWAP1 DUP4 PUSH20 0xFFFFFFFFFFFFFFFFFFFFFFFFFFFFFFFFFFFFFFFF AND MUL OR SWAP1 SSTORE POP PUSH2 0x11AA DUP1 PUSH2 0xB7 PUSH1 0x0 CODECOPY PUSH1 0x0 RETURN INVALID PUSH1 0x80 PUSH1 0x40 MSTORE CALLVALUE DUP1 ISZERO PUSH2 0x10 JUMPI PUSH1 0x0 DUP1 REVERT JUMPDEST POP PUSH1 0x4 CALLDATASIZE LT PUSH2 0x9E JUMPI PUSH1 0x0 CALLDATALOAD PUSH1 0xE0 SHR DUP1 PUSH4 0x972C5356 GT PUSH2 0x66 JUMPI DUP1 PUSH4 0x972C5356 EQ PUSH2 0x22B JUMPI DUP1 PUSH4 0x9DC29CDB EQ PUSH2 0x249 JUMPI DUP1 PUSH4 0xD4268F4A EQ PUSH2 0x297 JUMPI DUP1 PUSH4 0xDE6E6D3E EQ PUSH2 0x2F2 JUMPI DUP1 PUSH4 0xEAEADAC9 EQ PUSH2 0x34A JUMPI PUSH2 0x9E JUMP JUMPDEST DUP1 PUSH4 0x1EAB150D EQ PUSH2 0xA3 JUMPI DUP1 PUSH4 0x1F72A7D5 EQ PUSH2 0xFD JUMPI DUP1 PUSH4 0x57344E6F EQ PUSH2 0x141 JUMPI DUP1 PUSH4 0x65D97724 EQ PUSH2 0x199 JUMPI DUP1 PUSH4 0x904FBA8D EQ PUSH2 0x1E7 JUMPI JUMPDEST PUSH1 0x0 DUP1 REVERT JUMPDEST PUSH2 0xE5 PUSH1 0x4 DUP1 CALLDATASIZE SUB PUSH1 0x20 DUP2 LT ISZERO PUSH2 0xB9 JUMPI PUSH1 0x0 DUP1 REVERT JUMPDEST DUP2 ADD SWAP1 DUP1 DUP1 CALLDATALOAD PUSH20 0xFFFFFFFFFFFFFFFFFFFFFFFFFFFFFFFFFFFFFFFF AND SWAP1 PUSH1 0x20 ADD SWAP1 SWAP3 SWAP2 SWAP1 POP POP POP PUSH2 0x38E JUMP JUMPDEST PUSH1 0x40 MLOAD DUP1 DUP3 ISZERO ISZERO DUP2 MSTORE PUSH1 0x20 ADD SWAP2 POP POP PUSH1 0x40 MLOAD DUP1 SWAP2 SUB SWAP1 RETURN JUMPDEST PUSH2 0x13F PUSH1 0x4 DUP1 CALLDATASIZE SUB PUSH1 0x20 DUP2 LT ISZERO PUSH2 0x113 JUMPI PUSH1 0x0 DUP1 REVERT JUMPDEST DUP2 ADD SWAP1 DUP1 DUP1 CALLDATALOAD PUSH20 0xFFFFFFFFFFFFFFFFFFFFFFFFFFFFFFFFFFFFFFFF AND SWAP1 PUSH1 0x20 ADD SWAP1 SWAP3 SWAP2 SWAP1 POP POP POP PUSH2 0x3B5 JUMP JUMPDEST STOP JUMPDEST PUSH2 0x183 PUSH1 0x4 DUP1 CALLDATASIZE SUB PUSH1 0x20 DUP2 LT ISZERO PUSH2 0x157 JUMPI PUSH1 0x0 DUP1 REVERT JUMPDEST DUP2 ADD SWAP1 DUP1 DUP1 CALLDATALOAD PUSH20 0xFFFFFFFFFFFFFFFFFFFFFFFFFFFFFFFFFFFFFFFF AND SWAP1 PUSH1 0x20 ADD SWAP1 SWAP3 SWAP2 SWAP1 POP POP POP PUSH2 0x66B JUMP JUMPDEST PUSH1 0x40 MLOAD DUP1 DUP3 DUP2 MSTORE PUSH1 0x20 ADD SWAP2 POP POP PUSH1 0x40 MLOAD DUP1 SWAP2 SUB SWAP1 RETURN JUMPDEST PUSH2 0x1E5 PUSH1 0x4 DUP1 CALLDATASIZE SUB PUSH1 0x40 DUP2 LT ISZERO PUSH2 0x1AF JUMPI PUSH1 0x0 DUP1 REVERT JUMPDEST DUP2 ADD SWAP1 DUP1 DUP1 CALLDATALOAD PUSH20 0xFFFFFFFFFFFFFFFFFFFFFFFFFFFFFFFFFFFFFFFF AND SWAP1 PUSH1 0x20 ADD SWAP1 SWAP3 SWAP2 SWAP1 DUP1 CALLDATALOAD SWAP1 PUSH1 0x20 ADD SWAP1 SWAP3 SWAP2 SWAP1 POP POP POP PUSH2 0x6BD JUMP JUMPDEST STOP JUMPDEST PUSH2 0x229 PUSH1 0x4 DUP1 CALLDATASIZE SUB PUSH1 0x20 DUP2 LT ISZERO PUSH2 0x1FD JUMPI PUSH1 0x0 DUP1 REVERT JUMPDEST DUP2 ADD SWAP1 DUP1 DUP1 CALLDATALOAD PUSH20 0xFFFFFFFFFFFFFFFFFFFFFFFFFFFFFFFFFFFFFFFF AND SWAP1 PUSH1 0x20 ADD SWAP1 SWAP3 SWAP2 SWAP1 POP POP POP PUSH2 0x826 JUMP JUMPDEST STOP JUMPDEST PUSH2 0x233 PUSH2 0x9D1 JUMP JUMPDEST PUSH1 0x40 MLOAD DUP1 DUP3 DUP2 MSTORE PUSH1 0x20 ADD SWAP2 POP POP PUSH1 0x40 MLOAD DUP1 SWAP2 SUB SWAP1 RETURN JUMPDEST PUSH2 0x295 PUSH1 0x4 DUP1 CALLDATASIZE SUB PUSH1 0x40 DUP2 LT ISZERO PUSH2 0x25F JUMPI PUSH1 0x0 DUP1 REVERT JUMPDEST DUP2 ADD SWAP1 DUP1 DUP1 CALLDATALOAD PUSH20 0xFFFFFFFFFFFFFFFFFFFFFFFFFFFFFFFFFFFFFFFF AND SWAP1 PUSH1 0x20 ADD SWAP1 SWAP3 SWAP2 SWAP1 DUP1 CALLDATALOAD SWAP1 PUSH1 0x20 ADD SWAP1 SWAP3 SWAP2 SWAP1 POP POP POP PUSH2 0x9D7 JUMP JUMPDEST STOP JUMPDEST PUSH2 0x2D9 PUSH1 0x4 DUP1 CALLDATASIZE SUB PUSH1 0x20 DUP2 LT ISZERO PUSH2 0x2AD JUMPI PUSH1 0x0 DUP1 REVERT JUMPDEST DUP2 ADD SWAP1 DUP1 DUP1 CALLDATALOAD PUSH20 0xFFFFFFFFFFFFFFFFFFFFFFFFFFFFFFFFFFFFFFFF AND SWAP1 PUSH1 0x20 ADD SWAP1 SWAP3 SWAP2 SWAP1 POP POP POP PUSH2 0xB24 JUMP JUMPDEST PUSH1 0x40 MLOAD DUP1 DUP3 PUSH1 0xFF AND DUP2 MSTORE PUSH1 0x20 ADD SWAP2 POP POP PUSH1 0x40 MLOAD DUP1 SWAP2 SUB SWAP1 RETURN JUMPDEST PUSH2 0x334 PUSH1 0x4 DUP1 CALLDATASIZE SUB PUSH1 0x20 DUP2 LT ISZERO PUSH2 0x308 JUMPI PUSH1 0x0 DUP1 REVERT JUMPDEST DUP2 ADD SWAP1 DUP1 DUP1 CALLDATALOAD PUSH20 0xFFFFFFFFFFFFFFFFFFFFFFFFFFFFFFFFFFFFFFFF AND SWAP1 PUSH1 0x20 ADD SWAP1 SWAP3 SWAP2 SWAP1 POP POP POP PUSH2 0xB44 JUMP JUMPDEST PUSH1 0x40 MLOAD DUP1 DUP3 DUP2 MSTORE PUSH1 0x20 ADD SWAP2 POP POP PUSH1 0x40 MLOAD DUP1 SWAP2 SUB SWAP1 RETURN JUMPDEST PUSH2 0x38C PUSH1 0x4 DUP1 CALLDATASIZE SUB PUSH1 0x20 DUP2 LT ISZERO PUSH2 0x360 JUMPI PUSH1 0x0 DUP1 REVERT JUMPDEST DUP2 ADD SWAP1 DUP1 DUP1 CALLDATALOAD PUSH20 0xFFFFFFFFFFFFFFFFFFFFFFFFFFFFFFFFFFFFFFFF AND SWAP1 PUSH1 0x20 ADD SWAP1 SWAP3 SWAP2 SWAP1 POP POP POP PUSH2 0xB5C JUMP JUMPDEST STOP JUMPDEST PUSH1 0x0 PUSH2 0x399 DUP3 PUSH2 0xD62 JUMP JUMPDEST DUP1 ISZERO PUSH2 0x3AE JUMPI POP PUSH1 0x32 PUSH2 0x3AB DUP4 PUSH2 0x66B JUMP JUMPDEST LT ISZERO JUMPDEST SWAP1 POP SWAP2 SWAP1 POP JUMP JUMPDEST PUSH1 0x0 PUSH20 0xFFFFFFFFFFFFFFFFFFFFFFFFFFFFFFFFFFFFFFFF AND PUSH1 0x1 PUSH1 0x0 DUP4 PUSH20 0xFFFFFFFFFFFFFFFFFFFFFFFFFFFFFFFFFFFFFFFF AND PUSH20 0xFFFFFFFFFFFFFFFFFFFFFFFFFFFFFFFFFFFFFFFF AND DUP2 MSTORE PUSH1 0x20 ADD SWAP1 DUP2 MSTORE PUSH1 0x20 ADD PUSH1 0x0 KECCAK256 PUSH1 0x0 SWAP1 SLOAD SWAP1 PUSH2 0x100 EXP SWAP1 DIV PUSH20 0xFFFFFFFFFFFFFFFFFFFFFFFFFFFFFFFFFFFFFFFF AND PUSH20 0xFFFFFFFFFFFFFFFFFFFFFFFFFFFFFFFFFFFFFFFF AND EQ PUSH2 0x44D JUMPI PUSH1 0x0 DUP1 REVERT JUMPDEST PUSH1 0x0 PUSH2 0x45A PUSH1 0x4 SLOAD PUSH2 0xDBE JUMP JUMPDEST SWAP1 POP PUSH1 0x4 SLOAD PUSH1 0x0 DUP1 DUP5 PUSH20 0xFFFFFFFFFFFFFFFFFFFFFFFFFFFFFFFFFFFFFFFF AND PUSH20 0xFFFFFFFFFFFFFFFFFFFFFFFFFFFFFFFFFFFFFFFF AND DUP2 MSTORE PUSH1 0x20 ADD SWAP1 DUP2 MSTORE PUSH1 0x20 ADD PUSH1 0x0 KECCAK256 DUP2 SWAP1 SSTORE POP PUSH1 0x1 PUSH1 0x0 DUP3 PUSH20 0xFFFFFFFFFFFFFFFFFFFFFFFFFFFFFFFFFFFFFFFF AND PUSH20 0xFFFFFFFFFFFFFFFFFFFFFFFFFFFFFFFFFFFFFFFF AND DUP2 MSTORE PUSH1 0x20 ADD SWAP1 DUP2 MSTORE PUSH1 0x20 ADD PUSH1 0x0 KECCAK256 PUSH1 0x0 SWAP1 SLOAD SWAP1 PUSH2 0x100 EXP SWAP1 DIV PUSH20 0xFFFFFFFFFFFFFFFFFFFFFFFFFFFFFFFFFFFFFFFF AND PUSH1 0x1 PUSH1 0x0 DUP5 PUSH20 0xFFFFFFFFFFFFFFFFFFFFFFFFFFFFFFFFFFFFFFFF AND PUSH20 0xFFFFFFFFFFFFFFFFFFFFFFFFFFFFFFFFFFFFFFFF AND DUP2 MSTORE PUSH1 0x20 ADD SWAP1 DUP2 MSTORE PUSH1 0x20 ADD PUSH1 0x0 KECCAK256 PUSH1 0x0 PUSH2 0x100 EXP DUP2 SLOAD DUP2 PUSH20 0xFFFFFFFFFFFFFFFFFFFFFFFFFFFFFFFFFFFFFFFF MUL NOT AND SWAP1 DUP4 PUSH20 0xFFFFFFFFFFFFFFFFFFFFFFFFFFFFFFFFFFFFFFFF AND MUL OR SWAP1 SSTORE POP DUP2 PUSH1 0x1 PUSH1 0x0 DUP4 PUSH20 0xFFFFFFFFFFFFFFFFFFFFFFFFFFFFFFFFFFFFFFFF AND PUSH20 0xFFFFFFFFFFFFFFFFFFFFFFFFFFFFFFFFFFFFFFFF AND DUP2 MSTORE PUSH1 0x20 ADD SWAP1 DUP2 MSTORE PUSH1 0x20 ADD PUSH1 0x0 KECCAK256 PUSH1 0x0 PUSH2 0x100 EXP DUP2 SLOAD DUP2 PUSH20 0xFFFFFFFFFFFFFFFFFFFFFFFFFFFFFFFFFFFFFFFF MUL NOT AND SWAP1 DUP4 PUSH20 0xFFFFFFFFFFFFFFFFFFFFFFFFFFFFFFFFFFFFFFFF AND MUL OR SWAP1 SSTORE POP PUSH1 0x2 PUSH1 0x0 DUP2 SLOAD DUP1 SWAP3 SWAP2 SWAP1 PUSH1 0x1 ADD SWAP2 SWAP1 POP SSTORE POP PUSH1 0x0 PUSH1 0x3 PUSH1 0x0 DUP5 PUSH20 0xFFFFFFFFFFFFFFFFFFFFFFFFFFFFFFFFFFFFFFFF AND PUSH20 0xFFFFFFFFFFFFFFFFFFFFFFFFFFFFFFFFFFFFFFFF AND DUP2 MSTORE PUSH1 0x20 ADD SWAP1 DUP2 MSTORE PUSH1 0x20 ADD PUSH1 0x0 KECCAK256 PUSH1 0x0 PUSH2 0x100 EXP DUP2 SLOAD DUP2 PUSH1 0xFF MUL NOT AND SWAP1 DUP4 PUSH1 0xFF AND MUL OR SWAP1 SSTORE POP POP POP JUMP JUMPDEST PUSH1 0x0 PUSH1 0x64 PUSH1 0x0 DUP1 DUP5 PUSH20 0xFFFFFFFFFFFFFFFFFFFFFFFFFFFFFFFFFFFFFFFF AND PUSH20 0xFFFFFFFFFFFFFFFFFFFFFFFFFFFFFFFFFFFFFFFF AND DUP2 MSTORE PUSH1 0x20 ADD SWAP1 DUP2 MSTORE PUSH1 0x20 ADD PUSH1 0x0 KECCAK256 SLOAD DUP2 PUSH2 0x6B5 JUMPI INVALID JUMPDEST DIV SWAP1 POP SWAP2 SWAP1 POP JUMP JUMPDEST PUSH1 0x0 PUSH20 0xFFFFFFFFFFFFFFFFFFFFFFFFFFFFFFFFFFFFFFFF AND PUSH1 0x1 PUSH1 0x0 DUP5 PUSH20 0xFFFFFFFFFFFFFFFFFFFFFFFFFFFFFFFFFFFFFFFF AND PUSH20 0xFFFFFFFFFFFFFFFFFFFFFFFFFFFFFFFFFFFFFFFF AND DUP2 MSTORE PUSH1 0x20 ADD SWAP1 DUP2 MSTORE PUSH1 0x20 ADD PUSH1 0x0 KECCAK256 PUSH1 0x0 SWAP1 SLOAD SWAP1 PUSH2 0x100 EXP SWAP1 DIV PUSH20 0xFFFFFFFFFFFFFFFFFFFFFFFFFFFFFFFFFFFFFFFF AND PUSH20 0xFFFFFFFFFFFFFFFFFFFFFFFFFFFFFFFFFFFFFFFF AND EQ ISZERO PUSH2 0x756 JUMPI PUSH1 0x0 DUP1 REVERT JUMPDEST PUSH1 0x0 PUSH2 0x761 DUP4 PUSH2 0xEB3 JUMP JUMPDEST SWAP1 POP PUSH1 0x0 PUSH1 0x1 PUSH1 0x0 DUP6 PUSH20 0xFFFFFFFFFFFFFFFFFFFFFFFFFFFFFFFFFFFFFFFF AND PUSH20 0xFFFFFFFFFFFFFFFFFFFFFFFFFFFFFFFFFFFFFFFF AND DUP2 MSTORE PUSH1 0x20 ADD SWAP1 DUP2 MSTORE PUSH1 0x20 ADD PUSH1 0x0 KECCAK256 PUSH1 0x0 SWAP1 SLOAD SWAP1 PUSH2 0x100 EXP SWAP1 DIV PUSH20 0xFFFFFFFFFFFFFFFFFFFFFFFFFFFFFFFFFFFFFFFF AND SWAP1 POP PUSH2 0x7D2 DUP3 DUP5 DUP4 PUSH2 0xFD8 JUMP JUMPDEST ISZERO PUSH2 0x81F JUMPI DUP3 PUSH1 0x0 DUP1 DUP7 PUSH20 0xFFFFFFFFFFFFFFFFFFFFFFFFFFFFFFFFFFFFFFFF AND PUSH20 0xFFFFFFFFFFFFFFFFFFFFFFFFFFFFFFFFFFFFFFFF AND DUP2 MSTORE PUSH1 0x20 ADD SWAP1 DUP2 MSTORE PUSH1 0x20 ADD PUSH1 0x0 KECCAK256 DUP2 SWAP1 SSTORE POP PUSH2 0x820 JUMP JUMPDEST JUMPDEST POP POP POP POP JUMP JUMPDEST PUSH1 0x0 DUP1 PUSH1 0x0 DUP4 PUSH20 0xFFFFFFFFFFFFFFFFFFFFFFFFFFFFFFFFFFFFFFFF AND PUSH20 0xFFFFFFFFFFFFFFFFFFFFFFFFFFFFFFFFFFFFFFFF AND DUP2 MSTORE PUSH1 0x20 ADD SWAP1 DUP2 MSTORE PUSH1 0x20 ADD PUSH1 0x0 KECCAK256 SLOAD SWAP1 POP PUSH1 0x0 PUSH1 0x40 MLOAD DUP1 PUSH1 0xC0 ADD PUSH1 0x40 MSTORE DUP1 PUSH1 0x0 PUSH2 0xFFFF AND DUP2 MSTORE PUSH1 0x20 ADD PUSH2 0x2710 PUSH2 0xFFFF AND DUP2 MSTORE PUSH1 0x20 ADD PUSH2 0x2AF8 PUSH2 0xFFFF AND DUP2 MSTORE PUSH1 0x20 ADD PUSH2 0x3A98 PUSH2 0xFFFF AND DUP2 MSTORE PUSH1 0x20 ADD PUSH2 0x4650 PUSH2 0xFFFF AND DUP2 MSTORE PUSH1 0x20 ADD PUSH2 0x4E20 PUSH2 0xFFFF AND DUP2 MSTORE POP SWAP1 POP PUSH1 0x0 PUSH1 0x40 MLOAD DUP1 PUSH1 0xA0 ADD PUSH1 0x40 MSTORE DUP1 PUSH1 0x64 PUSH1 0xFF AND DUP2 MSTORE PUSH1 0x20 ADD PUSH1 0x60 PUSH1 0xFF AND DUP2 MSTORE PUSH1 0x20 ADD PUSH1 0x10 PUSH1 0xFF AND DUP2 MSTORE PUSH1 0x20 ADD PUSH1 0x5 PUSH1 0xFF AND DUP2 MSTORE PUSH1 0x20 ADD PUSH1 0x1 PUSH1 0xFF AND DUP2 MSTORE POP SWAP1 POP PUSH1 0x5 SLOAD DUP4 LT ISZERO PUSH2 0x9CB JUMPI PUSH1 0x0 DUP1 PUSH1 0x1 SWAP1 POP JUMPDEST PUSH1 0x6 DUP2 LT ISZERO PUSH2 0x985 JUMPI DUP5 DUP5 DUP4 PUSH1 0x6 DUP2 LT PUSH2 0x924 JUMPI INVALID JUMPDEST PUSH1 0x20 MUL ADD MLOAD PUSH2 0xFFFF AND GT ISZERO DUP1 ISZERO PUSH2 0x94E JUMPI POP DUP4 DUP2 PUSH1 0x6 DUP2 LT PUSH2 0x942 JUMPI INVALID JUMPDEST PUSH1 0x20 MUL ADD MLOAD PUSH2 0xFFFF AND DUP6 LT JUMPDEST ISZERO PUSH2 0x970 JUMPI DUP3 DUP3 PUSH1 0x5 DUP2 LT PUSH2 0x95F JUMPI INVALID JUMPDEST PUSH1 0x20 MUL ADD MLOAD PUSH1 0xFF AND DUP6 ADD SWAP5 POP PUSH2 0x985 JUMP JUMPDEST DUP2 DUP1 PUSH1 0x1 ADD SWAP3 POP POP DUP1 DUP1 PUSH1 0x1 ADD SWAP2 POP POP PUSH2 0x90E JUMP JUMPDEST DUP5 PUSH1 0x0 DUP1 DUP9 PUSH20 0xFFFFFFFFFFFFFFFFFFFFFFFFFFFFFFFFFFFFFFFF AND PUSH20 0xFFFFFFFFFFFFFFFFFFFFFFFFFFFFFFFFFFFFFFFF AND DUP2 MSTORE PUSH1 0x20 ADD SWAP1 DUP2 MSTORE PUSH1 0x20 ADD PUSH1 0x0 KECCAK256 DUP2 SWAP1 SSTORE POP POP POP JUMPDEST POP POP POP POP JUMP JUMPDEST PUSH1 0x2 SLOAD DUP2 JUMP JUMPDEST PUSH1 0x0 DUP1 PUSH1 0x0 DUP5 PUSH20 0xFFFFFFFFFFFFFFFFFFFFFFFFFFFFFFFFFFFFFFFF AND PUSH20 0xFFFFFFFFFFFFFFFFFFFFFFFFFFFFFFFFFFFFFFFF AND DUP2 MSTORE PUSH1 0x20 ADD SWAP1 DUP2 MSTORE PUSH1 0x20 ADD PUSH1 0x0 KECCAK256 SLOAD SWAP1 POP PUSH1 0x64 DUP3 MUL SWAP2 POP DUP2 DUP2 SUB SWAP1 POP PUSH1 0x32 DUP2 LT ISZERO PUSH2 0xADC JUMPI PUSH1 0x0 PUSH1 0x3 PUSH1 0x0 DUP6 PUSH20 0xFFFFFFFFFFFFFFFFFFFFFFFFFFFFFFFFFFFFFFFF AND PUSH20 0xFFFFFFFFFFFFFFFFFFFFFFFFFFFFFFFFFFFFFFFF AND DUP2 MSTORE PUSH1 0x20 ADD SWAP1 DUP2 MSTORE PUSH1 0x20 ADD PUSH1 0x0 KECCAK256 PUSH1 0x0 SWAP1 SLOAD SWAP1 PUSH2 0x100 EXP SWAP1 DIV PUSH1 0xFF AND SWAP1 POP PUSH1 0x1 DUP2 ADD PUSH1 0x3 PUSH1 0x0 DUP7 PUSH20 0xFFFFFFFFFFFFFFFFFFFFFFFFFFFFFFFFFFFFFFFF AND PUSH20 0xFFFFFFFFFFFFFFFFFFFFFFFFFFFFFFFFFFFFFFFF AND DUP2 MSTORE PUSH1 0x20 ADD SWAP1 DUP2 MSTORE PUSH1 0x20 ADD PUSH1 0x0 KECCAK256 PUSH1 0x0 PUSH2 0x100 EXP DUP2 SLOAD DUP2 PUSH1 0xFF MUL NOT AND SWAP1 DUP4 PUSH1 0xFF AND MUL OR SWAP1 SSTORE POP POP JUMPDEST DUP1 PUSH1 0x0 DUP1 DUP6 PUSH20 0xFFFFFFFFFFFFFFFFFFFFFFFFFFFFFFFFFFFFFFFF AND PUSH20 0xFFFFFFFFFFFFFFFFFFFFFFFFFFFFFFFFFFFFFFFF AND DUP2 MSTORE PUSH1 0x20 ADD SWAP1 DUP2 MSTORE PUSH1 0x20 ADD PUSH1 0x0 KECCAK256 DUP2 SWAP1 SSTORE POP POP POP POP JUMP JUMPDEST PUSH1 0x3 PUSH1 0x20 MSTORE DUP1 PUSH1 0x0 MSTORE PUSH1 0x40 PUSH1 0x0 KECCAK256 PUSH1 0x0 SWAP2 POP SLOAD SWAP1 PUSH2 0x100 EXP SWAP1 DIV PUSH1 0xFF AND DUP2 JUMP JUMPDEST PUSH1 0x0 PUSH1 0x20 MSTORE DUP1 PUSH1 0x0 MSTORE PUSH1 0x40 PUSH1 0x0 KECCAK256 PUSH1 0x0 SWAP2 POP SWAP1 POP SLOAD DUP2 JUMP JUMPDEST PUSH1 0x0 PUSH20 0xFFFFFFFFFFFFFFFFFFFFFFFFFFFFFFFFFFFFFFFF AND PUSH1 0x1 PUSH1 0x0 DUP4 PUSH20 0xFFFFFFFFFFFFFFFFFFFFFFFFFFFFFFFFFFFFFFFF AND PUSH20 0xFFFFFFFFFFFFFFFFFFFFFFFFFFFFFFFFFFFFFFFF AND DUP2 MSTORE PUSH1 0x20 ADD SWAP1 DUP2 MSTORE PUSH1 0x20 ADD PUSH1 0x0 KECCAK256 PUSH1 0x0 SWAP1 SLOAD SWAP1 PUSH2 0x100 EXP SWAP1 DIV PUSH20 0xFFFFFFFFFFFFFFFFFFFFFFFFFFFFFFFFFFFFFFFF AND PUSH20 0xFFFFFFFFFFFFFFFFFFFFFFFFFFFFFFFFFFFFFFFF AND EQ ISZERO PUSH2 0xBF5 JUMPI PUSH1 0x0 DUP1 REVERT JUMPDEST PUSH1 0x0 PUSH2 0xC00 DUP3 PUSH2 0xEB3 JUMP JUMPDEST SWAP1 POP PUSH1 0x1 PUSH1 0x0 DUP4 PUSH20 0xFFFFFFFFFFFFFFFFFFFFFFFFFFFFFFFFFFFFFFFF AND PUSH20 0xFFFFFFFFFFFFFFFFFFFFFFFFFFFFFFFFFFFFFFFF AND DUP2 MSTORE PUSH1 0x20 ADD SWAP1 DUP2 MSTORE PUSH1 0x20 ADD PUSH1 0x0 KECCAK256 PUSH1 0x0 SWAP1 SLOAD SWAP1 PUSH2 0x100 EXP SWAP1 DIV PUSH20 0xFFFFFFFFFFFFFFFFFFFFFFFFFFFFFFFFFFFFFFFF AND PUSH1 0x1 PUSH1 0x0 DUP4 PUSH20 0xFFFFFFFFFFFFFFFFFFFFFFFFFFFFFFFFFFFFFFFF AND PUSH20 0xFFFFFFFFFFFFFFFFFFFFFFFFFFFFFFFFFFFFFFFF AND DUP2 MSTORE PUSH1 0x20 ADD SWAP1 DUP2 MSTORE PUSH1 0x20 ADD PUSH1 0x0 KECCAK256 PUSH1 0x0 PUSH2 0x100 EXP DUP2 SLOAD DUP2 PUSH20 0xFFFFFFFFFFFFFFFFFFFFFFFFFFFFFFFFFFFFFFFF MUL NOT AND SWAP1 DUP4 PUSH20 0xFFFFFFFFFFFFFFFFFFFFFFFFFFFFFFFFFFFFFFFF AND MUL OR SWAP1 SSTORE POP PUSH1 0x0 PUSH1 0x1 PUSH1 0x0 DUP5 PUSH20 0xFFFFFFFFFFFFFFFFFFFFFFFFFFFFFFFFFFFFFFFF AND PUSH20 0xFFFFFFFFFFFFFFFFFFFFFFFFFFFFFFFFFFFFFFFF AND DUP2 MSTORE PUSH1 0x20 ADD SWAP1 DUP2 MSTORE PUSH1 0x20 ADD PUSH1 0x0 KECCAK256 PUSH1 0x0 PUSH2 0x100 EXP DUP2 SLOAD DUP2 PUSH20 0xFFFFFFFFFFFFFFFFFFFFFFFFFFFFFFFFFFFFFFFF MUL NOT AND SWAP1 DUP4 PUSH20 0xFFFFFFFFFFFFFFFFFFFFFFFFFFFFFFFFFFFFFFFF AND MUL OR SWAP1 SSTORE POP POP POP JUMP JUMPDEST PUSH1 0x0 PUSH1 0x2 PUSH1 0x3 PUSH1 0x0 DUP5 PUSH20 0xFFFFFFFFFFFFFFFFFFFFFFFFFFFFFFFFFFFFFFFF AND PUSH20 0xFFFFFFFFFFFFFFFFFFFFFFFFFFFFFFFFFFFFFFFF AND DUP2 MSTORE PUSH1 0x20 ADD SWAP1 DUP2 MSTORE PUSH1 0x20 ADD PUSH1 0x0 KECCAK256 PUSH1 0x0 SWAP1 SLOAD SWAP1 PUSH2 0x100 EXP SWAP1 DIV PUSH1 0xFF AND PUSH1 0xFF AND LT SWAP1 POP SWAP2 SWAP1 POP JUMP JUMPDEST PUSH1 0x0 DUP1 PUSH1 0x1 SWAP1 POP JUMPDEST PUSH1 0x1 ISZERO PUSH2 0xEAC JUMPI PUSH2 0xE37 DUP2 DUP5 PUSH1 0x1 PUSH1 0x0 DUP6 PUSH20 0xFFFFFFFFFFFFFFFFFFFFFFFFFFFFFFFFFFFFFFFF AND PUSH20 0xFFFFFFFFFFFFFFFFFFFFFFFFFFFFFFFFFFFFFFFF AND DUP2 MSTORE PUSH1 0x20 ADD SWAP1 DUP2 MSTORE PUSH1 0x20 ADD PUSH1 0x0 KECCAK256 PUSH1 0x0 SWAP1 SLOAD SWAP1 PUSH2 0x100 EXP SWAP1 DIV PUSH20 0xFFFFFFFFFFFFFFFFFFFFFFFFFFFFFFFFFFFFFFFF AND PUSH2 0xFD8 JUMP JUMPDEST ISZERO PUSH2 0xE45 JUMPI DUP1 SWAP2 POP POP PUSH2 0xEAE JUMP JUMPDEST PUSH1 0x1 PUSH1 0x0 DUP3 PUSH20 0xFFFFFFFFFFFFFFFFFFFFFFFFFFFFFFFFFFFFFFFF AND PUSH20 0xFFFFFFFFFFFFFFFFFFFFFFFFFFFFFFFFFFFFFFFF AND DUP2 MSTORE PUSH1 0x20 ADD SWAP1 DUP2 MSTORE PUSH1 0x20 ADD PUSH1 0x0 KECCAK256 PUSH1 0x0 SWAP1 SLOAD SWAP1 PUSH2 0x100 EXP SWAP1 DIV PUSH20 0xFFFFFFFFFFFFFFFFFFFFFFFFFFFFFFFFFFFFFFFF AND SWAP1 POP PUSH2 0xDC6 JUMP JUMPDEST POP JUMPDEST SWAP2 SWAP1 POP JUMP JUMPDEST PUSH1 0x0 DUP1 PUSH1 0x1 SWAP1 POP JUMPDEST PUSH1 0x1 PUSH20 0xFFFFFFFFFFFFFFFFFFFFFFFFFFFFFFFFFFFFFFFF AND PUSH1 0x1 PUSH1 0x0 DUP4 PUSH20 0xFFFFFFFFFFFFFFFFFFFFFFFFFFFFFFFFFFFFFFFF AND PUSH20 0xFFFFFFFFFFFFFFFFFFFFFFFFFFFFFFFFFFFFFFFF AND DUP2 MSTORE PUSH1 0x20 ADD SWAP1 DUP2 MSTORE PUSH1 0x20 ADD PUSH1 0x0 KECCAK256 PUSH1 0x0 SWAP1 SLOAD SWAP1 PUSH2 0x100 EXP SWAP1 DIV PUSH20 0xFFFFFFFFFFFFFFFFFFFFFFFFFFFFFFFFFFFFFFFF AND PUSH20 0xFFFFFFFFFFFFFFFFFFFFFFFFFFFFFFFFFFFFFFFF AND EQ PUSH2 0xFCD JUMPI PUSH2 0xF58 DUP4 DUP3 PUSH2 0x10DC JUMP JUMPDEST ISZERO PUSH2 0xF66 JUMPI DUP1 SWAP2 POP POP PUSH2 0xFD3 JUMP JUMPDEST PUSH1 0x1 PUSH1 0x0 DUP3 PUSH20 0xFFFFFFFFFFFFFFFFFFFFFFFFFFFFFFFFFFFFFFFF AND PUSH20 0xFFFFFFFFFFFFFFFFFFFFFFFFFFFFFFFFFFFFFFFF AND DUP2 MSTORE PUSH1 0x20 ADD SWAP1 DUP2 MSTORE PUSH1 0x20 ADD PUSH1 0x0 KECCAK256 PUSH1 0x0 SWAP1 SLOAD SWAP1 PUSH2 0x100 EXP SWAP1 DIV PUSH20 0xFFFFFFFFFFFFFFFFFFFFFFFFFFFFFFFFFFFFFFFF AND SWAP1 POP PUSH2 0xEBB JUMP JUMPDEST PUSH1 0x0 SWAP2 POP POP JUMPDEST SWAP2 SWAP1 POP JUMP JUMPDEST PUSH1 0x0 PUSH1 0x1 PUSH20 0xFFFFFFFFFFFFFFFFFFFFFFFFFFFFFFFFFFFFFFFF AND DUP5 PUSH20 0xFFFFFFFFFFFFFFFFFFFFFFFFFFFFFFFFFFFFFFFF AND EQ DUP1 PUSH2 0x1053 JUMPI POP DUP3 PUSH1 0x0 DUP1 DUP7 PUSH20 0xFFFFFFFFFFFFFFFFFFFFFFFFFFFFFFFFFFFFFFFF AND PUSH20 0xFFFFFFFFFFFFFFFFFFFFFFFFFFFFFFFFFFFFFFFF AND DUP2 MSTORE PUSH1 0x20 ADD SWAP1 DUP2 MSTORE PUSH1 0x20 ADD PUSH1 0x0 KECCAK256 SLOAD LT ISZERO JUMPDEST DUP1 ISZERO PUSH2 0x10D3 JUMPI POP PUSH1 0x1 PUSH20 0xFFFFFFFFFFFFFFFFFFFFFFFFFFFFFFFFFFFFFFFF AND DUP3 PUSH20 0xFFFFFFFFFFFFFFFFFFFFFFFFFFFFFFFFFFFFFFFF AND EQ DUP1 PUSH2 0x10D2 JUMPI POP PUSH1 0x0 DUP1 DUP4 PUSH20 0xFFFFFFFFFFFFFFFFFFFFFFFFFFFFFFFFFFFFFFFF AND PUSH20 0xFFFFFFFFFFFFFFFFFFFFFFFFFFFFFFFFFFFFFFFF AND DUP2 MSTORE PUSH1 0x20 ADD SWAP1 DUP2 MSTORE PUSH1 0x20 ADD PUSH1 0x0 KECCAK256 SLOAD DUP4 GT JUMPDEST JUMPDEST SWAP1 POP SWAP4 SWAP3 POP POP POP JUMP JUMPDEST PUSH1 0x0 DUP3 PUSH20 0xFFFFFFFFFFFFFFFFFFFFFFFFFFFFFFFFFFFFFFFF AND PUSH1 0x1 PUSH1 0x0 DUP5 PUSH20 0xFFFFFFFFFFFFFFFFFFFFFFFFFFFFFFFFFFFFFFFF AND PUSH20 0xFFFFFFFFFFFFFFFFFFFFFFFFFFFFFFFFFFFFFFFF AND DUP2 MSTORE PUSH1 0x20 ADD SWAP1 DUP2 MSTORE PUSH1 0x20 ADD PUSH1 0x0 KECCAK256 PUSH1 0x0 SWAP1 SLOAD SWAP1 PUSH2 0x100 EXP SWAP1 DIV PUSH20 0xFFFFFFFFFFFFFFFFFFFFFFFFFFFFFFFFFFFFFFFF AND PUSH20 0xFFFFFFFFFFFFFFFFFFFFFFFFFFFFFFFFFFFFFFFF AND EQ SWAP1 POP SWAP3 SWAP2 POP POP JUMP INVALID LOG2 PUSH5 0x6970667358 0x22 SLT KECCAK256 0xCE SWAP4 LOG3 0xEF SWAP7 DUP6 DELEGATECALL CALLDATALOAD 0xD7 0xDA PUSH17 0x85F9A5040000BDB7E6776A20FDC43CCCA7 CALLDATALOAD LOG2 0xD3 0x22 PUSH5 0x736F6C6343 STOP SMOD MOD STOP CALLER "
				},
				"gasEstimates": {
					"creation": {
						"codeDepositCost": "904400",
						"executionCost": "101923",
						"totalCost": "1006323"
					},
					"external": {
						"decCredit(address,uint256)": "43250",
						"getCredit(address)": "1266",
						"incCredit(address)": "infinite",
						"isProjectable(address)": "2286",
						"listSize()": "1005",
						"qualifiable(address)": "1244",
						"removeCredit(address)": "infinite",
						"setCredit(address)": "infinite",
						"updateScore(address,uint256)": "infinite",
						"user2credit(address)": "1235"
					},
					"internal": {
						"_findIndex(uint256)": "infinite",
						"_findPrev(address)": "infinite",
						"_isPrev(address,address)": "980",
						"_verifyIndex(address,uint256,address)": "1938",
						"isQualifiable(address)": "972"
					}
				},
				"methodIdentifiers": {
					"decCredit(address,uint256)": "9dc29cdb",
					"getCredit(address)": "57344e6f",
					"incCredit(address)": "904fba8d",
					"isProjectable(address)": "1eab150d",
					"listSize()": "972c5356",
					"qualifiable(address)": "d4268f4a",
					"removeCredit(address)": "eaeadac9",
					"setCredit(address)": "1f72a7d5",
					"updateScore(address,uint256)": "65d97724",
					"user2credit(address)": "de6e6d3e"
				}
			},
			"storageLayout": {
				"storage": [
					{
						"astId": 5,
						"contract": ".deps/contracts/creditOp.sol:creditOp",
						"label": "user2credit",
						"offset": 0,
						"slot": "0",
						"type": "t_mapping(t_address,t_uint256)"
					},
					{
						"astId": 9,
						"contract": ".deps/contracts/creditOp.sol:creditOp",
						"label": "_next",
						"offset": 0,
						"slot": "1",
						"type": "t_mapping(t_address,t_address)"
					},
					{
						"astId": 11,
						"contract": ".deps/contracts/creditOp.sol:creditOp",
						"label": "listSize",
						"offset": 0,
						"slot": "2",
						"type": "t_uint256"
					},
					{
						"astId": 21,
						"contract": ".deps/contracts/creditOp.sol:creditOp",
						"label": "qualifiable",
						"offset": 0,
						"slot": "3",
						"type": "t_mapping(t_address,t_uint8)"
					},
					{
						"astId": 24,
						"contract": ".deps/contracts/creditOp.sol:creditOp",
						"label": "initCredit",
						"offset": 0,
						"slot": "4",
						"type": "t_uint256"
					},
					{
						"astId": 27,
						"contract": ".deps/contracts/creditOp.sol:creditOp",
						"label": "upperLimitCredit",
						"offset": 0,
						"slot": "5",
						"type": "t_uint256"
					},
					{
						"astId": 30,
						"contract": ".deps/contracts/creditOp.sol:creditOp",
						"label": "qualifiedCredit",
						"offset": 0,
						"slot": "6",
						"type": "t_uint256"
					},
					{
						"astId": 33,
						"contract": ".deps/contracts/creditOp.sol:creditOp",
						"label": "returnedCredit",
						"offset": 0,
						"slot": "7",
						"type": "t_uint256"
					}
				],
				"types": {
					"t_address": {
						"encoding": "inplace",
						"label": "address",
						"numberOfBytes": "20"
					},
					"t_mapping(t_address,t_address)": {
						"encoding": "mapping",
						"key": "t_address",
						"label": "mapping(address => address)",
						"numberOfBytes": "32",
						"value": "t_address"
					},
					"t_mapping(t_address,t_uint256)": {
						"encoding": "mapping",
						"key": "t_address",
						"label": "mapping(address => uint256)",
						"numberOfBytes": "32",
						"value": "t_uint256"
					},
					"t_mapping(t_address,t_uint8)": {
						"encoding": "mapping",
						"key": "t_address",
						"label": "mapping(address => uint8)",
						"numberOfBytes": "32",
						"value": "t_uint8"
					},
					"t_uint256": {
						"encoding": "inplace",
						"label": "uint256",
						"numberOfBytes": "32"
					},
					"t_uint8": {
						"encoding": "inplace",
						"label": "uint8",
						"numberOfBytes": "1"
					}
				}
			},
			"userdoc": {
				"kind": "user",
				"methods": {},
				"version": 1
			}
		}
	}
}