{
	".deps/contracts/creditOp.sol": {
		"creditOp": {
			"abi": [
				{
					"inputs": [
						{
							"internalType": "address",
							"name": "_user",
							"type": "address"
						}
					],
					"name": "getCredit",
					"outputs": [
						{
							"internalType": "uint256",
							"name": "",
							"type": "uint256"
						}
					],
					"stateMutability": "view",
					"type": "function"
				},
				{
					"inputs": [
						{
							"internalType": "address",
							"name": "_user",
							"type": "address"
						}
					],
					"name": "incCredit",
					"outputs": [],
					"stateMutability": "view",
					"type": "function"
				},
				{
					"inputs": [
						{
							"internalType": "address",
							"name": "",
							"type": "address"
						}
					],
					"name": "user2credit",
					"outputs": [
						{
							"internalType": "uint256",
							"name": "",
							"type": "uint256"
						}
					],
					"stateMutability": "view",
					"type": "function"
				}
			],
			"devdoc": {
				"kind": "dev",
				"methods": {},
				"version": 1
			},
			"evm": {
				"assembly": "    /* \".deps/contracts/creditOp.sol\":33:842  contract creditOp {... */\n  mstore(0x40, 0x80)\n    /* \".deps/contracts/creditOp.sol\":136:141  10000 */\n  0x2710\n    /* \".deps/contracts/creditOp.sol\":107:141  uint256 private initCredit = 10000 */\n  0x01\n  sstore\n    /* \".deps/contracts/creditOp.sol\":182:187  20000 */\n  0x4e20\n    /* \".deps/contracts/creditOp.sol\":147:187  uint256 private upperLimitCredit = 20000 */\n  0x02\n  sstore\n    /* \".deps/contracts/creditOp.sol\":33:842  contract creditOp {... */\n  callvalue\n  dup1\n  iszero\n  tag_1\n  jumpi\n  0x00\n  dup1\n  revert\ntag_1:\n  pop\n  dataSize(sub_0)\n  dup1\n  dataOffset(sub_0)\n  0x00\n  codecopy\n  0x00\n  return\nstop\n\nsub_0: assembly {\n        /* \".deps/contracts/creditOp.sol\":33:842  contract creditOp {... */\n      mstore(0x40, 0x80)\n      callvalue\n      dup1\n      iszero\n      tag_1\n      jumpi\n      0x00\n      dup1\n      revert\n    tag_1:\n      pop\n      jumpi(tag_2, lt(calldatasize, 0x04))\n      shr(0xe0, calldataload(0x00))\n      dup1\n      0x57344e6f\n      eq\n      tag_3\n      jumpi\n      dup1\n      0x904fba8d\n      eq\n      tag_4\n      jumpi\n      dup1\n      0xde6e6d3e\n      eq\n      tag_5\n      jumpi\n    tag_2:\n      0x00\n      dup1\n      revert\n        /* \".deps/contracts/creditOp.sol\":730:839  function getCredit(address _user) view public  returns(uint) {... */\n    tag_3:\n      tag_6\n      0x04\n      dup1\n      calldatasize\n      sub\n      dup2\n      add\n      swap1\n      tag_7\n      swap2\n      swap1\n      tag_8\n      jump\t// in\n    tag_7:\n      tag_9\n      jump\t// in\n    tag_6:\n      mload(0x40)\n      tag_10\n      swap2\n      swap1\n      tag_11\n      jump\t// in\n    tag_10:\n      mload(0x40)\n      dup1\n      swap2\n      sub\n      swap1\n      return\n        /* \".deps/contracts/creditOp.sol\":194:724  function incCredit(address _user) view public {... */\n    tag_4:\n      tag_12\n      0x04\n      dup1\n      calldatasize\n      sub\n      dup2\n      add\n      swap1\n      tag_13\n      swap2\n      swap1\n      tag_8\n      jump\t// in\n    tag_13:\n      tag_14\n      jump\t// in\n    tag_12:\n      stop\n        /* \".deps/contracts/creditOp.sol\":57:101  mapping (address => uint) public user2credit */\n    tag_5:\n      tag_15\n      0x04\n      dup1\n      calldatasize\n      sub\n      dup2\n      add\n      swap1\n      tag_16\n      swap2\n      swap1\n      tag_8\n      jump\t// in\n    tag_16:\n      tag_17\n      jump\t// in\n    tag_15:\n      mload(0x40)\n      tag_18\n      swap2\n      swap1\n      tag_11\n      jump\t// in\n    tag_18:\n      mload(0x40)\n      dup1\n      swap2\n      sub\n      swap1\n      return\n        /* \".deps/contracts/creditOp.sol\":730:839  function getCredit(address _user) view public  returns(uint) {... */\n    tag_9:\n        /* \".deps/contracts/creditOp.sol\":785:789  uint */\n      0x00\n        /* \".deps/contracts/creditOp.sol\":829:832  100 */\n      0x64\n        /* \".deps/contracts/creditOp.sol\":808:819  user2credit */\n      0x00\n        /* \".deps/contracts/creditOp.sol\":808:826  user2credit[_user] */\n      dup1\n        /* \".deps/contracts/creditOp.sol\":820:825  _user */\n      dup5\n        /* \".deps/contracts/creditOp.sol\":808:826  user2credit[_user] */\n      0xffffffffffffffffffffffffffffffffffffffff\n      and\n      0xffffffffffffffffffffffffffffffffffffffff\n      and\n      dup2\n      mstore\n      0x20\n      add\n      swap1\n      dup2\n      mstore\n      0x20\n      add\n      0x00\n      keccak256\n      sload\n        /* \".deps/contracts/creditOp.sol\":808:832  user2credit[_user] / 100 */\n      tag_20\n      swap2\n      swap1\n      tag_21\n      jump\t// in\n    tag_20:\n        /* \".deps/contracts/creditOp.sol\":801:832  return user2credit[_user] / 100 */\n      swap1\n      pop\n        /* \".deps/contracts/creditOp.sol\":730:839  function getCredit(address _user) view public  returns(uint) {... */\n      swap2\n      swap1\n      pop\n      jump\t// out\n        /* \".deps/contracts/creditOp.sol\":194:724  function incCredit(address _user) view public {... */\n    tag_14:\n        /* \".deps/contracts/creditOp.sol\":250:261  uint credit */\n      0x00\n        /* \".deps/contracts/creditOp.sol\":264:275  user2credit */\n      dup1\n        /* \".deps/contracts/creditOp.sol\":264:282  user2credit[_user] */\n      0x00\n        /* \".deps/contracts/creditOp.sol\":276:281  _user */\n      dup4\n        /* \".deps/contracts/creditOp.sol\":264:282  user2credit[_user] */\n      0xffffffffffffffffffffffffffffffffffffffff\n      and\n      0xffffffffffffffffffffffffffffffffffffffff\n      and\n      dup2\n      mstore\n      0x20\n      add\n      swap1\n      dup2\n      mstore\n      0x20\n      add\n      0x00\n      keccak256\n      sload\n        /* \".deps/contracts/creditOp.sol\":250:282  uint credit = user2credit[_user] */\n      swap1\n      pop\n        /* \".deps/contracts/creditOp.sol\":292:313  uint16[6] memory bars */\n      0x00\n        /* \".deps/contracts/creditOp.sol\":292:354  uint16[6] memory bars = [0, 10000, 11000, 15000, 18000, 20000] */\n      mload(0x40)\n      dup1\n      0xc0\n      add\n      0x40\n      mstore\n      dup1\n        /* \".deps/contracts/creditOp.sol\":317:318  0 */\n      0x00\n        /* \".deps/contracts/creditOp.sol\":292:354  uint16[6] memory bars = [0, 10000, 11000, 15000, 18000, 20000] */\n      0xffff\n      and\n      dup2\n      mstore\n      0x20\n      add\n        /* \".deps/contracts/creditOp.sol\":320:325  10000 */\n      0x2710\n        /* \".deps/contracts/creditOp.sol\":292:354  uint16[6] memory bars = [0, 10000, 11000, 15000, 18000, 20000] */\n      0xffff\n      and\n      dup2\n      mstore\n      0x20\n      add\n        /* \".deps/contracts/creditOp.sol\":327:332  11000 */\n      0x2af8\n        /* \".deps/contracts/creditOp.sol\":292:354  uint16[6] memory bars = [0, 10000, 11000, 15000, 18000, 20000] */\n      0xffff\n      and\n      dup2\n      mstore\n      0x20\n      add\n        /* \".deps/contracts/creditOp.sol\":334:339  15000 */\n      0x3a98\n        /* \".deps/contracts/creditOp.sol\":292:354  uint16[6] memory bars = [0, 10000, 11000, 15000, 18000, 20000] */\n      0xffff\n      and\n      dup2\n      mstore\n      0x20\n      add\n        /* \".deps/contracts/creditOp.sol\":341:346  18000 */\n      0x4650\n        /* \".deps/contracts/creditOp.sol\":292:354  uint16[6] memory bars = [0, 10000, 11000, 15000, 18000, 20000] */\n      0xffff\n      and\n      dup2\n      mstore\n      0x20\n      add\n        /* \".deps/contracts/creditOp.sol\":348:353  20000 */\n      0x4e20\n        /* \".deps/contracts/creditOp.sol\":292:354  uint16[6] memory bars = [0, 10000, 11000, 15000, 18000, 20000] */\n      0xffff\n      and\n      dup2\n      mstore\n      pop\n      swap1\n      pop\n        /* \".deps/contracts/creditOp.sol\":364:384  uint8[5] memory incs */\n      0x00\n        /* \".deps/contracts/creditOp.sol\":364:406  uint8[5] memory incs = [100, 96, 16, 5, 1] */\n      mload(0x40)\n      dup1\n      0xa0\n      add\n      0x40\n      mstore\n      dup1\n        /* \".deps/contracts/creditOp.sol\":388:391  100 */\n      0x64\n        /* \".deps/contracts/creditOp.sol\":364:406  uint8[5] memory incs = [100, 96, 16, 5, 1] */\n      0xff\n      and\n      dup2\n      mstore\n      0x20\n      add\n        /* \".deps/contracts/creditOp.sol\":393:395  96 */\n      0x60\n        /* \".deps/contracts/creditOp.sol\":364:406  uint8[5] memory incs = [100, 96, 16, 5, 1] */\n      0xff\n      and\n      dup2\n      mstore\n      0x20\n      add\n        /* \".deps/contracts/creditOp.sol\":397:399  16 */\n      0x10\n        /* \".deps/contracts/creditOp.sol\":364:406  uint8[5] memory incs = [100, 96, 16, 5, 1] */\n      0xff\n      and\n      dup2\n      mstore\n      0x20\n      add\n        /* \".deps/contracts/creditOp.sol\":401:402  5 */\n      0x05\n        /* \".deps/contracts/creditOp.sol\":364:406  uint8[5] memory incs = [100, 96, 16, 5, 1] */\n      0xff\n      and\n      dup2\n      mstore\n      0x20\n      add\n        /* \".deps/contracts/creditOp.sol\":404:405  1 */\n      0x01\n        /* \".deps/contracts/creditOp.sol\":364:406  uint8[5] memory incs = [100, 96, 16, 5, 1] */\n      0xff\n      and\n      dup2\n      mstore\n      pop\n      swap1\n      pop\n        /* \".deps/contracts/creditOp.sol\":429:445  upperLimitCredit */\n      sload(0x02)\n        /* \".deps/contracts/creditOp.sol\":420:426  credit */\n      dup4\n        /* \".deps/contracts/creditOp.sol\":420:445  credit < upperLimitCredit */\n      lt\n        /* \".deps/contracts/creditOp.sol\":416:718  if (credit < upperLimitCredit) {... */\n      iszero\n      tag_23\n      jumpi\n        /* \".deps/contracts/creditOp.sol\":461:467  uint i */\n      0x00\n        /* \".deps/contracts/creditOp.sol\":485:491  uint j */\n      dup1\n        /* \".deps/contracts/creditOp.sol\":494:495  1 */\n      0x01\n        /* \".deps/contracts/creditOp.sol\":485:495  uint j = 1 */\n      swap1\n      pop\n        /* \".deps/contracts/creditOp.sol\":509:708  while (j < bars.length) {... */\n    tag_24:\n        /* \".deps/contracts/creditOp.sol\":520:531  bars.length */\n      0x06\n        /* \".deps/contracts/creditOp.sol\":516:517  j */\n      dup2\n        /* \".deps/contracts/creditOp.sol\":516:531  j < bars.length */\n      lt\n        /* \".deps/contracts/creditOp.sol\":509:708  while (j < bars.length) {... */\n      iszero\n      tag_25\n      jumpi\n        /* \".deps/contracts/creditOp.sol\":566:572  credit */\n      dup5\n        /* \".deps/contracts/creditOp.sol\":555:559  bars */\n      dup5\n        /* \".deps/contracts/creditOp.sol\":560:561  i */\n      dup4\n        /* \".deps/contracts/creditOp.sol\":555:562  bars[i] */\n      0x06\n      dup2\n      lt\n      tag_26\n      jumpi\n      tag_27\n      tag_28\n      jump\t// in\n    tag_27:\n    tag_26:\n      0x20\n      mul\n      add\n      mload\n        /* \".deps/contracts/creditOp.sol\":555:572  bars[i] <= credit */\n      0xffff\n      and\n      gt\n      iszero\n        /* \".deps/contracts/creditOp.sol\":555:592  bars[i] <= credit && credit < bars[j] */\n      dup1\n      iszero\n      tag_29\n      jumpi\n      pop\n        /* \".deps/contracts/creditOp.sol\":585:589  bars */\n      dup4\n        /* \".deps/contracts/creditOp.sol\":590:591  j */\n      dup2\n        /* \".deps/contracts/creditOp.sol\":585:592  bars[j] */\n      0x06\n      dup2\n      lt\n      tag_30\n      jumpi\n      tag_31\n      tag_28\n      jump\t// in\n    tag_31:\n    tag_30:\n      0x20\n      mul\n      add\n      mload\n        /* \".deps/contracts/creditOp.sol\":576:592  credit < bars[j] */\n      0xffff\n      and\n        /* \".deps/contracts/creditOp.sol\":576:582  credit */\n      dup6\n        /* \".deps/contracts/creditOp.sol\":576:592  credit < bars[j] */\n      lt\n        /* \".deps/contracts/creditOp.sol\":555:592  bars[i] <= credit && credit < bars[j] */\n    tag_29:\n        /* \".deps/contracts/creditOp.sol\":551:652  if (bars[i] <= credit && credit < bars[j]) {... */\n      iszero\n      tag_32\n      jumpi\n        /* \".deps/contracts/creditOp.sol\":626:630  incs */\n      dup3\n        /* \".deps/contracts/creditOp.sol\":631:632  i */\n      dup3\n        /* \".deps/contracts/creditOp.sol\":626:633  incs[i] */\n      0x05\n      dup2\n      lt\n      tag_33\n      jumpi\n      tag_34\n      tag_28\n      jump\t// in\n    tag_34:\n    tag_33:\n      0x20\n      mul\n      add\n      mload\n        /* \".deps/contracts/creditOp.sol\":616:633  credit += incs[i] */\n      0xff\n      and\n      dup6\n      tag_35\n      swap2\n      swap1\n      tag_36\n      jump\t// in\n    tag_35:\n      swap5\n      pop\n        /* \".deps/contracts/creditOp.sol\":551:652  if (bars[i] <= credit && credit < bars[j]) {... */\n    tag_32:\n        /* \".deps/contracts/creditOp.sol\":669:672  i++ */\n      dup2\n      dup1\n      tag_37\n      swap1\n      tag_38\n      jump\t// in\n    tag_37:\n      swap3\n      pop\n      pop\n        /* \".deps/contracts/creditOp.sol\":690:693  j++ */\n      dup1\n      dup1\n      tag_39\n      swap1\n      tag_38\n      jump\t// in\n    tag_39:\n      swap2\n      pop\n      pop\n        /* \".deps/contracts/creditOp.sol\":509:708  while (j < bars.length) {... */\n      jump(tag_24)\n    tag_25:\n        /* \".deps/contracts/creditOp.sol\":447:718  {... */\n      pop\n      pop\n        /* \".deps/contracts/creditOp.sol\":416:718  if (credit < upperLimitCredit) {... */\n    tag_23:\n        /* \".deps/contracts/creditOp.sol\":240:724  {... */\n      pop\n      pop\n      pop\n        /* \".deps/contracts/creditOp.sol\":194:724  function incCredit(address _user) view public {... */\n      pop\n      jump\t// out\n        /* \".deps/contracts/creditOp.sol\":57:101  mapping (address => uint) public user2credit */\n    tag_17:\n      mstore(0x20, 0x00)\n      dup1\n      0x00\n      mstore\n      keccak256(0x00, 0x40)\n      0x00\n      swap2\n      pop\n      swap1\n      pop\n      sload\n      dup2\n      jump\t// out\n        /* \"#utility.yul\":7:146   */\n    tag_41:\n        /* \"#utility.yul\":53:58   */\n      0x00\n        /* \"#utility.yul\":91:97   */\n      dup2\n        /* \"#utility.yul\":78:98   */\n      calldataload\n        /* \"#utility.yul\":69:98   */\n      swap1\n      pop\n        /* \"#utility.yul\":107:140   */\n      tag_43\n        /* \"#utility.yul\":134:139   */\n      dup2\n        /* \"#utility.yul\":107:140   */\n      tag_44\n      jump\t// in\n    tag_43:\n        /* \"#utility.yul\":7:146   */\n      swap3\n      swap2\n      pop\n      pop\n      jump\t// out\n        /* \"#utility.yul\":152:481   */\n    tag_8:\n        /* \"#utility.yul\":211:217   */\n      0x00\n        /* \"#utility.yul\":260:262   */\n      0x20\n        /* \"#utility.yul\":248:257   */\n      dup3\n        /* \"#utility.yul\":239:246   */\n      dup5\n        /* \"#utility.yul\":235:258   */\n      sub\n        /* \"#utility.yul\":231:263   */\n      slt\n        /* \"#utility.yul\":228:347   */\n      iszero\n      tag_46\n      jumpi\n        /* \"#utility.yul\":266:345   */\n      tag_47\n      tag_48\n      jump\t// in\n    tag_47:\n        /* \"#utility.yul\":228:347   */\n    tag_46:\n        /* \"#utility.yul\":386:387   */\n      0x00\n        /* \"#utility.yul\":411:464   */\n      tag_49\n        /* \"#utility.yul\":456:463   */\n      dup5\n        /* \"#utility.yul\":447:453   */\n      dup3\n        /* \"#utility.yul\":436:445   */\n      dup6\n        /* \"#utility.yul\":432:454   */\n      add\n        /* \"#utility.yul\":411:464   */\n      tag_41\n      jump\t// in\n    tag_49:\n        /* \"#utility.yul\":401:464   */\n      swap2\n      pop\n        /* \"#utility.yul\":357:474   */\n      pop\n        /* \"#utility.yul\":152:481   */\n      swap3\n      swap2\n      pop\n      pop\n      jump\t// out\n        /* \"#utility.yul\":487:605   */\n    tag_50:\n        /* \"#utility.yul\":574:598   */\n      tag_52\n        /* \"#utility.yul\":592:597   */\n      dup2\n        /* \"#utility.yul\":574:598   */\n      tag_53\n      jump\t// in\n    tag_52:\n        /* \"#utility.yul\":569:572   */\n      dup3\n        /* \"#utility.yul\":562:599   */\n      mstore\n        /* \"#utility.yul\":487:605   */\n      pop\n      pop\n      jump\t// out\n        /* \"#utility.yul\":611:833   */\n    tag_11:\n        /* \"#utility.yul\":704:708   */\n      0x00\n        /* \"#utility.yul\":742:744   */\n      0x20\n        /* \"#utility.yul\":731:740   */\n      dup3\n        /* \"#utility.yul\":727:745   */\n      add\n        /* \"#utility.yul\":719:745   */\n      swap1\n      pop\n        /* \"#utility.yul\":755:826   */\n      tag_55\n        /* \"#utility.yul\":823:824   */\n      0x00\n        /* \"#utility.yul\":812:821   */\n      dup4\n        /* \"#utility.yul\":808:825   */\n      add\n        /* \"#utility.yul\":799:805   */\n      dup5\n        /* \"#utility.yul\":755:826   */\n      tag_50\n      jump\t// in\n    tag_55:\n        /* \"#utility.yul\":611:833   */\n      swap3\n      swap2\n      pop\n      pop\n      jump\t// out\n        /* \"#utility.yul\":920:1225   */\n    tag_36:\n        /* \"#utility.yul\":960:963   */\n      0x00\n        /* \"#utility.yul\":979:999   */\n      tag_59\n        /* \"#utility.yul\":997:998   */\n      dup3\n        /* \"#utility.yul\":979:999   */\n      tag_53\n      jump\t// in\n    tag_59:\n        /* \"#utility.yul\":974:999   */\n      swap2\n      pop\n        /* \"#utility.yul\":1013:1033   */\n      tag_60\n        /* \"#utility.yul\":1031:1032   */\n      dup4\n        /* \"#utility.yul\":1013:1033   */\n      tag_53\n      jump\t// in\n    tag_60:\n        /* \"#utility.yul\":1008:1033   */\n      swap3\n      pop\n        /* \"#utility.yul\":1167:1168   */\n      dup3\n        /* \"#utility.yul\":1099:1165   */\n      0xffffffffffffffffffffffffffffffffffffffffffffffffffffffffffffffff\n        /* \"#utility.yul\":1095:1169   */\n      sub\n        /* \"#utility.yul\":1092:1093   */\n      dup3\n        /* \"#utility.yul\":1089:1170   */\n      gt\n        /* \"#utility.yul\":1086:1193   */\n      iszero\n      tag_61\n      jumpi\n        /* \"#utility.yul\":1173:1191   */\n      tag_62\n      tag_63\n      jump\t// in\n    tag_62:\n        /* \"#utility.yul\":1086:1193   */\n    tag_61:\n        /* \"#utility.yul\":1217:1218   */\n      dup3\n        /* \"#utility.yul\":1214:1215   */\n      dup3\n        /* \"#utility.yul\":1210:1219   */\n      add\n        /* \"#utility.yul\":1203:1219   */\n      swap1\n      pop\n        /* \"#utility.yul\":920:1225   */\n      swap3\n      swap2\n      pop\n      pop\n      jump\t// out\n        /* \"#utility.yul\":1231:1416   */\n    tag_21:\n        /* \"#utility.yul\":1271:1272   */\n      0x00\n        /* \"#utility.yul\":1288:1308   */\n      tag_65\n        /* \"#utility.yul\":1306:1307   */\n      dup3\n        /* \"#utility.yul\":1288:1308   */\n      tag_53\n      jump\t// in\n    tag_65:\n        /* \"#utility.yul\":1283:1308   */\n      swap2\n      pop\n        /* \"#utility.yul\":1322:1342   */\n      tag_66\n        /* \"#utility.yul\":1340:1341   */\n      dup4\n        /* \"#utility.yul\":1322:1342   */\n      tag_53\n      jump\t// in\n    tag_66:\n        /* \"#utility.yul\":1317:1342   */\n      swap3\n      pop\n        /* \"#utility.yul\":1361:1362   */\n      dup3\n        /* \"#utility.yul\":1351:1386   */\n      tag_67\n      jumpi\n        /* \"#utility.yul\":1366:1384   */\n      tag_68\n      tag_69\n      jump\t// in\n    tag_68:\n        /* \"#utility.yul\":1351:1386   */\n    tag_67:\n        /* \"#utility.yul\":1408:1409   */\n      dup3\n        /* \"#utility.yul\":1405:1406   */\n      dup3\n        /* \"#utility.yul\":1401:1410   */\n      div\n        /* \"#utility.yul\":1396:1410   */\n      swap1\n      pop\n        /* \"#utility.yul\":1231:1416   */\n      swap3\n      swap2\n      pop\n      pop\n      jump\t// out\n        /* \"#utility.yul\":1422:1518   */\n    tag_70:\n        /* \"#utility.yul\":1459:1466   */\n      0x00\n        /* \"#utility.yul\":1488:1512   */\n      tag_72\n        /* \"#utility.yul\":1506:1511   */\n      dup3\n        /* \"#utility.yul\":1488:1512   */\n      tag_73\n      jump\t// in\n    tag_72:\n        /* \"#utility.yul\":1477:1512   */\n      swap1\n      pop\n        /* \"#utility.yul\":1422:1518   */\n      swap2\n      swap1\n      pop\n      jump\t// out\n        /* \"#utility.yul\":1524:1650   */\n    tag_73:\n        /* \"#utility.yul\":1561:1568   */\n      0x00\n        /* \"#utility.yul\":1601:1643   */\n      0xffffffffffffffffffffffffffffffffffffffff\n        /* \"#utility.yul\":1594:1599   */\n      dup3\n        /* \"#utility.yul\":1590:1644   */\n      and\n        /* \"#utility.yul\":1579:1644   */\n      swap1\n      pop\n        /* \"#utility.yul\":1524:1650   */\n      swap2\n      swap1\n      pop\n      jump\t// out\n        /* \"#utility.yul\":1656:1733   */\n    tag_53:\n        /* \"#utility.yul\":1693:1700   */\n      0x00\n        /* \"#utility.yul\":1722:1727   */\n      dup2\n        /* \"#utility.yul\":1711:1727   */\n      swap1\n      pop\n        /* \"#utility.yul\":1656:1733   */\n      swap2\n      swap1\n      pop\n      jump\t// out\n        /* \"#utility.yul\":1739:1972   */\n    tag_38:\n        /* \"#utility.yul\":1778:1781   */\n      0x00\n        /* \"#utility.yul\":1801:1825   */\n      tag_77\n        /* \"#utility.yul\":1819:1824   */\n      dup3\n        /* \"#utility.yul\":1801:1825   */\n      tag_53\n      jump\t// in\n    tag_77:\n        /* \"#utility.yul\":1792:1825   */\n      swap2\n      pop\n        /* \"#utility.yul\":1847:1913   */\n      0xffffffffffffffffffffffffffffffffffffffffffffffffffffffffffffffff\n        /* \"#utility.yul\":1840:1845   */\n      dup3\n        /* \"#utility.yul\":1837:1914   */\n      eq\n        /* \"#utility.yul\":1834:1937   */\n      iszero\n      tag_78\n      jumpi\n        /* \"#utility.yul\":1917:1935   */\n      tag_79\n      tag_63\n      jump\t// in\n    tag_79:\n        /* \"#utility.yul\":1834:1937   */\n    tag_78:\n        /* \"#utility.yul\":1964:1965   */\n      0x01\n        /* \"#utility.yul\":1957:1962   */\n      dup3\n        /* \"#utility.yul\":1953:1966   */\n      add\n        /* \"#utility.yul\":1946:1966   */\n      swap1\n      pop\n        /* \"#utility.yul\":1739:1972   */\n      swap2\n      swap1\n      pop\n      jump\t// out\n        /* \"#utility.yul\":1978:2158   */\n    tag_63:\n        /* \"#utility.yul\":2026:2103   */\n      0x4e487b7100000000000000000000000000000000000000000000000000000000\n        /* \"#utility.yul\":2023:2024   */\n      0x00\n        /* \"#utility.yul\":2016:2104   */\n      mstore\n        /* \"#utility.yul\":2123:2127   */\n      0x11\n        /* \"#utility.yul\":2120:2121   */\n      0x04\n        /* \"#utility.yul\":2113:2128   */\n      mstore\n        /* \"#utility.yul\":2147:2151   */\n      0x24\n        /* \"#utility.yul\":2144:2145   */\n      0x00\n        /* \"#utility.yul\":2137:2152   */\n      revert\n        /* \"#utility.yul\":2164:2344   */\n    tag_69:\n        /* \"#utility.yul\":2212:2289   */\n      0x4e487b7100000000000000000000000000000000000000000000000000000000\n        /* \"#utility.yul\":2209:2210   */\n      0x00\n        /* \"#utility.yul\":2202:2290   */\n      mstore\n        /* \"#utility.yul\":2309:2313   */\n      0x12\n        /* \"#utility.yul\":2306:2307   */\n      0x04\n        /* \"#utility.yul\":2299:2314   */\n      mstore\n        /* \"#utility.yul\":2333:2337   */\n      0x24\n        /* \"#utility.yul\":2330:2331   */\n      0x00\n        /* \"#utility.yul\":2323:2338   */\n      revert\n        /* \"#utility.yul\":2350:2530   */\n    tag_28:\n        /* \"#utility.yul\":2398:2475   */\n      0x4e487b7100000000000000000000000000000000000000000000000000000000\n        /* \"#utility.yul\":2395:2396   */\n      0x00\n        /* \"#utility.yul\":2388:2476   */\n      mstore\n        /* \"#utility.yul\":2495:2499   */\n      0x32\n        /* \"#utility.yul\":2492:2493   */\n      0x04\n        /* \"#utility.yul\":2485:2500   */\n      mstore\n        /* \"#utility.yul\":2519:2523   */\n      0x24\n        /* \"#utility.yul\":2516:2517   */\n      0x00\n        /* \"#utility.yul\":2509:2524   */\n      revert\n        /* \"#utility.yul\":2659:2776   */\n    tag_48:\n        /* \"#utility.yul\":2768:2769   */\n      0x00\n        /* \"#utility.yul\":2765:2766   */\n      dup1\n        /* \"#utility.yul\":2758:2770   */\n      revert\n        /* \"#utility.yul\":2782:2904   */\n    tag_44:\n        /* \"#utility.yul\":2855:2879   */\n      tag_87\n        /* \"#utility.yul\":2873:2878   */\n      dup2\n        /* \"#utility.yul\":2855:2879   */\n      tag_70\n      jump\t// in\n    tag_87:\n        /* \"#utility.yul\":2848:2853   */\n      dup2\n        /* \"#utility.yul\":2845:2880   */\n      eq\n        /* \"#utility.yul\":2835:2898   */\n      tag_88\n      jumpi\n        /* \"#utility.yul\":2894:2895   */\n      0x00\n        /* \"#utility.yul\":2891:2892   */\n      dup1\n        /* \"#utility.yul\":2884:2896   */\n      revert\n        /* \"#utility.yul\":2835:2898   */\n    tag_88:\n        /* \"#utility.yul\":2782:2904   */\n      pop\n      jump\t// out\n\n    auxdata: 0xa2646970667358221220e176ba9fa7bbbb837225c9f2c1215ee2715d3f03ed9f38c836ee718d18132af564736f6c63430008070033\n}\n",
				"bytecode": {
					"linkReferences": {},
					"object": "6080604052612710600155614e2060025534801561001c57600080fd5b506105138061002c6000396000f3fe608060405234801561001057600080fd5b50600436106100415760003560e01c806357344e6f14610046578063904fba8d14610076578063de6e6d3e14610092575b600080fd5b610060600480360381019061005b91906102d1565b6100c2565b60405161006d919061030d565b60405180910390f35b610090600480360381019061008b91906102d1565b610116565b005b6100ac60048036038101906100a791906102d1565b6102a4565b6040516100b9919061030d565b60405180910390f35b600060646000808473ffffffffffffffffffffffffffffffffffffffff1673ffffffffffffffffffffffffffffffffffffffff1681526020019081526020016000205461010f919061037e565b9050919050565b60008060008373ffffffffffffffffffffffffffffffffffffffff1673ffffffffffffffffffffffffffffffffffffffff16815260200190815260200160002054905060006040518060c00160405280600061ffff16815260200161271061ffff168152602001612af861ffff168152602001613a9861ffff16815260200161465061ffff168152602001614e2061ffff16815250905060006040518060a00160405280606460ff168152602001606060ff168152602001601060ff168152602001600560ff168152602001600160ff16815250905060025483101561029e57600080600190505b600681101561029b578484836006811061021b5761021a610492565b5b602002015161ffff161115801561024c57508381600681106102405761023f610492565b5b602002015161ffff1685105b1561027a5782826005811061026457610263610492565b5b602002015160ff16856102779190610328565b94505b8180610285906103eb565b9250508080610293906103eb565b9150506101fe565b50505b50505050565b60006020528060005260406000206000915090505481565b6000813590506102cb816104c6565b92915050565b6000602082840312156102e7576102e66104c1565b5b60006102f5848285016102bc565b91505092915050565b610307816103e1565b82525050565b600060208201905061032260008301846102fe565b92915050565b6000610333826103e1565b915061033e836103e1565b9250827fffffffffffffffffffffffffffffffffffffffffffffffffffffffffffffffff0382111561037357610372610434565b5b828201905092915050565b6000610389826103e1565b9150610394836103e1565b9250826103a4576103a3610463565b5b828204905092915050565b60006103ba826103c1565b9050919050565b600073ffffffffffffffffffffffffffffffffffffffff82169050919050565b6000819050919050565b60006103f6826103e1565b91507fffffffffffffffffffffffffffffffffffffffffffffffffffffffffffffffff82141561042957610428610434565b5b600182019050919050565b7f4e487b7100000000000000000000000000000000000000000000000000000000600052601160045260246000fd5b7f4e487b7100000000000000000000000000000000000000000000000000000000600052601260045260246000fd5b7f4e487b7100000000000000000000000000000000000000000000000000000000600052603260045260246000fd5b600080fd5b6104cf816103af565b81146104da57600080fd5b5056fea2646970667358221220e176ba9fa7bbbb837225c9f2c1215ee2715d3f03ed9f38c836ee718d18132af564736f6c63430008070033",
					"opcodes": "PUSH1 0x80 PUSH1 0x40 MSTORE PUSH2 0x2710 PUSH1 0x1 SSTORE PUSH2 0x4E20 PUSH1 0x2 SSTORE CALLVALUE DUP1 ISZERO PUSH2 0x1C JUMPI PUSH1 0x0 DUP1 REVERT JUMPDEST POP PUSH2 0x513 DUP1 PUSH2 0x2C PUSH1 0x0 CODECOPY PUSH1 0x0 RETURN INVALID PUSH1 0x80 PUSH1 0x40 MSTORE CALLVALUE DUP1 ISZERO PUSH2 0x10 JUMPI PUSH1 0x0 DUP1 REVERT JUMPDEST POP PUSH1 0x4 CALLDATASIZE LT PUSH2 0x41 JUMPI PUSH1 0x0 CALLDATALOAD PUSH1 0xE0 SHR DUP1 PUSH4 0x57344E6F EQ PUSH2 0x46 JUMPI DUP1 PUSH4 0x904FBA8D EQ PUSH2 0x76 JUMPI DUP1 PUSH4 0xDE6E6D3E EQ PUSH2 0x92 JUMPI JUMPDEST PUSH1 0x0 DUP1 REVERT JUMPDEST PUSH2 0x60 PUSH1 0x4 DUP1 CALLDATASIZE SUB DUP2 ADD SWAP1 PUSH2 0x5B SWAP2 SWAP1 PUSH2 0x2D1 JUMP JUMPDEST PUSH2 0xC2 JUMP JUMPDEST PUSH1 0x40 MLOAD PUSH2 0x6D SWAP2 SWAP1 PUSH2 0x30D JUMP JUMPDEST PUSH1 0x40 MLOAD DUP1 SWAP2 SUB SWAP1 RETURN JUMPDEST PUSH2 0x90 PUSH1 0x4 DUP1 CALLDATASIZE SUB DUP2 ADD SWAP1 PUSH2 0x8B SWAP2 SWAP1 PUSH2 0x2D1 JUMP JUMPDEST PUSH2 0x116 JUMP JUMPDEST STOP JUMPDEST PUSH2 0xAC PUSH1 0x4 DUP1 CALLDATASIZE SUB DUP2 ADD SWAP1 PUSH2 0xA7 SWAP2 SWAP1 PUSH2 0x2D1 JUMP JUMPDEST PUSH2 0x2A4 JUMP JUMPDEST PUSH1 0x40 MLOAD PUSH2 0xB9 SWAP2 SWAP1 PUSH2 0x30D JUMP JUMPDEST PUSH1 0x40 MLOAD DUP1 SWAP2 SUB SWAP1 RETURN JUMPDEST PUSH1 0x0 PUSH1 0x64 PUSH1 0x0 DUP1 DUP5 PUSH20 0xFFFFFFFFFFFFFFFFFFFFFFFFFFFFFFFFFFFFFFFF AND PUSH20 0xFFFFFFFFFFFFFFFFFFFFFFFFFFFFFFFFFFFFFFFF AND DUP2 MSTORE PUSH1 0x20 ADD SWAP1 DUP2 MSTORE PUSH1 0x20 ADD PUSH1 0x0 KECCAK256 SLOAD PUSH2 0x10F SWAP2 SWAP1 PUSH2 0x37E JUMP JUMPDEST SWAP1 POP SWAP2 SWAP1 POP JUMP JUMPDEST PUSH1 0x0 DUP1 PUSH1 0x0 DUP4 PUSH20 0xFFFFFFFFFFFFFFFFFFFFFFFFFFFFFFFFFFFFFFFF AND PUSH20 0xFFFFFFFFFFFFFFFFFFFFFFFFFFFFFFFFFFFFFFFF AND DUP2 MSTORE PUSH1 0x20 ADD SWAP1 DUP2 MSTORE PUSH1 0x20 ADD PUSH1 0x0 KECCAK256 SLOAD SWAP1 POP PUSH1 0x0 PUSH1 0x40 MLOAD DUP1 PUSH1 0xC0 ADD PUSH1 0x40 MSTORE DUP1 PUSH1 0x0 PUSH2 0xFFFF AND DUP2 MSTORE PUSH1 0x20 ADD PUSH2 0x2710 PUSH2 0xFFFF AND DUP2 MSTORE PUSH1 0x20 ADD PUSH2 0x2AF8 PUSH2 0xFFFF AND DUP2 MSTORE PUSH1 0x20 ADD PUSH2 0x3A98 PUSH2 0xFFFF AND DUP2 MSTORE PUSH1 0x20 ADD PUSH2 0x4650 PUSH2 0xFFFF AND DUP2 MSTORE PUSH1 0x20 ADD PUSH2 0x4E20 PUSH2 0xFFFF AND DUP2 MSTORE POP SWAP1 POP PUSH1 0x0 PUSH1 0x40 MLOAD DUP1 PUSH1 0xA0 ADD PUSH1 0x40 MSTORE DUP1 PUSH1 0x64 PUSH1 0xFF AND DUP2 MSTORE PUSH1 0x20 ADD PUSH1 0x60 PUSH1 0xFF AND DUP2 MSTORE PUSH1 0x20 ADD PUSH1 0x10 PUSH1 0xFF AND DUP2 MSTORE PUSH1 0x20 ADD PUSH1 0x5 PUSH1 0xFF AND DUP2 MSTORE PUSH1 0x20 ADD PUSH1 0x1 PUSH1 0xFF AND DUP2 MSTORE POP SWAP1 POP PUSH1 0x2 SLOAD DUP4 LT ISZERO PUSH2 0x29E JUMPI PUSH1 0x0 DUP1 PUSH1 0x1 SWAP1 POP JUMPDEST PUSH1 0x6 DUP2 LT ISZERO PUSH2 0x29B JUMPI DUP5 DUP5 DUP4 PUSH1 0x6 DUP2 LT PUSH2 0x21B JUMPI PUSH2 0x21A PUSH2 0x492 JUMP JUMPDEST JUMPDEST PUSH1 0x20 MUL ADD MLOAD PUSH2 0xFFFF AND GT ISZERO DUP1 ISZERO PUSH2 0x24C JUMPI POP DUP4 DUP2 PUSH1 0x6 DUP2 LT PUSH2 0x240 JUMPI PUSH2 0x23F PUSH2 0x492 JUMP JUMPDEST JUMPDEST PUSH1 0x20 MUL ADD MLOAD PUSH2 0xFFFF AND DUP6 LT JUMPDEST ISZERO PUSH2 0x27A JUMPI DUP3 DUP3 PUSH1 0x5 DUP2 LT PUSH2 0x264 JUMPI PUSH2 0x263 PUSH2 0x492 JUMP JUMPDEST JUMPDEST PUSH1 0x20 MUL ADD MLOAD PUSH1 0xFF AND DUP6 PUSH2 0x277 SWAP2 SWAP1 PUSH2 0x328 JUMP JUMPDEST SWAP5 POP JUMPDEST DUP2 DUP1 PUSH2 0x285 SWAP1 PUSH2 0x3EB JUMP JUMPDEST SWAP3 POP POP DUP1 DUP1 PUSH2 0x293 SWAP1 PUSH2 0x3EB JUMP JUMPDEST SWAP2 POP POP PUSH2 0x1FE JUMP JUMPDEST POP POP JUMPDEST POP POP POP POP JUMP JUMPDEST PUSH1 0x0 PUSH1 0x20 MSTORE DUP1 PUSH1 0x0 MSTORE PUSH1 0x40 PUSH1 0x0 KECCAK256 PUSH1 0x0 SWAP2 POP SWAP1 POP SLOAD DUP2 JUMP JUMPDEST PUSH1 0x0 DUP2 CALLDATALOAD SWAP1 POP PUSH2 0x2CB DUP2 PUSH2 0x4C6 JUMP JUMPDEST SWAP3 SWAP2 POP POP JUMP JUMPDEST PUSH1 0x0 PUSH1 0x20 DUP3 DUP5 SUB SLT ISZERO PUSH2 0x2E7 JUMPI PUSH2 0x2E6 PUSH2 0x4C1 JUMP JUMPDEST JUMPDEST PUSH1 0x0 PUSH2 0x2F5 DUP5 DUP3 DUP6 ADD PUSH2 0x2BC JUMP JUMPDEST SWAP2 POP POP SWAP3 SWAP2 POP POP JUMP JUMPDEST PUSH2 0x307 DUP2 PUSH2 0x3E1 JUMP JUMPDEST DUP3 MSTORE POP POP JUMP JUMPDEST PUSH1 0x0 PUSH1 0x20 DUP3 ADD SWAP1 POP PUSH2 0x322 PUSH1 0x0 DUP4 ADD DUP5 PUSH2 0x2FE JUMP JUMPDEST SWAP3 SWAP2 POP POP JUMP JUMPDEST PUSH1 0x0 PUSH2 0x333 DUP3 PUSH2 0x3E1 JUMP JUMPDEST SWAP2 POP PUSH2 0x33E DUP4 PUSH2 0x3E1 JUMP JUMPDEST SWAP3 POP DUP3 PUSH32 0xFFFFFFFFFFFFFFFFFFFFFFFFFFFFFFFFFFFFFFFFFFFFFFFFFFFFFFFFFFFFFFFF SUB DUP3 GT ISZERO PUSH2 0x373 JUMPI PUSH2 0x372 PUSH2 0x434 JUMP JUMPDEST JUMPDEST DUP3 DUP3 ADD SWAP1 POP SWAP3 SWAP2 POP POP JUMP JUMPDEST PUSH1 0x0 PUSH2 0x389 DUP3 PUSH2 0x3E1 JUMP JUMPDEST SWAP2 POP PUSH2 0x394 DUP4 PUSH2 0x3E1 JUMP JUMPDEST SWAP3 POP DUP3 PUSH2 0x3A4 JUMPI PUSH2 0x3A3 PUSH2 0x463 JUMP JUMPDEST JUMPDEST DUP3 DUP3 DIV SWAP1 POP SWAP3 SWAP2 POP POP JUMP JUMPDEST PUSH1 0x0 PUSH2 0x3BA DUP3 PUSH2 0x3C1 JUMP JUMPDEST SWAP1 POP SWAP2 SWAP1 POP JUMP JUMPDEST PUSH1 0x0 PUSH20 0xFFFFFFFFFFFFFFFFFFFFFFFFFFFFFFFFFFFFFFFF DUP3 AND SWAP1 POP SWAP2 SWAP1 POP JUMP JUMPDEST PUSH1 0x0 DUP2 SWAP1 POP SWAP2 SWAP1 POP JUMP JUMPDEST PUSH1 0x0 PUSH2 0x3F6 DUP3 PUSH2 0x3E1 JUMP JUMPDEST SWAP2 POP PUSH32 0xFFFFFFFFFFFFFFFFFFFFFFFFFFFFFFFFFFFFFFFFFFFFFFFFFFFFFFFFFFFFFFFF DUP3 EQ ISZERO PUSH2 0x429 JUMPI PUSH2 0x428 PUSH2 0x434 JUMP JUMPDEST JUMPDEST PUSH1 0x1 DUP3 ADD SWAP1 POP SWAP2 SWAP1 POP JUMP JUMPDEST PUSH32 0x4E487B7100000000000000000000000000000000000000000000000000000000 PUSH1 0x0 MSTORE PUSH1 0x11 PUSH1 0x4 MSTORE PUSH1 0x24 PUSH1 0x0 REVERT JUMPDEST PUSH32 0x4E487B7100000000000000000000000000000000000000000000000000000000 PUSH1 0x0 MSTORE PUSH1 0x12 PUSH1 0x4 MSTORE PUSH1 0x24 PUSH1 0x0 REVERT JUMPDEST PUSH32 0x4E487B7100000000000000000000000000000000000000000000000000000000 PUSH1 0x0 MSTORE PUSH1 0x32 PUSH1 0x4 MSTORE PUSH1 0x24 PUSH1 0x0 REVERT JUMPDEST PUSH1 0x0 DUP1 REVERT JUMPDEST PUSH2 0x4CF DUP2 PUSH2 0x3AF JUMP JUMPDEST DUP2 EQ PUSH2 0x4DA JUMPI PUSH1 0x0 DUP1 REVERT JUMPDEST POP JUMP INVALID LOG2 PUSH5 0x6970667358 0x22 SLT KECCAK256 0xE1 PUSH23 0xBA9FA7BBBB837225C9F2C1215EE2715D3F03ED9F38C836 0xEE PUSH18 0x8D18132AF564736F6C634300080700330000 "
				},
				"gasEstimates": {
					"creation": {
						"codeDepositCost": "259800",
						"executionCost": "44512",
						"totalCost": "304312"
					},
					"external": {
						"getCredit(address)": "infinite",
						"incCredit(address)": "infinite",
						"user2credit(address)": "2836"
					}
				},
				"methodIdentifiers": {
					"getCredit(address)": "57344e6f",
					"incCredit(address)": "904fba8d",
					"user2credit(address)": "de6e6d3e"
				}
			},
			"storageLayout": {
				"storage": [
					{
						"astId": 5,
						"contract": ".deps/contracts/creditOp.sol:creditOp",
						"label": "user2credit",
						"offset": 0,
						"slot": "0",
						"type": "t_mapping(t_address,t_uint256)"
					},
					{
						"astId": 8,
						"contract": ".deps/contracts/creditOp.sol:creditOp",
						"label": "initCredit",
						"offset": 0,
						"slot": "1",
						"type": "t_uint256"
					},
					{
						"astId": 11,
						"contract": ".deps/contracts/creditOp.sol:creditOp",
						"label": "upperLimitCredit",
						"offset": 0,
						"slot": "2",
						"type": "t_uint256"
					}
				],
				"types": {
					"t_address": {
						"encoding": "inplace",
						"label": "address",
						"numberOfBytes": "20"
					},
					"t_mapping(t_address,t_uint256)": {
						"encoding": "mapping",
						"key": "t_address",
						"label": "mapping(address => uint256)",
						"numberOfBytes": "32",
						"value": "t_uint256"
					},
					"t_uint256": {
						"encoding": "inplace",
						"label": "uint256",
						"numberOfBytes": "32"
					}
				}
			},
			"userdoc": {
				"kind": "user",
				"methods": {},
				"version": 1
			}
		}
	}
}